:100000000C94B0040C94D8040C94D8040C94110BE8
:100010000C94E60A0C94B70A0C94D8040C94D804F7
:100020000C94D8040C94D8040C94D8040C94D804E0
:100030000C94D8040C94D8040C94D8040C94D804D0
:100040000C94F7080C94D8040C940F070C94E90650
:100050000C94D8040C94D8040C94D8040C94D804B0
:100060000C94520E0C94D804084AD73B3BCE016E38
:1000700084BCBFFDC12F3D6C74319ABD56833DDAFF
:100080003D00C77F11BED9E4BB4C3E916BAAAABE0E
:10009000000000803F0001B202FFFF01900409232D
:1000A000A135016A0206000160080000000000009E
:1000B00000000060044000000001620200000060D7
:1000C0000400400000037B034CCD6C03AB033656A9
:1000D0007600680402CB47A202180400058BC10118
:1000E0000C0400000000037F060CC92C97979703AF
:1000F0008903264666006C022000024004000000CE
:100100000002440400000000024804000000000255
:100110004C040000000002500400000000025404DF
:100120000000000002580400000000025C0400000F
:10013000000002BC040000000001EC0400004000CC
:10014000037F060CC92C9797970402030D355D04B5
:100150000904872D353D00A301000000000107863A
:1001600001FE074105F120283038077E013007469F
:10017000019A074704F1283038076C04F128303819
:100180000216020002FB00003E000B0036000100D8
:10019000020003000000650054FFEF0000FA800039
:1001A0000B128200010002000000000000000000AD
:1001B000000000000000280000FFFF4581FFFFFA5B
:1001C0007200000000000003E80000000100017F51
:1001D000FFFFFE8001001B00000000000000000087
:1001E0000000000000003E03304000000002CAE3AF
:1001F000093E8000002000000000000000400000D8
:10020000006000000041FF000000000B2A00001603
:100210005500002182FD872650FD800000001F0050
:100220000000058000000000000001000000020046
:100230000000030000400000000000046F000265A1
:100240003200005EC040000000000000000000001E
:100250000000000000FB8C6F5DFD5D08D9007C7321
:100260003B006C12CC3200139D3200D0D632000815
:1002700000400001F4FFE68079020000000000D099
:10028000D600002710FB0000004000000000000026
:10029000000000000000000001000000000000015C
:1002A00000010000000000FA36FFBC308E0005FBA4
:1002B000F0FFD95BC8FFD09ABE000010A9FFF41E62
:1002C000B200CEBBF70000000100000004000200F5
:1002D000020200000CFFC280000001800000CF80FD
:1002E00000400000000000000100000000000006C7
:1002F00000000000140000000000000000000000EA
:1003000000000000000000000000000000000000ED
:1003100000000000000000000000000000000000DD
:10032000000000000000000000033F68B679352897
:10033000BCC67ED16C80000000400000000000B20E
:100340006A00000000000000000000000000003F04
:10035000F00000003000000000000000000000007D
:10036000000000000000000000000000000000008D
:1003700000000000000000254D002F706D000005FA
:10038000AE000C02D00000000000650054FFEF003A
:100390000000000000000001000044000000000C0C
:1003A0000000000100000000000065000000540093
:1003B00000FFEF000000000000000000000000004F
:1003C00000000000004000000000000000000000ED
:1003D00000000000004000000000000000000000DD
:1003E000000000000000000001000000020000000A
:1003F00000000000000000000000000000000000FD
:1004000000000000000000000000000000000000EC
:100410000000000000001B000000000000000000C1
:1004200000000000000000000000000000000000CC
:1004300000000000000000000000000000000000BC
:100440000040000000001B00000000000000000051
:10045000000000000000000000000000000000009C
:10046000000000000000000000000000000000008C
:10047000000000000000000000000000000000007C
:100480000000000000D8DCBAA2F1DEB2B8B4A88146
:1004900091F74A907F916AF3F9DBA8F9B0BAA0808E
:1004A000F2CE81F3C2F1C1F2C3F3CCA2B280F1C6A5
:1004B000D880BAA7DFDFDFF2A7C3CBC5B6F087A22B
:1004C000942448703C95406834589B78A2F18392FC
:1004D0002D557DD8B1B4B8A1D09180F270F370F2EF
:1004E0007C80A8F101B09887D943D886C988BAA181
:1004F000F20EB89780F1A9DFDFDFAADFDFDFF2AA13
:10050000C5CDC7A90CC92C97979797F1A9892646FD
:1005100066B0B4BA80ACDEF2CAF1B28C02A9B69869
:1005200000890E161EB8A9B4992C547CB08AA896DE
:10053000365676F1B9AFB4B083C0B8A89711B18F71
:1005400098B9AFF0240844106418F1A329557DAF81
:1005500083B593AFF0002850F1A3869F61A6DADE41
:10056000DFD9FAA38696DB31A6D9F8DFBAA68FC207
:10057000C5C7B28CC1B8A2DFDFDFA3DFDFDFD8D809
:10058000F1B8A8B286B4980D355DB8AA98B0872D99
:10059000353DB2B6BAAF8C96198F9FA70E161EB412
:1005A0009AB8AA872C547CB9A3DEDFDFA3B180F20E
:1005B000C4CDC9F1B8A9B499830D355D89B9A32D0E
:1005C000557DB593A30E161EA92C547CB8B4B0F17A
:1005D0009783A81184A50998A383F0DA240844100E
:1005E0006418D8F1A529557DA58595021A2E3A568D
:1005F0005A4048F9F3A3D9F8F098832408441064CA
:10060000189782A8F111F098A2240844106418DA0F
:10061000F3DED883A59401D9A302F1A2C3C5C7D83C
:10062000F18492A24DDA2AD84869D92AD86855DAD5
:1006300032D85071D932D8705DDA3AD85879D93A6F
:10064000D87893A34DDA2AD84869D92AD86855DAD8
:1006500032D85071D932D8705DDA3AD85879D93A4F
:10066000D878A88A9AF02850789EF38818F19F1DB0
:1006700098A8D908D8C89F129EF315A8DA1210D8E6
:10068000F1AFC8978734B5B994A421F3D922D8F231
:100690002DF3D92AD8F235F3D932D881A46060611C
:1006A000D961D86C6869D969D8747071D971D8B1B9
:1006B000A384193D5DA3831A3E5E9310308110110F
:1006C000B8B0AF8F94F2DA3ED8B49AA88729DAF896
:1006D000D8879A35DAF8D8879A3DDAF8D8B1B9A42C
:1006E0009885022E56A581000C14A397B08AF12D8F
:1006F000D928D84DD948D86DD968D8B1840DDA0E2B
:10070000D8A32983DA2C0ED8A3844983DA2C4C0E83
:10071000D8B8B0A88A9AF520AADADFD8A840AAD01B
:10072000DADED8A860AADAD0DFD8F19786A8319BA4
:10073000069907AB9728889BF00C201440B8B0B4FA
:10074000A88C9CF0042851791D301438B282ABD0AB
:10075000982C505078789BF11AB0F08A9CA82951B7
:10076000798B2951798A2470598B2058718A446970
:10077000388B3940688A6448318B304960A58820BD
:100780000971584468113964493019F1AC002C548E
:100790007CF08CA804285078F1889726A85998AC4A
:1007A0008C02264666F0899CA82951792470594408
:1007B0006938644831A98809205970AB11384069FB
:1007C000A8193148608CA83C415C207C00F18798D6
:1007D0001986A86E767EA999882D557D9EB9A38A23
:1007E000228A6E8A568A5E9FB183062646660E2E40
:1007F0004E6E9DB8AD002C547CF2B18CB499B9A367
:100800002D557D8191AC38AD3AB58391AC2DD92869
:10081000D84DD948D86DD968D88C9DAE29D904AEA9
:10082000D851D904AED879D904D881F39DAD008DC3
:10083000AE1981ADD901D8F2AEDA26D88E912983CE
:10084000A7D9ADADADADF32AD8D8F1B0AC89913E02
:100850005E76F3AC2E2EF1B18C5A9CAC2C28282855
:100860009CAC3018A8988128343C9724A728343CA5
:100870009C24F2B089AC912C4C6C8A9B2DD9D8D891
:1008800051D9D8D879D9D8D8F19E88A331DAD8D817
:10089000912DD928D84DD948D86DD968D8B183932E
:1008A000353D8025DAD8D88569DAD8D8B49381A3C4
:1008B00028343CF3AB8BF8A391B609B4D9ABDEFA7C
:1008C000B0879CB9A3DDF1A3A3A3A395F1A3A3A330
:1008D0009DF1A3A3A3A3F2A3B49080F2A3A3A3A327
:1008E000A3A3A3A3A3A3B2A3A3A3A3A3A3B087B5C6
:1008F00099F1A3A3A398F1A3A3A3A397A3A3A3A34D
:10090000F39BA3A3DCB9A7F1262626D8D8FF0000C5
:100910000000240027002A00000000002500280015
:100920002B00040404040404040402020202020270
:1009300003030303030301020408102040800102A3
:100940000408102001020408102000000008000222
:100950000100000304070000000000000000C51BA8
:1009600011241FBECFEFD8E0DEBFCDBF13E0A0E063
:10097000B1E0ECEAF4E402C005900D92A436B107B0
:10098000D9F725E0A4E6B3E001C01D92AF32B2076B
:10099000E1F714E0C0EBD4E004C02197FE010E940F
:1009A000641CCF3AD107C9F70E9449130C94542212
:1009B0000C940000FC01918D828D981761F0828D5E
:1009C000DF01A80FB11D5D968C91928D9F5F9F7383
:1009D000928F90E008958FEF9FEF0895FC01918D25
:1009E000828D981731F0828DE80FF11D858D90E092
:1009F00008958FEF9FEF0895FC01918D228D892F2F
:100A000090E0805C9F4F821B91098F739927089516
:100A10008EE294E00E94FC0421E0892B09F420E09E
:100A2000822F0895FC01848DDF01A80FB11DA35A08
:100A3000BF4F2C91848D90E001968F739927848FFE
:100A4000A689B7892C93A089B1898C9180648C93F5
:100A5000938D848D981306C00288F389E02D8081E0
:100A60008F7D80830895EF92FF920F931F93CF9312
:100A7000DF93EC0181E0888F9B8D8C8D981305C0EE
:100A8000E889F989808185FD24C0F62E0B8D10E060
:100A90000F5F1F4F0F731127E02E8C8DE8120CC0D3
:100AA0000FB607FCFACFE889F989808185FFF5CF79
:100AB000CE010E941205F1CF8B8DFE01E80FF11DD2
:100AC000E35AFF4FF0820B8FEA89FB8980818062B5
:100AD00007C0EE89FF896083E889F9898081806495
:100AE000808381E090E0DF91CF911F910F91FF9083
:100AF000EF900895CF93DF93EC01888D8823C9F0A0
:100B0000EA89FB89808185FD05C0A889B9898C9116
:100B100086FD0FC00FB607FCF5CF808185FFF2CFB1
:100B2000A889B9898C9185FFEDCFCE010E9412056D
:100B3000E7CFDF91CF91089580E090E0892B29F0F5
:100B40000E94080581110C94000008953FB7F894A5
:100B50008091DF039091E003A091E103B091E20363
:100B600026B5A89B05C02F3F19F00196A11DB11D08
:100B70003FBFBA2FA92F982F8827820F911DA11D43
:100B8000B11DBC01CD0142E0660F771F881F991F80
:100B90004A95D1F70895EF92FF921F93CF93DF9379
:100BA000EC011881162768837C0180E1E80EF11CB6
:100BB000112399F0CE15DF0581F010FF0BC089815C
:100BC0009A81009739F0DC01ED91FC910190F08160
:100BD000E02D099516952296EBCFDF91CF911F91CD
:100BE000FF90EF9008958091640390E02091650359
:100BF000821B9109089585ED8093BC008091BC0013
:100C000084FDFCCF10920904089540918F03262F94
:100C100030E0240F311D21323105DCF4209109042C
:100C20002430C9F4FC0180E090E0861758F430913C
:100C30008F032191DC01A359BC4FA30FB11D2C934D
:100C40000196F3CF80918F03680F60938F0380E04C
:100C5000089581E0089582E008950895E091650384
:100C600080916403E81730F4F0E0EC54FC4F80818D
:100C700090E008958FEF9FEF089590916503809124
:100C80006403981750F4E92FF0E0EC54FC4F2081F6
:100C900030E09F5F9093650302C02FEF3FEFC901E3
:100CA0000895CF92DF92EF92FF920F931F93CF930D
:100CB000DF937C01262F972F8A0180910A048823D5
:100CC00091F0C62FD72F6E01C40ED51ECC15DD05B1
:100CD00071F06991D701ED91FC910190F081E02DC7
:100CE000C7010995F3CF642F822F0E940506C80122
:100CF000DF91CF911F910F91FF90EF90DF90CF90F8
:100D00000895CF93DF931F92CDB7DEB7698320910B
:100D10000A042223D1F020912D04203240F021E05A
:100D200030E0FC013383228380E090E015C08091A5
:100D30000B04E82FF0E0E45FFB4F998190838F5F15
:100D400080930B0480932D0405C061E0CE010196D1
:100D50000E94050681E090E00F90DF91CF91089509
:100D60000E947D20CF92DF92EF92FF92DC01ED9105
:100D7000FC910190F081E02D099520E030E044E302
:100D800053E40E940D212BED3FE049E450E40E9422
:100D9000491D20E030E044EB53E40E94FC1D6B0150
:100DA0007C0120E030E0A9010E94A72087FF0AC053
:100DB00020E030E044EB53E4C701B6010E946B1C15
:100DC0006B017C01C701B601FF90EF90DF90CF90DF
:100DD00008951F920F920FB60F9211242F933F93F5
:100DE0004F935F936F937F938F939F93AF93BF9333
:100DF000EF93FF938EE294E00E941205FF91EF9132
:100E0000BF91AF919F918F917F916F915F914F9122
:100E10003F912F910F900FBE0F901F9018951F922A
:100E20000F920FB60F9211242F938F939F93EF93EE
:100E3000FF93E0913E04F0913F048081E0914404EF
:100E4000F091450482FD12C09081809147048F5F2C
:100E50008F7320914804821751F0E0914704F0E02D
:100E6000E25DFB4F958F8093470401C08081FF9125
:100E7000EF919F918F912F910F900FBE0F901F9028
:100E8000189590E0FC01E65BF64F3491FC01EA5CBA
:100E9000F64F2491FC01EE5DF64FE491EE2309F448
:100EA0003BC0332339F1333091F038F43130A9F0BD
:100EB000323001F584B58F7D12C0373091F0383073
:100EC000A1F03430B9F4809180008F7D03C080910F
:100ED00080008F77809380000DC084B58F7784BDAC
:100EE00009C08091B0008F7703C08091B0008F7DE2
:100EF0008093B000F0E0EE0FFF1FE85EF64FA59183
:100F0000B4918FB7F894EC91611103C020952E2312
:100F100001C02E2B2C938FBF08950F931F93CF9357
:100F2000DF93FC01858196810196968385832781D5
:100F300030858217930708F474C09281983028F0A6
:100F4000C1E09E3018F4C0E001C0C2E08F01D0E0E3
:100F5000CC0FDD1FFE01EC52FC4F208131812115A9
:100F6000310509F44EC0983038F09E3010F488EF07
:100F700001C082EF890F01C0892FE82FF0E041E026
:100F800050E060E070E004C0440F551F661F771FFB
:100F90008A95D2F7983038F09E3040F0963148F07C
:100FA000A0E0B0E008C0ADE6B0E005C0ABE6B0E060
:100FB00002C0ACE6B0E08C91409548234C93EE0F14
:100FC000FF1FE20FF31F12821182A9014F5E5F4FD4
:100FD000C9010196FC018417950731F002966081E2
:100FE0007181672BB9F30DC08BB31BBA8091680078
:100FF00010926800C9010E941B1FCC52DC4F19825D
:101000001882F801C381D48161E08A810E9441077E
:101010001C821B82C801DF91CF911F910F910C940C
:101020001B1FDF91CF911F910F910895CF93DF93F5
:1010300090E0FC01EA5CF64F2491FC01EE5DF64F76
:101040008491882361F190E0880F991FFC01E25F91
:10105000F64FC591D491FC01E85EF64FA591B4918D
:10106000611109C09FB7F8948881209582238883F5
:10107000EC912E230BC0623061F49FB7F894388155
:10108000822F809583238883EC912E2B2C939FBFF6
:1010900006C08FB7F894E8812E2B28838FBFDF918D
:1010A000CF9108951F93CF93DF93182FEB0161E049
:1010B0000E941608209711F460E004C0CF3FD105CC
:1010C00039F461E0812FDF91CF911F910C9441079A
:1010D000E12FF0E0E65BF64FE491E330F9F048F4FD
:1010E000E130B9F0E230A1F584B5806284BDC8BDBD
:1010F00034C0E730E9F0E83019F1E43049F5809187
:101100008000806280938000D0938B00C0938A001F
:1011100024C084B5806884BDC7BD1FC08091800095
:10112000806880938000D0938900C093880015C0A8
:101130008091B00080688093B000C093B3000DC070
:101140008091B00080628093B000C093B40005C06D
:10115000C038D1050CF0B5CFAFCFDF91CF911F9143
:1011600008958F929F92AF92BF92CF92DF92EF92AB
:10117000FF926B017C010E94A6054B015C01C1142A
:10118000D104E104F104F1F00E94A605DC01CB01D9
:1011900088199909AA09BB09883E9340A105B105A0
:1011A00070F321E0C21AD108E108F10888EE880E38
:1011B00083E0981EA11CB11CC114D104E104F10408
:1011C00019F7DDCFFF90EF90DF90CF90BF90AF90F9
:1011D0009F908F9008952FB7F8946091DB037091E2
:1011E000DC038091DD039091DE032FBF08951F92F1
:1011F0000F920FB60F9211242F933F938F939F93CB
:10120000AF93BF938091DB039091DC03A091DD034A
:10121000B091DE033091DA0323E0230F2D3720F461
:101220000196A11DB11D05C026E8230F0296A11D40
:10123000B11D2093DA038093DB039093DC03A0932A
:10124000DD03B093DE038091DF039091E003A09172
:10125000E103B091E2030196A11DB11D8093DF036C
:101260009093E003A093E103B093E203BF91AF91A9
:101270009F918F913F912F910F900FBE0F901F90D4
:1012800018950F931F93CF93DF938C01000F111FBD
:10129000C80102968115944060F4EB01C8010E94D8
:1012A000CB218883C80101960E94CB21898381E0EC
:1012B00001C080E0DF91CF911F910F9108954F926F
:1012C0005F926F927F928F929F92AF92BF92CF92D6
:1012D000DF92EF92FF920F931F93CF93DF935C0106
:1012E0004B018A0189E090E00E94861E7C01D501B5
:1012F00015968C91F701828324E231E031832083BB
:10130000B482A3821682158210870783883028F062
:10131000C1E08E3018F4C0E001C0C2E0CC2ED12C68
:10132000C601880F991F9C012C523C4F6901D901BD
:101330000D911C910115110539F581E190E00E9494
:10134000861E8C0181E1F80111928A95E9F7F80176
:10135000119280E1DF011D928A95E9F7F601118370
:10136000008381E090E0A0E0B0E004C0880F991F06
:10137000AA1FBB1FCA95D2F72BB3282B2BBB2091DA
:101380006800822B80936800D7011296CC91C830F8
:1013900038F0CE3010F488EF01C082EF8C0F01C01E
:1013A0008C2FC82ED12CCC0CDD1CF801EC0DFD1DB2
:1013B00021813281232B79F5412C512C3201439428
:1013C00004C0440C551C661C771C8A95D2F7C830A3
:1013D00038F0CE3040F0C63148F0E0E0F0E008C030
:1013E000EDE6F0E005C0EBE6F0E002C0ECE6F0E090
:1013F00080818429808360E08C2F0E94160861E040
:101400008C2F0E944107F8018081482A4082EC0D10
:10141000FD1DF282E182D50114969C928E92139763
:10142000B1E08B16910439F0E2E08E16910429F0B8
:10143000892821F41DC0D0E001C0D1E06D2FD50175
:101440008C910E94410760E0F5018281DF91CF918C
:101450001F910F91FF90EF90DF90CF90BF90AF90D2
:101460009F908F907F906F905F904F900C9441076A
:10147000DF91CF911F910F91FF90EF90DF90CF9070
:10148000BF90AF909F908F907F906F905F904F90A4
:101490000895EF92FF920F931F93CF93DF93EC0188
:1014A0008B017A01888199814A815B81DC011396E5
:1014B000ED91FC9114979F01220F331FE20FF31F50
:1014C000DA0113962D913C911497E20FF31FEE0F62
:1014D000FF1FE25FFE4F20813181232B39F064E64C
:1014E00070E080E090E00E94B108DCCFB3E0EB1642
:1014F000F10441F024E0E216F10491F552E0E52E0A
:10150000F12C03C0EE24E394F12CA801B7010E9452
:101510005F09A801B7018A819B810E945F09AA81A6
:10152000BB81E881F9810380F481E02DCF01880F30
:10153000991FE80FF91F13962D913C911497E20F14
:10154000F31FEE0FFF1FE25FFE4F80819181892B19
:1015500039F064E670E080E090E00E94B108DFCFEF
:10156000DF91CF911F910F91FF90EF9008951F92FF
:101570000F920FB60F9211242F933F934F935F93C7
:101580006F937F938F939F93AF93BF93EF93FF934B
:101590008091D4039091D503892B39F069B1809162
:1015A000D8039091D9030E94CB05FF91EF91BF9191
:1015B000AF919F918F917F916F915F914F913F91EB
:1015C0002F910F900FBE0F901F9018951F920F92A2
:1015D0000FB60F9211242F933F934F935F936F9306
:1015E0007F938F939F93AF93BF93EF93FF938091DC
:1015F000D6039091D703009719F066B10E94CB05EE
:10160000FF91EF91BF91AF919F918F917F916F91DA
:101610005F914F913F912F910F900FBE0F901F90B0
:1016200018951F920F920FB60F9211242F933F938C
:101630004F935F936F937F938F939F93AF93BF93DA
:10164000EF93FF938091D4039091D503009719F005
:1016500063B10E94CB05FF91EF91BF91AF919F9134
:101660008F917F916F915F914F913F912F910F904B
:101670000FBE0F901F901895EF92FF920F931F933C
:10168000CF93DF9300D0CDB7DEB7142F91E09093C6
:101690000A0480932C0410920B0410922D0483E111
:1016A00095E029833A830E9481062981022FE22E48
:1016B0003A81F32E8E2D801B811740F4F701619142
:1016C0007F0183E195E00E948106F4CF0E940D1016
:1016D00091E0811190E0892F0F900F90DF91CF91D1
:1016E0001F910F91FF90EF900895CF93DF931F927A
:1016F000CDB7DEB749839E012F5F3F4F41E00E9487
:101700003C0B0F90DF91CF910895462F6EE6FC01C0
:1017100080810C94750B2F923F924F925F926F9243
:101720007F928F929F92AF92BF92CF92DF92EF9271
:10173000FF920F931F93CF93DF93CDB7DEB7279719
:101740000FB6F894DEBF0FBECDBFE82E6B834F837C
:1017500069010E94EB084B015C016E2C660CF12CB8
:101760001E82772473945F81452F50E05D834C8304
:101770001801412C512C4F81F41608F099C0709239
:101780000A04E0922C0410920B0410922D046B8139
:1017900083E195E00E9481060E940D1070920A0478
:1017A000E0922C0410920B0410922D0480910904F5
:1017B0008111FCCF2C813D812F1931092132310556
:1017C00014F020E230E0213208F020E270920904A7
:1017D000709208048FEF8093070410920604820F22
:1017E000809305047092E4038091E403862980933A
:1017F000E4038091E303813071F41092E30380915C
:10180000E4038093BB008091BC0083FDF8CF95EC8E
:101810009093BC0003C0E5EEE093BC008091090406
:101820008130E1F380910604821710F420910604C0
:10183000A5EEB3E0E4EBF3E08E2F44EB53E0841B22
:10184000821718F48D918193F7CF1092650320933E
:1018500064039091640380916503981719F1011551
:10186000110599F4A6012E81420F511D27FD5A95AD
:101870005A83498383E195E00E943D06E981FA811C
:1018800080832E812F5F2E83E4CF0E94EB08DC0142
:10189000CB0188199909AA09BB0982159305A405EA
:1018A000B50500F38F81813208F080E2F80E63CF36
:1018B000FE8001151105D9F00E94EB08DC01CB0177
:1018C00088199909AA09BB0920E030E0801791071F
:1018D000A207B30760F05F81252F30E08F2D0F2C1A
:1018E000000C990B8217930714F4FF24FA948F2DA0
:1018F00027960FB6F894DEBF0FBECDBFDF91CF9114
:101900001F910F91FF90EF90DF90CF90BF90AF901D
:101910009F908F907F906F905F904F903F902F900F
:1019200008950F931F939B0108EE13E064E7FC01F9
:1019300080810E948B0B1F910F9108950F931F932D
:10194000CF93DF93EC019C012F5F3F4F08EE13E034
:1019500042E062E788810E948B0B298130E0322FC0
:1019600022278A81A901482BCA01DF91CF911F91BB
:101970000F910895BF92CF92DF92EF92FF920F9353
:101980001F93CF93DF931F92CDB7DEB7F82EE62ECD
:10199000C42EB22ED02E08EE13E09E012F5F3F4FD3
:1019A00041E00E948B0B882321F1EC2DF0E0EB1934
:1019B000F109319621E030E002C0220F331FBA94C2
:1019C000E2F7215031090E2E01C0220F0A94EAF7E6
:1019D0008D2D01C0880FEA95EAF7422F4095998135
:1019E00049232823422B49836E2D8F2D0E94750B8E
:1019F00001C080E00F90DF91CF911F910F91FF9078
:101A0000EF90DF90CF90BF900895CF92DF92EF924A
:101A1000FF920F931F93CF93DF931F92CDB7DEB743
:101A2000F82EE62ED42EC22E08EE13E09E012F5F74
:101A30003F4F41E00E948B0B9981CC2041F041E067
:101A400050E001C0440FDA94EAF7492B09C021E0C5
:101A500030E0A90101C0440FDA94EAF74095492328
:101A600049836E2D8F2D0E94750B0F90DF91CF91C2
:101A70001F910F91FF90EF90DF90CF90089521E09C
:101A800042E06AE6FC0180810C94050D4F925F9262
:101A90006F927F928F929F92AF92BF92CF92DF927E
:101AA000EF92FF92CF93DF93CDB7DEB7C454D10945
:101AB0000FB6F894DEBF0FBECDBF2091680322237E
:101AC00009F4D7C07C01FC01828193810E949E0CA5
:101AD0008115944029F4F701828193810E943F0D82
:101AE000F701828193810E949E0C40916603509180
:101AF000670384179507A0F3BE016F5F7F4FF7015F
:101B0000828193810E94910C698170E0762F662713
:101B10008A81680F711D072E000C880B990B0E949B
:101B2000AE2020E030E040E858E30E940D216B0138
:101B30007C01698570E0762F66278A85680F711DA4
:101B4000072E000C880B990B0E94AE2020E030E09D
:101B500040E858E30E940D214B015C01A70196016A
:101B6000C701B6010E946B1C25966CAF7DAF8EAF8E
:101B70009FAF2597A5019401C501B4010E946B1C7C
:101B80002B013C01A701960125966CAD7DAD8EAD74
:101B90009FAD25970E940D216B017C01A501940149
:101BA000C301B2010E940D219B01AC01C701B60126
:101BB0000E946B1C20E030E040E85FE30E946A1C5A
:101BC0006B017C016D8170E0762F66278E81680F36
:101BD000711D072E000C880B990B0E94AE2020E08F
:101BE00030E040E858E30E940D219B01AC01C301A5
:101BF000B2010E940D212B013C016D8570E0762F12
:101C000066278E85680F711D072E000C880B990BB7
:101C10000E94AE2020E030E040E858E30E940D2111
:101C20009B01AC0125966CAD7DAD8EAD9FAD25972A
:101C30000E940D219B01AC01C301B2010E946A1CEC
:101C4000A7019601CC5BDF4F0FB6F894DEBF0FBE45
:101C5000CDBFDF91CF91FF90EF90DF90CF90BF90FD
:101C6000AF909F908F907F906F905F904F900C946B
:101C7000EA1C60E070E0CB01CC5BDF4F0FB6F8945C
:101C8000DEBF0FBECDBFDF91CF91FF90EF90DF9011
:101C9000CF90BF90AF909F908F907F906F905F900C
:101CA0004F9008951F920F920FB60F9211242F9309
:101CB0003F934F935F936F937F938F939F93AF93D4
:101CC000BF93EF93FF938091B900887F803609F42A
:101CD0009CC068F5883209F45BC090F4803109F447
:101CE00054C038F4882309F4F6C0883009F44DC094
:101CF000F6C0883109F44CC0803209F45DC0EFC0F1
:101D0000803409F468C048F4803309F455C088333E
:101D100009F0E5C080930704D8C0803509F44FC0AE
:101D2000883509F45DC0883409F0D9C0D6C0883937
:101D300009F4C7C0A8F4883709F467C038F48836B6
:101D400009F463C0803709F460C0C9C0883809F459
:101D5000B8C0803909F45FC0803809F0C0C05BC0EA
:101D6000803B09F486C038F4803A09F466C0883AAA
:101D700009F47FC0B4C0803C09F4A7C0883C09F4D2
:101D8000A4C0883B09F48AC0AAC08091E40310C0B3
:101D90009091060480910504981770F5E09106046F
:101DA00081E08E0F80930604F0E0EB51FC4F8081C0
:101DB0008093BB0085EC86C0809307048EC0E091C1
:101DC000060481E08E0F809306048091BB00F0E052
:101DD000EB51FC4F808390910604809105046EC006
:101DE000E091060481E08E0F809306048091BB0091
:101DF000F0E0EB51FC4F80838091080481116DC0AD
:101E000081E08093E30384EA61C083E08093090466
:101E10001092B303CFCF8091B303803208F051C04A
:101E2000E091B30381E08E0F8093B3038091BB00F8
:101E3000F0E0ED56FC4F8083BDCF85EC8093BC0075
:101E4000109209048091B303803230F4E091B3031F
:101E5000F0E0ED56FC4F10826091B30370E0E0912A
:101E60009103F091920383E993E009951092B303F3
:101E700036C084E0809309041092900310928F037F
:101E8000E0918D03F0918E03099580918F0381116C
:101E900005C081E080938F0310926D03E091900361
:101EA00081E08E0F80939003F0E0E359FC4F808136
:101EB0008093BB009091900380918F03981708F452
:101EC00079CF85E88093BC000AC085EC8093BC0084
:101ED0001092090404C0109207040E94FB05FF91B0
:101EE000EF91BF91AF919F918F917F916F915F9192
:101EF0004F913F912F910F900FBE0F901F9018950B
:101F0000CF92DF92EF92FF920F931F93CF93DF93C5
:101F10006C017A018B01C0E0D0E0CE15DF0589F0BD
:101F2000D8016D918D01D601ED91FC910190F08168
:101F3000E02DC6010995892B11F47E0102C021967E
:101F4000ECCFC701DF91CF911F910F91FF90EF90E0
:101F5000DF90CF9008950F931F930E94EB0860933A
:101F60003604709337048093380490933904E091D9
:101F70002E04F0912F040084F185E02D8EE294E090
:101F8000099597FF1FC00E94EB080091360410913D
:101F900037042091380430913904DC01CB01801BD7
:101FA000910BA20BB30B00913204109133042091DA
:101FB00034043091350480179107A207B307B8F2B3
:101FC0008FEF9FEF1F910F910895EEE2F4E0A0894B
:101FD000B18982E08C93A485B5851C92A685B785CE
:101FE0008FEC8C93108EA489B58986E08C93A2899E
:101FF000B3898C9180618C93A289B3898C9188601C
:102000008C93A289B3898C9180688C930288F38920
:10201000E02D80818F7D8083089520912D04909103
:102020002C04213208F04AC0809109048111FCCFB0
:1020300032E03093090431E0309308043FEF3093ED
:1020400007041092060420930504ACE0B4E045EECA
:1020500053E0FA013E2F341B321718F43D913193AF
:10206000F9CF1092E4032091E403990F922B9093FF
:10207000E4039091E303913061F41092E3039091B3
:10208000E4039093BB009091BC0093FDF8CF95ECD6
:1020900001C095EE9093BC00909109049230E1F359
:1020A000909107049F3F79F080910704803241F0BE
:1020B00080910704803331F084E005C081E003C0E3
:1020C00082E001C083E010920B0410922D04109264
:1020D0000A040895CF93DF93EA0191E090930A04F4
:1020E00080932C0410920B0410922D0483E195E050
:1020F0000E948106698183E195E00E9481066881E2
:1021000083E195E00E9481060E940D1091E081110B
:1021100090E0892FDF91CF9108952F923F924F92B7
:102120005F926F927F928F929F92AF92BF92CF9267
:10213000DF92EF92FF920F931F93CF93DF9300D024
:1021400000D0CDB7DEB79C838B837A8369835A0135
:10215000222EF02E422F4F716DE6DC018C910E94F1
:10216000750B602F8B819C810E94850B80E190E034
:102170000E94861E3C01EE2031F080E190E00E943A
:10218000861E482E392EC12CD12CCA14DB0408F02F
:1021900077C0C6014096A816B90618F45A2C5C18E8
:1021A00002C080E1582E852D90E020E031E02F190B
:1021B00031092817390714F45F2C5194E981FA8109
:1021C000EC0DFD1DEE2059F0942DA42DB32D8A2F7A
:1021D000891B851530F484918D933196F8CF4E2E5E
:1021E0003F2E242D332D452D6FE6EB81FC81808120
:1021F0000E943C0B852C912C6114710449F1422DF5
:102200004F716DE6AB81BC818C910E94750B6F2D77
:102210008B819C810E94850B08EE13E09301452D74
:102220006FE6EB81FC8180810E948B0BA401B301DE
:10223000842D932D0E948A20892B51F0C3010E9486
:102240001B1FEE2039F1842D932D0E941B1F22C0ED
:10225000C80CD91CF50CCA14DB0408F096CFF11099
:1022600001C02394422D4F716DE6AB81BC818C91EE
:102270000E94750B6F2D8B819C810E94850B85CFF1
:10228000C3010E941B1FEE2039F0842D932D0E9464
:102290001B1F02C080E001C081E00F900F900F90E3
:1022A0000F90DF91CF911F910F91FF90EF90DF90F2
:1022B000CF90BF90AF909F908F907F906F905F90E6
:1022C0004F903F902F900895EF92FF920F931F939E
:1022D000CF93DF931F92CDB7DEB77A0189019E01BC
:1022E0002F5F3F4F41E00E948B0B882339F02981FB
:1022F0002E7730E035952795F70120830F90DF91F9
:10230000CF911F910F91FF90EF9008950F931F931E
:102310000E94EB086093360470933704809338046E
:1023200090933904E0912E04F0912F040680F781F8
:10233000E02D8EE294E0099597FF1FC00E94EB0804
:1023400000913604109137042091380430913904FB
:10235000DC01CB01801B910BA20BB30B009132046B
:102360001091330420913404309135048017910783
:10237000A207B307B8F28FEF9FEF1F910F91089557
:10238000FF920F931F93CF93DF9300D000D0CDB770
:10239000DEB70E94AB0FFC0197FD11C08D32910595
:1023A00091F0C0970A9778F0E0912E04F0912F04F5
:1023B0000680F781E02D8EE294E00995EACF60E097
:1023C00070E0CB014CC020E030E0A901F12CE130FD
:1023D000F105F1F0ED32F105C9F0CF01C0970A9790
:1023E000B8F4AAE0B0E00E9403228F01FF0F220B95
:1023F000330BDC01CB01800F911FA21FB31F9C0187
:10240000AD01205331094109510902C0FF24F39461
:10241000E0912E04F0912F040680F781E02D8EE2EA
:1024200094E029833A834B835C8309950E94AB0F28
:10243000FC01C09729813A814B815C810A9738F26F
:10244000E130F10521F2FF2041F066277727CB012B
:10245000621B730B840B950B02C0CA01B9010F906C
:102460000F900F900F90DF91CF911F910F91FF90E0
:102470000895EF92FF920F931F93CF93DF938617E8
:10248000970729F1FC0124813581FB0144815581A5
:1024900024173507F1F4232BD1F0DC01CD91DC9129
:1024A000008111818991882391F0082E000C990BED
:1024B0000E9482207C01F80181918F01082E000C7E
:1024C000990B0E948220E816F90661F302C081E0B0
:1024D00001C080E0DF91CF911F910F91FF90EF90AD
:1024E00008950F931F93CF93DF93EC018881998117
:1024F000009729F02A813B812617370788F48B0142
:102500006F5F7F4F0E94B31F009761F099838883AC
:102510001B830A832C813D81232B11F4FC01108243
:1025200081E001C080E0DF91CF911F910F9108956C
:10253000EF92FF920F931F93CF93DF93EC011982D9
:1025400018821B821A821D821C826115710549F155
:102550008B01FB0101900020E9F731977F01E61A1A
:10256000F70AB7010E9471122881398181110DC0CB
:102570002115310519F0C9010E941B1F198218820B
:102580001D821C821B821A820CC0FD82EC82B80163
:10259000C901DF91CF911F910F91FF90EF900C94A3
:1025A000A020DF91CF911F910F91FF90EF900895A0
:1025B0006115710579F0FB0101900020E9F7319771
:1025C000AF01461B570BDC01ED91FC910280F381BA
:1025D000E02D099480E090E00895CF93DF93BC0153
:1025E0008EE294E00E94D812EC016FE871E08EE276
:1025F00094E00E94D8128C0F9D1FDF91CF91089517
:102600004F925F926F927F92EF92FF920F931F9380
:10261000CF93DF93CDB7DEB7A1970FB6F894DEBFA7
:102620000FBECDBF7C01FA01CB0119A2223008F404
:102630002AE08E010F5D1F4F422E512C612C712C10
:10264000BF01A30192010E94E121F901CA010150D9
:1026500011096A3014F4605D01C0695CD8016C93A3
:10266000232B242B252B61F7B801C7010E94D81218
:10267000A1960FB6F894DEBF0FBECDBFDF91CF910C
:102680001F910F91FF90EF907F906F905F904F9010
:102690000895CF93DF93CDB7DEB7C35AD1090FB6F4
:1026A000F894DEBF0FBECDBF789484B5826084BD40
:1026B00084B5816084BD85B5826085BD85B5816046
:1026C00085BD80916E00816080936E0010928100C4
:1026D000809181008260809381008091810081607F
:1026E0008093810080918000816080938000809140
:1026F000B10084608093B1008091B00081608093CC
:10270000B00080917A00846080937A0080917A0092
:10271000826080937A0080917A00816080937A0051
:1027200080917A00806880937A001092C1001092A4
:102730000F051092100510921105109212051092BB
:10274000CD041092CE041092CF041092D00460ED0C
:1027500077E080E090E00E94B1088EE294E09093F0
:102760000E0580930D050E94E50F0E94EB08609313
:10277000CD047093CE048093CF049093D00460E88E
:1027800071E080910D0590910E050E94D8126AE0CB
:1027900070E080E090E00E94B10811E01093E10445
:1027A0000E94E50F82E991E00E94ED1264E670E07C
:1027B000809126050E94520861E0809127050E94C1
:1027C0004107109229051092280564E670E0809177
:1027D00020050E94520861E0809121050E94410776
:1027E000109223051092220584E090E00E94861E3C
:1027F0005C018AE091E0D5018D939C9383E190E0A8
:102800000E94861E28E6FC012083D50113969C9326
:102810008E931297109265031092640310920B042A
:1028200010922D0410920904109308041092E303EF
:1028300061E082E10E94410761E083E10E9441077B
:102840008091B9008E7F8093B9008091B9008D7F0F
:102850008093B90088E48093B80085E48093BC003D
:1028600088E18093B8008FEB91E00E94ED12F501B2
:10287000E280F38001E023E042E06BE6D7018C9137
:102880000E94BA0C00E022E044E06BE1F701808195
:102890000E94BA0C22E044E06CE1D7018C910E94C6
:1028A000BA0C20E046E06BE6F70180810E94050D3E
:1028B0008BED91E00E94ED12D50112960D911C91C5
:1028C0001397A8014F5F5F4F28EE33E065E7F801EB
:1028D00080810E946411D80111968C91843319F083
:1028E00086E691E002C088E491E00E94ED1289EF53
:1028F00091E00E94ED12F501C280D38021E047E013
:102900006BE6D6018C910E94050D6EE170E080E0CF
:1029100090E00E94B10820E046E06BE6F60180817D
:102920000E94050D40E76DE6D6018C910E94750B63
:1029300066E0C6010E94850B7601BFEFEB1AFB0A29
:1029400008EE13E0970141E06FE6F60180810E94F6
:102950008B0B40E06DE6D6018C910E94750B9E01B9
:102960002F5F3F4F41E060E0F60180810E948B0BBA
:1029700089818170D60111968C93119728EE33E0EE
:10298000A70160E08C910E946411F601318028EE6D
:1029900033E0A70161E080810E946411D6011196A5
:1029A0004C90119728EE33E0A70162E08C910E94D1
:1029B0006411F60121804FE765E280810E94750B6A
:1029C00020E045E06AE6D6018C910E94050D48E6BC
:1029D00065E2F60180810E94750B21E041E06AE624
:1029E000D6018C910E94050D64E170E080E090E0DA
:1029F0000E94B108EE24E39400E020E049E857E0AB
:102A000065E871E0C6010E948D10882309F402C3B5
:102A100088E090E00E94861E582E192FE12CF12CA0
:102A2000F701EB53FF4F2491F701EA53FF4F049155
:102A30003701B3E06B0E711CF701E953FF4FE491CE
:102A4000EE2391F18E2E912CE33088F0B401852D88
:102A5000912FCD55DF4F2883C35AD0400E94B31F1A
:102A6000582E192FCD55DF4F2881C35AD040A52DA0
:102A7000B12F80E090E08815990548F4F301E80F44
:102A8000F91FEB53FF4FE491ED930196F4CFE12C46
:102A9000A401652D712FC6010E948D107401E60CF2
:102AA000F71C811117C010C0E4E0EE0EF11CF30119
:102AB000EB53FF4FE491E13039F442E368E3D60190
:102AC0008C910E94750B06C0852D912F0E941B1FB3
:102AD00012E0A1C2B0ECEB16F10408F4A1CF852DF1
:102AE000912F0E941B1F03E023E042E06BE6F601FA
:102AF00080810E94BA0C42E168E3D6018C910E9469
:102B0000750B44E069E1F60180810E94750B01E0DC
:102B100023E045E06AE1D6018C910E94BA0C03E003
:102B200023E042E06AE1F60180810E94BA0C22E0D3
:102B300044E06BE1D6018C910E94BA0C43E060E75F
:102B4000F60180810E94750B40E061E7D6018C910F
:102B50000E94750B20E040E060E0F60180810E9459
:102B6000050D032D26E046E060E0D6018C910E9421
:102B7000BA0C042D26E046E061E0F60180810E9457
:102B8000BA0C022D26E046E062E0D6018C910E944C
:102B9000BA0C812C912CF401EA56FF4FE491A1E884
:102BA000B0E0AC0FBD1FA80DB11DEC9381E0880D06
:102BB000BFEF8B1A9B0AE3E0E81568F7CD57DF4FAC
:102BC0004881C358D04050E09A012E5F3F4F90E0BB
:102BD0002817390704F7E12CCE57DF4F0881C25878
:102BE000D040CF57DF4F2881C158D04061E870E016
:102BF0006C0F7D1F6D5F7F4FC6010E948D1080E0BE
:102C0000F401EA56FF4FE491A1E8B0E0AC0FBD1F1C
:102C1000A80FB11DEC938F5FFFEF8F1A9F0A8430CE
:102C200078F3CD57DF4F4881C358D04050E0BA0108
:102C30006E5F7F4F282F30E0621773070CF7E12C8F
:102C4000CE57DF4F0881C258D040CF57DF4F288181
:102C5000C158D04061E870E06C0F7D1F6D5F7F4F01
:102C6000C6010E948D10C6010E943F0DC6010E9440
:102C70009E0C482FBE016F5F7F4FC6010E94910CD2
:102C800042E06FE1D6018C910E94750B4CE961E244
:102C9000F60180810E94750B40E560E2D6018C91BF
:102CA0000E94750B40E062E2F60180810E94750B84
:102CB000C6010E943F0D21E046E06AE6D6018C91F4
:102CC0000E94050D21E047E06AE6F60180810E943E
:102CD000050D21E043E06AE6D6018C910E94050DC6
:102CE00080E0F401EA56FF4FE491A1E8B0E0AC0FB8
:102CF000BD1FA80FB11DEC938F5FBFEF8B1A9B0A0E
:102D0000843078F3CD57DF4F4881C358D04050E02E
:102D1000BA016E5F7F4F282F30E0621773070CF700
:102D2000E12CCE57DF4F0881C258D040CF57DF4F3C
:102D30002881C158D04061E870E06C0F7D1F6D5F45
:102D40007F4FC6010E948D1080E0F401EA56FF4FCC
:102D5000E491A1E8B0E0AC0FBD1FA80FB11DEC934A
:102D60008F5FEFEF8E1A9E0A843078F3CD57DF4FD6
:102D70004881C358D04050E0BA016E5F7F4F282F82
:102D800030E0621773070CF7E12CCE57DF4F088154
:102D9000C258D040CF57DF4F2881C158D04061E89A
:102DA00070E06C0F7D1F6D5F7F4FC6010E948D101C
:102DB00080E0F401EA56FF4FE491A1E8B0E0AC0FE7
:102DC000BD1FA80FB11DEC938F5FFFEF8F1A9F0AF5
:102DD000843078F3CD57DF4F4881C358D04050E05E
:102DE000BA016E5F7F4F282F30E0621773070CF730
:102DF000E12CCE57DF4F0881C258D040CF57DF4F6C
:102E00002881C158D04061E870E06C0F7D1F6D5F74
:102E10007F4FC6010E948D10C6010E949E0C833018
:102E20009105D0F3482FBE016F5F7F4FC6010E940E
:102E3000910CC6010E94B01B80E0F401EA56FF4FDE
:102E4000E491A1E8B0E0AC0FBD1FA80FB11DEC9359
:102E50008F5F2FEF821A920A843078F3CD57DF4FBD
:102E60003881C358D040CF55DF4F3883C15AD04046
:102E7000632E712CA3014E5F5F4F282F30E0421765
:102E80005307DCF6CE57DF4F3880C258D040CF57BB
:102E9000DF4F8881C158D040C156DF4F8883CF595A
:102EA000D040482F4F716DE6D6018C910E94750B72
:102EB000632DC6010E94850BE12CF12C11E8412EF7
:102EC000512C4C0E5D1EB3E04B0E511CE614F70462
:102ED00008F047C0C70140966816790638F4CF5508
:102EE000DF4F2880C15AD0402E1802C0B0E12B2EEF
:102EF000822D90E020E031E02319310928173907AD
:102F000014F4232C219492012E0D3F1D08EE13E0A2
:102F1000422D6FE6F60180810E948B0BE20CF11CC2
:102F2000320CE614F70490F631100BC0C156DF4F97
:102F3000F881CF59D040FF5FC156DF4FF883CF599A
:102F4000D040C156DF4F4881CF59D0404F716DE618
:102F5000D6018C910E94750B632DC6010E94850BD2
:102F6000B5CFC6010E949E0C83309105D0F3482F47
:102F7000BE016F5F7F4FC6010E94910CC6010E9487
:102F8000B01BF401EA56FF4F80E09491A1E8B0E055
:102F9000AC0FBD1FA80FB11D9C938F5F843010F440
:102FA0003196F3CFCD57DF4F4881C358D04050E022
:102FB000BA016E5F7F4F282F30E06217730784F7E6
:102FC00061E870E06C0F7D1F6D5F7F4FE12CCE5785
:102FD000DF4F0881C258D040CF57DF4F2881C158FA
:102FE000D040C6010E948D1020E047E06AE6F6015D
:102FF00080810E94050D8AE290E0D60113969C9391
:103000008E931297C6010E943F0DC6010E94B01B0D
:1030100010E001C011E0D5011296ED91FC911397DB
:1030200080812CED30E0C356DF4F39832883CD59A2
:10303000D040AE0143565F4F63E10E946A10D50154
:103040001296ED91FC91139780812CE430E0C556E7
:10305000DF4F39832883CB59D040AE0145565F4FAF
:1030600065E10E946A10D5011296ED91FC911397CB
:1030700080812BEA3FEFC756DF4F39832883C95938
:10308000D040AE0147565F4F67E10E946A10D501FC
:103090001296ED91FC91139780812CEF36E0C95682
:1030A000DF4F39832883C759D040AE0149565F4F5F
:1030B0006AE00E946A10111139C08DE092E00E940E
:1030C000ED12D5011296ED91FC91139721E047E0A6
:1030D0006AE680810E94050D8DE192E00E94ED126A
:1030E00081E080936803D5011296ED91FC911397CE
:1030F00082819381909367038093660367E472E013
:103100008EE294E00E94D8124091660350916703CA
:1031100060E070E02AE08EE294E00E9400136FE825
:1031200071E08EE294E00E94D81213C065E572E06F
:103130008EE294E00E94D812412F50E060E070E0EF
:103140002AE08EE294E00E94001386E792E00E945B
:10315000ED12B0926A03A092690386E090E00E94AB
:10316000861EFC0185E295E0918380838FE195E0E6
:1031700093838283B582A482F0936C03E0936B0304
:1031800088E792E00E94ED12A8E62A2E33243394B9
:1031900068EE73E080E090E00E94B1088EE294E077
:1031A0000E94FC04892B09F4D8C261E971E0CE01C8
:1031B0008F579F4F0E9498120E94861197FD2CC036
:1031C00089831A82CB57DF4F08811981C558D040B7
:1031D0000F5F1F4FB801CE018F579F4F0E94711292
:1031E000882351F3CF57DF4F28813981C158D04010
:1031F000CB57DF4F88819981C558D040BE016F5FA2
:103200007F4F820F931F0E94A020CB57DF4F19835F
:103210000883C558D040D0CF69E872E0CE0101964E
:103220000E949812BE016F5F7F4FCE018F579F4F54
:103230000E943912182F89819A810E941B1F112325
:1032400009F4C0C0C0906B03D0906C038FE892E08B
:103250000E94ED1200E010E0C8010E94CB218823FB
:1032600021F060E0C8010E94D3210F5F1F4F0115BC
:10327000B4E01B0789F7F5E0EF2EF12CF60184810D
:103280009581DC01ED91FC910280F381E02D09959F
:103290004B015C0144E050E0B701C6010E94490ABD
:1032A00068EE73E080E090E00E94B108F60184814E
:1032B0009581DC01ED91FC910280F381E02D09956F
:1032C000A50194010E946A1C0E94BB1D8B0177FF1F
:1032D00002C008591E4FCB56DF4FF982E882C5590C
:1032E000D0403801660C771C5301B2E0AB0EB11C24
:1032F000A114E4E0BE0608F162EA72E08EE294E016
:103300000E94D8124801012E000CAA08BB0817FF22
:1033100034C0E0912E04F0912F040190F081E02D53
:103320006DE28EE294E0099544275527BA014819C9
:1033300059096A097B092AE023C09E012B563F4F99
:103340004901D4016D914D01C301CD55DF4F688313
:10335000C35AD0400E94CB21CD55DF4F6881C35A5C
:10336000D040681719F0C3010E94D321BFEF6B1A38
:103370007B0A6A147B0429F7BFCF2AE0B501A401B8
:103380008EE294E00E94001363EB72E08EE294E020
:103390000E94D812A70160E070E02AE08EE294E07B
:1033A0000E9400136FE871E08EE294E00E94D81250
:1033B000E5E0EE0EF11C043B11050CF45FCF8FEB42
:1033C00092E0BDC163ED72E0CE0101960E949812B9
:1033D000BE016F5F7F4FCE018F579F4F0E94391202
:1033E000182F89819A810E941B1F112309F408C19B
:1033F00088ED92E00E94ED128EE294E00E94FC04BF
:10340000892B39F468EE73E080E090E00E94B10807
:10341000F3CF0E94C01120916B0330916C03CF5504
:10342000DF4F39832883C15AD040CB01B1010E94BC
:103430003C1C8C0197FF02C008591E4F043B11052C
:103440006CF0C101801B910B8C01A3E0B0E0C15670
:10345000DF4FB983A883CF59D04008C0E4E0F0E043
:10346000C156DF4FF983E883CF59D040CD56DF4FA7
:1034700019821882C359D040BE016D567F4FC801D2
:103480000E944109CD56DF4F88819981C359D040B0
:10349000892B09F077C0702ECF56DF4F1982188222
:1034A000C159D040F02EF3948F2C912CBE016F5651
:1034B0007F4FC4010E944109CF56DF4F8881998117
:1034C000C159D040892B79F31A8219827A94A72C9A
:1034D000B12CBE016F5F7F4FC5010E944109E98099
:1034E000FA80772061F0E114F10481F3CF56DF4FC9
:1034F00088819981C159D040E816F90638F7B7019B
:1035000080E090E00E94AC202B013C01CF56DF4FC1
:1035100068817981C159D0406E197F0980E090E0BF
:103520000E94AC206B017C01B8016A197B09072E4F
:10353000000C880B990B0E94AE209B01AC01C701C7
:10354000B6010E940D216B017C01B4016A197B094F
:10355000072E000C880B990B0E94AE209B01AC013A
:10356000C701B6010E94491D9B01AC01C301B20114
:103570000E946B1C0E94C21DCD56DF4F7983688369
:10358000C359D04067EE72E08EE294E00E94D812F8
:10359000CD56DF4F48815981C359D04060E070E07B
:1035A0002AE08EE294E00E94001367EF72E08EE260
:1035B00094E00E94D812C156DF4F28813981CF593B
:1035C000D0402430310519F086E093E002C08BE052
:1035D00093E00E94ED12CD56DF4F68817981C35987
:1035E000D040C156DF4F48815981CF59D040CF5587
:1035F000DF4F88819981C15AD0400E94490AA1C0F9
:1036000061E173E0CE0101960E949812BE016F5FE6
:103610007F4FCE018F579F4F0E943912182F8981FB
:103620009A810E941B1F112309F487C086E193E051
:103630000E94ED128EE294E00E94FC04892B39F482
:1036400068EE73E080E090E00E94B108F3CF0E9442
:10365000C0116B017C015B0100916B0310916C0345
:10366000D8018D919C91119712964D915C91139771
:10367000DC011396ED91FC9114979F01220F331FEB
:10368000E20FF31FDA0113962D913C911497E20F8C
:10369000F31FEE0FFF1FE25FFE4F20813181232BCE
:1036A00039F064E670E080E090E00E94B108D8CF85
:1036B000B7FE0FC0D194C194D108A60161E070E0BB
:1036C0000E945F09A60162E070E0F80182819381A7
:1036D0000DC0A60162E070E00E945F09A60161E0F2
:1036E00070E0D80112968D919C9113970E945F090A
:1036F000F8012281338180819181DC011396ED9163
:10370000FC911497CF01880F991FE80FF91FD90179
:1037100013968D919C911497E80FF91FEE0FFF1FE0
:10372000E25FFE4F80819181892B59F064E670E061
:1037300080E090E00E94B108DBCF86E293E00E9437
:10374000ED1288E792E00E94ED12CF57DF4F88819B
:103750009981C158D0400E941B1F0E949C0518CD22
:103760000F931F93CF93DF93EC019C012F5F3F4F8B
:1037700008EE13E041E06AE388810E948B0B8981A7
:10378000DF91CF911F910F910895CF93DF93EEE2D8
:10379000F4E01382128288EE93E0A0E0B0E084832C
:1037A0009583A683B7832CE231E03183208325EC17
:1037B00030E03587248724EC30E03787268720ECFB
:1037C00030E0318B208B21EC30E0338B228B22ECEC
:1037D00030E0358B248B26EC30E0378B268B118E36
:1037E000128E138E148EEBECF4E016821782108684
:1037F0001186128613861486158616861786108AF9
:10380000118A128A138A148A158AE3E1F5E0138279
:10381000128284839583A683B7838CE391E091839E
:103820008083C5E2D5E08CE0888383E0898389E0EA
:103830008A831C821B8261E08CE00E94160861E092
:1038400089E00E94160880E18D83CFE1D5E08DE00C
:1038500088838BE0898388E08A831C821B8261E0F5
:103860008DE00E94160861E088E00E94160881E160
:103870008D83DF91CF91089597FB072E16F4009466
:1038800007D077FD09D00E94501C07FC05D03EF4FC
:10389000909581959F4F0895709561957F4F0895FC
:1038A000AA1BBB1B51E107C0AA1FBB1FA617B70766
:1038B00010F0A61BB70B881F991F5A95A9F7809582
:1038C0009095BC01CD010895EE0FFF1F0590F49176
:1038D000E02D09945058BB27AA270E94821C0C9403
:1038E00091210E94832138F00E948A2120F039F42E
:1038F0009F3F19F426F40C9480210EF4E095E7FB29
:103900000C947A21E92F0E94A22158F3BA1762077A
:1039100073078407950720F079F4A6F50C94C42169
:103920000EF4E0950B2EBA2FA02D0B01B9019001DA
:103930000C01CA01A0011124FF27591B99F0593F1E
:1039400050F4503E68F11A16F040A22F232F342F66
:103950004427585FF3CF469537952795A795F040B4
:103960005395C9F77EF41F16BA0B620B730B840BC9
:10397000BAF09150A1F0FF0FBB1F661F771F881F81
:10398000C2F70EC0BA0F621F731F841F48F48795D9
:1039900077956795B795F7959E3F08F0B0CF9395CB
:1039A000880F08F09927EE0F9795879508950E9444
:1039B000832160F080E891E009F49EEF0E948A2163
:1039C00028F040E851E071F45EEF0CC00C948021C7
:1039D0000C94C421E92FE0780E94A22140F3092E23
:1039E000052AB1F3261737074807590738F00E2E76
:1039F00007F8E02569F0E025E0640AC0EF6307F806
:103A0000009407FADB01B9019D01DC01CA01AD0197
:103A1000EF930E94601D0E9491210E941A1D5F91E8
:103A2000552339F02BED3FE049E450FD49EC0C946F
:103A30006B1C0895DF93DD27B92FBF7740E85FE364
:103A40001616170648075B0718F4D92F0E947A1E2E
:103A50009F938F937F936F930E94821EE8E6F0E01E
:103A60000E94531E0E9491212F913F914F915F918F
:103A70000E942021DD2351F09058A2EA2AED3FE078
:103A800049EC5FE3D0785D270E94821CDF910C94A3
:103A900091210E945D1D0C9491210E948A2158F071
:103AA0000E94832140F029F45F3F29F00C947A2191
:103AB00051110C94C5210C9480210E94A22168F31D
:103AC0009923B1F3552391F3951B550BBB27AA27D7
:103AD00062177307840738F09F5F5F4F220F331F11
:103AE000441FAA1FA9F335D00E2E3AF0E0E832D0D9
:103AF00091505040E695001CCAF72BD0FE2F29D0DC
:103B0000660F771F881FBB1F261737074807AB07AD
:103B1000B0E809F0BB0B802DBF01FF2793585F4F22
:103B20003AF09E3F510578F00C947A210C94C5210F
:103B30005F3FE4F3983ED4F3869577956795B79504
:103B4000F7959F5FC9F7880F911D9695879597F90F
:103B50000895E1E0660F771F881FBB1F6217730788
:103B60008407BA0720F0621B730B840BBA0BEE1F9D
:103B700088F7E09508950E94C21D6894B1110C94D5
:103B8000C52108950E94AA2188F09F5798F0B92F67
:103B90009927B751B0F0E1F0660F771F881F991F82
:103BA0001AF0BA95C9F714C0B13091F00E94C4213F
:103BB000B1E008950C94C421672F782F8827B85F4F
:103BC00039F0B93FCCF3869577956795B395D9F7DA
:103BD0003EF490958095709561957F4F8F4F9F4FE4
:103BE00008950E94832120F019F00E948A2150F448
:103BF0000C9480210C94C521E92F0E94A22188F306
:103C00005523B1F3E7FB6217730784079507A8F103
:103C100089F3E92FFF2788232AF03197660F771F52
:103C2000881FDAF7952F5527442332F091505040E2
:103C3000220F331F441FD2F7BB27E91BF50B621B72
:103C4000730B840BB109B1F222F4620F731F841F4E
:103C5000B11D31972AF0660F771F881FBB1FEFCF6A
:103C60009150504062F041F0882332F0660F771F88
:103C7000881F91505040C1F793950C94451E86952E
:103C8000779567959F5FD9F7F7CF9F3F31F09150B8
:103C900020F4879577956795B795880F911D969530
:103CA000879597F90895DF93CF931F930F93FF9212
:103CB000EF92DF927B018C01689406C0DA2EEF014F
:103CC0000E942021FE01E894A5912591359145910E
:103CD0005591A6F3EF010E94821CFE019701A801F5
:103CE000DA9469F7DF90EF90FF900F911F91CF91D9
:103CF000DF9108959B01AC0160E070E080E89FE3F4
:103D00000C94491D9B01AC010C940D21CF93DF93C2
:103D10008230910510F482E090E0E0912D05F09161
:103D20002E0520E030E0C0E0D0E0309711F1408176
:103D3000518148175907C0F04817590761F482812B
:103D40009381209719F09B838A832BC090932E0533
:103D500080932D0526C02115310519F04217530710
:103D600018F49A01BE01DF01EF010280F381E02D1A
:103D7000DCCF2115310509F1281B390B2430310521
:103D800090F412968D919C9113976115710521F015
:103D9000FB019383828304C090932E0580932D05AD
:103DA000FD01329644C0FD01E20FF31F8193919310
:103DB000225031092D933C933AC020912B0530912C
:103DC0002C05232B41F42091020130910301309303
:103DD0002C0520932B052091000130910101211524
:103DE000310541F42DB73EB74091040150910501D2
:103DF000241B350BE0912B05F0912C05E217F307FE
:103E0000A0F42E1B3F0B2817390778F0AC014E5F4A
:103E10005F4F2417350748F04E0F5F1F50932C0556
:103E200040932B058193919302C0E0E0F0E0CF0135
:103E3000DF91CF9108950F931F93CF93DF93009756
:103E400009F48CC0FC0132971382128200912D0577
:103E500010912E050115110581F420813181820F09
:103E6000931F20912B0530912C052817390779F5E0
:103E7000F0932C05E0932B0571C0D80140E050E091
:103E8000AE17BF0750F412962D913C911397AD01D8
:103E90002115310509F1D901F3CF9D01DA013383F1
:103EA000228360817181860F971F8217930769F4BF
:103EB000EC0128813981260F371F2E5F3F4F318358
:103EC00020838A819B8193838283452B29F4F093FD
:103ED0002E05E0932D0542C01396FC93EE931297A6
:103EE000ED01499159919E01240F351FE217F30707
:103EF00071F480819181840F951F029611969C9395
:103F00008E938281938113969C938E931297E0E017
:103F1000F0E0D80112968D919C911397009719F0BB
:103F2000F8018C01F6CF8D919C9198012E5F3F4F47
:103F3000820F931F20912B0530912C0528173907EC
:103F400069F4309729F410922E0510922D0502C0C5
:103F50001382128210932C0500932B05DF91CF91D1
:103F60001F910F910895A0E0B0E0E9EBFFE10C9400
:103F70001222EC01009721F4CB010E94861EB8C0EA
:103F8000FC01E60FF71F9C0122503109E217F307ED
:103F900008F4ACC0D9010D911C91119706171707B1
:103FA000B0F00530110508F49FC0C80104978617CA
:103FB000970708F499C002501109061B170B0193CB
:103FC00011936D937C93CF010E941B1F8DC05B01E9
:103FD000A01AB10A4C01800E911EA0912D05B0913E
:103FE0002E0540E050E0E12CF12C109709F44AC076
:103FF000A815B905D1F56D907C901197630182E009
:10400000C80ED11CCA14DB0480F1A3014A195B0954
:104010006A0182E0C80ED11C1296BC9012971396CA
:10402000AC91B5E0CB16D10440F0B282A3835183AA
:104030004083D9016D937C930AC00E5F1F4FC3016B
:10404000800F911FF90191838083EB2DFA2FE114EA
:10405000F10431F0D7011396FC93EE93129744C00C
:10406000F0932E05E0932D053FC08D919C91119703
:104070004817590708F4AC017D0112960D90BC91C8
:10408000A02DB3CF80912B0590912C058815990513
:10409000E1F446175707C8F480910001909101019F
:1040A000009741F48DB79EB74091040150910501EE
:1040B000841B950BE817F907C8F4F0932C05E093DF
:1040C0002B05F901718360830FC0CB010E94861E0E
:1040D0007C01009759F0A801BE010E949720CE01F3
:1040E0000E941B1FC70104C0CE0102C080E090E007
:1040F000CDB7DEB7EEE00C942E2281E090E0F8948C
:104100000C9454229111089581548A5108F4805ED0
:10411000855A0895FB01DC0104C08D91019080193E
:1041200021F441505040C8F7881B990B0895FB01BA
:10413000DC0102C001900D9241505040D8F7089523
:10414000FB01DC0101900D920020E1F708950E942F
:10415000E92008F481E00895E89409C097FB3EF453
:1041600090958095709561957F4F8F4F9F4F9923C4
:10417000A9F0F92F96E9BB279395F6958795779542
:104180006795B795F111F8CFFAF4BB0F11F460FF02
:104190001BC06F5F7F4F8F4F9F4F16C0882311F05A
:1041A00096E911C0772321F09EE8872F762F05C06E
:1041B000662371F096E8862F70E060E02AF09A9509
:1041C000660F771F881FDAF7880F9695879597F9FE
:1041D0000895990F0008550FAA0BE0E8FEEF161698
:1041E0001706E807F907C0F012161306E407F507EB
:1041F00098F0621B730B840B950B39F40A2661F05F
:10420000232B242B252B21F408950A2609F4A14001
:10421000A6958FEF811D811D08950E9420210C9489
:1042200091210E94832138F00E948A2120F0952359
:1042300011F00C947A210C94802111240C94C52146
:104240000E94A22170F3959FC1F3950F50E0551F76
:10425000629FF001729FBB27F00DB11D639FAA27DB
:10426000F00DB11DAA1F649F6627B00DA11D661F2A
:10427000829F2227B00DA11D621F739FB00DA11D4B
:10428000621F839FA00D611D221F749F3327A00D05
:10429000611D231F849F600D211D822F762F6A2FA1
:1042A00011249F5750409AF0F1F088234AF0EE0F06
:1042B000FF1FBB1F661F771F881F91505040A9F733
:1042C0009E3F510580F00C947A210C94C5215F3FEC
:1042D000E4F3983ED4F3869577956795B795F7956F
:1042E000E7959F5FC1F7FE2B880F911D96958795E7
:1042F00097F9089597F99F6780E870E060E0089566
:104300009FEF80EC089500240A94161617061806ED
:104310000906089500240A941216130614060506C9
:104320000895092E0394000C11F4882352F0BB0F5A
:1043300040F4BF2B11F460FF04C06F5F7F4F8F4FBD
:104340009F4F089557FD9058440F551F59F05F3FF8
:1043500071F04795880F97FB991F61F09F3F79F0A7
:1043600087950895121613061406551FF2CF469529
:10437000F1DF08C0161617061806991FF1CF8695AB
:104380007105610508940895E894BB27662777278F
:10439000CB0197F90895F999FECF92BD81BDF89AA6
:1043A000992780B50895262FF999FECF1FBA92BD9F
:1043B00081BD20BD0FB6F894FA9AF99A0FBE019606
:1043C0000895A1E21A2EAA1BBB1BFD010DC0AA1F56
:1043D000BB1FEE1FFF1FA217B307E407F50720F06E
:1043E000A21BB30BE40BF50B661F771F881F991FE9
:1043F0001A9469F760957095809590959B01AC0132
:10440000BD01CF0108950E944522A59F900DB49F44
:10441000900DA49F800D911D112408952F923F921D
:104420004F925F926F927F928F929F92AF92BF92C4
:10443000CF92DF92EF92FF920F931F93CF93DF9370
:10444000CDB7DEB7CA1BDB0B0FB6F894DEBF0FBECD
:10445000CDBF09942A88398848885F846E847D841A
:104460008C849B84AA84B984C884DF80EE80FD801C
:104470000C811B81AA81B981CE0FD11D0FB6F89492
:10448000DEBF0FBECDBFED010895A29FB001B39F67
:10449000C001A39F700D811D1124911DB29F700D4D
:0C44A000811D1124911D0895F894FFCF98
:1044AC0000002F05800000000000460DB206000041
:1044BC0003000400030003000200040001000400D8
:1044CC00000000008D07E803000000003305800F9A
:1044DC00FC04DA04EE047A050000000081065106A3
:1044EC00F3053D062E062D064D5055363035302041
:1044FC00636F6E6E656374696F6E2073756363654D
:10450C00737366756C004D50553630353020636FC3
:10451C006E6E656374696F6E206661696C656400AC
:10452C00564D4450565F317C315F564D4450560DBC
:10453C000A002D2D2D2D2D2D2D2D2D2D2D2D2D2DEF
:10454C002D2D2D2D50524F4752414D205354415239
:10455C00542D2D2D2D2D2D2D2D2D2D2D2D2D004969
:10456C006E697469616C697A696E6720493243209F
:10457C00646576696365732E2E2E005465737469B9
:10458C006E672064657669636520636F6E6E656324
:10459C0074696F6E732E2E2E00496E697469616C8E
:1045AC00697A696E6720444D502E2E2E00456E613F
:1045BC00626C696E6720444D502E2E2E00444D5077
:1045CC00207265616479212057616974696E672076
:1045DC00666F7220666972737420696E746572728C
:1045EC007570742E2E2E007061636B657420736968
:1045FC007A653A2000444D5020496E697469616CAB
:10460C00697A6174696F6E206661696C65642028D3
:10461C00636F6465200029004177616974696E6776
:10462C0020636F6D6D616E64006C6561726E000A63
:10463C0053746172746564206C6561726E696E6727
:10464C002E004C6561726E656420646567726565E9
:10465C0073200020666F72207469636B7320000AEC
:10466C004C6561726E696E672066696E6973686508
:10467C00642E007475726E00476976652061206443
:10468C0065677265652E00436F6D70757465642087
:10469C007469636B73200020696E206469726563B2
:1046AC0074696F6E20004C4546540052494748547B
:1046BC00006D6F766500486F77206D616E792074A0
:1046CC0069636B733F00436F6D6D616E64206E6F39
:1046DC0074206D61746368656420636F72726563C6
:1046EC00746C792120436F6D6D616E64733A205B3D
:1046FC004C6561726E2C5475726E2C204D6F766504
:04470C005D0A000042
:107E0000112484B714BE81FFF0D085E080938100F7
:107E100082E08093C00088E18093C10086E0809377
:107E2000C20080E18093C4008EE0C9D0259A86E02C
:107E300020E33CEF91E0309385002093840096BBD3
:107E4000B09BFECF1D9AA8958150A9F7CC24DD24C4
:107E500088248394B5E0AB2EA1E19A2EF3E0BF2EE7
:107E6000A2D0813461F49FD0082FAFD0023811F036
:107E7000013811F484E001C083E08DD089C08234E0
:107E800011F484E103C0853419F485E0A6D080C0E4
:107E9000853579F488D0E82EFF2485D0082F10E0AE
:107EA000102F00270E291F29000F111F8ED06801E7
:107EB0006FC0863521F484E090D080E0DECF843638
:107EC00009F040C070D06FD0082F6DD080E0C81688
:107ED00080E7D80618F4F601B7BEE895C0E0D1E017
:107EE00062D089930C17E1F7F0E0CF16F0E7DF06D8
:107EF00018F0F601B7BEE89568D007B600FCFDCFD4
:107F0000A601A0E0B1E02C9130E011968C91119780
:107F100090E0982F8827822B932B1296FA010C0160
:107F200087BEE89511244E5F5F4FF1E0A038BF0790
:107F300051F7F601A7BEE89507B600FCFDCF97BE46
:107F4000E89526C08437B1F42ED02DD0F82E2BD052
:107F50003CD0F601EF2C8F010F5F1F4F84911BD097
:107F6000EA94F801C1F70894C11CD11CFA94CF0C13
:107F7000D11C0EC0853739F428D08EE10CD085E9AC
:107F80000AD08FE07ACF813511F488E018D01DD067
:107F900080E101D065CF982F8091C00085FFFCCF94
:107FA0009093C60008958091C00087FFFCCF809118
:107FB000C00084FD01C0A8958091C6000895E0E648
:107FC000F0E098E1908380830895EDDF803219F02E
:107FD00088E0F5DFFFCF84E1DECF1F93182FE3DFCA
:107FE0001150E9F7F2DF1F91089580E0E8DFEE27F6
:047FF000FF270994CA
:027FFE00040479
:0400000300007E007B
:00000001FF