:100000000C9427050C944F050C944F050C94A10FEC
:100010000C94A10F0C94A10F0C944F050C944F0558
:100020000C944F050C944F050C944F050C944F0500
:100030000C944F050C944F050C944F050C944F05F0
:100040000C9452090C944F050C9446080C9420080B
:100050000C944F050C944F050C944F050C944F05D0
:100060000C941B100C944F05084AD73B3BCE016EF5
:1000700084BCBFFDC12F3D6C74319ABD56833DDAFF
:100080003D00C77F11BED9E4BB4C3E916BAAAABE0E
:10009000000000803F0001B202FFFF01900409232D
:1000A000A135016A0206000160080000000000009E
:1000B00000000060044000000001620200000060D7
:1000C0000400400000037B034CCD6C03AB033656A9
:1000D0007600680402CB47A202180400058BC10118
:1000E0000C0400000000037F060CC92C97979703AF
:1000F0008903264666006C022000024004000000CE
:100100000002440400000000024804000000000255
:100110004C040000000002500400000000025404DF
:100120000000000002580400000000025C0400000F
:10013000000002BC040000000001EC0400004000CC
:10014000037F060CC92C9797970402030D355D04B5
:100150000904872D353D00A301000000000107863A
:1001600001FE074105F120283038077E013007469F
:10017000019A074704F1283038076C04F128303819
:100180000216020002FB00003E000B0036000100D8
:10019000020003000000650054FFEF0000FA800039
:1001A0000B128200010002000000000000000000AD
:1001B000000000000000280000FFFF4581FFFFFA5B
:1001C0007200000000000003E80000000100017F51
:1001D000FFFFFE8001001B00000000000000000087
:1001E0000000000000003E03304000000002CAE3AF
:1001F000093E8000002000000000000000400000D8
:10020000006000000041FF000000000B2A00001603
:100210005500002182FD872650FD800000001F0050
:100220000000058000000000000001000000020046
:100230000000030000400000000000046F000265A1
:100240003200005EC040000000000000000000001E
:100250000000000000FB8C6F5DFD5D08D9007C7321
:100260003B006C12CC3200139D3200D0D632000815
:1002700000400001F4FFE68079020000000000D099
:10028000D600002710FB0000004000000000000026
:10029000000000000000000001000000000000015C
:1002A00000010000000000FA36FFBC308E0005FBA4
:1002B000F0FFD95BC8FFD09ABE000010A9FFF41E62
:1002C000B200CEBBF70000000100000004000200F5
:1002D000020200000CFFC280000001800000CF80FD
:1002E00000400000000000000100000000000006C7
:1002F00000000000140000000000000000000000EA
:1003000000000000000000000000000000000000ED
:1003100000000000000000000000000000000000DD
:10032000000000000000000000033F68B679352897
:10033000BCC67ED16C80000000400000000000B20E
:100340006A00000000000000000000000000003F04
:10035000F00000003000000000000000000000007D
:10036000000000000000000000000000000000008D
:1003700000000000000000254D002F706D000005FA
:10038000AE000C02D00000000000650054FFEF003A
:100390000000000000000001000044000000000C0C
:1003A0000000000100000000000065000000540093
:1003B00000FFEF000000000000000000000000004F
:1003C00000000000004000000000000000000000ED
:1003D00000000000004000000000000000000000DD
:1003E000000000000000000001000000020000000A
:1003F00000000000000000000000000000000000FD
:1004000000000000000000000000000000000000EC
:100410000000000000001B000000000000000000C1
:1004200000000000000000000000000000000000CC
:1004300000000000000000000000000000000000BC
:100440000040000000001B00000000000000000051
:10045000000000000000000000000000000000009C
:10046000000000000000000000000000000000008C
:10047000000000000000000000000000000000007C
:100480000000000000D8DCBAA2F1DEB2B8B4A88146
:1004900091F74A907F916AF3F9DBA8F9B0BAA0808E
:1004A000F2CE81F3C2F1C1F2C3F3CCA2B280F1C6A5
:1004B000D880BAA7DFDFDFF2A7C3CBC5B6F087A22B
:1004C000942448703C95406834589B78A2F18392FC
:1004D0002D557DD8B1B4B8A1D09180F270F370F2EF
:1004E0007C80A8F101B09887D943D886C988BAA181
:1004F000F20EB89780F1A9DFDFDFAADFDFDFF2AA13
:10050000C5CDC7A90CC92C97979797F1A9892646FD
:1005100066B0B4BA80ACDEF2CAF1B28C02A9B69869
:1005200000890E161EB8A9B4992C547CB08AA896DE
:10053000365676F1B9AFB4B083C0B8A89711B18F71
:1005400098B9AFF0240844106418F1A329557DAF81
:1005500083B593AFF0002850F1A3869F61A6DADE41
:10056000DFD9FAA38696DB31A6D9F8DFBAA68FC207
:10057000C5C7B28CC1B8A2DFDFDFA3DFDFDFD8D809
:10058000F1B8A8B286B4980D355DB8AA98B0872D99
:10059000353DB2B6BAAF8C96198F9FA70E161EB412
:1005A0009AB8AA872C547CB9A3DEDFDFA3B180F20E
:1005B000C4CDC9F1B8A9B499830D355D89B9A32D0E
:1005C000557DB593A30E161EA92C547CB8B4B0F17A
:1005D0009783A81184A50998A383F0DA240844100E
:1005E0006418D8F1A529557DA58595021A2E3A568D
:1005F0005A4048F9F3A3D9F8F098832408441064CA
:10060000189782A8F111F098A2240844106418DA0F
:10061000F3DED883A59401D9A302F1A2C3C5C7D83C
:10062000F18492A24DDA2AD84869D92AD86855DAD5
:1006300032D85071D932D8705DDA3AD85879D93A6F
:10064000D87893A34DDA2AD84869D92AD86855DAD8
:1006500032D85071D932D8705DDA3AD85879D93A4F
:10066000D878A88A9AF02850789EF38818F19F1DB0
:1006700098A8D908D8C89F129EF315A8DA1210D8E6
:10068000F1AFC8978734B5B994A421F3D922D8F231
:100690002DF3D92AD8F235F3D932D881A46060611C
:1006A000D961D86C6869D969D8747071D971D8B1B9
:1006B000A384193D5DA3831A3E5E9310308110110F
:1006C000B8B0AF8F94F2DA3ED8B49AA88729DAF896
:1006D000D8879A35DAF8D8879A3DDAF8D8B1B9A42C
:1006E0009885022E56A581000C14A397B08AF12D8F
:1006F000D928D84DD948D86DD968D8B1840DDA0E2B
:10070000D8A32983DA2C0ED8A3844983DA2C4C0E83
:10071000D8B8B0A88A9AF520AADADFD8A840AAD01B
:10072000DADED8A860AADAD0DFD8F19786A8319BA4
:10073000069907AB9728889BF00C201440B8B0B4FA
:10074000A88C9CF0042851791D301438B282ABD0AB
:10075000982C505078789BF11AB0F08A9CA82951B7
:10076000798B2951798A2470598B2058718A446970
:10077000388B3940688A6448318B304960A58820BD
:100780000971584468113964493019F1AC002C548E
:100790007CF08CA804285078F1889726A85998AC4A
:1007A0008C02264666F0899CA82951792470594408
:1007B0006938644831A98809205970AB11384069FB
:1007C000A8193148608CA83C415C207C00F18798D6
:1007D0001986A86E767EA999882D557D9EB9A38A23
:1007E000228A6E8A568A5E9FB183062646660E2E40
:1007F0004E6E9DB8AD002C547CF2B18CB499B9A367
:100800002D557D8191AC38AD3AB58391AC2DD92869
:10081000D84DD948D86DD968D88C9DAE29D904AEA9
:10082000D851D904AED879D904D881F39DAD008DC3
:10083000AE1981ADD901D8F2AEDA26D88E912983CE
:10084000A7D9ADADADADF32AD8D8F1B0AC89913E02
:100850005E76F3AC2E2EF1B18C5A9CAC2C28282855
:100860009CAC3018A8988128343C9724A728343CA5
:100870009C24F2B089AC912C4C6C8A9B2DD9D8D891
:1008800051D9D8D879D9D8D8F19E88A331DAD8D817
:10089000912DD928D84DD948D86DD968D8B183932E
:1008A000353D8025DAD8D88569DAD8D8B49381A3C4
:1008B00028343CF3AB8BF8A391B609B4D9ABDEFA7C
:1008C000B0879CB9A3DDF1A3A3A3A395F1A3A3A330
:1008D0009DF1A3A3A3A3F2A3B49080F2A3A3A3A327
:1008E000A3A3A3A3A3A3B2A3A3A3A3A3A3B087B5C6
:1008F00099F1A3A3A398F1A3A3A3A397A3A3A3A34D
:10090000F39BA3A3DCB9A7F1262626D8D8FF29009C
:10091000444D5020496E697469616C697A617469EB
:100920006F6E206661696C65642028636F64652062
:1009300000444D50207265616479212057616974CB
:10094000696E6720666F7220666972737420696EC3
:10095000746572727570742E2E2E00456E61626C15
:10096000696E6720444D502E2E2E004D5055363066
:10097000353020636F6E6E656374696F6E206661DB
:10098000696C6564004D50553630353020636F6EAC
:100990006E656374696F6E207375636365737366E8
:1009A000756C00496E697469616C697A696E67205B
:1009B000444D502E2E2E0054657374696E6720646A
:1009C000657669636520636F6E6E656374696F6ECB
:1009D000732E2E2E00496E697469616C697A696E96
:1009E000672049324320646576696365732E2E2E35
:1009F0000000000000250028002B0000000000235C
:100A00000026002900040404040404040402020271
:100A1000020202030303030303010204081020403F
:100A200080010204081020010204081020000000C8
:100A300000240027002A0000000008000201000036
:100A4000030407000000000000000000F62211244B
:100A50001FBECFEFD8E0DEBFCDBF11E0A0E0B1E018
:100A6000E4E3F3E502C005900D92A03FB107D9F78A
:100A700024E0A0EFB1E001C01D92A831B207E1F778
:100A800015E0C7E2D5E004C02197FE010E94902343
:100A9000C632D107C9F70E9436150C9498290C94D8
:100AA0000000FC01918D828D981761F0828DDF012D
:100AB000A80FB11D5D968C91928D9F5F9F73928F51
:100AC00090E008958FEF9FEF0895FC01918D828D46
:100AD000981731F0828DE80FF11D858D90E0089513
:100AE0008FEF9FEF0895FC01918D228D892F90E06B
:100AF000805C9F4F821B91098F73992708958CEF1B
:100B000092E00E94730521E0892B09F420E0822FF6
:100B10000895FC01848DDF01A80FB11DA35ABF4FBA
:100B20002C91848D90E001968F739927848FA689EC
:100B3000B7892C93A089B1898C9180648C93938D13
:100B4000848D981306C00288F389E02D80818F7D03
:100B500080830895EF92FF920F931F93CF93DF93BB
:100B6000EC0181E0888F9B8D8C8D981305C0E889FE
:100B7000F989808185FD24C0F62E0B8D10E00F5F72
:100B80001F4F0F731127E02E8C8DE8120CC00FB68B
:100B900007FCFACFE889F989808185FFF5CFCE017E
:100BA0000E948905F1CF8B8DFE01E80FF11DE35AFC
:100BB000FF4FF0820B8FEA89FB898081806207C03A
:100BC000EE89FF896083E889F98980818064808368
:100BD00081E090E0DF91CF911F910F91FF90EF9016
:100BE0000895CF93DF93EC01888D8823C9F0EA89BB
:100BF000FB89808185FD05C0A889B9898C9186FD16
:100C00000FC00FB607FCF5CF808185FFF2CFA88912
:100C1000B9898C9185FFEDCFCE010E948905E7CF80
:100C2000DF91CF91089580E090E0892B29F00E9418
:100C30007F0581110C94000008953FB7F8948091CE
:100C4000AD029091AE02A091AF02B091B00226B574
:100C5000A89B05C02F3F19F00196A11DB11D3FBFF4
:100C6000BA2FA92F982F8827820F911DA11DB11D82
:100C7000BC01CD0142E0660F771F881F991F4A957E
:100C8000D1F70895FC01848191E098279483089519
:100C90008091F00190E02091F101821B910908956B
:100CA0002091F7013091F8012817390771F49091DC
:100CB000F5018091F601981741F0E091F501F0E01F
:100CC000E85BFD4F808190E008958FEF9FEF0895DE
:100CD00008951F93CF93DF93DC015C962D913C9197
:100CE0005D972115310539F481E090E013969C93CE
:100CF0008E9312973DC05196ED91FC91529750966C
:100D00009C915097892F80951FB75E964C915E9766
:100D100041FB772770F941FD6095F8944081772376
:100D200011F0492B01C048234083E9012197F1F7D5
:100D300048E0508160FF02C0592B01C05823508306
:100D4000E9012197F1F76695415099F7772321F052
:100D500090818923808303C08081982B90831FBF5B
:100D60005C968D919C915D970197F1F721E030E0C1
:100D7000C901DF91CF911F9108952091F701309122
:100D8000F8012817390771F48091F6012091F501D7
:100D900090E0805C9F4F821B910960E470E00E94AC
:100DA0006823089580E090E008952091F701309144
:100DB000F80128173907B9F49091F5018091F601EF
:100DC000981789F0E091F501F0E0E85BFD4F808134
:100DD0002091F50130E02F5F3F4F2F733327209391
:100DE000F50190E008958FEF9FEF089585ED8093D2
:100DF000BC008091BC0084FDFCCF1092D702089506
:100E000040912302262F30E0240F311D213231057D
:100E1000DCF42091D7022430C9F4FC0180E090E09A
:100E2000861758F4309123022191DC01AF5FBD4F4A
:100E3000A30FB11D2C930196F3CF80912302680F6D
:100E40006093230280E0089581E0089582E0089590
:100E50000895E091F1018091F001E81730F4F0E09D
:100E6000E857FD4F808190E008958FEF9FEF089540
:100E70009091F1018091F001981750F4E92FF0E082
:100E8000E857FD4F208130E09F5F9093F10102C051
:100E90002FEF3FEFC9010895CF92DF92EF92FF92BB
:100EA0000F931F93CF93DF937C01262F972F8A01F7
:100EB0008091D802882391F0C62FD72F6E01C40EDF
:100EC000D51ECC15DD0571F06991D701ED91FC912E
:100ED0000190F081E02DC7010995F3CF642F822F97
:100EE0000E940007C801DF91CF911F910F91FF90E1
:100EF000EF90DF90CF900895CF93DF931F92CDB7FF
:100F0000DEB769832091D8022223D1F02091FB0221
:100F1000203240F021E030E0FC013383228380E086
:100F200090E015C08091D902E82FF0E0E652FD4F25
:100F3000998190838F5F8093D9028093FB0205C0D3
:100F400061E0CE0101960E94000781E090E00F90E1
:100F5000DF91CF910895DC011C968D919C911D9796
:100F6000DC01ED91FC910190F081E02D0994DC0110
:100F70001C968D919C911D97DC01ED91FC91028452
:100F8000F385E02D0994DC011C968D919C911D97B1
:100F9000DC01ED91FC910084F185E02D0994DC01E8
:100FA0001C968D919C911D97DC01ED91FC91068022
:100FB000F781E02D0994DC011C968D919C911D9781
:100FC000DC01ED91FC910480F581E02D09940E94F3
:100FD0000028CF92DF92EF92FF92DC01ED91FC911D
:100FE0000190F081E02D099520E030E044E353E4E6
:100FF0000E9481282BED3FE049E450E40E947524D3
:1010000020E030E044EB53E40E9428256B017C0192
:1010100020E030E0A9010E941B2887FF0AC020E0E1
:1010200030E044EB53E4C701B6010E9497236B0103
:101030007C01C701B601FF90EF90DF90CF9008953B
:101040001F920F920FB60F9211242F933F934F933D
:101050005F936F937F938F939F93AF93BF93EF9320
:10106000FF938CEF92E00E948905FF91EF91BF9171
:10107000AF919F918F917F916F915F914F913F9130
:101080002F910F900FBE0F901F9018951F920F92E7
:101090000FB60F9211242F938F939F93EF93FF938B
:1010A000E0910C03F0910D038081E0911203F09127
:1010B000130382FD12C09081809115038F5F8F739F
:1010C00020911603821751F0E0911503F0E0E450EF
:1010D000FD4F958F8093150301C08081FF91EF91A3
:1010E0009F918F912F910F900FBE0F901F90189589
:1010F00090E0FC01E95CF54F3491FC01E75EF54FAF
:101100002491FC01EB5FF54FE491EE2309F43BC021
:10111000332339F1333091F038F43130A9F03230E3
:1011200001F584B58F7D12C0373091F03830A1F0D1
:101130003430B9F4809180008F7D03C080918000AD
:101140008F77809380000DC084B58F7784BD09C0F0
:101150008091B0008F7703C08091B0008F7D809325
:10116000B000F0E0EE0FFF1FEF50F64FA591B491E5
:101170008FB7F894EC91611103C020952E2301C024
:101180002E2B2C938FBF0895CF93DF93EC01888192
:101190000E94780860E08C81DF91CF910C947808F0
:1011A000CF93DF9390E0FC01E75EF54F2491FC01C3
:1011B000EB5FF54F8491882361F190E0880F991FD0
:1011C000FC01E35DF54FC591D491FC01EF50F64F62
:1011D000A591B491611109C09FB7F89488812095B9
:1011E00082238883EC912E230BC0623061F49FB779
:1011F000F8943881822F809583238883EC912E2B5D
:101200002C939FBF06C08FB7F894E8812E2B2883BC
:101210008FBFDF91CF9108958F929F92AF92BF922F
:10122000CF92DF92EF92FF926B017C010E941D062C
:101230004B015C01C114D104E104F104F1F00E94FE
:101240001D06DC01CB0188199909AA09BB09883E52
:101250009340A105B10570F321E0C21AD108E1085D
:10126000F10888EE880E83E0981EA11CB11CC11401
:10127000D104E104F10419F7DDCFFF90EF90DF9086
:10128000CF90BF90AF909F908F9008952FB7F89414
:101290006091A9027091AA028091AB029091AC0278
:1012A0002FBF08951F920F920FB60F9211242F9304
:1012B0003F938F939F93AF93BF938091A902909197
:1012C000AA02A091AB02B091AC023091A80223E037
:1012D000230F2D3720F40196A11DB11D05C026E86E
:1012E000230F0296A11DB11D2093A8028093A9028D
:1012F0009093AA02A093AB02B093AC028091AD028E
:101300009091AE02A091AF02B091B0020196A11DE2
:10131000B11D8093AD029093AE02A093AF02B09343
:10132000B002BF91AF919F918F913F912F910F90FC
:101330000FBE0F901F9018958F929F92AF92BF9201
:10134000CF92DF92EF92FF920F931F93CF93DF9391
:101350008C017B0188E090E00E940926EC01F701F6
:1013600080809180A280B380C480D580E680F780A1
:10137000F8012481358146815781C501B4010E945D
:101380009623A70196010E949723688379838A8315
:101390009B83A5019401F801608171818281938111
:1013A0000E949623A70196010E9497236C837D8358
:1013B0008E839F83CE01DF91CF911F910F91FF907C
:1013C000EF90DF90CF90BF90AF909F908F90089557
:1013D0002F923F924F925F926F927F928F929F9245
:1013E000AF92BF92CF92DF92EF92FF920F931F9333
:1013F000CF93DF9300D000D000D0CDB7DEB78C0103
:101400001B01DC01CD90DD90ED90FC90DB018D9116
:101410009D910D90BC91A02D89839A83AB83BC8351
:101420009C01AD01C701B6010E941B28882309F465
:10143000BEC088E090E00E9409269E838D83FC0157
:1014400010821182128213821482158216821782F0
:1014500026013701E89477F82FEF3FEF4FE75FE77A
:10146000C301B2010E94FD2589809A80AB80BC80B7
:10147000E894B7F8811138C02FEF3FEF4FE75FE7EF
:10148000C301B2010E941B28181674F5F8014480AC
:10149000558066807780AD81BE814D925D926D9260
:1014A0007C9213972FEF3FEF4FE75FE7C501B40141
:1014B0000E94FD2581110AC02FEF3FEF4FE75FE744
:1014C000C501B4010E941B28181654F029813A81E5
:1014D0004B815C81C301B2010E948128F10129C0C6
:1014E00060E070E0CB012BC02FEF3FEF4FE75FE7ED
:1014F000C501B4010E94FD2581112CC02FEF3FEFE3
:101500004FE75FE7C501B4010E941B28181614F5C8
:10151000F1016481758186819781AD81BE816D9372
:101520007D938D939C931397A70196010E94812828
:10153000F80124813581468157810E949723AD812E
:10154000BE8114966D937D938D939C9317978D8197
:101550009E812FC0F8014480558066807780A3016A
:101560009201D10114966D917D918D919C91179767
:101570000E9496234B015C0129813A814B815C8159
:10158000C701B6010E9496239B01AC01C501B401BD
:101590000E947524ED81FE81608371838283938331
:1015A000A70196010E948128A3019201C6CF80E085
:1015B00090E026960FB6F894DEBF0FBECDBFDF9148
:1015C000CF911F910F91FF90EF90DF90CF90BF9040
:1015D000AF909F908F907F906F905F904F903F90D3
:1015E0002F9008958F929F92AF92BF92CF92DF92E9
:1015F000EF92FF920F931F93CF93DF937C018B01A8
:1016000088E090E00E940926EC011C821D821E8267
:101610001F82F701C080D180E280F380C882D98226
:10162000EA82FB8246015701E894B7F82FEF3FEFBB
:101630004FE75FE7C501B4010E94FD25811114C089
:101640002FEF3FEF4FE75FE7C501B4010E941B2872
:10165000181654F4F80180819181A281B3818C83A2
:101660009D83AE83BF8316C0F80120813181428102
:101670005381C701B6010E9481289B01AC01F8018A
:1016800064817581868197810E9496236C837D8316
:101690008E839F83CE01DF91CF911F910F91FF9099
:1016A000EF90DF90CF90BF90AF909F908F90089574
:1016B000CF92DF92EF92FF920F931F93CF93DF931E
:1016C0008B01BC01C8010E94F20AEC01F8012481DF
:1016D0003581468157816C817D818E819F810E94F9
:1016E00096236B017C01CE010E949E26C701B601A4
:1016F000DF91CF911F910F91FF90EF90DF90CF90EE
:1017000008954F925F926F927F928F929F92AF92C5
:10171000BF92CF92DF92EF92FF920F931F93CF93DE
:10172000DF9300D000D0CDB7DEB77C013B0188E06D
:1017300090E00E9409268C01DC0114961D921D92F6
:101740001D921C921797D70114968D919D910D9023
:10175000BC91A02D89839A83AB83BC83F701C080A1
:10176000D180E280F3809C01AD01D30114966D918C
:101770007D918D919C9117970E9496234B015C015E
:10178000A7019601F30160817181828193810E949A
:1017900096239B01AC01C501B4010E9475244B0145
:1017A0005C01D8016D937D938D939C9313972B01CE
:1017B0003C01E89477F82FEF3FEF4FE75FE7C30175
:1017C000B2010E94FD25811110C02FEF3FEF4FE7BE
:1017D0005FE7C301B2010E941B28181634F4F80118
:1017E000C482D582E682F78215C0A5019401C701A3
:1017F000B6010E9481289B01AC0169817A818B81AD
:101800009C810E949623D80114966D937D938D93AD
:101810009C931797C8010F900F900F900F90DF9136
:10182000CF911F910F91FF90EF90DF90CF90BF90DD
:10183000AF909F908F907F906F905F904F900895A2
:10184000EF92FF920F931F93CF93DF9300D0CDB70A
:10185000DEB7142F91E09093D8028093FA02109291
:10186000D9021092FB0281EE93E029833A830E9411
:101870007C072981022FE22E3A81F32E8E2D801BC8
:10188000811740F4F70161917F0181EE93E00E949E
:101890007C07F4CF0E943A1291E0811190E0892FE9
:1018A0000F900F90DF91CF911F910F91FF90EF90CC
:1018B0000895CF93DF931F92CDB7DEB749839E0182
:1018C0002F5F3F4F41E00E94200C0F90DF91CF919E
:1018D0000895462F6EE6FC0180810C94590C2F92DE
:1018E0003F924F925F926F927F928F929F92AF92B0
:1018F000BF92CF92DF92EF92FF920F931F93CF93FD
:10190000DF93CDB7DEB727970FB6F894DEBF0FBED3
:10191000CDBFE82E6B834F8369010E9446094B01BE
:101920005C016E2C660CF12C1E82772473945F810F
:10193000452F50E05D834C831801412C512C4F8181
:10194000F41608F099C07092D802E092FA02109250
:10195000D9021092FB026B8181EE93E00E947C071A
:101960000E943A127092D802E092FA021092D902C2
:101970001092FB028091D7028111FCCF2C813D8116
:101980002F1931092132310514F020E230E02132E3
:1019900008F020E27092D7027092D6028FEF809307
:1019A000D5021092D402820F8093D3027092B202B9
:1019B0008091B20286298093B2028091B102813077
:1019C00071F41092B1028091B2028093BB008091B9
:1019D000BC0083FDF8CF95EC9093BC0003C0E5EE0E
:1019E000E093BC008091D7028130E1F38091D40272
:1019F000821710F42091D402A3EBB2E0E8E8F2E001
:101A00008E2F48E852E0841B821718F48D91819341
:101A1000F7CF1092F1012093F0019091F0018091A5
:101A2000F101981719F10115110599F4A6012E81FC
:101A3000420F511D27FD5A955A83498381EE93E049
:101A40000E943807E981FA8180832E812F5F2E83DF
:101A5000E4CF0E944609DC01CB0188199909AA0943
:101A6000BB0982159305A405B50500F38F8181326A
:101A700008F080E2F80E63CFFE8001151105D9F061
:101A80000E944609DC01CB0188199909AA09BB0902
:101A900020E030E080179107A207B30760F05F8174
:101AA000252F30E08F2D0F2C000C990B82179307F8
:101AB00014F4FF24FA948F2D27960FB6F894DEBF06
:101AC0000FBECDBFDF91CF911F910F91FF90EF908F
:101AD000DF90CF90BF90AF909F908F907F906F904E
:101AE0005F904F903F902F9008950F931F939B010D
:101AF00008EE13E064E7FC0180810E946F0C1F91E7
:101B00000F9108950F931F93CF93DF93EC019C01E6
:101B10002F5F3F4F08EE13E042E062E788810E94AA
:101B20006F0C298130E0322F22278A81A901482BAE
:101B3000CA01DF91CF911F910F910895BF92CF926B
:101B4000DF92EF92FF920F931F93CF93DF931F9239
:101B5000CDB7DEB7F82EE62EC42EB22ED02E08EE6C
:101B600013E09E012F5F3F4F41E00E946F0C8823DE
:101B700021F1EC2DF0E0EB19F109319621E030E094
:101B800002C0220F331FBA94E2F7215031090E2E02
:101B900001C0220F0A94EAF78D2D01C0880FEA9543
:101BA000EAF7422F4095998149232823422B498304
:101BB0006E2D8F2D0E94590C01C080E00F90DF9197
:101BC000CF911F910F91FF90EF90DF90CF90BF903A
:101BD0000895CF92DF92EF92FF920F931F93CF93CE
:101BE000DF931F92CDB7DEB7F82EE62ED42EC22E8D
:101BF00008EE13E09E012F5F3F4F41E00E946F0C03
:101C00009981CC2041F041E050E001C0440FDA94CA
:101C1000EAF7492B09C021E030E0A90101C0440FD7
:101C2000DA94EAF74095492349836E2D8F2D0E945F
:101C3000590C0F90DF91CF911F910F91FF90EF9072
:101C4000DF90CF90089521E042E06AE6FC018081B8
:101C50000C94E90D4F925F926F927F928F929F92B8
:101C6000AF92BF92CF92DF92EF92FF92CF93DF932A
:101C7000CDB7DEB7C454D1090FB6F894DEBF0FBE9E
:101C8000CDBF2091F401222309F4D7C07C01FC01CF
:101C9000828193810E94820D8115944029F4F7017D
:101CA000828193810E94230EF701828193810E9499
:101CB000820D4091F2015091F30184179507A0F332
:101CC000BE016F5F7F4FF701828193810E94750D86
:101CD000698170E0762F66278A81680F711D072E53
:101CE000000C880B990B0E94222820E030E040E88D
:101CF00058E30E9481286B017C01698570E0762F92
:101D000066278A85680F711D072E000C880B990BBA
:101D10000E94222820E030E040E858E30E94812819
:101D20004B015C01A7019601C701B6010E949723F0
:101D300025966CAF7DAF8EAF9FAF2597A50194011F
:101D4000C501B4010E9497232B013C01A701960114
:101D500025966CAD7DAD8EAD9FAD25970E948128F7
:101D60006B017C01A5019401C301B2010E9481288D
:101D70009B01AC01C701B6010E94972320E030E02F
:101D800040E85FE30E9496236B017C016D8170E067
:101D9000762F66278E81680F711D072E000C880B29
:101DA000990B0E94222820E030E040E858E30E948E
:101DB00081289B01AC01C301B2010E9481282B0143
:101DC0003C016D8570E0762F66278E85680F711D4A
:101DD000072E000C880B990B0E94222820E030E08F
:101DE00040E858E30E9481289B01AC0125966CAD28
:101DF0007DAD8EAD9FAD25970E9481289B01AC01E2
:101E0000C301B2010E949623A7019601CC5BDF4F6C
:101E10000FB6F894DEBF0FBECDBFDF91CF91FF901C
:101E2000EF90DF90CF90BF90AF909F908F907F907A
:101E30006F905F904F900C94162460E070E0CB019F
:101E4000CC5BDF4F0FB6F894DEBF0FBECDBFDF9186
:101E5000CF91FF90EF90DF90CF90BF90AF909F9089
:101E60008F907F906F905F904F900895CF92DF9208
:101E7000EF92FF920F931F93CF93DF93EC018E812C
:101E80009F818130910571F02CF4892B09F560E078
:101E900070E00DC08230910541F00397C9F460E015
:101EA00070E00CC061E070E009C061E070E08C811E
:101EB0009D810E94C40860E070E006C08C819D8115
:101EC0000E94C40861E070E08A819B810E94C4087E
:101ED000E881F981309761F1028113816801E12C79
:101EE000F12C88819981DC01ED91FC910190F081C8
:101EF000E02D0995811108C00115110591F3C70165
:101F0000B6010E940C09EDCFEA81FB8161E084817A
:101F10000E947808EC81FD8161E08481DF91CF919E
:101F20001F910F91FF90EF90DF90CF900C94780865
:101F3000DF91CF911F910F91FF90EF90DF90CF90A5
:101F400008951F920F920FB60F9211242F933F9373
:101F50004F935F936F937F938F939F93AF93BF93B1
:101F6000EF93FF93E091F701F091F801309709F4B6
:101F700051C0968DA685B785858591FF04C09C913B
:101F8000892329F447C09C91892309F043C0A38980
:101F9000B4899C918589809589238C9386899789BA
:101FA0000197F1F7608D718DA685B785558538E06D
:101FB00020E0CB010197F1F7822F90E0959587956E
:101FC000282F4C91452309F02068315091F7868DD8
:101FD00081FD20958091F60190E001968F739927FD
:101FE0003091F501381749F0A091F601B0E0A85BF7
:101FF000BD4F2C938093F60103C0868D8160868F40
:10200000828D938D0197F1F7A389B4899C9185897D
:10201000892B8C93FF91EF91BF91AF919F918F91FD
:102020007F916F915F914F913F912F910F900FBED4
:102030000F901F9018951F920F920FB60F921124B8
:102040002F933F934F935F936F937F938F939F93C0
:10205000AF93BF93EF93FF938091B900887F803651
:1020600009F49CC068F5883209F45BC090F48031B3
:1020700009F454C038F4882309F4F6C0883009F410
:102080004DC0F6C0883109F44CC0803209F45DC0FF
:10209000EFC0803409F468C048F4803309F455C0B7
:1020A000883309F0E5C08093D502D8C0803509F4A3
:1020B0004FC0883509F45DC0883409F0D9C0D6C056
:1020C000883909F4C7C0A8F4883709F467C038F420
:1020D000883609F463C0803709F460C0C9C0883805
:1020E00009F4B8C0803909F45FC0803809F0C0C075
:1020F0005BC0803B09F486C038F4803A09F466C0BE
:10210000883A09F47FC0B4C0803C09F4A7C0883C79
:1021100009F4A4C0883B09F48AC0AAC08091B20225
:1021200010C09091D4028091D302981770F5E0917D
:10213000D40281E08E0F8093D402F0E0ED54FD4F85
:1021400080818093BB0085EC86C08093D5028EC0D1
:10215000E091D40281E08E0F8093D4028091BB0085
:10216000F0E0ED54FD4F80839091D4028091D30232
:102170006EC0E091D40281E08E0F8093D4028091F2
:10218000BB00F0E0ED54FD4F80838091D6028111B9
:102190006DC081E08093B10284EA61C083E08093E6
:1021A000D70210924702CFCF80914702803208F0C9
:1021B00051C0E091470281E08E0F809347028091E9
:1021C000BB00F0E0E95DFD4F8083BDCF85EC8093DF
:1021D000BC001092D70280914702803230F4E09127
:1021E0004702F0E0E95DFD4F10826091470270E028
:1021F000E0912502F091260287E292E00995109283
:10220000470236C084E08093D702109224021092D5
:102210002302E0912102F09122020995809123028C
:10222000811105C081E08093230210920102E091A8
:10223000240281E08E0F80932402F0E0EF5FFD4FD7
:1022400080818093BB009091240280912302981793
:1022500008F479CF85E88093BC000AC085EC8093B0
:10226000BC001092D70204C01092D5020E94F6065C
:10227000FF91EF91BF91AF919F918F917F916F915E
:102280005F914F913F912F910F900FBE0F901F9034
:102290001895CF93DF93EC01488159816A817B8146
:1022A00022E08CEF92E00E9428146FEC71E08CEF3A
:1022B00092E00E9434154C815D816E817F818CEFAC
:1022C00092E0DF91CF910C940B15CF92DF92EF92B9
:1022D000FF920F931F93CF93DF936C017A018B01D1
:1022E000C0E0D0E0CE15DF0589F0D8016D918D01F9
:1022F000D601ED91FC910190F081E02DC601099588
:10230000892B11F47E0102C02196ECCFC701DF9129
:10231000CF911F910F91FF90EF90DF90CF90089594
:10232000ECEFF2E0A089B18982E08C93A485B585B9
:102330001C92A685B7858FEC8C93108EA489B589E5
:1023400086E08C93A289B3898C9180618C93A28959
:10235000B3898C9188608C93A289B3898C918068B1
:102360008C930288F389E02D80818F7D808308958E
:102370000F931F93CF93DF938C01FC01C281D38114
:1023800061E08C2F0E94D008FE01FF27E95CF54F29
:10239000E491E33019F150F4E130D1F0E230E1F5AD
:1023A00084B5806284BD84E688BD3AC0E73011F10F
:1023B000E83049F1E43081F58091800080628093BB
:1023C000800084E690E090938B0080938A0028C080
:1023D00084B5806884BD84E687BD22C0809180007A
:1023E00080688093800084E690E0909389008093D9
:1023F000880016C09091B00090689093B00084E679
:102400008093B3000DC09091B00090629093B000A3
:1024100084E68093B40004C060E08C2F0E947808AA
:1024200061E0F8018481DF91CF911F910F910C94AD
:1024300078080F931F93CF93DF938C01C0E0D0E017
:10244000F801EC0FFD1F6491662371F0E091FC022E
:10245000F091FD020190F081E02D8CEF92E0099562
:10246000892B11F02196ECCFCE01DF91CF911F91F6
:102470000F9108952091FB029091FA02213208F009
:102480004AC08091D7028111FCCF32E03093D7024D
:1024900031E03093D6023FEF3093D5021092D40250
:1024A0002093D302AAEDB2E043EB52E0FA013E2FB3
:1024B000341B321718F43D913193F9CF1092B202C8
:1024C0002091B202990F922B9093B2029091B10297
:1024D000913061F41092B1029091B2029093BB00DE
:1024E0009091BC0093FDF8CF95EC01C095EE9093D0
:1024F000BC009091D7029230E1F39091D5029F3FBA
:1025000079F08091D502803241F08091D5028033FC
:1025100031F084E005C081E003C082E001C083E0C7
:102520001092D9021092FB021092D8020895CF9314
:10253000DF93EA0191E09093D8028093FA0210921F
:10254000D9021092FB0281EE93E00E947C07698120
:1025500081EE93E00E947C07688181EE93E00E9407
:102560007C070E943A1291E0811190E0892FDF915F
:10257000CF9108952F923F924F925F926F927F92E8
:102580008F929F92AF92BF92CF92DF92EF92FF9283
:102590000F931F93CF93DF9300D000D0CDB7DEB75A
:1025A0009C838B837A8369835A01222EF02E422FDB
:1025B0004F716DE6DC018C910E94590C602F8B816C
:1025C0009C810E94690C80E190E00E9409263C01F8
:1025D000EE2031F080E190E00E940926482E392E4D
:1025E000C12CD12CCA14DB0408F077C0C601409678
:1025F000A816B90618F45A2C5C1802C080E1582EAF
:10260000852D90E020E031E02F1931092817390796
:1026100014F45F2C5194E981FA81EC0DFD1DEE203C
:1026200059F0942DA42DB32D8A2F891B851530F4D4
:1026300084918D933196F8CF4E2E3F2E242D332D3D
:10264000452D6FE6EB81FC8180810E94200C852C5A
:10265000912C6114710449F1422D4F716DE6AB81EB
:10266000BC818C910E94590C6F2D8B819C810E94A2
:10267000690C08EE13E09301452D6FE6EB81FC81B8
:1026800080810E946F0CA401B301842D932D0E94C0
:102690000528892B51F0C3010E949E26EE2039F1B6
:1026A000842D932D0E949E2622C0C80CD91CF50CA7
:1026B000CA14DB0408F096CFF11001C02394422D18
:1026C0004F716DE6AB81BC818C910E94590C6F2DCE
:1026D0008B819C810E94690C85CFC3010E949E263C
:1026E000EE2039F0842D932D0E949E2602C080E0BA
:1026F00001C081E00F900F900F900F90DF91CF916C
:102700001F910F91FF90EF90DF90CF90BF90AF900F
:102710009F908F907F906F905F904F903F902F9001
:102720000895EF92FF920F931F93CF93DF931F9221
:10273000CDB7DEB77A0189019E012F5F3F4F41E09F
:102740000E946F0C882339F029812E7730E035956F
:102750002795F70120830F90DF91CF911F910F9163
:10276000FF90EF900895DC01ED91FC910190F081D4
:10277000E02D09946115710579F0FB0101900020AD
:10278000E9F73197AF01461B570BDC01ED91FC9146
:102790000280F381E02D099480E090E00895CF93CA
:1027A000DF930E941912EC016DE771E08CEF92E06B
:1027B0000E94BA138C0F9D1FDF91CF9108954F9205
:1027C0005F926F927F92EF92FF920F931F93CF933E
:1027D000DF93CDB7DEB7A1970FB6F894DEBF0FBE7B
:1027E000CDBF7C01FA01CB0119A2223008F42AE006
:1027F0008E010F5D1F4F422E512C612C712CBF0199
:10280000A30192010E943F29F901CA010150110957
:102810006A3014F4605D01C0695CD8016C93232BAD
:10282000242B252B61F7B801C7010E94BA13A1968A
:102830000FB6F894DEBF0FBECDBFDF91CF911F91D1
:102840000F91FF90EF907F906F905F904F90089561
:102850004F925F926F927F928F929F92AF92BF92B0
:10286000CF92DF92EF92FF92CF93DF93EC016A0158
:102870007B01B22E9A01AB01C701B6010E94FD2572
:10288000882319F061EE71E027C026013701E89432
:1028900077F82FEF3FEF4FE75FE7C301B2010E94E8
:1028A000FD2581110DC02FEF3FEF4FE75FE7C3011B
:1028B000B2010E941B2818161CF465EE71E00CC0D2
:1028C0002FEF3FEF4FE75FE4C701B6010E94A62557
:1028D00018169CF469EE71E0CE01DF91CF91FF9064
:1028E000EF90DF90CF90BF90AF909F908F907F90B0
:1028F0006F905F904F900C94BA132FEF3FEF4FE71C
:102900005FECC701B6010E941B2887FDE3CF20E0E2
:1029100030E0A901C701B6010E941B2887FF0AC049
:102920006DE2CE010E94B3134C01F7FAF094F7F870
:10293000F09402C0812C912CA12C60E070E080E02A
:102940009FE3AB1441F020E030E040E251E40E940C
:102950007524A394F6CF9B01AC01C701B6010E9478
:1029600097232B013C010E94EE246B017C010E9405
:1029700020289B01AC01C301B2010E9496232B01C8
:102980003C012AE0B701A601CE010E94DF137C01C1
:10299000E80CF91CBB2039F06DEE71E0CE010E940D
:1029A000BA13E80EF91EDB2CDD2029F120E030E01F
:1029B00040E251E4C301B2010E9481282B013C0195
:1029C0000E94EE244B01A12CB12C2AE0B501A401F8
:1029D000CE010E94DF13E80EF91EC501B4010E946A
:1029E00020289B01AC01C301B2010E9496232B0158
:1029F0003C01DA94D9CFC701DF91CF91FF90EF90DE
:102A0000DF90CF90BF90AF909F908F907F906F900E
:102A10005F904F9008950F931F93CF93DF93EC0136
:102A200022E00E9428148C016DE771E0CE010E9423
:102A3000BA13800F911FDF91CF911F910F910895CD
:102A40000F931F93CF93DF93EC010E94BA138C0175
:102A50006DE771E0CE010E94BA13800F911FDF91E4
:102A6000CF911F910F9108950C94BA13CF93DF93D8
:102A7000CDB7DEB7C45BD1090FB6F894DEBF0FBE89
:102A8000CDBF789484B5826084BD84B5816084BDF7
:102A900085B5826085BD85B5816085BD80916E00FC
:102AA000816080936E00109281008091810082602D
:102AB000809381008091810081608093810080916A
:102AC00080008160809380008091B1008460809359
:102AD000B1008091B00081608093B00080917A0055
:102AE000846080937A0080917A00826080937A007B
:102AF00080917A00816080937A0080917A0080686A
:102B000080937A001092C1001092DD031092DE03D0
:102B10001092DF031092E00310929B0310929C032B
:102B200010929D0310929E0360ED77E080E090E0AC
:102B30000E940C098CEF92E09093DC038093DB03FE
:102B40000E9490110E94460960939B0370939C031E
:102B500080939D0390939E036EE671E08091DB036A
:102B60009091DC030E9434156AE070E080E090E010
:102B70000E940C09FF24F394F092AF030E9490117D
:102B80008FE190E00E9409268C01DC0113961C92D3
:102B90001E92129788EE93E0A0E0B0E0F8018483E3
:102BA0009583A683B78382E191E091838083178A1E
:102BB000168A118E108E138E128E158E148E868D9F
:102BC0008E7F8D7F868F86958170682F6F2585E03B
:102BD0000E94780861E085E00E94D008EEE1FAE00A
:102BE000E491D8015096EC93EAE0FAE0E491F0E049
:102BF000EE0FFF1FEF50F64F85919491F801928BE5
:102C0000818B60E084E00E94D008D8015E968C91B0
:102C100081FD04C061E084E00E94780884E0F8014E
:102C20008487EDE1FAE0E491D8011D96EC931D97BD
:102C3000E9E0FAE0E491F0E0EE0FFF1FE550F64F17
:102C400085919491F801978786878DE991E0958F1A
:102C5000848F2DEB30E0378B268B2BE931E0318FE1
:102C6000208F2CE231E0338F228F20916800246086
:102C7000209368002DE630E0348B238B20E1258BF8
:102C80000197F1F75A968D919C915B97892B29F1C9
:102C9000E091F701F091F801E017F107F1F03097BA
:102CA00039F0A389B4899C918589809589238C9377
:102CB000F801868D8E7F868F1092F6011092F501B5
:102CC0001093F8010093F7010388F489E02D9081B7
:102CD000D80155968C91892B80838EE090E00E94DC
:102CE0000926FC011382128288EE93E0A0E0B0E096
:102CF00084839583A683B78382E291E09183808366
:102D000015870487F0931104E093100484E090E0A9
:102D10000E9409264C018AE091E0F40191838083AE
:102D200083E190E00E94092628E6DC012C93F4015F
:102D3000938382831092F1011092F0011092D902D4
:102D40001092FB021092D70281E08093D60210927B
:102D5000B10261E082E10E94780861E083E10E94B3
:102D600078088091B9008E7F8093B9008091B90076
:102D70008D7F8093B90088E48093B80085E48093C8
:102D8000BC0088E18093B80085ED99E00E94CF13E4
:102D9000D4011296ED90FC90139701E023E042E0FD
:102DA0006BE6F70180810E949E0D00E022E044E086
:102DB0006BE1D7018C910E949E0D22E044E06CE112
:102DC000F70180810E949E0D20E046E06BE6D7016E
:102DD0008C910E94E90D87EB99E00E94CF13F401DA
:102DE00002811381A8014F5F5F4F28EE33E065E752
:102DF000D8018C910E949113F8018181843319F0DC
:102E00008BE699E002C085E899E00E94CF1383EA3F
:102E100099E00E94CF13D4011296CD90DC901397C5
:102E200021E047E06BE6F60180810E94E90D6EE14A
:102E300070E080E090E00E940C0920E046E06BE644
:102E4000D6018C910E94E90D40E76DE6F601808184
:102E50000E94590C66E0C6010E94690C7601FFEFE2
:102E6000EF1AFF0A08EE13E0970141E06FE6D60182
:102E70008C910E946F0C40E06DE6F60180810E940B
:102E8000590C9E012F5F3F4F390141E060E0D601B0
:102E90008C910E946F0C89818170F601818328EEEC
:102EA00033E0A70160E080810E949113D601119662
:102EB000BC91C356DF4FB883CD59D04028EE33E0E4
:102EC000A70161E0F60180810E949113D60111965D
:102ED000BC91CF55DF4FB883C15AD04028EE33E0C4
:102EE000A70162E0F60180810E949113D60111963C
:102EF000BC91CB55DF4FB883C55AD0404FE765E250
:102F0000F60180810E94590C20E045E06AE6D60176
:102F10008C910E94E90D48E665E2F60180810E94ED
:102F2000590C21E041E06AE6D6018C910E94E90D3E
:102F300064E170E080E090E00E940C09EE24E394EC
:102F400000E020E049E857E065E871E0C6010E9432
:102F5000BA12882309F40EC388E090E00E94092683
:102F6000382EF92E00E010E0F801EB53FF4F2491CA
:102F7000F801EA53FF4F24905801B3E0AB0EB11CA7
:102F8000F801E953FF4FE491EE2399F14E2E512CB5
:102F9000E33088F0B201832D9F2DCC54DF4F28837E
:102FA000C45BD0400E943627382EF92ECC54DF4F18
:102FB0002881C45BD040A32DBF2D80E090E0841514
:102FC000950548F4F501E80FF91FEB53FF4FE49125
:102FD000ED930196F4CFE12C022DA201632D7F2DFC
:102FE000C6010E94BA1282010A0D1B1D811116C072
:102FF0000FC00C5F1F4FF501EB53FF4FE491E13021
:1030000039F442E368E3F60180810E94590C06C05E
:10301000832D9F2D0E949E2612E0ADC2003C11051B
:1030200008F4A2CF832D9F2D0E949E2603E023E06B
:1030300042E06BE6D6018C910E949E0D42E168E36E
:10304000F60180810E94590C44E069E1D6018C911F
:103050000E94590C01E023E045E06AE1F60180811D
:103060000E949E0D03E023E042E06AE1D6018C91CC
:103070000E949E0D22E044E06BE1F60180810E94F7
:103080009E0D43E060E7D6018C910E94590C40E010
:1030900061E7F60180810E94590C20E040E060E089
:1030A000D6018C910E94E90DC356DF4F0881CD599E
:1030B000D04026E046E060E0F60180810E949E0D4F
:1030C000CF55DF4F0881C15AD04026E046E061E08D
:1030D000D6018C910E949E0DCB55DF4F0881C55AB9
:1030E000D04026E046E062E0F60180810E949E0D1D
:1030F000A12CB12CF501EA56FF4FE491A1E8B0E014
:10310000AC0FBD1FAA0DB11DEC9381E08A0DFFEF3E
:10311000AF1ABF0A53E0E52EEA1460F7CD57DF4F30
:103120004881C358D04050E09A012E5F3F4F90E055
:1031300028173907FCF6E12CCE57DF4F0881C2581B
:10314000D040CF57DF4F2881C158D04061E870E0B0
:103150006C0F7D1F6D5F7F4FC6010E94BA1280E029
:10316000F501EA56FF4FE491A1E8B0E0AC0FBD1FB6
:10317000A80FB11DEC938F5F2FEFA21AB20A843013
:1031800078F3CD57DF4F4881C358D04050E0BA01A3
:103190006E5F7F4F282F30E0621773070CF7E12C2A
:1031A000CE57DF4F0881C258D040CF57DF4F28811C
:1031B000C158D04061E870E06C0F7D1F6D5F7F4F9C
:1031C000C6010E94BA12C6010E94230EC6010E94C7
:1031D000820D482FB301C6010E94750D42E06FE1D8
:1031E000D6018C910E94590C4CE961E2F601808174
:1031F0000E94590C40E560E2D6018C910E94590C66
:1032000040E062E2F60180810E94590CC6010E94F2
:10321000230E21E046E06AE6D6018C910E94E90D7A
:1032200021E047E06AE6F60180810E94E90D21E095
:1032300043E06AE6D6018C910E94E90D80E0F50139
:10324000EA56FF4FE491A1E8B0E0AC0FBD1FA80F14
:10325000B11DEC938F5FBFEFAB1ABB0A843078F3DC
:10326000CD57DF4F4881C358D04050E0BA016E5F60
:103270007F4F282F30E0621773070CF7E12CCE57F1
:10328000DF4F0881C258D040CF57DF4F2881C15847
:10329000D04061E870E06C0F7D1F6D5F7F4FC6010D
:1032A0000E94BA1280E0F501EA56FF4FE491A1E8CE
:1032B000B0E0AC0FBD1FA80FB11DEC938F5FEFEF17
:1032C000AE1ABE0A843078F3CD57DF4F4881C35819
:1032D000D04050E0BA016E5F7F4F282F30E0621778
:1032E00073070CF7E12CCE57DF4F0881C258D0404E
:1032F000CF57DF4F2881C158D04061E870E06C0F94
:103300007D1F6D5F7F4FC6010E94BA1280E0F501FC
:10331000EA56FF4FE491A1E8B0E0AC0FBD1FA80F43
:10332000B11DEC938F5FFFEFAF1ABF0A843078F3C3
:10333000CD57DF4F4881C358D04050E0BA016E5F8F
:103340007F4F282F30E0621773070CF7E12CCE5720
:10335000DF4F0881C258D040CF57DF4F2881C15876
:10336000D04061E870E06C0F7D1F6D5F7F4FC6013C
:103370000E94BA12C6010E94820D83309105D0F3DB
:10338000482FB301C6010E94750DC6010E94E122BB
:1033900080E0F501EA56FF4FE491A1E8B0E0AC0F00
:1033A000BD1FA80FB11DEC938F5F2FEFA21AB20AB9
:1033B000843078F3CD57DF4FE880C358D040CF55E5
:1033C000DF4FE882C15AD0404E2C512CA2014E5FF3
:1033D0005F4F282F30E042175307DCF6CE57DF4F00
:1033E0003880C258D040CF57DF4FF880C158D04006
:1033F000C356DF4FF882CD59D0404F2D4F716DE647
:10340000D6018C910E94590C632DC6010E94690C53
:10341000E12CF12CE1E8F0E0EC0FFD1F3396CB55E9
:10342000DF4FF983E883C55AD040E414F50408F06F
:103430004CC0C70140964816590638F4CF55DF4FA7
:103440002880C15AD0402E1802C040E1242E822D7F
:1034500090E020E031E0231931092817390714F4EE
:10346000232C2194CB55DF4F28813981C55AD04078
:103470002E0D3F1D08EE13E0422D6FE6D6018C9114
:103480000E946F0CE20CF11C320CE414F50468F697
:1034900031100BC0C356DF4FB881CD59D040BF5F4C
:1034A000C356DF4FB883CD59D040C356DF4F488154
:1034B000CD59D0404F716DE6F60180810E94590CC4
:1034C000632DC6010E94690CB0CFC6010E94820D17
:1034D00083309105D0F3482FB301C6010E94750DCA
:1034E000C6010E94E122F501EA56FF4F80E0949167
:1034F000A1E8B0E0AC0FBD1FA80FB11D9C938F5F7A
:10350000843010F43196F3CFCD57DF4F4881C35844
:10351000D04050E0BA016E5F7F4F282F30E0621735
:10352000730784F761E870E06C0F7D1F6D5F7F4F5C
:10353000E12CCE57DF4F0881C258D040CF57DF4F24
:103540002881C158D040C6010E94BA1220E047E04D
:103550006AE6D6018C910E94E90D8AE290E0F601BC
:1035600093838283C6010E94230EC6010E94E1223A
:1035700010E001C011E0D4011296ED91FC91139777
:1035800080812CED30E0C956DF4F39832883C7593D
:10359000D040AE0149565F4F63E10E949712D401BB
:1035A0001296ED91FC91139780812CE430E0CB567C
:1035B000DF4F39832883C559D040AE014B565F4F4A
:1035C00065E10E949712D4011296ED91FC91139738
:1035D00080812BEA3FEFCD56DF4F39832883C359D3
:1035E000D040AE014D565F4F67E10E949712D40163
:1035F0001296ED91FC91139780812CEF36E0CF5617
:10360000DF4F39832883C159D040AE014F565F4FF9
:103610006AE00E949712111139C08BE599E00E946F
:10362000CF13D4011296ED91FC91139721E047E05E
:103630006AE680810E94E90D81E399E00E94CF1340
:1036400081E08093F401D4011296ED91FC911397DF
:10365000828193819093F3018093F20160E871E09D
:103660008CEF92E00E9434154091F2015091F301E9
:1036700060E070E02AE08CEF92E00E94DF136DE7DB
:1036800071E08CEF92E00E94BA1311C080E199E0E2
:103690000E941912412F50E060E070E02AE08CEFA8
:1036A00092E00E94DF138EE099E00E94CF1380E346
:1036B00090E00E9409268C0186E090E00E94092695
:1036C0007C0188E090E0F701958384838BE090E0B3
:1036D000938382838DE090E09183808361E00E94F8
:1036E000D00861E088E00E94D008D8011396FC92CF
:1036F000EE92129786E090E00E9409267C0189E014
:1037000090E0F7019583848323E0C22ED12CD382ED
:10371000C2828CE090E09183808361E00E94D008B7
:1037200061E089E00E94D008D8011596FC92EE92E3
:1037300014971D921C92C7010E94B811F801828152
:1037400093810E94B811D8011796DC92CE921697F9
:10375000F80110861186128613867801FCE0EF0EC0
:10376000F11C580120E3A20EB11C32E3C32ED12C70
:10377000D401ED91FC910280F381E02DC401099503
:103780009B01AC01DC82CB82E2E3F1E0FA83E983C6
:103790001D82D8016D927C92C801CC54DF4F2883E2
:1037A000C45BD040CF54DF4F3883C15BD040CE5490
:1037B000DF4F4883C25BD040CD54DF4F5883C35B9B
:1037C000D0400E94360F68EE73E080E090E00E94E7
:1037D0000C09D401ED91FC910280F381E02DC4012C
:1037E0000995CC54DF4F2881C45BD040CF54DF4FC4
:1037F0003881C15BD040CE54DF4F4881C25BD0409E
:10380000CD54DF4F5881C35BD0400E9496231B01EB
:103810002C0120E030E0A9010E941B2887FF0AC08C
:1038200020E030E044EB53E4C201B1010E94972351
:103830001B012C01F70121923192419251927F019B
:10384000F2E3CF0ED11CEA14FB0409F091CF1093E0
:103850001304009312046EE871E08CEF92E00E9472
:1038600020159E01275E3F4FC756DF4F39832883BF
:10387000C959D040CE018F579F4FC556DF4F99830E
:103880008883CB59D040DC011496C155DF4FB983F2
:10389000A883CF5AD0400E944609672B682B692B1A
:1038A00041F40E944609623071058105910508F4D2
:1038B00008C10E9446096093FD017093FE01809348
:1038C000FF01909300020091F9011091FA012091FB
:1038D000FB013091FC01601771078207930740F4E8
:1038E0006093F9017093FA018093FB019093FC01BE
:1038F0000091F9011091FA012091FB013091FC0136
:103900006B017C01C01AD10AE20AF30A9701860111
:103910000A3F11052105310508F4D3C06093F90170
:103920007093FA018093FB019093FC0184EF91E086
:10393000A0E0B0E08093A7039093A803A093A9030D
:10394000B093AA031092AB031092AC031092AD0394
:103950001092AE0380919F039091A003A091A103C8
:10396000B091A2038093A3039093A403A093A50313
:10397000B093A6030E94460960939F037093A0032F
:103980008093A1039093A2030E94460960939B0336
:1039900070939C0380939D0390939E030E9446091D
:1039A0006B017C016CE971E08091DB039091DC0399
:1039B0000E9434152AE041E050E060E070E0809120
:1039C000DB039091DC030E94DF1363EA71E08091D6
:1039D000DB039091DC030E9434152AE0B701A601B5
:1039E0008091DB039091DC030E94DF1365EA71E0B4
:1039F0008091DB039091DC030E94341580919F033A
:103A00009091A003A091A103B091A203B701A601D8
:103A1000481B590B6A0B7B0B2AE08091DB039091CA
:103A2000DC030E94DF1365EA71E08091DB03909173
:103A3000DC030E94341540919F035091A0036091D4
:103A4000A1037091A2038091A3039091A403A0917C
:103A5000A503B091A603481B590B6A0B7B0B2AE008
:103A60008091DB039091DC030E94DF1367EA71E031
:103A70008091DB039091DC030E9434150E9446097B
:103A8000AB01BC012AE08091DB039091DC030E9432
:103A9000DF1369EA71E08091DB039091DC030E94FF
:103AA000201565E070E080E090E00E940C090E9423
:103AB000460960939F037093A0038093A1039093A2
:103AC000A203E0911004F09111046091EF0384854A
:103AD00095850E94B31364E670E080E090E00E9458
:103AE0000C098091100490911104DC01ED91FC917E
:103AF0000480F581E02D0995892B09F488C060EBDD
:103B000071E08CEF92E00E9420150091100410915A
:103B10001104FE0131967F01C756DF4FC880D9805E
:103B2000C959D040EC14FD0409F474C0C155DF4FED
:103B3000C880D980CF5AD040D801ED91FC91048043
:103B4000F581E02DC8010995892B19F1D801ED9176
:103B5000FC910680F781E02DC8010995F60182935A
:103B60006F01C556DF4F28813981CB59D040E2170C
:103B7000F30711F7CF57DF4F88819981AA81BB8165
:103B8000C158D040F70180839183A283B38380E042
:103B900019C09BE0A92EB12CD801ED91FC910480B5
:103BA000F581E02DC8010995892B81F631E0A31A32
:103BB000B10839F064E670E080E090E00E940C0902
:103BC000EBCF81E0F4E0EF0EF11C882309F4A4CFE1
:103BD00061ED71E08CEF92E00E9434152AE041E043
:103BE00050E060E070E08CEF92E00E94DF136DE740
:103BF00071E08CEF92E00E94BA13E0911004F09112
:103C000011046091EE03848595850E94B3130E9490
:103C1000130641CEE0911004F09111046091ED0380
:103C2000848595850E94B3136D817E818F819885EF
:103C30000E9422286B017C0169817A818B819C81A1
:103C40000E9422286093F8037093F9038093FA038B
:103C50009093FB03C092FC03D092FD03E092FE031D
:103C6000F092FF0388EF93E00E9449116D857E85F5
:103C70008F8598890E9422286B017C0169857A854D
:103C80008B859C850E942228609300047093010418
:103C90008093020490930304C0920404D09205041C
:103CA000E0920604F092070480E094E00E9449113B
:103CB0006D897E898F89988D0E9422286B017C01F5
:103CC00069897A898B899C890E94222860930804DB
:103CD0007093090480930A0490930B04C0920C041F
:103CE000D0920D04E0920E04F0920F0488E094E06C
:103CF0000E9449111092F0031092F1031092F20306
:103D00001092F3031092F4031092F5031092F6034D
:103D10001092F7034090F8035090F9036090FA0373
:103D20007090FB03C0900004D0900104E090020466
:103D3000F0900304A7019601C301B2010E941B2861
:103D400081119CC120910404309105044091060426
:103D5000509107046091FC037091FD038091FE0374
:103D60009091FF030E941B28811188C101E010E09F
:103D700014C0C7010E949E2668E074E088EF93E0BB
:103D80000E94810B7C01BC01C5010E94E8098C01E5
:103D9000892B09F08EC202E010E0A801012E000C70
:103DA000660B770B2AE08CEF92E00E94DF136DE741
:103DB00071E08CEF92E00E94BA13012B09F027CF3B
:103DC00020E030E040E050E46091F0037091F103B6
:103DD0008091F2039091F3030E9496230E94E724BE
:103DE000161617060CF013CF20E030E044E353E43E
:103DF0006091F4037091F5038091F6039091F703BD
:103E00000E9496236093F4037093F5038093F60366
:103E10009093F70360EC71E08CEF92E00E94341510
:103E20004091F4035091F5036091F6037091F7030C
:103E30008CEF92E00E940B15209012043090130436
:103E40006091F4037091F5038091F6039091F7036C
:103E500020E030E044EB53E40E9428256B017C0114
:103E600020E030E0A9010E941B2820E030E044EB74
:103E700053E487FF05C0C701B6010E9497230EC017
:103E8000C701B6010E94A625181654F420E030E0C0
:103E900044EB53E4C701B6010E9496236B017C01F9
:103EA00020E030E044E353E4C701B6010E941B2840
:103EB00087FF08C083E090E0D10117969C938E9312
:103EC00016970FC0A701960160E070E084EB93E4C1
:103ED0000E9496236B017C0122E030E0F1013783E0
:103EE000268320E030E040E251E4C701B6010E94A1
:103EF0001B2887FD8FC051013CE0A30EB11C00E0E0
:103F000010E00F5F1F4FD5014D905D906D907D903B
:103F10005D01A3019201C701B6010E941B2887FF22
:103F200055C0B80161507109F8013196EE0FFF1FBD
:103F3000EE0FFF1FE20DF31D80809180A280B38001
:103F4000072E000C880B990B0E942228C356DF4FC6
:103F5000688379838A839B83CD59D040A5019401DE
:103F6000C701B6010E949623CF55DF4F688379833E
:103F70008A839B83C15AD040A5019401C301B20139
:103F80000E9496239B01AC01CF55DF4F6881798158
:103F90008A819B81C15AD0400E9475249B01AC014B
:103FA000C356DF4F688179818A819B81CD59D0408A
:103FB0000E94972320E030E048E452E40E948128E8
:103FC0000E94EE246115710539F404C00930110511
:103FD00009F097CF64EF71E0CD57DF4F79836883A5
:103FE000C358D04082E391E0CF57DF4F9983888355
:103FF000C158D040CB57DF4F1882C558D04021E878
:1040000030E02C0F3D1FF10131832083C1010E945C
:10401000360F03C0C12CD12C7601D10117961C920A
:104020001E92169720E030E0A901C701B6010E9458
:104030001B288111ECCDE8EEF3E0CD57DF4FF9837B
:10404000E883C358D04082E391E0CF57DF4F998394
:104050008883C158D040CB57DF4F1882C558D04015
:104060008091120490911304E1E8F0E0EC0FFD1F41
:10407000DC01ED93FC930E94360FC9CD80900804BB
:1040800090900904A0900A04B0900B04A50194013B
:10409000C301B2010E941B28811115C020910C049C
:1040A00030910D0440910E0450910F046091FC0377
:1040B0007091FD038091FE039091FF030E941B28E5
:1040C000882309F453CEA5019401C701B6010E94CB
:1040D0001B28811115C020910C0430910D044091D2
:1040E0000E0450910F0460910404709105048091B6
:1040F0000604909107040E941B28882309F436CEF9
:1041000060E074E088EF93E00E94810B8C01BC01B9
:1041100088E094E00E94580B6B017C01C8010E946A
:104120009E2620E030E0A901C701B6010E941B28AD
:10413000882309F41BCECF57DF4F188219821A82C9
:104140001B82C158D040CB57DF4F188219821A8288
:104150001B82C558D04088E090E00E940926C356D3
:10416000DF4F99838883CD59D04020910804309146
:10417000090440910A0450910B046091000470916D
:10418000010480910204909103040E94972320E08F
:1041900030E040E05FE30E948128C356DF4FA881F2
:1041A000B981CD59D0406D937D938D939C93139796
:1041B00020910C0430910D0440910E0450910F0495
:1041C00060910404709105048091060490910704A5
:1041D0000E94972320E030E040E05FE30E948128C6
:1041E000C356DF4FE881F981CD59D0406483758390
:1041F00086839783BF0180E094E00E949C091C01A4
:1042000068E074E080E094E00E94810B8C01BC01C6
:1042100088EF93E00E94580B6B017C01B801C1014B
:104220000E94580B9B01AC01C701B6010E94812876
:1042300020E030E0A9010E941B2887FF0EC0C101C9
:104240000E949E26C356DF4F68817981CD59D040A8
:1042500088E094E00E949C091C01B10188EF93E082
:104260000E94810BCB55DF4F99838883C55AD0407C
:10427000C8010E949E26C356DF4F68817981CD59BF
:10428000D040CE018F579F4F0E94810B5C0160E0B0
:1042900074E088EF93E00E94810B7C01BC01C501B2
:1042A0000E94E8098C01892B09F463CD60E074E079
:1042B00002C068E074E0C1010E94810B6C01B8018A
:1042C000CB55DF4F88819981C55AD0400E94F20AB0
:1042D0004C01BC01C6010E94E8093C01009709F4A9
:1042E0005ACDBC01C356DF4F88819981CD59D0404A
:1042F0000E94810BC955DF4F99838883C75AD040EC
:10430000C5010E949E26C7010E949E26C8010E94E8
:104310009E26C6010E949E26C4010E949E26C301BD
:104320000E949E26BE016F577F4FCB55DF4F88817D
:104330009981C55AD0400E94F20AC755DF4F998330
:104340008883C95AD040C955DF4F68817981C75ADF
:10435000D0400E94E8098C01009709F41CCDC35697
:10436000DF4FA881B981CD59D040CD90DD90ED903F
:10437000FC90CF55DF4FC882D982EA82FB82C15AB6
:10438000D040A7019601FC016081718182819381F7
:104390000E9496234B015C01C356DF4FA881B9816F
:1043A000CD59D04014964D905D906D907C901797AC
:1043B000A3019201F80164817581868197810E9431
:1043C00096236B017C01A5019401C501B4010E94F3
:1043D00081284B015C01A7019601C701B6010E942B
:1043E00081289B01AC01C501B4010E9497230E9462
:1043F000B925C555DF4F688379838A839B83CB5A60
:10440000D040D1012D913D914D915C91CF55DF4F21
:10441000688179818A819B81C15AD0400E9496230C
:104420004B015C01F1012481358146815781C30133
:10443000B2010E9496236B017C01A5019401C50184
:10444000B4010E9481284B015C01A7019601C701BC
:10445000B6010E9481289B01AC01C501B4010E94F4
:1044600097230E94B9259B01AC01C555DF4F688198
:1044700079818A819B81CB5AD0400E9475246093B8
:10448000F0037093F1038093F2039093F303CF55FD
:10449000DF4F288139814A815B81C15AD040D101E7
:1044A0006D917D918D919C910E9496236B017C0171
:1044B000A3019201F10164817581868197810E9437
:1044C0009623A70196010E9416246B017C01CF550B
:1044D000DF4F288139814A815B81C15AD040D801A0
:1044E0006D917D918D919C910E9496234B015C0171
:1044F000A3019201F80164817581868197810E94F0
:104500009623A50194010E9416249B01AC01C701CA
:10451000B6010E94962320E030E044E353E40E9479
:1045200081282BED3FE049E450E40E94752420E00F
:1045300030E044EB53E40E9428256B017C0120E02D
:1045400030E0A9010E941B2887FF0AC020E030E06C
:1045500044EB53E4C701B6010E9497236B017C0131
:10456000C092F403D092F503E092F603F092F703C1
:10457000C356DF4F88819981CD59D0400E949E2635
:10458000C1010E949E26CB55DF4F88819981C55A73
:10459000D0400E949E26C955DF4F88819981C75A15
:1045A000D0400E949E26C755DF4F88819981C95A05
:1045B000D0400E949E26C8010E949E2600E010E086
:1045C000ECCB0F931F93CF93DF93EC019C012F5FF4
:1045D0003F4F08EE13E041E06AE388810E946F0CD0
:1045E0008981DF91CF911F910F910895ECEFF2E057
:1045F0001382128288EE93E0A0E0B0E0848395837A
:10460000A683B7832AE331E03183208325EC30E0B1
:104610003587248724EC30E03787268720EC30E08C
:10462000318B208B21EC30E0338B228B22EC30E07D
:10463000358B248B26EC30E0378B268B118E128E37
:10464000138E148EE9E9F3E0168217821086118624
:10465000128613861486158616861786108A118A86
:10466000128A138A148A158AE1EEF3E01382128209
:1046700084839583A683B7838AE491E091838083C2
:10468000EDEEF3E0108281E0818382E08283138289
:10469000148215821682178210861186128613865E
:1046A0001486158616861786108A118A128A138A2E
:1046B000148A158A168A178A108E118E128E138EFE
:1046C000148E158E168E178E10A211A212A20895A6
:1046D00097FB072E16F4009407D077FD09D00E94AF
:1046E0007C2307FC05D03EF4909581959F4F08955B
:1046F000709561957F4F0895AA1BBB1B51E107C0C0
:10470000AA1FBB1FA617B70710F0A61BB70B881F61
:10471000991F5A95A9F780959095BC01CD010895F0
:10472000EE0FFF1F0590F491E02D09945058BB2720
:10473000AA270E94AE230C9405290E94F72838F07E
:104740000E94FE2820F039F49F3F19F426F40C94BF
:10475000F4280EF4E095E7FB0C94EE28E92F0E9474
:10476000162958F3BA17620773078407950720F0D4
:1047700079F4A6F50C9438290EF4E0950B2EBA2F97
:10478000A02D0B01B90190010C01CA01A001112457
:10479000FF27591B99F0593F50F4503E68F11A1603
:1047A000F040A22F232F342F4427585FF3CF469594
:1047B00037952795A795F0405395C9F77EF41F16B6
:1047C000BA0B620B730B840BBAF09150A1F0FF0F80
:1047D000BB1F661F771F881FC2F70EC0BA0F621F6C
:1047E000731F841F48F4879577956795B795F7955C
:1047F0009E3F08F0B0CF9395880F08F09927EE0FF1
:104800009795879508950E94F72860F080E891E0D9
:1048100009F49EEF0E94FE2828F040E851E071F470
:104820005EEF0CC00C94F4280C943829E92FE07842
:104830000E94162940F3092E052AB1F326173707DF
:104840004807590738F00E2E07F8E02569F0E025F3
:10485000E0640AC0EF6307F8009407FADB01B901CE
:104860009D01DC01CA01AD01EF930E948C240E94DE
:1048700005290E9446245F91552339F02BED3FE036
:1048800049E450FD49EC0C9497230895DF93DD270C
:10489000B92FBF7740E85FE31616170648075B0796
:1048A00018F4D92F0E94AB259F938F937F936F931A
:1048B0000E94F925E8E6F0E00E947F250E94052984
:1048C0002F913F914F915F910E949428DD2351F0E9
:1048D0009058A2EA2AED3FE049EC5FE3D0785D27EB
:1048E0000E94AE23DF910C9405290E9489240C9428
:1048F00005290E94FE2858F00E94F72840F029F46C
:104900005F3F29F00C94EE2851110C9439290C9436
:10491000F4280E94162968F39923B1F3552391F3E3
:10492000951B550BBB27AA2762177307840738F01E
:104930009F5F5F4F220F331F441FAA1FA9F335D07B
:104940000E2E3AF0E0E832D091505040E695001C2F
:10495000CAF72BD0FE2F29D0660F771F881FBB1FE9
:10496000261737074807AB07B0E809F0BB0B802DC7
:10497000BF01FF2793585F4F3AF09E3F510578F0F3
:104980000C94EE280C9439295F3FE4F3983ED4F35D
:10499000869577956795B795F7959F5FC9F7880FC7
:1049A000911D9695879597F90895E1E0660F771F19
:1049B000881FBB1F621773078407BA0720F0621BAA
:1049C000730B840BBA0BEE1F88F7E09508950E94D5
:1049D000EE246894B1110C94392908950E941E297F
:1049E00088F09F5798F0B92F9927B751B0F0E1F0B0
:1049F000660F771F881F991F1AF0BA95C9F714C060
:104A0000B13091F00E943829B1E008950C94382912
:104A1000672F782F8827B85F39F0B93FCCF3869598
:104A200077956795B395D9F73EF4909580957095F5
:104A300061957F4F8F4F9F4F08950E94F72820F078
:104A400019F00E94FE2850F40C94F4280C94392993
:104A5000E92F0E94162988F35523B1F3E7FB62176B
:104A6000730784079507A8F189F3E92FFF278823A7
:104A70002AF03197660F771F881FDAF7952F552791
:104A8000442332F091505040220F331F441FD2F77D
:104A9000BB27E91BF50B621B730B840BB109B1F249
:104AA00022F4620F731F841FB11D31972AF0660F25
:104AB000771F881FBB1FEFCF9150504062F041F02D
:104AC000882332F0660F771F881F91505040C1F73E
:104AD00093950C9471258695779567959F5FD9F787
:104AE000F7CF9F3F31F0915020F4879577956795E8
:104AF000B795880F911D9695879597F90895DF933F
:104B0000CF931F930F93FF92EF92DF927B018C0163
:104B1000689406C0DA2EEF010E949428FE01E89402
:104B2000A5912591359145915591A6F3EF010E94EC
:104B3000AE23FE019701A801DA9469F7DF90EF90A8
:104B4000FF900F911F91CF91DF9108950E945D28F2
:104B500008F48FEF08959B01AC0160E070E080E8FD
:104B60009FE30C94752419F416F40C94F4280C9417
:104B700071250E941E29B8F39923C9F3B6F39F57F4
:104B8000550B87FF0E9402260024A0E640EA900110
:104B900080585695979528F4805C660F771F881F7C
:104BA00020F026173707480730F4621B730B840B7D
:104BB000202931294A2BA6951794079420253125C1
:104BC0004A2758F7660F771F881F20F026173707E8
:104BD000480730F4620B730B840B200D311D411D0F
:104BE000A09581F7B901842F9158880F96958795E4
:104BF00008959B01AC010C9481280E945D28880BCC
:104C0000990B089591505040660F771F881FD2F777
:104C10000895CF93DF938230910510F482E090E005
:104C2000E0911604F091170420E030E0C0E0D0E0FD
:104C3000309711F14081518148175907C0F048174A
:104C4000590761F482819381209719F09B838A83AD
:104C50002BC0909317048093160426C021153105AC
:104C600019F04217530718F49A01BE01DF01EF0152
:104C70000280F381E02DDCCF2115310509F1281BDD
:104C8000390B2430310590F412968D919C91139735
:104C90006115710521F0FB019383828304C0909319
:104CA000170480931604FD01329644C0FD01E20F03
:104CB000F31F81939193225031092D933C933AC075
:104CC0002091140430911504232B41F4209102010A
:104CD00030910301309315042093140420910001B6
:104CE000309101012115310541F42DB73EB74091B6
:104CF000040150910501241B350BE0911404F0913F
:104D00001504E217F307A0F42E1B3F0B28173907F1
:104D100078F0AC014E5F5F4F2417350748F04E0F17
:104D20005F1F50931504409314048193919302C024
:104D3000E0E0F0E0CF01DF91CF9108950F931F9352
:104D4000CF93DF93009709F48CC0FC013297138254
:104D5000128200911604109117040115110581F4B7
:104D600020813181820F931F20911404309115040A
:104D70002817390779F5F0931504E093140471C0EE
:104D8000D80140E050E0AE17BF0750F412962D91C5
:104D90003C911397AD012115310509F1D901F3CFEC
:104DA0009D01DA013383228360817181860F971F11
:104DB0008217930769F4EC0128813981260F371F88
:104DC0002E5F3F4F318320838A819B81938382832F
:104DD000452B29F4F0931704E093160442C0139670
:104DE000FC93EE931297ED01499159919E01240F86
:104DF000351FE217F30771F480819181840F951FAD
:104E0000029611969C938E938281938113969C9324
:104E10008E931297E0E0F0E0D80112968D919C916C
:104E20001397009719F0F8018C01F6CF8D919C91A2
:104E300098012E5F3F4F820F931F209114043091F1
:104E400015042817390769F4309729F410921704CC
:104E50001092160402C0138212821093150400935C
:104E60001404DF91CF911F910F910895A0E0B0E05D
:104E7000ECE3F7E20C946529EC01009721F4CB01F7
:104E80000E940926B8C0FC01E60FF71F9C012250C2
:104E90003109E217F30708F4ACC0D9010D911C9158
:104EA000119706171707B0F00530110508F49FC0D9
:104EB000C80104978617970708F499C00250110992
:104EC000061B170B019311936D937C93CF010E94E6
:104ED0009E268DC05B01A01AB10A4C01800E911E66
:104EE000A0911604B091170440E050E0E12CF12CA1
:104EF000109709F44AC0A815B905D1F56D907C90BA
:104F00001197630182E0C80ED11CCA14DB0480F142
:104F1000A3014A195B096A0182E0C80ED11C1296EE
:104F2000BC9012971396AC91B5E0CB16D10440F02B
:104F3000B282A38351834083D9016D937C930AC0CD
:104F40000E5F1F4FC301800F911FF9019183808372
:104F5000EB2DFA2FE114F10431F0D7011396FC93F5
:104F6000EE93129744C0F0931704E09316043FC0E9
:104F70008D919C9111974817590708F4AC017D0158
:104F800012960D90BC91A02DB3CF809114049091F6
:104F9000150488159905E1F446175707C8F4809160
:104FA000000190910101009741F48DB79EB74091A7
:104FB000040150910501841B950BE817F907C8F40B
:104FC000F0931504E0931404F901718360830FC01A
:104FD000CB010E9409267C01009759F0A801BE016F
:104FE0000E941228CE010E949E26C70104C0CE0155
:104FF00002C080E090E0CDB7DEB7EEE00C948129EE
:1050000081E090E0F8940C949829FB01DC0104C045
:105010008D910190801921F441505040C8F7881BB0
:10502000990B0895FB01DC0102C001900D924150E3
:105030005040D8F708950E945D2808F481E0089553
:10504000E89409C097FB3EF4909580957095619522
:105050007F4F8F4F9F4F9923A9F0F92F96E9BB27D8
:105060009395F695879577956795B795F111F8CF54
:10507000FAF4BB0F11F460FF1BC06F5F7F4F8F4FBF
:105080009F4F16C0882311F096E911C0772321F0B5
:105090009EE8872F762F05C0662371F096E8862F4D
:1050A00070E060E02AF09A95660F771F881FDAF7A4
:1050B000880F9695879597F90895990F0008550FD1
:1050C000AA0BE0E8FEEF16161706E807F907C0F08E
:1050D00012161306E407F50798F0621B730B840B96
:1050E000950B39F40A2661F0232B242B252B21F470
:1050F00008950A2609F4A140A6958FEF811D811D10
:1051000008950E9494280C9405290E94F72838F0ED
:105110000E94FE2820F0952311F00C94EE280C94A8
:10512000F42811240C9439290E94162970F3959FB4
:10513000C1F3950F50E0551F629FF001729FBB278E
:10514000F00DB11D639FAA27F00DB11DAA1F649F2A
:105150006627B00DA11D661F829F2227B00DA11DDD
:10516000621F739FB00DA11D621F839FA00D611D63
:10517000221F749F3327A00D611D231F849F600D84
:10518000211D822F762F6A2F11249F5750409AF0AD
:10519000F1F088234AF0EE0FFF1FBB1F661F771F39
:1051A000881F91505040A9F79E3F510580F00C9404
:1051B000EE280C9439295F3FE4F3983ED4F38695AA
:1051C00077956795B795F795E7959F5FC1F7FE2BA4
:1051D000880F911D9695879597F9089597F99F6780
:1051E00080E870E060E008959FEF80EC089500246F
:1051F0000A941616170618060906089500240A943C
:1052000012161306140605060895092E0394000CC1
:1052100011F4882352F0BB0F40F4BF2B11F460FF50
:1052200004C06F5F7F4F8F4F9F4F089557FD905879
:10523000440F551F59F05F3F71F04795880F97FB5A
:10524000991F61F09F3F79F0879508951216130614
:105250001406551FF2CF4695F1DF08C01616170643
:105260001806991FF1CF8695710561050894089578
:10527000E894BB2766277727CB0197F90895A1E229
:105280001A2EAA1BBB1BFD010DC0AA1FBB1FEE1FC0
:10529000FF1FA217B307E407F50720F0A21BB30B0B
:1052A000E40BF50B661F771F881F991F1A9469F787
:1052B00060957095809590959B01AC01BD01CF01E3
:1052C00008952F923F924F925F926F927F928F92AA
:1052D0009F92AF92BF92CF92DF92EF92FF920F9385
:1052E0001F93CF93DF93CDB7DEB7CA1BDB0B0FB68F
:1052F000F894DEBF0FBECDBF09942A88398848884C
:105300005F846E847D848C849B84AA84B984C884E1
:10531000DF80EE80FD800C811B81AA81B981CE0FD8
:10532000D11D0FB6F894DEBF0FBECDBFED010895BD
:04533000F894FFCF1F
:10533400000018048000000000002A0EE9070000A5
:10534400000069066511BD06D50650066806000012
:105354000000AB076511DB07CF07C307B7070000E1
:1053640000004206E80300000000AA056511730569
:1053740051056505F105000000007C074C0748064F
:1053840038072907280700000000E7076511E70729
:10539400E707E707E70700000000E7076511564D38
:1053A4004450565F317C315F564D4450560D0A00CF
:1053B4007061636B65742073697A653A200050727A
:1053C4006F6772616D20737461727400564D44503E
:1053D400455F003A323A007C005F564D4450450028
:1053E4004461746120617661696C61626C6521005D
:1053F400436F6D707574656420616E676C653A20E7
:105404000052656365697665206572726F723A2031
:10541400006E616E00696E66006F7666002E000095
:107E0000112484B714BE81FFF0D085E080938100F7
:107E100082E08093C00088E18093C10086E0809377
:107E2000C20080E18093C4008EE0C9D0259A86E02C
:107E300020E33CEF91E0309385002093840096BBD3
:107E4000B09BFECF1D9AA8958150A9F7CC24DD24C4
:107E500088248394B5E0AB2EA1E19A2EF3E0BF2EE7
:107E6000A2D0813461F49FD0082FAFD0023811F036
:107E7000013811F484E001C083E08DD089C08234E0
:107E800011F484E103C0853419F485E0A6D080C0E4
:107E9000853579F488D0E82EFF2485D0082F10E0AE
:107EA000102F00270E291F29000F111F8ED06801E7
:107EB0006FC0863521F484E090D080E0DECF843638
:107EC00009F040C070D06FD0082F6DD080E0C81688
:107ED00080E7D80618F4F601B7BEE895C0E0D1E017
:107EE00062D089930C17E1F7F0E0CF16F0E7DF06D8
:107EF00018F0F601B7BEE89568D007B600FCFDCFD4
:107F0000A601A0E0B1E02C9130E011968C91119780
:107F100090E0982F8827822B932B1296FA010C0160
:107F200087BEE89511244E5F5F4FF1E0A038BF0790
:107F300051F7F601A7BEE89507B600FCFDCF97BE46
:107F4000E89526C08437B1F42ED02DD0F82E2BD052
:107F50003CD0F601EF2C8F010F5F1F4F84911BD097
:107F6000EA94F801C1F70894C11CD11CFA94CF0C13
:107F7000D11C0EC0853739F428D08EE10CD085E9AC
:107F80000AD08FE07ACF813511F488E018D01DD067
:107F900080E101D065CF982F8091C00085FFFCCF94
:107FA0009093C60008958091C00087FFFCCF809118
:107FB000C00084FD01C0A8958091C6000895E0E648
:107FC000F0E098E1908380830895EDDF803219F02E
:107FD00088E0F5DFFFCF84E1DECF1F93182FE3DFCA
:107FE0001150E9F7F2DF1F91089580E0E8DFEE27F6
:047FF000FF270994CA
:027FFE00040479
:0400000300007E007B
:00000001FF