:100000000C945D000C9485000C9485000C945D06A6
:100010000C9432060C9403060C9485000C94850015
:100020000C9485000C9485000C9485000C9485003C
:100030000C9485000C9485000C9485000C9485002C
:100040000C94B9050C9485000C9487050C946105FB
:100050000C9485000C9485000C9485000C9485000C
:100060000C9485000C9485000000000024002700FB
:100070002A0000000000250028002B0004040404CE
:100080000404040402020202020203030303030342
:10009000010204081020408001020408102001021F
:1000A00004081020000000080002010000030407FB
:1000B0000000000000000000880611241FBECFEFE2
:1000C000D8E0DEBFCDBF11E0A0E0B1E0E6E2F2E1B2
:1000D00002C005900D92AA3DB107D9F722E0AAED22
:1000E000B1E001C01D92AE3DB207E1F710E0CDE5F1
:1000F000D0E004C02197FE010E94B707CC35D1079C
:10010000C9F70E94F3060C9411090C940000E9EE63
:10011000F1E0A089B18982E08C93A485B5851C9219
:10012000A685B7858FEC8C93108EA489B58986E05F
:100130008C93A289B3898C9180618C93A289B389B5
:100140008C9188608C93A289B3898C9180688C9300
:100150000288F389E02D80818F7D80830895CF927E
:10016000DF92EF92FF920F931F93CF93DF936C0177
:100170007A018B01C0E0D0E0CE15DF0589F0D8010F
:100180006D918D01D601ED91FC910190F081E02DF2
:10019000C6010995892B11F47E0102C02196ECCF8E
:1001A000C701DF91CF911F910F91FF90EF90DF90EA
:1001B000CF900895FC01918D828D981761F0828D0A
:1001C000DF01A80FB11D5D968C91928D9F5F9F738B
:1001D000928F90E008958FEF9FEF0895FC01918D2D
:1001E000828D981731F0828DE80FF11D858D90E09A
:1001F00008958FEF9FEF0895FC01918D228D892F37
:1002000090E0805C9F4F821B91098F73992708951E
:1002100089EE91E00E94FC0021E0892B09F420E0A6
:10022000822F0895FC01848DDF01A80FB11DA35A10
:10023000BF4F2C91848D90E001968F739927848F06
:10024000A689B7892C93A089B1898C9180648C93FD
:10025000938D848D981306C00288F389E02D8081E8
:100260008F7D80830895EF92FF920F931F93CF931A
:10027000DF93EC0181E0888F9B8D8C8D981305C0F6
:10028000E889F989808185FD24C0F62E0B8D10E068
:100290000F5F1F4F0F731127E02E8C8DE8120CC0DB
:1002A0000FB607FCFACFE889F989808185FFF5CF81
:1002B000CE010E941201F1CF8B8DFE01E80FF11DDE
:1002C000E35AFF4FF0820B8FEA89FB8980818062BD
:1002D00007C0EE89FF896083E889F989808180649D
:1002E000808381E090E0DF91CF911F910F91FF908B
:1002F000EF900895CF93DF93EC01888D8823C9F0A8
:10030000EA89FB89808185FD05C0A889B9898C911E
:1003100086FD0FC00FB607FCF5CF808185FFF2CFB9
:10032000A889B9898C9185FFEDCFCE010E94120179
:10033000E7CFDF91CF91089580E090E0892B29F0FD
:100340000E94080181110C940000089590E0FC01C6
:10035000EC55FF4F3491FC01E057FF4F2491FC0115
:10036000E458FF4FE491EE2309F43BC0332339F105
:10037000333091F038F43130A9F0323001F584B5E2
:100380008F7D12C0373091F03830A1F03430B9F49D
:10039000809180008F7D03C0809180008F77809353
:1003A00080000DC084B58F7784BD09C08091B000F6
:1003B0008F7703C08091B0008F7D8093B000F0E014
:1003C000EE0FFF1FEE58FF4FA591B4918FB7F89431
:1003D000EC91611103C020952E2301C02E2B2C938C
:1003E0008FBF0895CF93DF9390E0FC01E057FF4F5C
:1003F0002491FC01E458FF4F8491882361F190E03F
:10040000880F991FFC01E859FF4FC591D491FC0159
:10041000EE58FF4FA591B491611109C09FB7F894B0
:100420008881209582238883EC912E230BC0623033
:1004300061F49FB7F8943881822F80958323888355
:10044000EC912E2B2C939FBF06C08FB7F894E881B8
:100450002E2B28838FBFDF91CF9108951F93CF93C9
:10046000DF93182FEB0161E00E94F201209711F455
:1004700060E004C0CF3FD10539F461E0812FDF9106
:10048000CF911F910C94A601E12FF0E0EC55FF4FA6
:10049000E491E330F9F048F4E130B9F0E230A1F54D
:1004A00084B5806284BDC8BD34C0E730E9F0E8306F
:1004B00019F1E43049F580918000806280938000DA
:1004C000D0938B00C0938A0024C084B5806884BD1B
:1004D000C7BD1FC080918000806880938000D0934A
:1004E0008900C093880015C08091B0008068809317
:1004F000B000C093B3000DC08091B00080628093C3
:10050000B000C093B40005C0C038D1050CF0B5CF21
:10051000AFCFDF91CF911F9108953FB7F8948091AD
:10052000E1019091E201A091E301B091E40126B5CF
:10053000A89B05C02F3F19F00196A11DB11D3FBF1B
:10054000BA2FA92F982F8827820F911DA11DB11DA9
:10055000BC01CD0142E0660F771F881F991F4A95A5
:10056000D1F708958F929F92AF92BF92CF92DF9270
:10057000EF92FF926B017C010E948D024B015C01A6
:10058000C114D104E104F104F1F00E948D02DC01F8
:10059000CB0188199909AA09BB09883E9340A10596
:1005A000B10570F321E0C21AD108E108F10888EE24
:1005B000880E83E0981EA11CB11CC114D104E10473
:1005C000F10419F7DDCFFF90EF90DF90CF90BF904F
:1005D000AF909F908F900895EF92FF921F93CF93CB
:1005E000DF93EC011881162768837C0180E1E80E17
:1005F000F11C112399F0CE15DF0581F010FF0BC01F
:1006000089819A81009739F0DC01ED91FC9101908C
:10061000F081E02D099516952296EBCFDF91CF91D1
:100620001F91FF90EF9008956115710579F0FB011E
:1006300001900020E9F73197AF01461B570BDC0111
:10064000ED91FC910280F381E02D099480E090E02F
:100650000895CF93DF93BC0189EE91E00E941403CB
:10066000EC016FE771E089EE91E00E9414038C0FBA
:100670009D1FDF91CF9108954F925F926F927F926D
:10068000EF92FF920F931F93CF93DF93CDB7DEB717
:10069000A1970FB6F894DEBF0FBECDBF7C01FA0163
:1006A000CB0119A2223008F42AE08E010F5D1F4F02
:1006B000422E512C612C712CBF01A30192010E948A
:1006C000EF08F901CA01015011096A3014F4605DA4
:1006D00001C0695CD8016C93232B242B252B61F777
:1006E000B801C7010E941403A1960FB6F894DEBFAB
:1006F0000FBECDBFDF91CF911F910F91FF90EF9073
:100700007F906F905F904F9008950E94EA084F92FB
:100710005F926F927F928F929F92AF92BF92CF9291
:10072000DF92EF92FF920F931F93CF93DF935C01C1
:100730004B018A0189E090E00E94BD077C01D50150
:1007400015968C91F70182832AE031E03183208372
:10075000B482A3821682158210870783883028F01E
:10076000C1E08E3018F4C0E001C0C2E0CC2ED12C24
:10077000C601880F991F9C0126523E4F6901D9017D
:100780000D911C910115110539F581E190E00E9450
:10079000BD078C0181E1F80111928A95E9F7F80112
:1007A000119280E1DF011D928A95E9F7F60111832C
:1007B000008381E090E0A0E0B0E004C0880F991FC2
:1007C000AA1FBB1FCA95D2F72BB3282B2BBB209196
:1007D0006800822B80936800D7011296CC91C830B4
:1007E00038F0CE3010F488EF01C082EF8C0F01C0DA
:1007F0008C2FC82ED12CCC0CDD1CF801EC0DFD1D6E
:1008000021813281232B79F5412C512C32014394E3
:1008100004C0440C551C661C771C8A95D2F7C8305E
:1008200038F0CE3040F0C63148F0E0E0F0E008C0EB
:10083000EDE6F0E005C0EBE6F0E002C0ECE6F0E04B
:1008400080818429808360E08C2F0E94F20161E026
:100850008C2F0E94A601F8018081482A4082EC0D6D
:10086000FD1DF282E182D50114969C928E9213971F
:10087000B1E08B16910439F0E2E08E16910429F074
:10088000892821F41DC0D0E001C0D1E06D2FD50131
:100890008C910E94A60160E0F5018281DF91CF91E9
:1008A0001F910F91FF90EF90DF90CF90BF90AF908E
:1008B0009F908F907F906F905F904F900C94A601C7
:1008C000DF91CF911F910F91FF90EF90DF90CF902C
:1008D000BF90AF909F908F907F906F905F904F9060
:1008E00008958F929F92AF92BF92CF92DF92EF9234
:1008F000FF920F931F93CF93DF931F92CDB7DEB775
:10090000FC018581968101969683858327813085B8
:100910008217930708F4C7C04281483030F0CC24D6
:10092000C3944E3020F4C12C02C022E0C22E4F01ED
:100930000C2D10E0000F111FF801E652FE4FA080B1
:10094000B180A114B10409F493C06CE171E089EEA7
:1009500091E049830E941403498150E060E070E017
:100960002AE089EE91E00E943C036BE271E089EE9F
:1009700091E00E941403D12CE12CF12C2AE0B70164
:10098000A60189EE91E00E943C036FE771E089EED9
:1009900091E00E941403F4019281983038F09E3067
:1009A00010F488EF01C082EF890F01C0892F282F32
:1009B00030E041E050E060E070E004C0440F551FBB
:1009C000661F771F8A95D2F7983038F09E3040F036
:1009D000963148F0E0E0F0E008C0EDE6F0E005C058
:1009E000EBE6F0E002C0ECE6F0E0808140954823C1
:1009F0004083220F331FF501E20FF31F1282118291
:100A000087E391E00E94290395012F5E3F4FC501C6
:100A10000196FC018217930731F0029640815181C3
:100A2000452BB9F325C06BE471E089EE91E00E949B
:100A300014032AE0B701A60189EE91E00E943C036D
:100A40006FE771E089EE91E00E9414038BB31BBA4B
:100A50008091680010926800C5010E945208F80158
:100A6000E652FE4F118210828BE591E00E9429032D
:100A7000F4010381148161E0F80182810E94A601E2
:100A8000F80114821382C4010F90DF91CF911F915E
:100A90000F91FF90EF90DF90CF90BF90AF909F901D
:100AA0008F900C9452080F90DF91CF911F910F916E
:100AB000FF90EF90DF90CF90BF90AF909F908F907E
:100AC00008951F920F920FB60F9211242F933F9308
:100AD0004F935F936F937F938F939F93AF93BF9346
:100AE000EF93FF9389EE91E00E941201FF91EF9145
:100AF000BF91AF919F918F917F916F915F914F9136
:100B00003F912F910F900FBE0F901F9018951F923D
:100B10000F920FB60F9211242F938F939F93EF9301
:100B2000FF93E091F901F091FA018081E091FF01DA
:100B3000F091000282FD12C09081809102028F5FCD
:100B40008F7320910302821751F0E0910202F0E0CE
:100B5000E751FE4F958F8093020201C08081FF9183
:100B6000EF919F918F912F910F900FBE0F901F903B
:100B700018951F920F920FB60F9211242F933F9347
:100B80008F939F93AF93BF938091E5019091E6017E
:100B9000A091E701B091E8013091E00123E0230F3B
:100BA0002D3720F40196A11DB11D05C026E8230FA5
:100BB0000296A11DB11D2093E0018093E501909361
:100BC000E601A093E701B093E8018091E1019091E3
:100BD000E201A091E301B091E4010196A11DB11DD4
:100BE0008093E1019093E201A093E301B093E401CB
:100BF000BF91AF919F918F913F912F910F900FBE19
:100C00000F901F9018951F920F920FB60F921124FC
:100C10002F933F934F935F936F937F938F939F9304
:100C2000AF93BF93EF93FF938091DA019091DB0133
:100C3000892B39F069B18091DE019091DF010E942A
:100C4000EC02FF91EF91BF91AF919F918F917F91B6
:100C50006F915F914F913F912F910F900FBE0F9029
:100C60001F9018951F920F920FB60F9211242F9379
:100C70003F934F935F936F937F938F939F93AF9324
:100C8000BF93EF93FF938091DC019091DD0100977A
:100C900019F066B10E94EC02FF91EF91BF91AF9104
:100CA0009F918F917F916F915F914F913F912F9184
:100CB0000F900FBE0F901F9018951F920F920FB6B6
:100CC0000F9211242F933F934F935F936F937F93D2
:100CD0008F939F93AF93BF93EF93FF938091DA012C
:100CE0009091DB01009719F063B10E94EC02FF9133
:100CF000EF91BF91AF919F918F917F916F915F9194
:100D00004F913F912F910F900FBE0F901F9018950C
:100D1000CF93DF93E9EEF1E01382128288EE93E045
:100D2000A0E0B0E084839583A683B78380E191E05F
:100D30009183808385EC90E09587848784EC90E0B4
:100D40009787868780EC90E0918B808B81EC90E098
:100D5000938B828B82EC90E0958B848B86EC90E079
:100D6000978B868B118E128E138E148EE6E8F2E02E
:100D700016821782108611861286138614861586AF
:100D800016861786108A118A128A138A148A158A7F
:100D9000C4EDD2E08CE0888383E0898389E08A8394
:100DA0001C821B8261E08CE00E94F20161E089E01C
:100DB0000E94F20180E18D83CEECD2E08DE0888349
:100DC0008BE0898388E08A831C821B8261E08DE04E
:100DD0000E94F20161E088E00E94F20181E18D83CE
:100DE000DF91CF910895789484B5826084BD84B5F5
:100DF000816084BD85B5826085BD85B5816085BD16
:100E000080916E00816080936E00109281008091CD
:100E10008100826080938100809181008160809355
:100E20008100809180008160809380008091B1007A
:100E300084608093B1008091B00081608093B000A5
:100E400080917A00846080937A0080917A00826039
:100E500080937A0080917A00816080937A008091FB
:100E60007A00806880937A001092C1001092CA02C2
:100E70001092CB021092CC021092CD0210928802F6
:100E80001092890210928A0210928B0260ED77E034
:100E900080E090E00E94B20289EE91E09093C90256
:100EA0008093C8020E9487002FB7F8948091E501D3
:100EB0009091E601A091E701B091E8012FBF8093E6
:100EC000880290938902A0938A02B0938B0260E714
:100ED00071E08091C8029091C9020E9414036AE0F7
:100EE00070E080E090E00E94B20281E080939C027A
:100EF0000E94870082E891E00E94290387EB91E03D
:100F00000E94290364E670E08091D5020E942E02BF
:100F100061E08091D6020E94A6011092D802109240
:100F2000D70242E350E061E070E084ED92E00E947D
:100F3000870388EC91E00E94290364E670E08091C9
:100F4000CF020E942E0261E08091D0020E94A60191
:100F50001092D2021092D10244E150E062E070E0BF
:100F60008EEC92E00E9487030E949C01FDCFEE0F61
:100F7000FF1F0590F491E02D0994CF93DF93823009
:100F8000910510F482E090E0E091DC02F091DD0246
:100F900020E030E0C0E0D0E0309711F14081518195
:100FA00048175907C0F04817590761F482819381A7
:100FB000209719F09B838A832BC09093DD02809346
:100FC000DC0226C02115310519F04217530718F429
:100FD0009A01BE01DF01EF010280F381E02DDCCF39
:100FE0002115310509F1281B390B2430310590F406
:100FF00012968D919C9113976115710521F0FB015B
:101000009383828304C09093DD028093DC02FD0110
:10101000329644C0FD01E20FF31F81939193225059
:1010200031092D933C933AC02091DA023091DB02D2
:10103000232B41F420910201309103013093DB0214
:101040002093DA0220910001309101012115310530
:1010500041F42DB73EB74091040150910501241B86
:10106000350BE091DA02F091DB02E217F307A0F40E
:101070002E1B3F0B2817390778F0AC014E5F5F4FEE
:101080002417350748F04E0F5F1F5093DB02409343
:10109000DA028193919302C0E0E0F0E0CF01DF91AA
:1010A000CF9108950F931F93CF93DF93009709F487
:1010B0008CC0FC013297138212820091DC021091E5
:1010C000DD020115110581F420813181820F931F0A
:1010D0002091DA023091DB022817390779F5F09375
:1010E000DB02E093DA0271C0D80140E050E0AE17B5
:1010F000BF0750F412962D913C911397AD01211525
:10110000310509F1D901F3CF9D01DA01338322833F
:1011100060817181860F971F8217930769F4EC0134
:1011200028813981260F371F2E5F3F4F318320835F
:101130008A819B8193838283452B29F4F093DD027E
:10114000E093DC0242C01396FC93EE931297ED01FC
:10115000499159919E01240F351FE217F30771F44D
:1011600080819181840F951F029611969C938E9396
:101170008281938113969C938E931297E0E0F0E026
:10118000D80112968D919C911397009719F0F80150
:101190008C01F6CF8D919C9198012E5F3F4F820F6D
:1011A000931F2091DA023091DB022817390769F486
:1011B000309729F41092DD021092DC0202C01382F3
:1011C00012821093DB020093DA02DF91CF911F911C
:1011D0000F91089581E090E0F8940C941109A1E238
:1011E0001A2EAA1BBB1BFD010DC0AA1FBB1FEE1FA1
:1011F000FF1FA217B307E407F50720F0A21BB30BEC
:10120000E40BF50B661F771F881F991F1A9469F767
:1012100060957095809590959B01AC01BD01CF01C3
:061220000895F894FFCFD1
:101226000000DE02800000000000710400000000E3
:101236003301AF00FC00DA00EE007A014469736105
:10124600626C696E672070696E20002066726F6D31
:1012560020706F72742000446F6E6520646973613C
:10126600626C696E672070696E2E004469736162F4
:101276006C696E6720706F72742000446F6E652013
:1012860064697361626C696E6720706F72742E0098
:10129600564D4450565F317C315F564D4450560D85
:1012A6000A002D2D2D2D2D2D2D2D2D2D2D2D2D2DB8
:1012B6002D2D2D2D2D2D2D2D2D50524F4752414D7B
:1012C6002053455455502D2D2D2D2D2D2D2D2D2DA5
:1012D6002D2D2D2D2D2D005374617274696E67208E
:1012E6006D6F746F722041005374617274696E671A
:0A12F600206D6F746F72204200003B
:107E0000112484B714BE81FFF0D085E080938100F7
:107E100082E08093C00088E18093C10086E0809377
:107E2000C20080E18093C4008EE0C9D0259A86E02C
:107E300020E33CEF91E0309385002093840096BBD3
:107E4000B09BFECF1D9AA8958150A9F7CC24DD24C4
:107E500088248394B5E0AB2EA1E19A2EF3E0BF2EE7
:107E6000A2D0813461F49FD0082FAFD0023811F036
:107E7000013811F484E001C083E08DD089C08234E0
:107E800011F484E103C0853419F485E0A6D080C0E4
:107E9000853579F488D0E82EFF2485D0082F10E0AE
:107EA000102F00270E291F29000F111F8ED06801E7
:107EB0006FC0863521F484E090D080E0DECF843638
:107EC00009F040C070D06FD0082F6DD080E0C81688
:107ED00080E7D80618F4F601B7BEE895C0E0D1E017
:107EE00062D089930C17E1F7F0E0CF16F0E7DF06D8
:107EF00018F0F601B7BEE89568D007B600FCFDCFD4
:107F0000A601A0E0B1E02C9130E011968C91119780
:107F100090E0982F8827822B932B1296FA010C0160
:107F200087BEE89511244E5F5F4FF1E0A038BF0790
:107F300051F7F601A7BEE89507B600FCFDCF97BE46
:107F4000E89526C08437B1F42ED02DD0F82E2BD052
:107F50003CD0F601EF2C8F010F5F1F4F84911BD097
:107F6000EA94F801C1F70894C11CD11CFA94CF0C13
:107F7000D11C0EC0853739F428D08EE10CD085E9AC
:107F80000AD08FE07ACF813511F488E018D01DD067
:107F900080E101D065CF982F8091C00085FFFCCF94
:107FA0009093C60008958091C00087FFFCCF809118
:107FB000C00084FD01C0A8958091C6000895E0E648
:107FC000F0E098E1908380830895EDDF803219F02E
:107FD00088E0F5DFFFCF84E1DECF1F93182FE3DFCA
:107FE0001150E9F7F2DF1F91089580E0E8DFEE27F6
:047FF000FF270994CA
:027FFE00040479
:0400000300007E007B
:00000001FF