:100000000C9435000C945D000C945D000C945D0024
:100010000C945D000C945D000C945D000C945D00EC
:100020000C945D000C945D000C945D000C945D00DC
:100030000C945D000C945D000C945D000C945D00CC
:100040000C94A8020C945D000C9476020C9450025F
:100050000C945D000C945D000C945D000C945D00AC
:100060000C945D000C945D00F20211241FBECFEFD2
:10007000D8E0DEBFCDBF11E0A0E0B1E0EEEFF8E0E8
:1000800002C005900D92A838B107D9F722E0A8E880
:10009000B1E001C01D92A637B207E1F710E0C5E359
:1000A000D0E004C02197FE010E943A04C433D10776
:1000B000C9F70E9431030C947D040C940000E1E91F
:1000C000F1E0A089B18982E08C93A485B5851C926A
:1000D000A685B7858FEC8C93108EA489B58986E0B0
:1000E0008C93A289B3898C9180618C93A289B38906
:1000F0008C9188608C93A289B3898C9180688C9351
:100100000288F389E02D80818F7D80830895CF92CE
:10011000DF92EF92FF920F931F93CF93DF936C01C7
:100120007A018B01C0E0D0E0CE15DF0589F0D8015F
:100130006D918D01D601ED91FC910190F081E02D42
:10014000C6010995892B11F47E0102C02196ECCFDE
:10015000C701DF91CF911F910F91FF90EF90DF903A
:10016000CF900895FC01918D828D981761F0828D5A
:10017000DF01A80FB11D5D968C91928D9F5F9F73DB
:10018000928F90E008958FEF9FEF0895FC01918D7D
:10019000828D981731F0828DE80FF11D858D90E0EA
:1001A00008958FEF9FEF0895FC01918D228D892F87
:1001B00090E0805C9F4F821B91098F73992708956F
:1001C00081E991E00E94D40021E0892B09F420E02C
:1001D000822F0895FC01848DDF01A80FB11DA35A61
:1001E000BF4F2C91848D90E001968F739927848F57
:1001F000A689B7892C93A089B1898C9180648C934E
:10020000938D848D981306C00288F389E02D808138
:100210008F7D80830895EF92FF920F931F93CF936A
:10022000DF93EC0181E0888F9B8D8C8D981305C046
:10023000E889F989808185FD24C0F62E0B8D10E0B8
:100240000F5F1F4F0F731127E02E8C8DE8120CC02B
:100250000FB607FCFACFE889F989808185FFF5CFD1
:10026000CE010E94EA00F1CF8B8DFE01E80FF11D57
:10027000E35AFF4FF0820B8FEA89FB89808180620D
:1002800007C0EE89FF896083E889F98980818064ED
:10029000808381E090E0DF91CF911F910F91FF90DB
:1002A000EF900895CF93DF93EC01888D8823C9F0F8
:1002B000EA89FB89808185FD05C0A889B9898C916F
:1002C00086FD0FC00FB607FCF5CF808185FFF2CF0A
:1002D000A889B9898C9185FFEDCFCE010E94EA00F3
:1002E000E7CFDF91CF91089580E090E0892B29F04E
:1002F0000E94E00081110C94000008953FB7F8942B
:100300008091890190918A01A0918B01B0918C011B
:1003100026B5A89B05C02F3F19F00196A11DB11D60
:100320003FBFBA2FA92F982F8827820F911DA11D9B
:10033000B11DBC01CD0142E0660F771F881F991FD8
:100340004A95D1F708958F929F92AF92BF92CF9224
:10035000DF92EF92FF926B017C010E947E014B01C4
:100360005C01C114D104E104F104F1F00E947E01AA
:10037000DC01CB0188199909AA09BB09883E934081
:10038000A105B10570F321E0C21AD108E108F10816
:1003900088EE880E83E0981EA11CB11CC114D10404
:1003A000E104F10419F7DDCFFF90EF90DF90CF90DB
:1003B000BF90AF909F908F9008950E944004611568
:1003C000710579F0FB0101900020E9F73197AF0149
:1003D000461B570BDC01ED91FC910280F381E02D6F
:1003E000099480E090E00895CF93DF93BC0181E908
:1003F00091E00E94DF01EC016FE171E081E991E0A1
:100400000E94DF018C0F9D1FDF91CF9108954F92C5
:100410005F926F927F92EF92FF920F931F93CF9311
:10042000DF93CDB7DEB7A1970FB6F894DEBF0FBE4E
:10043000CDBF7C01FA01CB0119A2223008F42AE0D9
:100440008E010F5D1F4F422E512C612C712CBF016C
:10045000A30192010E945B04F901CA010150110934
:100460006A3014F4605D01C0695CD8016C93232B81
:10047000242B252B61F7B801C7010E94DF01A1964B
:100480000FB6F894DEBF0FBECDBFDF91CF911F91A5
:100490000F91FF90EF907F906F905F904F90089535
:1004A0001F920F920FB60F9211242F933F934F93E9
:1004B0005F936F937F938F939F93AF93BF93EF93CC
:1004C000FF9381E991E00E94EA00FF91EF91BF91D3
:1004D000AF919F918F917F916F915F914F913F91DC
:1004E0002F910F900FBE0F901F9018951F920F9293
:1004F0000FB60F9211242F938F939F93EF93FF9337
:10050000E091A101F091A2018081E091A701F09119
:10051000A80182FD12C090818091AA018F5F8F7324
:100520002091AB01821751F0E091AA01F0E0EF5663
:10053000FE4F958F8093AA0101C08081FF91EF91BA
:100540009F918F912F910F900FBE0F901F90189534
:100550001F920F920FB60F9211242F933F938F93F8
:100560009F93AF93BF9380918D0190918E01A09145
:100570008F01B09190013091880123E0230F2D3736
:1005800020F40196A11DB11D05C026E8230F029697
:10059000A11DB11D2093880180938D0190938E0140
:1005A000A0938F01B09390018091890190918A016D
:1005B000A0918B01B0918C010196A11DB11D80937A
:1005C000890190938A01A0938B01B0938C01BF9114
:1005D000AF919F918F913F912F910F900FBE0F90F0
:1005E0001F901895E1E9F1E01382128288EE93E002
:1005F000A0E0B0E084839583A683B78384E091E094
:100600009183808385EC90E09587848784EC90E0EB
:100610009787868780EC90E0918B808B81EC90E0CF
:10062000938B828B82EC90E0958B848B86EC90E0B0
:10063000978B868B118E128E138E148EEEE2F2E063
:1006400016821782108611861286138614861586E6
:1006500016861786108A118A128A138A148A158AB6
:100660000895CF93DF93CDB7DEB767970FB6F894B1
:10067000DEBF0FBECDBF789484B5826084BD84B5E3
:10068000816084BD85B5826085BD85B5816085BD8D
:1006900080916E00816080936E0010928100809145
:1006A00081008260809381008091810081608093CD
:1006B0008100809180008160809380008091B100F2
:1006C00084608093B1008091B00081608093B0001D
:1006D00080917A00846080937A0080917A008260B1
:1006E00080937A0080917A00816080937A00809173
:1006F0007A00806880937A001092C1001092720292
:1007000010927302109274021092750210923002CD
:1007100010923102109232021092330260ED77E0B3
:1007200080E090E00E94A30181E991E09093710242
:10073000809370020E945F002FB7F89480918D0122
:1007400090918E01A0918F01B09190012FBF809365
:10075000300290933102A0933202B093330260E1F1
:1007600071E080917002909171020E94DF016AE055
:1007700070E080E090E00E94A30181E08093440259
:100780000E945F0082E291E00E94F40180E591E026
:100790000E94F401CE0101966C017C0101E010E0A1
:1007A000C80101970E944504F7018083C8010E9497
:1007B0004504F601E00FF11F8083F701408151816C
:1007C000F2E0EF0EF11C60E070E02AE081E991E0D8
:1007D0000E94070261E671E081E991E00E94DF0179
:1007E0000E5F1F4F05311105D9F683E691E00E9497
:1007F000F401560100E010E0F501E190F1905F0195
:10080000E00EF11EA70160E070E02AE081E991E0CE
:100810000E94070261E671E081E991E00E94DF0138
:10082000FE8AED8A7801EE0CFF1CCE0145964C0144
:1008300035016C187D08F40161914F01C7016F8B80
:100840000E9445046F89681719F0C7010E944D0482
:10085000FFEFEF1AFF0AE614F70469F70F5F1F4F67
:100860000A30110549F684E791E00E94F4010E94E4
:100870007401FDCFEE0FFF1F0590F491E02D099458
:1008800081E090E0F8940C947D04F999FECF92BD3C
:1008900081BDF89A992780B50895262FF999FECF42
:1008A0001FBA92BD81BD20BD0FB6F894FA9AF99A8D
:1008B0000FBE01960895A1E21A2EAA1BBB1BFD01D3
:1008C0000DC0AA1FBB1FEE1FFF1FA217B307E4072F
:1008D000F50720F0A21BB30BE40BF50B661F771F87
:1008E000881F991F1A9469F7609570958095909567
:0E08F0009B01AC01BD01CF010895F894FFCF2C
:1008FE00000000000B018700D400B200C6005201B8
:10090E00564D4450565F317C315F564D4450560D16
:10091E000A000A0A2D2D2D2D2D2D2D2D2D2D2D2D8F
:10092E002D2D2D50524F4752414D2053544152546C
:10093E002D2D2D2D2D2D2D2D2D2D2D2D2D2D2D0006
:10094E000A52656164696E672076616C7565732EF7
:10095E000020000A57726974696E672076616C75A3
:10096E0065732E000A57726974696E6720636F6D26
:08097E00706C657465642E00C5
:00000001FF
