:100000000C941E050C9446050C9446050C9446056C
:100010000C9446050C9446050C9446050C94460534
:100020000C9446050C9446050C9446050C94460524
:100030000C9446050C9446050C9446050C94460514
:100040000C9497130C9446050C9429160C945B168B
:100050000C9446050C9446050C9446050C944605F4
:100060000C948E070C944605084AD73B3BCE016E94
:1000700084BCBFFDC12F3D6C74319ABD56833DDAFF
:100080003D00C77F11BED9E4BB4C3E916BAAAABE0E
:10009000000000803F002900444D5020496E6974E3
:1000A00069616C697A6174696F6E206661696C65FB
:1000B000642028636F64652000444D5020726561A0
:1000C0006479212057616974696E6720666F7220B8
:1000D000666972737420696E746572727570742EBD
:1000E0002E2E00456E61626C696E6720444D502E65
:1000F0002E2E00496E697469616C697A696E672099
:10010000444D502E2E2E004D505536303530206344
:100110006F6E6E656374696F6E206661696C65648D
:10012000004D50553630353020636F6E6E65637408
:10013000696F6E207375636365737366756C0054C5
:10014000657374696E672064657669636520636FA3
:100150006E6E656374696F6E732E2E2E00496E6924
:100160007469616C697A696E6720493243206465FD
:1001700076696365732E2E2E0001B202FFFF019097
:10018000040923A135016A0206000160080000008D
:100190000000000000006004400000000162020056
:1001A0000000600400400000037B034CCD6C03ABF7
:1001B0000336567600680402CB47A20218040005F5
:1001C0008BC1010C0400000000037F060CC92C97B2
:1001D0009797038903264666006C022000024004BC
:1001E0000000000002440400000000024804000077
:1001F0000000024C04000000000250040000000057
:100200000254040000000002580400000000025CD8
:10021000040000000002BC040000000001EC040027
:10022000004000037F060CC92C9797970402030D2A
:10023000355D040904872D353D00A3010000000051
:1002400001078601FE074105F120283038077E01AD
:10025000300746019A074704F1283038076C04F14B
:100260002830380216020002FB00003E000B003668
:10027000000100020003000000650054FFEF0000D1
:10028000FA80000B12820001000200000000000052
:10029000000000000000000000280000FFFF458172
:1002A000FFFFFA7200000000000003E800000001F8
:1002B00000017FFFFFFE8001001B00000000000026
:1002C0000000000000000000003E0330400000007D
:1002D00002CAE3093E800000200000000000000088
:1002E000400000006000000041FF000000000B2AF9
:1002F0000000165500002182FD872650FD80000079
:10030000001F000000058000000000000001000048
:100310000002000000030000400000000000046F25
:100320000002653200005EC04000000000000000D6
:100330000000000000000000FB8C6F5DFD5D08D92F
:10034000007C733B006C12CC3200139D3200D0D67F
:1003500032000800400001F4FFE68079020000004E
:100360000000D0D600002710FB0000004000000075
:10037000000000000000000000000001000000007C
:1003800000000100010000000000FA36FFBC308EC2
:100390000005FBF0FFD95BC8FFD09ABE000010A992
:1003A000FFF41EB200CEBBF7000000010000000405
:1003B000000200020200000CFFC280000001800069
:1003C00000CF80004000000000000001000000009D
:1003D0000000060000000014000000000000000003
:1003E000000000000000000000000000000000000D
:1003F00000000000000000000000000000000000FD
:10040000000000000000000000000000033F68B68C
:10041000793528BCC67ED16C800000004000000009
:100420000000B26A000000000000000000000000B0
:1004300000003FF00000003000000000000000005D
:1004400000000000000000000000000000000000AC
:1004500000000000000000000000254D002F706D1E
:10046000000005AE000C02D0000000000065005442
:10047000FFEF000000000000000001000044000049
:1004800000000C00000001000000000000650000FA
:1004900000540000FFEF000000000000000000001A
:1004A000000000000000000040000000000000000C
:1004B00000000000000000004000000000000000FC
:1004C0000000000000000000000000010000000229
:1004D000000000000000000000000000000000001C
:1004E000000000000000000000000000000000000C
:1004F0000000000000000000001B000000000000E1
:1005000000000000000000000000000000000000EB
:1005100000000000000000000000000000000000DB
:100520000000000040000000001B00000000000070
:1005300000000000000000000000000000000000BB
:1005400000000000000000000000000000000000AB
:10055000000000000000000000000000000000009B
:100560000000000000000000D8DCBAA2F1DEB2B842
:10057000B4A88191F74A907F916AF3F9DBA8F9B0AA
:10058000BAA080F2CE81F3C2F1C1F2C3F3CCA2B221
:1005900080F1C6D880BAA7DFDFDFF2A7C3CBC5B62C
:1005A000F087A2942448703C95406834589B78A208
:1005B000F183922D557DD8B1B4B8A1D09180F2705D
:1005C000F370F27C80A8F101B09887D943D886C92E
:1005D00088BAA1F20EB89780F1A9DFDFDFAADFDFCA
:1005E000DFF2AAC5CDC7A90CC92C97979797F1A997
:1005F00089264666B0B4BA80ACDEF2CAF1B28C028B
:10060000A9B69800890E161EB8A9B4992C547CB0CE
:100610008AA896365676F1B9AFB4B083C0B8A89719
:1006200011B18F98B9AFF0240844106418F1A329D0
:10063000557DAF83B593AFF0002850F1A3869F613D
:10064000A6DADEDFD9FAA38696DB31A6D9F8DFBABF
:10065000A68FC2C5C7B28CC1B8A2DFDFDFA3DFDFC0
:10066000DFD8D8F1B8A8B286B4980D355DB8AA988D
:10067000B0872D353DB2B6BAAF8C96198F9FA70EB5
:10068000161EB49AB8AA872C547CB9A3DEDFDFA368
:10069000B180F2C4CDC9F1B8A9B499830D355D8993
:1006A000B9A32D557DB593A30E161EA92C547CB865
:1006B000B4B0F19783A81184A50998A383F0DA2434
:1006C0000844106418D8F1A529557DA58595021A0E
:1006D0002E3A565A4048F9F3A3D9F8F098832408E3
:1006E000441064189782A8F111F098A224084410CD
:1006F0006418DAF3DED883A59401D9A302F1A2C36A
:10070000C5C7D8F18492A24DDA2AD84869D92AD827
:100710006855DA32D85071D932D8705DDA3AD85883
:1007200079D93AD87893A34DDA2AD84869D92AD802
:100730006855DA32D85071D932D8705DDA3AD85863
:1007400079D93AD878A88A9AF02850789EF38818F0
:10075000F19F1D98A8D908D8C89F129EF315A8DA52
:100760001210D8F1AFC8978734B5B994A421F3D942
:1007700022D8F22DF3D92AD8F235F3D932D881A470
:10078000606061D961D86C6869D969D8747071D9B1
:1007900071D8B1A384193D5DA3831A3E5E931030D6
:1007A000811011B8B0AF8F94F2DA3ED8B49AA8870E
:1007B00029DAF8D8879A35DAF8D8879A3DDAF8D85E
:1007C000B1B9A49885022E56A581000C14A397B048
:1007D0008AF12DD928D84DD948D86DD968D8B18497
:1007E0000DDA0ED8A32983DA2C0ED8A3844983DA34
:1007F0002C4C0ED8B8B0A88A9AF520AADADFD8A86F
:1008000040AAD0DADED8A860AADAD0DFD8F197867D
:10081000A8319B069907AB9728889BF00C201440C1
:10082000B8B0B4A88C9CF0042851791D301438B2AB
:1008300082ABD0982C505078789BF11AB0F08A9CFB
:10084000A82951798B2951798A2470598B205871A4
:100850008A4469388B3940688A6448318B304960F2
:10086000A588200971584468113964493019F1ACE0
:10087000002C547CF08CA804285078F1889726A886
:100880005998AC8C02264666F0899CA82951792497
:100890007059446938644831A98809205970AB11EE
:1008A000384069A8193148608CA83C415C207C0024
:1008B000F187981986A86E767EA999882D557D9E18
:1008C000B9A38A228A6E8A568A5E9FB1830626461B
:1008D000660E2E4E6E9DB8AD002C547CF2B18CB4D9
:1008E00099B9A32D557D8191AC38AD3AB58391ACC2
:1008F0002DD928D84DD948D86DD968D88C9DAE2926
:10090000D904AED851D904AED879D904D881F39D91
:10091000AD008DAE1981ADD901D8F2AEDA26D88EF0
:10092000912983A7D9ADADADADF32AD8D8F1B0AC3C
:1009300089913E5E76F3AC2E2EF1B18C5A9CAC2C94
:100940002828289CAC3018A8988128343C9724A7E4
:1009500028343C9C24F2B089AC912C4C6C8A9B2DA1
:10096000D9D8D851D9D8D879D9D8D8F19E88A33137
:10097000DAD8D8912DD928D84DD948D86DD968D88A
:10098000B18393353D8025DAD8D88569DAD8D8B4D3
:100990009381A328343CF3AB8BF8A391B609B4D967
:1009A000ABDEFAB0879CB9A3DDF1A3A3A3A395F1B5
:1009B000A3A3A39DF1A3A3A3A3F2A3B49080F2A346
:1009C000A3A3A3A3A3A3A3A3A3B2A3A3A3A3A3A3E8
:1009D000B087B599F1A3A3A398F1A3A3A3A397A369
:1009E000A3A3A3F39BA3A3DCB9A7F1262626D8D8FB
:1009F000FF000000080002010000030407000000DF
:100A000000000000000102040810204080010204E0
:100A10000810200102040810200404040404040443
:100A200004020202020202030303030303000000A4
:100A300000250028002B0000A4068B1611241FBEE1
:100A4000CFEFD8E0DEBFCDBF11E0A0E0B1E0EEE433
:100A5000FDE302C005900D92A436B107D9F722E05C
:100A6000A4E6B1E001C01D92A33DB207E1F71AE090
:100A7000CCE3DAE004C02297FE010E94631CC83375
:100A8000D107C9F70E94CF160C94A51E0C94000044
:100A9000CF93DF9326E040E855E260E070E082E328
:100AA00092E00E94C71584E090E00E94DE16EC01FF
:100AB0000E94F312D0936501C093640168E071E075
:100AC00082E392E0DF91CF910C94601780916401F2
:100AD00090916501DC01ED91FC910280F381E02DA4
:100AE0000995AB01BC0122E030E082E392E00E9474
:100AF000201968EE73E080E090E00C94101480916F
:100B0000960190E020919701821B91090895209110
:100B1000970180919601281750F4E22FF0E0E856F3
:100B2000FE4F808190E02F5F2093970108958FEF13
:100B30009FEF0895E091970180919601E81730F4B6
:100B4000F0E0E856FE4F808190E008958FEF9FEF30
:100B500008950895CF92DF92EF92FF920F931F9323
:100B6000CF93DF937C01CB018A0120917201222374
:100B700089F0EB016B01C40ED51ECC15DD0569F0C3
:100B80006991D701ED91FC910190F081E02DC701B1
:100B90000995F3CF642F0E946507C801DF91CF91BB
:100BA0001F910F91FF90EF90DF90CF900895CF931A
:100BB000DF931F92CDB7DEB76983209172012223A4
:100BC000D1F020917301203240F021E030E0FC01AF
:100BD0003383228380E090E015C080917401E82F78
:100BE000F0E0EB58FE4F998190838F5F8093740102
:100BF0008093730105C061E0CE0101960E946507F4
:100C000081E090E00F90DF91CF910895FC01138275
:100C1000128248EE53E060E070E0448355836683BF
:100C2000778389E191E09183808308951092970101
:100C30001092960110927401109273010C94A80600
:100C400081E080937201609395011092740110927B
:100C5000730108950F93062F21E04091730165E71A
:100C600071E0809195010E940E071092740110921C
:100C70007301109272010F9108958F929F92AF921B
:100C8000BF92CF92DF92EF92FF920F931F93CF9379
:100C9000DF93EC01F62ED42E48015901EE2019F114
:100CA0000E9420061E2D143008F013E01150B8F0F9
:100CB000E881F98128E0129FB0011124A501940177
:100CC00004C056954795379527956A95D2F7CA017E
:100CD000B9010190F081E02DCE010995E7CF60E0E8
:100CE000CE010E942A064D2D413208F040E22C2D03
:100CF00068E971E08F2D0E94C606109297018093DB
:100D00009601DF91CF911F910F91FF90EF90DF90AF
:100D1000CF90BF90AF909F908F900895CF92EF9219
:100D20000F931F93C22EE12C00E010E098010E9467
:100D30003D061F910F91EF90CF90089521E00C9404
:100D40008E0661E00C942A0686E691E00C94060675
:100D50001092250281E0809323021092220261E02A
:100D600082E10E94AE1461E083E10E94AE14E9EBDF
:100D7000F0E080818E7F808380818D7F808388E416
:100D80008093B80085E48093BC000895413208F058
:100D900043C0909125029111FCCF91E090932502E0
:100DA000209323022FEF2093B8011092FD01240F0E
:100DB0002093FC019093240290912402880F892BA8
:100DC0008093240280912202813061F410922202E9
:100DD000809124028093BB008091BC0083FDF8CFFA
:100DE00085EC01C085EE8093BC00809125028130A6
:100DF000E1F38091FD01841710F44091FD012EEF85
:100E000031E0FB01D9018A2F821B841718F48D91E0
:100E10008193F9CF842F089580E008950F93413294
:100E200008F04AC0909125029111FCCF92E0909376
:100E30002502009323029FEF9093B8011092FD01C9
:100E40004093FC01FB016EEF71E0DB019A2F961BD2
:100E5000941718F491919D93F9CF109224029091D8
:100E60002402880F892B80932402809122028130F2
:100E700061F410922202809124028093BB00809141
:100E8000BC0083FDF8CF85EC01C085EE8093BC00EB
:100E9000222321F0809125028230E1F38091B80174
:100EA0008F3F61F08091B801803251F08091B8019C
:100EB000803341F483E007C081E005C080E003C0D7
:100EC00082E001C084E00F910895613298F420918E
:100ED0002502243089F46093DA01FC018CED91E065
:100EE000DC012A2F281B261718F421912D93F9CF06
:100EF00080E0089581E0089582E0089585ED809373
:100F0000BC008091BC0084FDFCCF109225020895A6
:100F100085EC8093BC001092250208951F920F92D9
:100F20000FB60F9211242F933F934F935F936F93BC
:100F30007F938F939F93AF93BF93EF93FF93809192
:100F4000B900887F803609F49EC078F5883209F4AC
:100F50005DC090F4803109F456C038F4882309F458
:100F6000F5C0883009F44FC0F5C0883109F44EC08F
:100F7000803209F45FC0EEC0803409F46AC058F4CE
:100F8000803309F457C0883309F0E4C08093B80176
:100F90000E948807DFC0803509F44FC0883509F406
:100FA0005DC0883409F0D6C0D3C0883909F4C4C004
:100FB000A8F4883709F467C038F4883609F463C0A8
:100FC000803709F460C0C6C0883809F4B5C08039DC
:100FD00009F45FC0803809F0BDC05BC0803B09F4F4
:100FE00083C038F4803A09F466C0883A09F47CC0BA
:100FF000B1C0803C09F4A4C0883C09F4A1C0883B7E
:1010000009F487C0A7C08091240210C09091FD010F
:101010008091FC01981770F5E091FD0181E08E0F41
:101020008093FD01F0E0E250FE4F80818093BB0091
:1010300085EC83C08093B8018BC0E091FD0181E015
:101040008E0F8093FD018091BB00F0E0E250FE4FD7
:1010500080839091FD018091FC016BC0E091FD01C6
:1010600081E08E0F8093FD018091BB00F0E0E250A3
:10107000FE4F80838091230281116AC081E08093BA
:10108000220284EA5EC083E0809325021092B901B7
:10109000CFCF8091B901803208F04EC0E091B90104
:1010A00081E08E0F8093B9018091BB00F0E0E6549F
:1010B000FE4F8083BDCF0E9488078091B9018032A6
:1010C00030F4E091B901F0E0E654FE4F10826091F7
:1010D000B90170E0E0911E02F0911F028AEB91E0ED
:1010E00009951092B90136C084E0809325021092D0
:1010F000DB011092DA01E0912002F09121020995C2
:101100008091DA01811105C081E08093DA011092AB
:10111000DC01E091DB0181E08E0F8093DB01F0E0E8
:10112000E452FE4F80818093BB009091DB0180915F
:10113000DA01981708F47CCF85E88093BC000AC0D8
:1011400085EC8093BC001092250204C01092B80177
:101150000E947E07FF91EF91BF91AF919F918F9178
:101160007F916F915F914F913F912F910F900FBEA3
:101170000F901F901895EF92FF920F931F93CF93AC
:10118000DF9300D0CDB7DEB7062F142F682F86E689
:1011900091E029833A830E942006602F86E691E041
:1011A0000E94D7052981022FE22E3A81F32E8E2D3F
:1011B000801B811740F4F70161917F0186E691E081
:1011C0000E94D705F4CF86E691E00E94A10691E047
:1011D000811190E0892F0F900F90DF91CF911F9197
:1011E0000F91FF90EF900895CF93DF931F92CDB7AB
:1011F000DEB749839E012F5F3F4F41E00E94BB084D
:101200000F90DF91CF910895DF92EF92FF920F93AD
:101210001F93CF93DF93C62F042F7901682F86E6A3
:1012200091E00E9420066C2F86E691E00E94D7058F
:1012300010E0000F111FD12CCD2DD0E0C017D10729
:101240008CF4CC0FDD1FCE0DDF1D698186E691E0A9
:101250000E94D705688186E691E00E94D705D39465
:10126000D394EACF86E691E00E94A10691E0811135
:1012700090E0892FDF91CF911F910F91FF90EF9018
:10128000DF900895CF93DF9300D0CDB7DEB75A83B8
:1012900049839E012F5F3F4F41E00E9404090F9058
:1012A0000F90DF91CF9108953F924F925F926F928E
:1012B0007F928F929F92AF92BF92CF92DF92EF92E6
:1012C000FF920F931F93CF93DF9300D000D000D0F5
:1012D000CDB7DEB7682E562E742E3A8329830E942E
:1012E000E1136B017C01312C412C872D90E09C8314
:1012F0008B834801A12CB12C3714B0F5662D86E6FE
:1013000091E00E942006652D86E691E00E94D705B7
:1013100086E691E00E94A106662D86E691E00E9495
:1013200020064B815C81431951094132510514F06B
:1013300040E250E0662D86E691E00E949E0686E639
:1013400091E00E947F05892B59F10115110579F172
:101350000E94E1136C197D098E099F0968157905B2
:101360008A059B0520F11CC00115110589F10E9419
:10137000E1136C197D098E099F0920E030E06017A8
:1013800071078207930720F1872D90E0242D3327E2
:1013900027FD309528173907DCF444244A9418C0F7
:1013A000872D90E2971508F480E2380EA5CFE981E9
:1013B000FA81E40DF11D47FCFA95FE83ED8386E684
:1013C00091E00E948705ED81FE8180834394B7CF31
:1013D000842D26960FB6F894DEBF0FBECDBFDF91E9
:1013E000CF911F910F91FF90EF90DF90CF90BF9022
:1013F000AF909F908F907F906F905F904F903F90B5
:1014000008950F931F9389019A0141E00E945409A6
:101410001F910F910895DF92EF92FF920F931F9308
:10142000CF93DF931F92CDB7DEB7D42E7901980109
:10143000AE014F5F5F4F0E94010A61E070E001C0A2
:10144000660FDA94EAF799819623F70190830F905B
:10145000DF91CF911F910F91FF90EF90DF90089552
:10146000CF92DF92EF92FF920F931F93CF93DF9370
:101470001F92CDB7DEB7C42ED22E9701AE014F5FBB
:101480005F4F0E94010A8823F1F04C2D50E04D1966
:1014900051094F5F5F4F61E070E002C0660F771F38
:1014A000DA94E2F761507109042E01C0660F0A94C4
:1014B000EAF72981262330E002C0359527954A9521
:1014C000E2F7F80120830F90DF91CF911F910F91E8
:1014D000FF90EF90DF90CF900895EF92FF920F93DF
:1014E0001F93CF93DF931F92CDB7DEB7182F062F30
:1014F000F42EE22E2091060130910701AE014F5FDC
:101500005F4F0E94010A898121E030E00F2C01C069
:10151000220F0A94EAF7EE2019F0482F422B03C05D
:10152000422F409548234983602F812F0E94F40861
:101530000F90DF91CF911F910F91FF90EF90089541
:10154000DF92EF92FF920F931F93CF93DF931F923F
:10155000CDB7DEB7F82EE62ED42E122F209106013D
:1015600030910701AE014F5F5F4F0E94010A88234F
:1015700019F14D2D50E0411B51094F5F5F4FE1E0E4
:10158000F0E002C0EE0FFF1F1A95E2F73197042E2C
:1015900001C0EE0F0A94EAF701C0000F4A95EAF77E
:1015A0004E2F409589814823E0234E2B49836E2D91
:1015B0008F2D0E94F40801C080E00F90DF91CF9141
:1015C0001F910F91FF90EF90DF90089528E6FC01A6
:1015D00020830895462F69E1FC0180810C94F40872
:1015E0000F93062F23E045E06AE1FC0180810E9411
:1015F000A00A0F9108950F93062F23E042E06AE1BD
:10160000FC0180810E94A00A0F9108950F93062F7C
:1016100022E044E06BE1FC0180810E94A00A0F916E
:1016200008950F93062F22E044E06CE1FC018081D5
:101630000E94A00A0F910895462F6FE1FC0180815E
:101640000C94F408462F60E2FC0180810C94F408AD
:10165000462F61E2FC0180810C94F408462F62E27F
:10166000FC0180810C94F408643048F4262F220F8A
:10167000260F2B5D622FFC0180810C94F4080895E5
:10168000462F68E3FC0180810C94F408CF93DF932C
:10169000EC012091060130910701AC014F5F5F4FD3
:1016A0006AE388810E94010A8981DF91CF910895C0
:1016B000262F46E06AE6FC0180810C946D0A262FF5
:1016C00045E06AE6FC0180810C946D0A21E042E06D
:1016D0006AE6FC0180810C946D0A21E041E06AE633
:1016E000FC0180810C946D0A21E047E06BE6FC016F
:1016F00080810C946D0A262F46E06BE6FC01808108
:101700000C946D0A0F93062F23E042E06BE6FC0178
:1017100080810E94A00A0F910895CF93DF93EC017E
:1017200061E00E94820B60E0CE010E94060B60E047
:10173000CE010E94110B60E0CE01DF91CF910C949D
:101740007B0B0F931F93CF93DF93EC010091060166
:10175000109107019C012F5F3F4F42E062E78881B3
:101760000E945409898190E0982F88272A81822B32
:10177000DF91CF911F910F9108950F931F939B01BC
:10178000009106011091070164E7FC0180810E942D
:1017900054091F910F910895EF92FF920F931F9399
:1017A000CF93DF93EC01E0900601F09007018C01EC
:1017B0000F5F1F4F26E046E065E788810E94300AF0
:1017C0008981DF91CF911F910F91FF90EF90089544
:1017D0000E94CC0B91E0843309F090E0892F0895AA
:1017E0000F931F93CF93DF93EC01009106011091AB
:1017F00007019C012F5F3F4F40E060E088810E941D
:101800000B0A8981DF91CF911F910F910895262FA7
:1018100040E060E0FC0180810C946D0AEF92FF9241
:101820000F931F93CF93DF93EC01E0900601F090AC
:1018300007018C010F5F1F4F26E046E060E08881C2
:101840000E94300A8981DF91CF911F910F91FF9003
:10185000EF9008950F93062F26E046E060E0FC012C
:1018600080810E94A00A0F910895EF92FF920F933A
:101870001F93CF93DF93EC01E0900601F0900701F6
:101880008C010F5F1F4F26E046E061E088810E94D7
:10189000300A8981DF91CF911F910F91FF90EF90D6
:1018A00008950F93062F26E046E061E0FC01808159
:1018B0000E94A00A0F910895EF92FF920F931F9339
:1018C000CF93DF93EC01E0900601F09007018C01CB
:1018D0000F5F1F4F26E046E062E088810E94300AD9
:1018E0008981DF91CF911F910F91FF90EF90089523
:1018F0000F93062F26E046E062E0FC0180810E9403
:10190000A00A0F910895AB016AE0FC0180810C945C
:101910004209AB0163E1FC0180810C944209AB01F7
:1019200065E1FC0180810C944209AB0167E1FC0197
:1019300080810C944209262F47E06AE6FC018081F1
:101940000C946D0A21E043E06AE6FC0180810C946E
:101950006D0A6F712111606241116064462F6DE65E
:10196000FC0180810C94F408462F6EE6FC01808116
:101970000C94F408CF93DF93EC0120910601309191
:101980000701AC014F5F5F4F6FE688810E94010A3B
:101990008981DF91CF9108955F926F927F928F92AC
:1019A0009F92AF92BF92CF92DF92EF92FF920F93EE
:1019B0001F93CF93DF937C015B016A01622E702E2F
:1019C00020E040E0662D0E94A90C602FC7010E9414
:1019D000B40CC0E0D0E0812C99249394CC15DD05A3
:1019E000A8F5CE014096C816D90618F45C2C5C1AEE
:1019F00002C0A0E15A2E252D30E0C40187199109BB
:101A00008217930714F4572C5194009106011091FA
:101A1000070195012C0F3D1F452D6FE6F7018081D1
:101A20000E945409C50DD11D750CCC15DD05B0F60D
:101A3000711001C0639420E040E0662DC7010E9450
:101A4000A90C672DC7010E94B40CC8CFDF91CF91BC
:101A50001F910F91FF90EF90DF90CF90BF90AF90CC
:101A60009F908F907F906F905F9008952F923F92FC
:101A70004F925F926F927F928F929F92AF92BF929E
:101A8000CF92DF92EF92FF920F931F93CF93DF934A
:101A900000D000D01F92CDB7DEB79D838C837B83AF
:101AA0006A834A01322ED02EE98220E040E0632D85
:101AB0000E94A90C602F8C819D810E94B40CE9804A
:101AC000EE2029F080E190E00E94671C5C01CC20B0
:101AD00031F080E190E00E94671C582E492EE12CE5
:101AE000F12CE814F90408F07AC0C7014096881672
:101AF000990618F4282C2E1802C010E1212E222D50
:101B000030E080E091E08D1991098217930714F479
:101B10002D2C2194EA81FB81EE0DFF1DCC2059F084
:101B2000852DA52DB42D9A2F981B921530F49491E4
:101B30009D933196F8CF5E2E4F2E252D342D422DBC
:101B40006FE6AC81BD818C910E94BB08622C712C28
:101B5000B981BB2369F1A114B10451F120E040E047
:101B6000632D8C819D810E94A90C6D2D8C819D819E
:101B70000E94B40C00910601109107019501422DBD
:101B80006FE6EC81FD8180810E945409A301B501BB
:101B9000852D942D0E94581E892B51F0C5010E945D
:101BA000FF1CCC2049F1852D942D0E94FF1C24C0E0
:101BB000E60CF71CD20CE814F90408F092CFD1100F
:101BC00001C0339420E040E0632D8C819D810E9410
:101BD000A90C6D2D8C819D810E94B40C82CFF9815E
:101BE000FF2319F0C5010E94FF1CCC2039F0852D80
:101BF000942D0E94FF1C02C080E001C081E00F9084
:101C00000F900F900F900F90DF91CF911F910F9138
:101C1000FF90EF90DF90CF90BF90AF909F908F900C
:101C20007F906F905F904F903F902F900895CF924C
:101C3000EF920F93CC24C3940E94360D0F91EF9036
:101C4000CF9008952F923F924F925F926F927F9222
:101C50008F929F92AF92BF92CF92DF92EF92FF92BC
:101C60000F931F93CF93DF9300D01F92CDB7DEB7B2
:101C70004C017B836A833A01D22E222331F088E023
:101C800090E00E94671C182FF92E212C312C26146D
:101C9000370408F051C0EA81FB81E20DF31DC10158
:101CA00003965C01DD20C1F04491F10131968A81F7
:101CB0009B81E80FF91F0491F1013296E80FF91F9B
:101CC0005490511044C0F4E02F0E311CEA81FB8186
:101CD000EA0DFB1D84910DC0408101815280EA8193
:101CE000FB81E80FF91F51100DC084E0280E311C54
:101CF00080818130D1F442E368E3F40180810E9465
:101D0000F408C5CF1E2FFF2E452C512CC12CEE24DC
:101D1000E394242FA201612F7F2DC4010E94360D70
:101D200012012A0C3B1C8111B2CFDD2061F0812F02
:101D30009F2D0E94FF1C07C0DD2039F0812F9F2DB1
:101D40000E94FF1C02C080E024C081E022C0252C3C
:101D5000312CF2E0F51548F4B101812F9F2D498314
:101D60000E948E1D182FF92E4981812F9F2DA0E0F2
:101D7000B0E02A813B812A0D3B1DA215B30520F658
:101D8000F901EA0FFB1F5491FC015193CF01119609
:101D9000F4CF0F900F900F90DF91CF911F910F9183
:101DA000FF90EF90DF90CF90BF90AF909F908F907B
:101DB0007F906F905F904F903F902F90089521E01B
:101DC0000C94220E462F60E7FC0180810C94F408ED
:101DD000462F61E7FC0180810C94F408CF92DF92DA
:101DE000EF92FF92DC01ED91FC910190F081E02DEA
:101DF000099520E030E044E353E40E94D51B2BED2D
:101E00003FE049E450E40E94FE1920E030E044EB5A
:101E100053E40E94DB1A6B017C0120E030E0A90151
:101E20000E94FA1987FF0AC020E030E044EB53E437
:101E3000C701B6010E9434196B017C01C701B601CC
:101E4000FF90EF90DF90CF9008954F925F926F9246
:101E50007F928F929F92AF92BF92CF92DF92EF923A
:101E6000FF92CF93DF93CDB7DEB7C454D1090FB63D
:101E7000F894DEBF0FBECDBF7C018091280288237D
:101E800009F40EC165E271E082E392E00E9441171D
:101E9000F701828193810E94A10B4AE050E0BC01CE
:101EA00082E392E00E941F18F701828193810E94D1
:101EB000A10B8115944029F4F701828193810E943E
:101EC000660B65E271E082E392E00E944117F70140
:101ED000828193810E94A10B4AE050E0BC0182E321
:101EE00092E00E941F18F701828193810E94A10B4A
:101EF000209126023091270282179307A0F365E212
:101F000071E082E392E00E944117F70182819381A0
:101F10000E94A10B4AE050E0BC0182E392E00E94E3
:101F20001F1840912602BE016F5F7F4FF70182812B
:101F300093810E94BD0B698170E0762F66278A81AC
:101F4000680F711D882777FD8095982F0E94991A38
:101F500020E030E040E858E30E94D51B6B017C0193
:101F6000698570E0762F66278A85680F711D88273E
:101F700077FD8095982F0E94991A20E030E040E884
:101F800058E30E94D51B4B015C01A7019601C701D4
:101F9000B6010E94341925966CAF7DAF8EAF9FAF0E
:101FA0002597A5019401C501B4010E9434192B01A4
:101FB0003C01A701960125966CAD7DAD8EAD9FAD20
:101FC00025970E94D51B6B017C01A5019401C301DB
:101FD000B2010E94D51B9B01AC01C701B6010E9452
:101FE000341920E030E040E85FE30E9433196B01D0
:101FF0007C016D8170E0762F66278E81680F711DE0
:10200000882777FD8095982F0E94991A20E030E06C
:1020100040E858E30E94D51B9B01AC01C301B2010B
:102020000E94D51B2B013C016D8570E0762F662741
:102030008E85680F711D882777FD8095982F0E94E7
:10204000991A20E030E040E858E30E94D51B9B013C
:10205000AC0125966CAD7DAD8EAD9FAD25970E94F0
:10206000D51B9B01AC01C301B2010E943319A7012A
:102070009601CC5BDF4F0FB6F894DEBF0FBECDBF2D
:10208000DF91CF91FF90EF90DF90CF90BF90AF9016
:102090009F908F907F906F905F904F900C94A719B6
:1020A00060E070E0CB01CC5BDF4F0FB6F894DEBF91
:1020B0000FBECDBFDF91CF91FF90EF90DF90CF901B
:1020C000BF90AF909F908F907F906F905F904F9058
:1020D00008958F929F92AF92BF92CF92EF920F93FB
:1020E0001F93CF93DF93CDB7DEB7C059D1090FB699
:1020F000F894DEBF0FBECDBF5C010E94740B6EE191
:1021000070E080E090E00E94101460E0C5010E9441
:102110007B0B21E041E060E1C5010E94A90C66E073
:10212000C5010E94B40CC5010E94BA0C20E040E039
:1021300060E0C5010E94A90CC5010E94F00BC50119
:102140000E940E0C182FC5010E94350C882EC50167
:102150000E945C0C982E4FE760E0C5010E94340B92
:1021600060E0C5010E945F0B48E660E0C5010E9487
:10217000340BC5010E946D0B64E170E080E090E0DB
:102180000E941014EE24E39400E020E049E857E0B8
:1021900068E672E0C5010E94170E882309F40EC29A
:1021A00040EC50E068EA71E0C5010E94DF0E882330
:1021B00009F406C263E0C5010E94820B62E1C50119
:1021C0000E94400B64E0C5010E94EA0A61E0C5017B
:1021D0000E94F00A63E0C5010E94FB0A63E0C501AA
:1021E0000E94060B63E0C5010E94E20E60E0C5019B
:1021F0000E94E80E60E0C5010E94070C612FC50136
:102200000E942A0C682DC5010E94510C692DC50140
:102210000E94780C812C912CF401E758FE4FE49138
:10222000A1E8B0E0AC0FBD1FA80DB11DEC9381E09B
:10223000880D9FEF891A990AE3E0E81568F7CD57F2
:10224000DF4F4881C358D04050E09A012E5F3F4F86
:1022500090E02817390704F7C12CEE24E394CE57F9
:10226000DF4F0881C258D040CF57DF4F2881C15877
:10227000D04061E870E06C0F7D1F6D5F7F4FC5013E
:102280000E94360D60E0F401E758FE4FE491A1E8AA
:10229000B0E0AC0FBD1FA60FB11DEC936F5FFFEF59
:1022A0008F1A9F0A643078F3CD57DF4F4881C358A7
:1022B000D04050E09A012E5F3F4F862F90E02817C4
:1022C00039070CF7C12CEE24E394CE57DF4F088179
:1022D000C258D040CF57DF4F2881C158D04061E865
:1022E00070E06C0F7D1F6D5F7F4FC5010E94360D42
:1022F000C5010E94660BC5010E94A10B482FBE01BB
:102300006F5F7F4FC5010E94BD0B62E0C5010E9457
:102310001C0B6CE9C5010E94280B60E5C5010E94F9
:10232000220B60E0C5010E942E0BC5010E94660BC6
:1023300061E0C5010E94580B61E0C5010E949B0C41
:10234000C5010E94A20C60E0F401E758FE4FE49141
:10235000A1E8B0E0AC0FBD1FA60FB11DEC936F5FFD
:102360008FEF881A980A643078F3CD57DF4F488191
:10237000C358D04050E09A012E5F3F4F862F90E027
:10238000281739070CF7C12CEE24E394CE57DF4F02
:102390000881C258D040CF57DF4F2881C158D04064
:1023A00061E870E06C0F7D1F6D5F7F4FC5010E947B
:1023B000360D60E0F401E758FE4FE491A1E8B0E08B
:1023C000AC0FBD1FA60FB11DEC936F5F9FEF891A75
:1023D000990A643078F3CD57DF4F4881C358D04015
:1023E00050E09A012E5F3F4F862F90E02817390763
:1023F0000CF7C12CEE24E394CE57DF4F0881C2586E
:10240000D040CF57DF4F2881C158D04061E870E0FD
:102410006C0F7D1F6D5F7F4FC5010E94360D60E020
:10242000F401E758FE4FE491A1E8B0E0AC0FBD1F06
:10243000A60FB11DEC936F5FEFEF8E1A9E0A64300A
:1024400078F3CD57DF4F4881C358D04050E09A0110
:102450002E5F3F4F862F90E0281739070CF7C12CCD
:10246000EE24E394CE57DF4F0881C258D040CF57B7
:10247000DF4F2881C158D04061E870E06C0F7D1FAC
:102480006D5F7F4FC5010E94360DC5010E94A10BF3
:1024900083309105D0F3482FBE016F5F7F4FC50198
:1024A0000E94BD0BC5010E94460B60E0F401E75895
:1024B000FE4FE491A1E8B0E0AC0FBD1FA60FB11D27
:1024C000EC936F5FFFEF8F1A9F0A643078F3CD575C
:1024D000DF4F4881C358D04050E09A012E5F3F4FF4
:1024E000862F90E0281739070CF7CE57DF4F088169
:1024F000C258D040CF57DF4F2881C158D04061E843
:1025000070E06C0F7D1F6D5F7F4FC5010E94CC0C8A
:10251000C5010E94A10B83309105D0F3482FBE0165
:102520006F5F7F4FC5010E94BD0BC5010E94460B26
:10253000F401E758FE4F60E08491A1E8B0E0AC0FF1
:10254000BD1FA60FB11D8C936F5F643010F43196E0
:10255000F3CFCD57DF4F4881C358D04050E09A01A8
:102560002E5F3F4F862F90E02817390784F761E8E8
:1025700070E06C0F7D1F6D5F7F4FC12CEE24E394E4
:10258000CE57DF4F0881C258D040CF57DF4F288148
:10259000C158D040C5010E94360D60E0C5010E94BF
:1025A0009B0C8AE290E0F50193838283C5010E942F
:1025B000660BC5010E94460B80E003C081E001C0AC
:1025C00082E0C057DF4F0FB6F894DEBF0FBECDBF1D
:1025D000DF91CF911F910F91EF90CF90BF90AF906F
:1025E0009F908F9008950F931F93CF93DF93EC01EB
:1025F0008EE391E09983888383E190E00E94DE1668
:102600008C010E94E60A1B830A8386E691E00E9401
:10261000160688E18093B8006DE571E082E392E0F0
:102620000E944E178A819B810E948D0B6FE371E09F
:1026300082E392E00E944E178A819B810E94E80B00
:10264000882319F061E271E002C067E071E082E383
:1026500092E00E944E1763EF70E082E392E00E94E6
:102660004E178A819B810E946910182F6CED70E0D3
:102670008A819B810E94890C6CE470E08A819B8135
:102680000E948F0C6BEA7FEF8A819B810E94950CE0
:102690006CEF76E08A819B810E94830C111130C01F
:1026A00063EE70E082E392E00E944E1761E08A815F
:1026B0009B810E949B0C69EB70E082E392E00E9498
:1026C0004E1781E080932802EA81FB818281938109
:1026D00090932702809326026CE271E082E392E0FD
:1026E0000E94411760912602709127024AE050E053
:1026F00082E392E0DF91CF911F910F910C941F180C
:1027000068E970E082E392E00E941E174AE050E020
:10271000612F82E392E00E94181866E970E082E37C
:1027200092E0DF91CF911F910F910C944E171F9261
:102730000F920FB60F9211242F933F938F939F9375
:10274000AF93BF9380912A0290912B02A0912C020B
:10275000B0912D023091290223E0230F2D3720F470
:102760000196A11DB11D05C026E8230F0296A11DEB
:10277000B11D2093290280932A0290932B02A093EB
:102780002C02B0932D0280912E0290912F02A091E5
:102790003002B09131020196A11DB11D80932E022D
:1027A00090932F02A0933002B0933102BF91AF916A
:1027B0009F918F913F912F910F900FBE0F901F907F
:1027C00018952FB7F89460912A0270912B0280918E
:1027D0002C0290912D022FBF08953FB7F89480915D
:1027E0002E0290912F02A0913002B091310226B5B5
:1027F000A89B05C02F3F19F00196A11DB11D3FBF39
:102800006627782F892F9A2F620F711D811D911DC8
:1028100042E0660F771F881F991F4A95D1F70895E8
:102820008F929F92AF92BF92CF92DF92EF92FF92E0
:102830006B017C010E94ED134B015C01C114D104BA
:10284000E104F104F1F00E9432190E94ED136819BD
:1028500079098A099B09683E73408105910570F3E7
:1028600021E0C21AD108E108F10888EE880E83E061
:10287000981EA11CB11CC114D104E104F10429F774
:10288000DDCFFF90EF90DF90CF90BF90AF909F9003
:102890008F900895789484B5826084BD84B58160FA
:1028A00084BD85B5826085BD85B5816085BDEEE658
:1028B000F0E0808181608083E1E8F0E01082808137
:1028C00082608083808181608083E0E8F0E08081A5
:1028D00081608083E1EBF0E0808184608083E0EBC5
:1028E000F0E0808181608083EAE7F0E080818460AD
:1028F0008083808182608083808181608083808109
:10290000806880831092C1000895833081F028F49C
:10291000813099F08230A1F008958730A9F0883095
:10292000B9F08430D1F4809180008F7D03C0809114
:1029300080008F7780938000089584B58F7702C0E0
:1029400084B58F7D84BD08958091B0008F7703C0DA
:102950008091B0008F7D8093B00008950F931F93F6
:10296000CF93DF931F92CDB7DEB7282F30E0F90168
:10297000EF50F64F8491F901EB5FF54F1491F90197
:10298000E75EF54F04910023C9F0882321F06983A5
:102990000E9485146981E02FF0E0EE0FFF1FE35DD8
:1029A000F54FA591B4919FB7F8948C91611103C034
:1029B0001095812301C0812B8C939FBF0F90DF91D5
:1029C000CF911F910F910895FC01818D228D90E090
:1029D000805C9F4F821B91098F7399270895FC019A
:1029E000918D828D981731F0828DE80FF11D858DC4
:1029F00090E008958FEF9FEF0895FC01918D828DF7
:102A0000981761F0828DDF01A80FB11D5D968C9142
:102A1000928D9F5F9F73928F90E008958FEF9FEF4D
:102A2000089581E896E1892B49F080E090E0892BB8
:102A300029F00E94811681110C9400000895FC0178
:102A4000848DDF01A80FB11DA35ABF4F2C91848D37
:102A500090E001968F739927848FA689B7892C936C
:102A6000A089B1898C9180648C93938D848D981307
:102A700006C00288F389E02D80818F7D80830895D0
:102A8000CF93DF93EC01888D8823C9F0EA89FB8915
:102A9000808185FD05C0A889B9898C9186FD0FC00C
:102AA0000FB607FCF5CF808185FFF2CFA889B989E1
:102AB0008C9185FFEDCFCE010E941F15E7CFDF91EE
:102AC000CF910895CF92DF92FF920F931F93CF93F0
:102AD000DF931F92CDB7DEB76C0181E0D601589627
:102AE0008C9358975B969C915B975C968C915C97C6
:102AF000981307C05096ED91FC915197808185FD08
:102B00002EC0F601038D10E00F5F1F4F0F731127CA
:102B1000F02EF601848DF81211C00FB607FCF9CF24
:102B2000D6015096ED91FC915197808185FFF1CFB0
:102B3000C60169830E941F156981EBCF838DE80F61
:102B4000F11DE35AFF4F6083D6015B960C935B97B0
:102B50005296ED91FC915397808180620CC0D60112
:102B60005696ED91FC91579760835096ED91FC91AC
:102B7000519780818064808381E090E00F90DF91A5
:102B8000CF911F910F91FF90DF90CF900895BF924A
:102B9000CF92DF92EF92FF92CF93DF93EC016A0125
:102BA0007B01B22EE889F98982E08083411581EEAC
:102BB000580761057105A1F060E079E08DE390E0D0
:102BC000A70196010E943F1C21503109410951097A
:102BD0005695479537952795211580E1380798F048
:102BE000E889F989108260E874E88EE190E0A70135
:102BF00096010E943F1C2150310941095109569507
:102C0000479537952795EC85FD853083EE85FF85C3
:102C10002083188EEC89FD89B082EA89FB89808146
:102C200080618083EA89FB89808188608083EA896A
:102C3000FB89808180688083EA89FB8980818F7D20
:102C40008083DF91CF91FF90EF90DF90CF90BF9086
:102C500008951F920F920FB60F9211242F938F9306
:102C60009F93EF93FF93E0914202F09143028081A2
:102C7000E0914802F091490282FD12C0908180915A
:102C80004B028F5F8F7320914C02821751F0E091BD
:102C90004B02F0E0EE5CFD4F958F80934B0201C03C
:102CA0008081FF91EF919F918F912F910F900FBE97
:102CB0000F901F9018951F920F920FB60F9211242C
:102CC0002F933F934F935F936F937F938F939F9334
:102CD000AF93BF93EF93FF9382E392E00E941F159F
:102CE000FF91EF91BF91AF919F918F917F916F91E4
:102CF0005F914F913F912F910F900FBE0F901F90BA
:102D0000189582E392E00E94E41421E0892B09F4F3
:102D100020E0822F0895109235021092340288EE3E
:102D200093E0A0E0B0E08093360290933702A09346
:102D30003802B093390286E491E090933302809395
:102D4000320285EC90E090933F0280933E0284EC47
:102D500090E0909341028093400280EC90E0909349
:102D600043028093420281EC90E09093450280936D
:102D7000440282EC90E0909347028093460286ECF6
:102D800090E0909349028093480210924B02109277
:102D90004C0210924D0210924E02089508950E9426
:102DA0004A140E94CE160E944805C1E1D5E10E9456
:102DB00066052097E1F30E941115F9CF0C94671C6A
:102DC000CF92DF92EF92FF920F931F93CF93DF93F7
:102DD0007C016A01EB0100E010E00C151D0571F0AB
:102DE0006991D701ED91FC910190F081E02DC7012F
:102DF0000995892B19F00F5F1F4FEFCFC801DF91A5
:102E0000CF911F910F91FF90EF90DF90CF90089599
:102E10006115710581F0DB010D900020E9F7AD012E
:102E200041505109461B570BDC01ED91FC9102808A
:102E3000F381E02D099480E090E00895EF92FF92F5
:102E40000F931F93CF93DF938C017B01C0E0D0E001
:102E5000F701EC0FFD1F6491662359F0F801A08182
:102E6000B181ED91FC91C8010995892B11F0219652
:102E7000EFCFCE01DF91CF911F910F91FF90EF9097
:102E800008950C940817DC01ED91FC910190F081FC
:102E9000E02D099462E571E00C9408170F931F93DD
:102EA000CF93DF93EC010E941E178C01CE010E948C
:102EB0004A17800F911FDF91CF911F910F910895B5
:102EC0000F931F93CF93DF93EC010E9408178C019F
:102ED000CE010E944A17800F911FDF91CF911F9161
:102EE0000F9108958F929F92AF92BF92DF92EF92CF
:102EF000FF920F931F93CF93DF93CDB7DEB7A197C8
:102F00000FB6F894DEBF0FBECDBF7C01F42FD52ED7
:102F1000CB0119A2223008F42AE08E010F5D1F4F69
:102F2000822E912CA12CB12C6F2F7D2DA501940107
:102F30000E943F1CF22FD32ECA01015011096A30A2
:102F400014F4E0E301C0E7E3E60FD801EC93232B90
:102F5000242B252B49F7B801C7010E940817A19619
:102F60000FB6F894DEBF0FBECDBFDF91CF911F919A
:102F70000F91FF90EF90DF90BF90AF909F908F9058
:102F80000895CF92DF92EF92FF920F931F93CF930A
:102F9000DF93EC016A017B012115310579F4E881A9
:102FA000F9810190F081E02D642FDF91CF911F9185
:102FB0000F91FF90EF90DF90CF9009942A30310568
:102FC000E9F477FF1AC06DE20E9443178C01442791
:102FD0005527BA014C195D096E097F092AE0CE0117
:102FE0000E947217800F911FDF91CF911F910F9157
:102FF000FF90EF90DF90CF9008952AE0B701A601EF
:10300000CE01DF91CF911F910F91FF90EF90DF9054
:10301000CF900C9472172115310541F4DC01ED912C
:10302000FC910190F081E02D642F09940C947217AB
:103030009A01462F50E060E070E00C940B180F935B
:103040001F93CF93DF93EC019A01AB0160E070E036
:103050000E940B188C01CE010E944A17800F911F0D
:10306000DF91CF911F910F9108954F925F926F92D0
:103070007F928F929F92AF92BF92CF92DF92EF9208
:10308000FF920F931F93CF93DF93EC016A017B01B3
:10309000B22E9A01AB01C701B6010E943B1C8823E6
:1030A00019F065E571E027C026013701E89477F84B
:1030B0002FEF3FEF4FE75FE7C301B2010E943B1CD8
:1030C00081110DC02FEF3FEF4FE75FE7C301B20162
:1030D0000E94FA1918161CF469E571E00CC02FEF74
:1030E0003FEF4FE75FE4C701B6010E94CA1B181605
:1030F000ACF46DE571E0CE01DF91CF911F910F919E
:10310000FF90EF90DF90CF90BF90AF909F908F9007
:103110007F906F905F904F900C9408172FEF3FEFC8
:103120004FE75FECC701B6010E94FA1987FDE1CFB6
:1031300020E030E0A901C701B6010E94FA1987FF1B
:103140000AC06DE2CE010E9443178C01F7FAF09499
:10315000F7F8F09402C000E010E0A12C60E070E00D
:1031600080E09FE3AB1441F020E030E040E251E426
:103170000E94FE19A394F6CF9B01AC01C701B601D2
:103180000E9434196B017C010E946B1A2B013C01D7
:103190000E94971A9B01AC01C701B6010E94331926
:1031A0006B017C012AE0B301A201CE010E947217DB
:1031B000080F191FBB2039F061E671E0CE010E94B3
:1031C0000817080F191F7B2C772041F120E030E011
:1031D00040E251E4C701B6010E94D51B6B017C019E
:1031E0000E94661A4B01AA2497FCA094BA2C2AE0EC
:1031F00030E0B501A401CE010E94C117080F191FCC
:10320000C501B4010E94991A9B01AC01C701B60126
:103210000E9433196B017C017A94D6CFC801DF91EB
:10322000CF911F910F91FF90EF90DF90CF90BF90C3
:10323000AF909F908F907F906F905F904F90089588
:103240000F931F93CF93DF93EC010E9435188C01ED
:10325000CE010E944A17800F911FDF91CF911F91DD
:103260000F91089508955058BB27AA270ED058C231
:1032700049D230F04ED220F031F49F3F11F41EF4C9
:1032800019C20EF4E095E7FB01C2E92F5AD280F390
:10329000BA17620773078407950718F071F49EF553
:1032A00072C20EF4E0950B2EBA2FA02D0B01B901BE
:1032B00090010C01CA01A0011124FF27591B99F0AC
:1032C000593F50F4503E68F11A16F040A22F232FB8
:1032D000342F4427585FF3CF469537952795A79508
:1032E000F0405395C9F77EF41F16BA0B620B730BAF
:1032F000840BBAF09150A1F0FF0FBB1F661F771F20
:10330000881FC2F70EC0BA0F621F731F841F48F4D4
:10331000879577956795B795F7959E3F08F0B3CF5A
:103320009395880F08F09927EE0F97958795089544
:10333000E9D158F080E891E009F49EEFEAD128F055
:1033400040E851E059F45EEF09C0B4C11CC2E92F56
:10335000E078F7D168F3092E052AC1F3261737075D
:103360004807590738F00E2E07F8E02569F0E025E8
:10337000E0640AC0EF6307F8009407FADB01B901C3
:103380009D01DC01CA01AD01EF9347D0C9D10AD03C
:103390005F91552331F02BED3FE049E450FD49ECBE
:1033A00063CF0895DF93DD27B92FBF7740E85FE350
:1033B0001616170648075B0710F4D92FEFD19F9315
:1033C0008F937F936F9354D2E8E6F0E076D1A8D143
:1033D0002F913F914F915F91F4D1DD2349F09058A7
:1033E000A2EA2AED3FE049EC5FE3D0785D274DDFAC
:1033F000DF9196C127D108F481E008950CD090C1E7
:1034000088D140F07FD130F021F45F3F19F03EC108
:103410005111BAC14FC195D198F39923C9F35523DE
:10342000B1F3951B550BBB27AA27621773078407B7
:1034300038F09F5F5F4F220F331F441FAA1FA9F36D
:1034400033D00E2E3AF0E0E830D091505040E6955F
:10345000001CCAF729D0FE2F27D0660F771F881FC0
:10346000BB1F261737074807AB07B0E809F0BB0BAF
:10347000802DBF01FF2793585F4F2AF09E3F5105D3
:1034800068F004C181C15F3FECF3983EDCF38695A0
:1034900077956795B795F7959F5FC9F7880F911D49
:1034A0009695879597F90895E1E0660F771F881F35
:1034B000BB1F621773078407BA0720F0621B730BE8
:1034C000840BBA0BEE1F88F7E095089504D068943A
:1034D000B1115AC108953DD188F09F5790F0B92F8E
:1034E0009927B751A0F0D1F0660F771F881F991F59
:1034F0001AF0BA95C9F712C0B13081F044D1B1E0E9
:10350000089541C1672F782F8827B85F39F0B93FF8
:10351000CCF3869577956795B395D9F73EF490955A
:103520008095709561957F4F8F4F9F4F0895E894D8
:1035300009C097FB3EF490958095709561957F4FFB
:103540008F4F9F4F9923A9F0F92F96E9BB279395A9
:10355000F695879577956795B795F111F8CFFAF4B9
:10356000BB0F11F460FF1BC06F5F7F4F8F4F9F4FEA
:1035700016C0882311F096E911C0772321F09EE848
:10358000872F762F05C0662371F096E8862F70E0AE
:1035900060E02AF09A95660F771F881FDAF7880F88
:1035A0009695879597F90895ADD018F011F0B1D0A0
:1035B00038F480C0E9C0E92FC4D0B0F35523C9F373
:1035C000E7FB6217730784079507A8F199F3E92FC2
:1035D000FF2788232AF03197660F771F881FDAF7B5
:1035E000952F5527442332F091505040220F331F1E
:1035F000441FD2F7BB27E91BF50B621B730B840B2F
:10360000B109C1F222F4620F731F841FB11D3197FB
:103610002AF0660F771F881FBB1FEFCF91505040D5
:103620005AF041F0882332F0660F771F881F9150BF
:103630005040C1F7939530C08695779567959F5F09
:10364000D9F7F8CF990F0008550FAA0BE0E8FEEF65
:1036500016161706E807F907C0F012161306E40756
:10366000F50798F0621B730B840B950B39F40A264F
:1036700061F0232B242B252B21F408950A2609F42D
:10368000A140A6958FEF811D811D089597F99F6731
:1036900080E870E060E008959F3F31F0915020F4A1
:1036A000879577956795B795880F911D969587951E
:1036B00097F908959FEF80EC0895DF93CF931F93C0
:1036C0000F93FF92EF92DF927B018C01689405C00B
:1036D000DA2EEF0176D0FE01E894A591259135917F
:1036E00045915591AEF3EF01D0DDFE019701A801A0
:1036F000DA9479F7DF90EF90FF900F911F91CF91BF
:10370000DF91089500240A94161617061806090674
:10371000089500240A941216130614060506089547
:10372000092E0394000C11F4882352F0BB0F40F4CF
:10373000BF2B11F460FF04C06F5F7F4F8F4F9F4F0F
:10374000089557FD9058440F551F59F05F3F71F091
:103750004795880F97FB991F61F09F3F79F08795F8
:103760000895121613061406551FF2CF4695F1DF81
:1037700008C0161617061806991FF1CF8695710511
:10378000610508940895E894BB2766277727CB0145
:1037900097F9089557DF08F48FEF08959B01AC0166
:1037A00060E070E080E89FE329CE0BD0B9CFAADFBC
:1037B00028F0AFDF18F0952309F068CF7BCF1124F4
:1037C000E3CFBFDFA0F3959FD1F3950F50E0551FD6
:1037D000629FF001729FBB27F00DB11D639FAA2766
:1037E000F00DB11DAA1F649F6627B00DA11D661FB5
:1037F000829F2227B00DA11D621F739FB00DA11DD6
:10380000621F839FA00D611D221F749F3327A00D8F
:10381000611D231F849F600D211D822F762F6A2F2B
:1038200011249F5750408AF0E1F088234AF0EE0FB0
:10383000FF1FBB1F661F771F881F91505040A9F7BD
:103840009E3F510570F022CF9FCF5F3FECF3983E33
:10385000DCF3869577956795B795F795E7959F5F24
:10386000C1F7FE2B880F911D9695879597F90895BE
:103870009B01AC019ACFE6DE880B990B0895A1E27B
:103880001A2EAA1BBB1BFD010DC0AA1FBB1FEE1FDA
:10389000FF1FA217B307E407F50720F0A21BB30B25
:1038A000E40BF50B661F771F881F991F1A9469F7A1
:1038B00060957095809590959B01AC01BD01CF01FD
:1038C0000895EE0FFF1F0590F491E02D0994CF931A
:1038D000DF938230910510F482E090E0E091D10214
:1038E000F091D20220E030E0A0E0B0E0309739F172
:1038F0004081518148175907B8F04817590771F4AA
:1039000082819381109729F013969C938E9312973E
:103910002CC09093D2028093D10227C0211531058B
:1039200031F04217530718F0A901DB0101C0EF0184
:103930009A01BD01DF010280F381E02DD7CF21156F
:103940003105F9F0281B390B2430310580F48A81C8
:103950009B816115710521F0FB019383828304C073
:103960009093D2028093D102FE01329644C0FE01B0
:10397000E20FF31F819391932250310939832883F9
:103980003AC02091CF023091D002232B41F42091F4
:103990000201309103013093D0022093CF02209195
:1039A0000001309101012115310541F42DB73EB7D9
:1039B0004091040150910501241B350BE091CF0289
:1039C000F091D002E217F307A0F42E1B3F0B28174B
:1039D000390778F0AC014E5F5F4F2417350748F088
:1039E0004E0F5F1F5093D0024093CF02819391936B
:1039F00002C0E0E0F0E0CF01DF91CF910895CF93D6
:103A0000DF93009709F487C0FC013297138212827A
:103A1000C091D102D091D202209781F420813181CE
:103A2000280F391F8091CF029091D00282179307FF
:103A300079F5F093D002E093CF026DC0DE0120E073
:103A400030E0AE17BF0750F412964D915C9113977A
:103A50009D014115510509F1DA01F3CFB383A2832A
:103A600040815181840F951F8A179B0771F48D91B6
:103A70009C911197840F951F0296918380831296D3
:103A80008D919C911397938382832115310529F49D
:103A9000F093D202E093D1023EC0D9011396FC9379
:103AA000EE9312974D915D91A40FB51FEA17FB0796
:103AB00079F480819181840F951F0296D901119626
:103AC0009C938E938281938113969C938E931297ED
:103AD000E0E0F0E08A819B81009719F0FE01EC01A3
:103AE000F9CFCE01029628813981820F931F209150
:103AF000CF023091D0022817390769F4309729F4A2
:103B00001092D2021092D10202C013821282D0937C
:103B1000D002C093CF02DF91CF910895A0E0B0E032
:103B2000E4E9FDE10C94721EEC01CB01209719F43D
:103B30000E94671CB8C0FE01E60FF71F9E012250CD
:103B40003109E217F30708F4ACC0D9010D911C91BB
:103B5000119706171707B8F00530110508F49FC034
:103B6000A801445051094617570708F498C002505D
:103B70001109061B170B019311936D937C93CF01D1
:103B80000E94FF1C8CC05B01A01AB10A4E01800E7E
:103B9000911EA091D102B091D202612C712C60E0F3
:103BA00070E0109709F449C0A815B905C9F5ED9062
:103BB000FC901197670142E0C40ED11CCA14DB04CB
:103BC00078F147018A189B08640142E0C40ED11CB9
:103BD0001296BC9012971396AC91B5E0CB16D10417
:103BE00040F0B282A38391828082D9018D939C930D
:103BF00009C00E5F1F4F0E0D1F1DF90111830083B9
:103C0000EB2DFA2F6115710531F0DB011396FC9352
:103C1000EE93129744C0F093D202E093D1023FC0DA
:103C20006D917C9111976616770608F43B01BD01F2
:103C300012960D90BC91A02DB4CF6091CF027091DF
:103C4000D00268157905E9F468167906D0F4409138
:103C50000001509101014115510541F44DB75EB786
:103C60006091040170910501461B570BE417F5079D
:103C7000C0F4F093D002E093CF02F90191838083E6
:103C80000EC00E94671C7C01009759F0A801BE017C
:103C90000E94651ECE010E94FF1CC70104C0CE0118
:103CA00002C080E090E0CDB7DEB7EEE00C948E1E4F
:103CB000FB01DC0104C08D910190801921F4415079
:103CC0005040C8F7881B990B0895FB01DC0102C026
:103CD00001900D9241505040D8F708952F923F9295
:103CE0004F925F926F927F928F929F92AF92BF920C
:103CF000CF92DF92EF92FF920F931F93CF93DF93B8
:103D0000CDB7DEB7CA1BDB0B0FB6F894DEBF0FBE14
:103D1000CDBF09942A88398848885F846E847D8461
:103D20008C849B84AA84B984C884DF80EE80FD8063
:103D30000C811B81AA81B981CE0FD11D0FB6F894D9
:0E3D4000DEBF0FBECDBFED010895F894FFCF9A
:103D4E000000D3028000E803436F6D70617373202F
:103D5E00546573740000000000D705AA057F05871F
:103D6E00059A05A9054649464F3A20007061636BD6
:103D7E0065742073697A653A200000000000250FF3
:103D8E00EE0E000000006215E016E414FD14EF14B0
:103D9E0040150D0A006E616E00696E66006F7666E4
:043DAE00002E0000E3
:00000001FF
