:100000000C942A050C9452050C9452050C941C0B6C
:100010000C941C0B0C941C0B0C9452050C94520564
:100020000C9452050C9452050C9452050C945205F4
:100030000C9452050C9452050C9452050C945205E4
:100040000C944D1A0C9452050C94791D0C94AB1D14
:100050000C9452050C9452050C9452050C945205C4
:100060000C940C090C945205084AD73B3BCE016E08
:1000700084BCBFFDC12F3D6C74319ABD56833DDAFF
:100080003D00C77F11BED9E4BB4C3E916BAAAABE0E
:10009000000000803F002900444D5020496E6974E3
:1000A00069616C697A6174696F6E206661696C65FB
:1000B000642028636F64652000444D5020726561A0
:1000C0006479212057616974696E6720666F7220B8
:1000D000666972737420696E746572727570742EBD
:1000E0002E2E00456E61626C696E6720444D502E65
:1000F0002E2E00496E697469616C697A696E672099
:10010000444D502E2E2E004D505536303530206344
:100110006F6E6E656374696F6E206661696C65648D
:10012000004D50553630353020636F6E6E65637408
:10013000696F6E207375636365737366756C0054C5
:10014000657374696E672064657669636520636FA3
:100150006E6E656374696F6E732E2E2E00496E6924
:100160007469616C697A696E6720493243206465FD
:1001700076696365732E2E2E0001B202FFFF019097
:10018000040923A135016A0206000160080000008D
:100190000000000000006004400000000162020056
:1001A0000000600400400000037B034CCD6C03ABF7
:1001B0000336567600680402CB47A20218040005F5
:1001C0008BC1010C0400000000037F060CC92C97B2
:1001D0009797038903264666006C022000024004BC
:1001E0000000000002440400000000024804000077
:1001F0000000024C04000000000250040000000057
:100200000254040000000002580400000000025CD8
:10021000040000000002BC040000000001EC040027
:10022000004000037F060CC92C9797970402030D2A
:10023000355D040904872D353D00A3010000000051
:1002400001078601FE074105F120283038077E01AD
:10025000300746019A074704F1283038076C04F14B
:100260002830380216020002FB00003E000B003668
:10027000000100020003000000650054FFEF0000D1
:10028000FA80000B12820001000200000000000052
:10029000000000000000000000280000FFFF458172
:1002A000FFFFFA7200000000000003E800000001F8
:1002B00000017FFFFFFE8001001B00000000000026
:1002C0000000000000000000003E0330400000007D
:1002D00002CAE3093E800000200000000000000088
:1002E000400000006000000041FF000000000B2AF9
:1002F0000000165500002182FD872650FD80000079
:10030000001F000000058000000000000001000048
:100310000002000000030000400000000000046F25
:100320000002653200005EC04000000000000000D6
:100330000000000000000000FB8C6F5DFD5D08D92F
:10034000007C733B006C12CC3200139D3200D0D67F
:1003500032000800400001F4FFE68079020000004E
:100360000000D0D600002710FB0000004000000075
:10037000000000000000000000000001000000007C
:1003800000000100010000000000FA36FFBC308EC2
:100390000005FBF0FFD95BC8FFD09ABE000010A992
:1003A000FFF41EB200CEBBF7000000010000000405
:1003B000000200020200000CFFC280000001800069
:1003C00000CF80004000000000000001000000009D
:1003D0000000060000000014000000000000000003
:1003E000000000000000000000000000000000000D
:1003F00000000000000000000000000000000000FD
:10040000000000000000000000000000033F68B68C
:10041000793528BCC67ED16C800000004000000009
:100420000000B26A000000000000000000000000B0
:1004300000003FF00000003000000000000000005D
:1004400000000000000000000000000000000000AC
:1004500000000000000000000000254D002F706D1E
:10046000000005AE000C02D0000000000065005442
:10047000FFEF000000000000000001000044000049
:1004800000000C00000001000000000000650000FA
:1004900000540000FFEF000000000000000000001A
:1004A000000000000000000040000000000000000C
:1004B00000000000000000004000000000000000FC
:1004C0000000000000000000000000010000000229
:1004D000000000000000000000000000000000001C
:1004E000000000000000000000000000000000000C
:1004F0000000000000000000001B000000000000E1
:1005000000000000000000000000000000000000EB
:1005100000000000000000000000000000000000DB
:100520000000000040000000001B00000000000070
:1005300000000000000000000000000000000000BB
:1005400000000000000000000000000000000000AB
:10055000000000000000000000000000000000009B
:100560000000000000000000D8DCBAA2F1DEB2B842
:10057000B4A88191F74A907F916AF3F9DBA8F9B0AA
:10058000BAA080F2CE81F3C2F1C1F2C3F3CCA2B221
:1005900080F1C6D880BAA7DFDFDFF2A7C3CBC5B62C
:1005A000F087A2942448703C95406834589B78A208
:1005B000F183922D557DD8B1B4B8A1D09180F2705D
:1005C000F370F27C80A8F101B09887D943D886C92E
:1005D00088BAA1F20EB89780F1A9DFDFDFAADFDFCA
:1005E000DFF2AAC5CDC7A90CC92C97979797F1A997
:1005F00089264666B0B4BA80ACDEF2CAF1B28C028B
:10060000A9B69800890E161EB8A9B4992C547CB0CE
:100610008AA896365676F1B9AFB4B083C0B8A89719
:1006200011B18F98B9AFF0240844106418F1A329D0
:10063000557DAF83B593AFF0002850F1A3869F613D
:10064000A6DADEDFD9FAA38696DB31A6D9F8DFBABF
:10065000A68FC2C5C7B28CC1B8A2DFDFDFA3DFDFC0
:10066000DFD8D8F1B8A8B286B4980D355DB8AA988D
:10067000B0872D353DB2B6BAAF8C96198F9FA70EB5
:10068000161EB49AB8AA872C547CB9A3DEDFDFA368
:10069000B180F2C4CDC9F1B8A9B499830D355D8993
:1006A000B9A32D557DB593A30E161EA92C547CB865
:1006B000B4B0F19783A81184A50998A383F0DA2434
:1006C0000844106418D8F1A529557DA58595021A0E
:1006D0002E3A565A4048F9F3A3D9F8F098832408E3
:1006E000441064189782A8F111F098A224084410CD
:1006F0006418DAF3DED883A59401D9A302F1A2C36A
:10070000C5C7D8F18492A24DDA2AD84869D92AD827
:100710006855DA32D85071D932D8705DDA3AD85883
:1007200079D93AD87893A34DDA2AD84869D92AD802
:100730006855DA32D85071D932D8705DDA3AD85863
:1007400079D93AD878A88A9AF02850789EF38818F0
:10075000F19F1D98A8D908D8C89F129EF315A8DA52
:100760001210D8F1AFC8978734B5B994A421F3D942
:1007700022D8F22DF3D92AD8F235F3D932D881A470
:10078000606061D961D86C6869D969D8747071D9B1
:1007900071D8B1A384193D5DA3831A3E5E931030D6
:1007A000811011B8B0AF8F94F2DA3ED8B49AA8870E
:1007B00029DAF8D8879A35DAF8D8879A3DDAF8D85E
:1007C000B1B9A49885022E56A581000C14A397B048
:1007D0008AF12DD928D84DD948D86DD968D8B18497
:1007E0000DDA0ED8A32983DA2C0ED8A3844983DA34
:1007F0002C4C0ED8B8B0A88A9AF520AADADFD8A86F
:1008000040AAD0DADED8A860AADAD0DFD8F197867D
:10081000A8319B069907AB9728889BF00C201440C1
:10082000B8B0B4A88C9CF0042851791D301438B2AB
:1008300082ABD0982C505078789BF11AB0F08A9CFB
:10084000A82951798B2951798A2470598B205871A4
:100850008A4469388B3940688A6448318B304960F2
:10086000A588200971584468113964493019F1ACE0
:10087000002C547CF08CA804285078F1889726A886
:100880005998AC8C02264666F0899CA82951792497
:100890007059446938644831A98809205970AB11EE
:1008A000384069A8193148608CA83C415C207C0024
:1008B000F187981986A86E767EA999882D557D9E18
:1008C000B9A38A228A6E8A568A5E9FB1830626461B
:1008D000660E2E4E6E9DB8AD002C547CF2B18CB4D9
:1008E00099B9A32D557D8191AC38AD3AB58391ACC2
:1008F0002DD928D84DD948D86DD968D88C9DAE2926
:10090000D904AED851D904AED879D904D881F39D91
:10091000AD008DAE1981ADD901D8F2AEDA26D88EF0
:10092000912983A7D9ADADADADF32AD8D8F1B0AC3C
:1009300089913E5E76F3AC2E2EF1B18C5A9CAC2C94
:100940002828289CAC3018A8988128343C9724A7E4
:1009500028343C9C24F2B089AC912C4C6C8A9B2DA1
:10096000D9D8D851D9D8D879D9D8D8F19E88A33137
:10097000DAD8D8912DD928D84DD948D86DD968D88A
:10098000B18393353D8025DAD8D88569DAD8D8B4D3
:100990009381A328343CF3AB8BF8A391B609B4D967
:1009A000ABDEFAB0879CB9A3DDF1A3A3A3A395F1B5
:1009B000A3A3A39DF1A3A3A3A3F2A3B49080F2A346
:1009C000A3A3A3A3A3A3A3A3A3B2A3A3A3A3A3A3E8
:1009D000B087B599F1A3A3A398F1A3A3A3A397A369
:1009E000A3A3A3F39BA3A3DCB9A7F1262626D8D8FB
:1009F000FF000000080002010000030407000000DF
:100A000000000000000102040810204080010204E0
:100A10000810200102040810200404040404040443
:100A200004020202020202030303030303000000A4
:100A30000023002600290000000000250028002BCC
:100A40000000000000240027002A0000E50622081C
:100A5000DB1DF30611241FBECFEFD8E0DEBFCDBFF4
:100A600012E0A0E0B1E0E6EEFEE402C005900D92D7
:100A7000A633B107D9F724E0A6E3B2E001C01D9286
:100A8000AA30B207E1F71AE0C2E5DAE004C0229723
:100A9000FE010E941025CC34D107C9F70E941F1E09
:100AA0000C9466270C940000CF93DF9326E040E877
:100AB00055E260E070E089E693E00E94171D40E88F
:100AC00055E260E070E086E392E00E941F0C84E053
:100AD00090E00E942E1EEC010E94E516D093580271
:100AE000C093570268E071E086E392E00E94911E95
:100AF0008091570290915802DC01ED91FC910280A7
:100B0000F381E02D0995AB01BC0122E030E086E3E2
:100B100092E00E949A208EE190E00E942E1EEC014D
:100B200060915702709158020E948619D093560224
:100B3000C093550266E171E086E392E0DF91CF91C8
:100B40000C94B01E8F929F92AF92BF92CF92DF9281
:100B5000EF92FF9260ED77E080E090E00E94C61A8D
:100B6000E0913602F09137020480F581E02D86E3B2
:100B700092E00995892B09F41FC167E271E086E3D1
:100B800092E00E94911E8091570290915802DC01E0
:100B9000ED91FC910280F381E02D0995AB01BC0140
:100BA00022E030E086E392E00E949A2061E371E067
:100BB00086E392E00E94911EE0915502F091560268
:100BC000408951896289738922E030E086E392E0AE
:100BD0000E949A206AE371E086E392E00E94911EEF
:100BE000E0915502F09156024489558966897789CA
:100BF00022E030E086E392E00E949A206FE471E008
:100C000086E392E00E94911EE0915502F091560217
:100C1000408D518D628D738D2AE030E086E392E045
:100C20000E949D1F8091570290915802DC01ED9126
:100C3000FC910280F381E02D09950E943A186B0126
:100C40007C0160E671E086E392E00E94911EC7019C
:100C5000B6010E94C1224AE050E086E392E00E9481
:100C60005B1F41E060E070E086E392E00E941D219E
:100C70006B017C016AE671E086E392E00E94911EBE
:100C80004AE050E0B60186E392E00E945B1F65E710
:100C900071E086E392E00E94911E8091550290914E
:100CA00056020E946D184B015C0122E030E0AB015E
:100CB000BC0186E392E00E949A206DE771E086E332
:100CC00092E00E94911EB601882777FD8095982FAB
:100CD0000E94F4226B017C01A50194010E9459221B
:100CE000AB01BC0122E030E086E392E00E949A2052
:100CF000B701A60180915502909156020E943A19BF
:100D00006B017C0162E971E086E392E00E94911E32
:100D100022E030E0B701A60186E392E00E949A202B
:100D200068EE73E080E090E00E94C61A809157025E
:100D300090915802DC01ED91FC910280F381E02D4D
:100D400009950E943A186B017C0167EA71E086E31D
:100D500092E00E94911EC701B6010E94C1224AE0A2
:100D600050E086E392E00E945B1F67E271E086E359
:100D700092E00E94911E8091570290915802DC01EE
:100D8000ED91FC910280F381E02D0995AB01BC014E
:100D900022E030E086E392E00E949A2066E171E072
:100DA00086E392E0FF90EF90DF90CF90BF90AF90FE
:100DB0009F908F900C94B01EFF90EF90DF90CF909B
:100DC000BF90AF909F908F90089520E045E064E041
:100DD00086E392E00E94EF0B84EB91E09093370260
:100DE00080933602089584EB91E0909337028093CC
:100DF000360286E392E00C94960B8091890290E093
:100E000020918A02821B9109089520918A02809183
:100E10008902281750F4E22FF0E0E557FD4F80815A
:100E200090E02F5F20938A0208958FEF9FEF08953F
:100E3000E0918A0280918902E81730F4F0E0E557EA
:100E4000FD4F808190E008958FEF9FEF0895089502
:100E5000CF92DF92EF92FF920F931F93CF93DF9386
:100E60007C01CB018A0120916502222389F0EB01EC
:100E70006B01C40ED51ECC15DD0569F06991D70153
:100E8000ED91FC910190F081E02DC7010995F3CF20
:100E9000642F0E94E308C801DF91CF911F910F9149
:100EA000FF90EF90DF90CF900895CF93DF931F9244
:100EB000CDB7DEB76983209165022223D1F020915E
:100EC0006602203240F021E030E0FC0133832283CF
:100ED00080E090E015C080916702E82FF0E0E859CB
:100EE000FD4F998190838F5F8093670280936602A4
:100EF00005C061E0CE0101960E94E30881E090E028
:100F00000F90DF91CF910895FC011382128248EE79
:100F100053E060E070E0448355836683778384EC1C
:100F200091E091838083089510928A021092890241
:100F300010926702109266020C94260881E080935A
:100F4000650260938802109267021092660208950B
:100F50000F93062F21E04091660268E672E08091CF
:100F600088020E948C08109267021092660210920A
:100F700065020F9108958F929F92AF92BF92CF9288
:100F8000DF92EF92FF920F931F93CF93DF93EC01C9
:100F9000F62ED42E48015901EE2019F10E949E0729
:100FA0001E2D143008F013E01150B8F0E881F981DB
:100FB00028E0129FB0011124A501940104C05695A8
:100FC0004795379527956A95D2F7CA01B9010190DF
:100FD000F081E02DCE010995E7CF60E0CE010E94BF
:100FE000A8074D2D413208F040E22C2D6BE872E04D
:100FF0008F2D0E94440810928A0280938902DF910B
:10100000CF911F910F91FF90EF90DF90CF90BF9005
:10101000AF909F908F900895CF92EF920F931F9370
:10102000C22EE12C00E010E098010E94BB071F9146
:101030000F91EF90CF90089521E00C940C0861E09F
:101040000C94A80789E592E00C9484071092180389
:1010500081E0809316031092150361E082E10E9403
:10106000FC1B61E083E10E94FC1BE9EBF0E0808166
:101070008E7F808380818D7F808388E48093B80019
:1010800085E48093BC000895413208F043C09091FC
:1010900018039111FCCF91E090931803209316034D
:1010A0002FEF2093AB021092F002240F2093EF0257
:1010B0009093170390911703880F892B8093170340
:1010C00080911503813061F410921503809117030C
:1010D0008093BB008091BC0083FDF8CF85EC01C0FC
:1010E00085EE8093BC00809118038130E1F38091FC
:1010F000F002841710F44091F00221EF32E0FB017E
:10110000D9018A2F821B841718F48D918193F9CF0E
:10111000842F089580E008950F93413208F04AC06B
:10112000909118039111FCCF92E0909318030093D3
:1011300016039FEF9093AB021092F0024093EF02E0
:10114000FB0161EF72E0DB019A2F961B941718F4F4
:1011500091919D93F9CF1092170390911703880FE7
:10116000892B8093170380911503813061F41092CD
:101170001503809117038093BB008091BC0083FD11
:10118000F8CF85EC01C085EE8093BC00222321F0CE
:10119000809118038230E1F38091AB028F3F61F0C0
:1011A0008091AB02803251F08091AB02803341F4E8
:1011B00083E007C081E005C080E003C082E001C099
:1011C00084E00F910895613298F42091180324303F
:1011D00089F46093CD02FC018FEC92E0DC012A2FB0
:1011E000281B261718F421912D93F9CF80E008953C
:1011F00081E0089582E0089585ED8093BC008091A0
:10120000BC0084FDFCCF10921803089585EC8093F8
:10121000BC001092180308951F920F920FB60F9200
:1012200011242F933F934F935F936F937F938F93EB
:101230009F93AF93BF93EF93FF938091B900887F03
:10124000803609F49EC078F5883209F45DC090F4C8
:10125000803109F456C038F4882309F4F5C0883089
:1012600009F44FC0F5C0883109F44EC0803209F44A
:101270005FC0EEC0803409F46AC058F4803309F4CA
:1012800057C0883309F0E4C08093AB020E9406097E
:10129000DFC0803509F44FC0883509F45DC088345B
:1012A00009F0D6C0D3C0883909F4C4C0A8F488377F
:1012B00009F467C038F4883609F463C0803709F44C
:1012C00060C0C6C0883809F4B5C0803909F45FC071
:1012D000803809F0BDC05BC0803B09F483C038F49E
:1012E000803A09F466C0883A09F47CC0B1C0803CF9
:1012F00009F4A4C0883C09F4A1C0883B09F487C064
:10130000A7C08091170310C09091F0028091EF0266
:10131000981770F5E091F00281E08E0F8093F00253
:10132000F0E0EF50FD4F80818093BB0085EC83C0DF
:101330008093AB028BC0E091F00281E08E0F80932E
:10134000F0028091BB00F0E0EF50FD4F8083909160
:10135000F0028091EF026BC0E091F00281E08E0F0D
:101360008093F0028091BB00F0E0EF50FD4F80834E
:101370008091160381116AC081E08093150384EA8D
:101380005EC083E0809318031092AC02CFCF8091AF
:10139000AC02803208F04EC0E091AC0281E08E0FCA
:1013A0008093AC028091BB00F0E0E355FD4F808359
:1013B000BDCF0E9406098091AC02803230F4E091EA
:1013C000AC02F0E0E355FD4F10826091AC0270E09A
:1013D000E0911103F09112038DEA92E009951092C9
:1013E000AC0236C084E0809318031092CE021092B3
:1013F000CD02E0911303F091140309958091CD0281
:10140000811105C081E08093CD021092CF02E0915E
:10141000CE0281E08E0F8093CE02F0E0E153FD4FCB
:1014200080818093BB009091CE028091CD0298176D
:1014300008F47CCF85E88093BC000AC085EC8093DB
:10144000BC001092180304C01092AB020E94FC086A
:10145000FF91EF91BF91AF919F918F917F916F918C
:101460005F914F913F912F910F900FBE0F901F9062
:10147000189520915B0330915C0328173907B9F464
:101480009091190380911A03981789F0E09119033C
:10149000F0E0E55EFC4F80812091190330E02F5F82
:1014A0003F4F2F7333272093190390E008958FEF58
:1014B0009FEF08951F93CF93DF93DC015C968D918E
:1014C0009C915D97009749F481E090E013969C937E
:1014D0008E93129780E090E03BC05196ED91FC9185
:1014E000529750962C915097322F30951FB75E9699
:1014F0004C915E9741FB772770F941FD6095F89418
:101500004081772311F0422B01C043234083EC013B
:101510002197F1F748E0508160FF02C0522B01C0D3
:1015200053235083EC012197F1F76695415099F7C9
:101530008081772311F0832301C0822B80831FBF1A
:101540005C968D919C915D970197F1F781E090E019
:10155000DF91CF911F910895089520915B03309101
:101560005C032817390771F49091190380911A03CD
:10157000981741F0E0911903F0E0E55EFC4F80819F
:1015800090E008958FEF9FEF089520915B033091D5
:101590005C032817390771F480911A03209119030D
:1015A00090E0805C9F4F821B910960E470E00E9494
:1015B0009A24089580E090E00895E0915B03F09113
:1015C0005C03E817F90769F4A389B4899C918589BC
:1015D000809589238C9310925C0310925B0381E0C9
:1015E000089580E00895CF93DF93EC018A8D9B8D61
:1015F000892BF1F080915B0390915C038C179D0720
:10160000B9F0009711F00E94DD0A8E8D8E7F8E8FCB
:1016100010921A0310921903D0935C03C0935B03DA
:10162000EB89FC8980819D89892B808381E001C0C1
:1016300080E0DF91CF9108951F920F920FB60F9225
:1016400011242F933F934F935F936F937F938F93C7
:101650009F93AF93BF93EF93FF93E0915B03F09160
:101660005C03309709F451C0868DA685B7859585B2
:1016700081FF04C08C91892329F447C08C91892370
:1016800009F043C0A389B4899C91858980958923F9
:101690008C93868997890197F1F7208D318DA685E6
:1016A000B785758558E040E0C9010197F1F7842FAF
:1016B00090E095958795482F6C91672309F04068D5
:1016C000515091F7868D81FD409580911A0390E0ED
:1016D00001968F73992720911903281749F0A0913B
:1016E0001A03B0E0A55EBC4F4C9380931A0303C06D
:1016F000868D8160868F828D938D0197F1F7A38906
:10170000B4898C919589892B8C93FF91EF91BF912E
:10171000AF919F918F917F916F915F914F913F9189
:101720002F910F900FBE0F901F90189524ED31E070
:10173000FC01318320830C94DD0A1F93CF93DF9348
:10174000EC01162F6E8D6695617081E06827812F00
:101750000E94FC1B61E0812F0E94C31B812F90E03F
:10176000FC01EB5FF54FE491E88BFC01E75EF54F80
:10177000E491F0E0EE0FFF1FE95CF54F8591949145
:101780009A8B898BDF91CF911F9108951F93CF93EF
:10179000DF93EC01162F60E0812F0E94C31B8E8D1A
:1017A00081FD04C061E0812F0E94FC1B1C87812FFA
:1017B00090E0FC01EB5FF54FE491ED87FC01E75E03
:1017C000F54FE491F0E0EE0FFF1FE35DF54F8591DB
:1017D00094919F878E87DF91CF911F910895FF92FB
:1017E0000F931F93CF93DF93EC01F62E522F1B82A2
:1017F0001A8208EE13E020E030E00C831D832E8374
:101800003F8384ED91E0998388831F8A1E8A198E15
:10181000188E1B8E1A8E1D8E1C8E8E8D8E7F50FB09
:1018200081F98E8F642FCE010E949D0B6F2DCE010A
:10183000DF91CF911F910F91FF900C94C60BCF9326
:10184000DF93EC019A01AB011B8E1A8E198E188E54
:101850001F8A1E8A60E079E08DE390E00E94D02428
:10186000C9012430310520F0B9016350710902C06B
:1018700061E070E07D8F6C8FEC85E63108F068C028
:10188000B901769567956431710518F06351710956
:1018900002C061E070E07F8B6E8B069718F0C90183
:1018A000059702C081E090E0998F888FC901880F69
:1018B000991F820F931F96958795969587958D30E2
:1018C000910510F00C9702C081E090E09B8F8A8F09
:1018D00020916800E83050F091E0EE3008F490E09C
:1018E00081E001C0880F9A95EAF701C084E0822B5D
:1018F000809368002C85283038F02E3040F0263157
:1019000048F48CE690E008C08DE690E005C08BE6D8
:1019100090E002C080E090E09C8B8B8B283030F40C
:1019200081E001C0880F2A95EAF70DC0822F90E070
:101930002E3010F4089701C00E9791E001C0990F66
:101940008A95EAF7892F8D8B8C8D9D8D0197F1F704
:10195000CE01DF91CF910C94F30AEF92FF920F9397
:101960001F93CF93DF9300D0CDB7DEB7062F142F90
:10197000682F89E592E029833A830E949E07602FB1
:1019800089E592E00E9455072981022FE22E3A81D3
:10199000F32E8E2D801B811740F4F70161917F019A
:1019A00089E592E00E945507F4CF89E592E00E9414
:1019B0001F0891E0811190E0892F0F900F90DF9127
:1019C000CF911F910F91FF90EF900895CF93DF93E8
:1019D0001F92CDB7DEB749839E012F5F3F4F41E095
:1019E0000E94AD0C0F90DF91CF910895DF92EF929E
:1019F000FF920F931F93CF93DF93C62F042F79018C
:101A0000682F89E592E00E949E076C2F89E592E09D
:101A10000E94550710E0000F111FD12CCD2DD0E0F2
:101A2000C017D1078CF4CC0FDD1FCE0DDF1D6981EF
:101A300089E592E00E945507688189E592E00E945D
:101A40005507D394D394EACF89E592E00E941F080A
:101A500091E0811190E0892FDF91CF911F910F913B
:101A6000FF90EF90DF900895CF93DF9300D0CDB734
:101A7000DEB75A8349839E012F5F3F4F41E00E94AA
:101A8000F60C0F900F90DF91CF9108953F924F92F7
:101A90005F926F927F928F929F92AF92BF92CF92FE
:101AA000DF92EF92FF920F931F93CF93DF9300D0BB
:101AB00000D000D0CDB7DEB7682E562E742E3A83F4
:101AC00029830E94971A6B017C01312C412C872DB0
:101AD00090E09C838B834801A12CB12C3714B0F586
:101AE000662D89E592E00E949E07652D89E592E0CA
:101AF0000E94550789E592E00E941F08662D89E53E
:101B000092E00E949E074B815C814319510941324A
:101B1000510514F040E250E0662D89E592E00E9404
:101B20001C0889E592E00E94FD06892B59F10115F8
:101B3000110579F10E94971A6C197D098E099F0988
:101B4000681579058A059B0520F11CC00115110552
:101B500089F10E94971A6C197D098E099F0920E06E
:101B600030E0601771078207930720F1872D90E01E
:101B7000242D332727FD309528173907DCF444241A
:101B80004A9418C0872D90E2971508F480E2380E29
:101B9000A5CFE981FA81E40DF11D47FCFA95FE839A
:101BA000ED8389E592E00E940507ED81FE81808347
:101BB0004394B7CF842D26960FB6F894DEBF0FBEA0
:101BC000CDBFDF91CF911F910F91FF90EF90DF90EC
:101BD000CF90BF90AF909F908F907F906F905F90CD
:101BE0004F903F9008950F931F9389019A0141E010
:101BF0000E94460D1F910F910895DF92EF92FF9280
:101C00000F931F93CF93DF931F92CDB7DEB7D42EE0
:101C100079019801AE014F5F5F4F0E94F30D61E0C3
:101C200070E001C0660FDA94EAF799819623F70114
:101C300090830F90DF91CF911F910F91FF90EF90C4
:101C4000DF900895CF92DF92EF92FF920F931F9350
:101C5000CF93DF931F92CDB7DEB7C42ED22E97015C
:101C6000AE014F5F5F4F0E94F30D8823F1F04C2DC2
:101C700050E04D1951094F5F5F4F61E070E002C0C5
:101C8000660F771FDA94E2F761507109042E01C0E4
:101C9000660F0A94EAF72981262330E002C03595C1
:101CA00027954A95E2F7F80120830F90DF91CF91B5
:101CB0001F910F91FF90EF90DF90CF900895EF92DA
:101CC000FF920F931F93CF93DF931F92CDB7DEB791
:101CD000182F062FF42EE22E2091060130910701D5
:101CE000AE014F5F5F4F0E94F30D898121E030E02C
:101CF0000F2C01C0220F0A94EAF7EE2019F0482FAA
:101D0000422B03C0422F409548234983602F812FE7
:101D10000E94E60C0F90DF91CF911F910F91FF90E1
:101D2000EF900895DF92EF92FF920F931F93CF935E
:101D3000DF931F92CDB7DEB7F82EE62ED42E122FEA
:101D40002091060130910701AE014F5F5F4F0E9465
:101D5000F30D882319F14D2D50E0411B51094F5FC0
:101D60005F4FE1E0F0E002C0EE0FFF1F1A95E2F7CF
:101D70003197042E01C0EE0F0A94EAF701C0000F5C
:101D80004A95EAF74E2F409589814823E0234E2B50
:101D900049836E2D8F2D0E94E60C01C080E00F90CC
:101DA000DF91CF911F910F91FF90EF90DF900895F9
:101DB00028E6FC0120830895462F69E1FC0180811B
:101DC0000C94E60C0F93062F23E045E06AE1FC013A
:101DD00080810E94920E0F9108950F93062F23E0A9
:101DE00042E06AE1FC0180810E94920E0F91089509
:101DF0000F93062F22E044E06BE1FC0180810E94FA
:101E0000920E0F9108950F93062F22E044E06CE1AB
:101E1000FC0180810E94920E0F910895462F6FE180
:101E2000FC0180810C94E60C462F60E2FC0180816D
:101E30000C94E60C462F61E2FC0180810C94E60CC8
:101E4000462F62E2FC0180810C94E60C643048F479
:101E5000262F220F260F2B5D622FFC0180810C9410
:101E6000E60C0895462F68E3FC0180810C94E60C93
:101E7000CF93DF93EC012091060130910701AC0173
:101E80004F5F5F4F6AE388810E94F30D8981DF9184
:101E9000CF910895262F46E06AE6FC0180810C94DC
:101EA0005F0E262F45E06AE6FC0180810C945F0EF0
:101EB00021E042E06AE6FC0180810C945F0E21E0A3
:101EC00041E06AE6FC0180810C945F0E21E047E06E
:101ED0006BE6FC0180810C945F0E262F46E06BE6DA
:101EE000FC0180810C945F0E0F93062F23E042E0EB
:101EF0006BE6FC0180810E94920E0F910895CF93B2
:101F0000DF93EC0161E00E94740F60E0CE010E945B
:101F1000F80E60E0CE010E94030F60E0CE01DF9179
:101F2000CF910C946D0F0F931F93CF93DF93EC0120
:101F300000910601109107019C012F5F3F4F42E085
:101F400062E788810E94460D898190E0982F88275A
:101F50002A81822BDF91CF911F910F9108950F93CA
:101F60001F939B01009106011091070164E7FC019A
:101F700080810E94460D1F910F910895EF92FF926C
:101F80000F931F93CF93DF93EC01E0900601F09045
:101F900007018C010F5F1F4F26E046E065E788814F
:101FA0000E94220E8981DF91CF911F910F91FF90A6
:101FB000EF9008950E94BE0F91E0843309F090E005
:101FC000892F08950F931F93CF93DF93EC01009116
:101FD0000601109107019C012F5F3F4F40E060E038
:101FE00088810E94FD0D8981DF91CF911F910F9112
:101FF0000895262F40E060E0FC0180810C945F0E84
:10200000EF92FF920F931F93CF93DF93EC01E09039
:102010000601F09007018C010F5F1F4F26E046E09C
:1020200060E088810E94220E8981DF91CF911F910B
:102030000F91FF90EF9008950F93062F26E046E052
:1020400060E0FC0180810E94920E0F910895EF9252
:10205000FF920F931F93CF93DF93EC01E090060163
:10206000F09007018C010F5F1F4F26E046E061E012
:1020700088810E94220E8981DF91CF911F910F915B
:10208000FF90EF9008950F93062F26E046E061E061
:10209000FC0180810E94920E0F910895EF92FF92B1
:1020A0000F931F93CF93DF93EC01E0900601F09024
:1020B00007018C010F5F1F4F26E046E062E0888138
:1020C0000E94220E8981DF91CF911F910F91FF9085
:1020D000EF9008950F93062F26E046E062E0FC01A2
:1020E00080810E94920E0F910895AB016AE0FC017D
:1020F00080810C94340DAB0163E1FC0180810C9470
:10210000340DAB0165E1FC0180810C94340DAB0111
:1021100067E1FC0180810C94340D262F47E06AE6CC
:10212000FC0180810C945F0E21E043E06AE6FC0133
:1021300080810C945F0E6F712111606241116064A7
:10214000462F6DE6FC0180810C94E60C462F6EE66E
:10215000FC0180810C94E60CCF93DF93EC0120917D
:10216000060130910701AC014F5F5F4F6FE6888138
:102170000E94F30D8981DF91CF9108955F926F9254
:102180007F928F929F92AF92BF92CF92DF92EF9207
:10219000FF920F931F93CF93DF937C015B016A0142
:1021A000622E702E20E040E0662D0E949B10602F72
:1021B000C7010E94A610C0E0D0E0812C992493941E
:1021C000CC15DD05A8F5CE014096C816D90618F441
:1021D0005C2C5C1A02C0A0E15A2E252D30E0C4010F
:1021E000871991098217930714F4572C5194009181
:1021F00006011091070195012C0F3D1F452D6FE63B
:10220000F70180810E94460DC50DD11D750CCC15BE
:10221000DD05B0F6711001C0639420E040E0662D4A
:10222000C7010E949B10672DC7010E94A610C8CF4E
:10223000DF91CF911F910F91FF90EF90DF90CF90A2
:10224000BF90AF909F908F907F906F905F90089518
:102250002F923F924F925F926F927F928F929F92B6
:10226000AF92BF92CF92DF92EF92FF920F931F93A4
:10227000CF93DF9300D000D01F92CDB7DEB79D8300
:102280008C837B836A834A01322ED02EE98220E040
:1022900040E0632D0E949B10602F8C819D810E94E5
:1022A000A610E980EE2029F080E190E00E9423252D
:1022B0005C01CC2031F080E190E00E942325582E73
:1022C000492EE12CF12CE814F90408F07AC0C7017A
:1022D00040968816990618F4282C2E1802C010E192
:1022E000212E222D30E080E091E08D199109821796
:1022F000930714F42D2C2194EA81FB81EE0DFF1D30
:10230000CC2059F0852DA52DB42D9A2F981B921510
:1023100030F494919D933196F8CF5E2E4F2E252D5B
:10232000342D422D6FE6AC81BD818C910E94AD0CA5
:10233000622C712CB981BB2369F1A114B10451F154
:1023400020E040E0632D8C819D810E949B106D2DCB
:102350008C819D810E94A6100091060110910701B9
:102360009501422D6FE6EC81FD8180810E94460D32
:10237000A301B501852D942D0E941927892B51F0B9
:10238000C5010E94BB25CC2049F1852D942D0E94CA
:10239000BB2524C0E60CF71CD20CE814F90408F0A5
:1023A00092CFD11001C0339420E040E0632D8C81A6
:1023B0009D810E949B106D2D8C819D810E94A61095
:1023C00082CFF981FF2319F0C5010E94BB25CC20E3
:1023D00039F0852D942D0E94BB2502C080E001C0FC
:1023E00081E00F900F900F900F900F90DF91CF91A1
:1023F0001F910F91FF90EF90DF90CF90BF90AF9023
:102400009F908F907F906F905F904F903F902F9014
:102410000895CF92EF920F93CC24C3940E94281179
:102420000F91EF90CF9008952F923F924F925F922D
:102430006F927F928F929F92AF92BF92CF92DF92D4
:10244000EF92FF920F931F93CF93DF9300D01F92D1
:10245000CDB7DEB74C017B836A833A01D22E2223AB
:1024600031F088E090E00E942325182FF92E212CCE
:10247000312C2614370408F051C0EA81FB81E20DAB
:10248000F31DC10103965C01DD20C1F04491F1010F
:1024900031968A819B81E80FF91F0491F1013296F0
:1024A000E80FF91F5490511044C0F4E02F0E311C76
:1024B000EA81FB81EA0DFB1D84910DC04081018101
:1024C0005280EA81FB81E80FF91F51100DC084E0B2
:1024D000280E311C80818130D1F442E368E3F4019D
:1024E00080810E94E60CC5CF1E2FFF2E452C512C5B
:1024F000C12CEE24E394242FA201612F7F2DC4016F
:102500000E94281112012A0C3B1C8111B2CFDD2040
:1025100061F0812F9F2D0E94BB2507C0DD2039F07F
:10252000812F9F2D0E94BB2502C080E024C081E046
:1025300022C0252C312CF2E0F51548F4B101812F91
:102540009F2D49830E944A26182FF92E4981812FF9
:102550009F2DA0E0B0E02A813B812A0D3B1DA215F2
:10256000B30520F6F901EA0FFB1F5491FC015193CA
:10257000CF011196F4CF0F900F900F90DF91CF9174
:102580001F910F91FF90EF90DF90CF90BF90AF9091
:102590009F908F907F906F905F904F903F902F9083
:1025A000089521E00C941412462F60E7FC0180810D
:1025B0000C94E60C462F61E7FC0180810C94E60C3C
:1025C000CF92DF92EF92FF92DC01ED91FC910190AE
:1025D000F081E02D099520E030E044E353E40E94CF
:1025E00030242BED3FE049E450E40E94592220E0E2
:1025F00030E044EB53E40E9436236B017C0120E081
:1026000030E0A9010E94552287FF0AC020E030E097
:1026100044EB53E4C701B6010E948F216B017C019A
:10262000C701B601FF90EF90DF90CF9008954F92D1
:102630005F926F927F928F929F92AF92BF92CF9252
:10264000DF92EF92FF92CF93DF93CDB7DEB7C45402
:10265000D1090FB6F894DEBF0FBECDBF7C018091CB
:102660005F03882309F40EC160EE71E089E693E010
:102670000E94911EF701828193810E94930F4AE08C
:1026800050E0BC0189E693E00E94871FF701828138
:1026900093810E94930F8115944029F4F701828160
:1026A00093810E94580F60EE71E089E693E00E94EA
:1026B000911EF701828193810E94930F4AE050E0BE
:1026C000BC0189E693E00E94871FF7018281938114
:1026D0000E94930F20915D0330915E038217930750
:1026E000A0F360EE71E089E693E00E94911EF7018D
:1026F000828193810E94930F4AE050E0BC0189E6F9
:1027000093E00E94871F40915D03BE016F5F7F4F82
:10271000F701828193810E94AF0F698170E0762F6B
:1027200066278A81680F711D882777FD8095982F0D
:102730000E94F42220E030E040E858E30E94302478
:102740006B017C01698570E0762F66278A85680FAA
:10275000711D882777FD8095982F0E94F42220E034
:1027600030E040E858E30E9430244B015C01A701AF
:102770009601C701B6010E948F2125966CAF7DAFEF
:102780008EAF9FAF2597A5019401C501B4010E94AA
:102790008F212B013C01A701960125966CAD7DADE3
:1027A0008EAD9FAD25970E9430246B017C01A50161
:1027B0009401C301B2010E9430249B01AC01C70106
:1027C000B6010E948F2120E030E040E85FE30E94E4
:1027D0008E216B017C016D8170E0762F66278E81E2
:1027E000680F711D882777FD8095982F0E94F4222D
:1027F00020E030E040E858E30E9430249B01AC0127
:10280000C301B2010E9430242B013C016D8570E0B0
:10281000762F66278E85680F711D882777FD809536
:10282000982F0E94F42220E030E040E858E30E9414
:1028300030249B01AC0125966CAD7DAD8EAD9FAD76
:1028400025970E9430249B01AC01C301B2010E9474
:102850008E21A7019601CC5BDF4F0FB6F894DEBF47
:102860000FBECDBFDF91CF91FF90EF90DF90CF9063
:10287000BF90AF909F908F907F906F905F904F90A0
:102880000C94022260E070E0CB01CC5BDF4F0FB60E
:10289000F894DEBF0FBECDBFDF91CF91FF90EF90D8
:1028A000DF90CF90BF90AF909F908F907F906F9070
:1028B0005F904F9008958F929F92AF92BF92CF9268
:1028C000EF920F931F93CF93DF93CDB7DEB7C0592D
:1028D000D1090FB6F894DEBF0FBECDBF5C010E94D8
:1028E000660F6EE170E080E090E00E94C61A60E042
:1028F000C5010E946D0F21E041E060E1C5010E9429
:102900009B1066E0C5010E94A610C5010E94AC1094
:1029100020E040E060E0C5010E949B10C5010E94DC
:10292000E20FC5010E940010182FC5010E94271058
:10293000882EC5010E944E10982E4FE760E0C50119
:102940000E94260F60E0C5010E94510F48E660E03A
:10295000C5010E94260FC5010E945F0F64E170E06F
:1029600080E090E00E94C61AEE24E39400E020E0AC
:1029700049E857E068E672E0C5010E940912882321
:1029800009F40EC240EC50E068EA71E0C5010E9413
:10299000D112882309F406C263E0C5010E94740FB6
:1029A00062E1C5010E94320F64E0C5010E94DC0EA5
:1029B00061E0C5010E94E20E63E0C5010E94ED0ED8
:1029C00063E0C5010E94F80E63E0C5010E94D412C5
:1029D00060E0C5010E94DA1260E0C5010E94F90FB3
:1029E000612FC5010E941C10682DC5010E94431073
:1029F000692DC5010E946A10812C912CF401E758C1
:102A0000FE4FE491A1E8B0E0AC0FBD1FA80DB11DD1
:102A1000EC9381E0880D9FEF891A990AE3E0E815AD
:102A200068F7CD57DF4F4881C358D04050E09A0136
:102A30002E5F3F4F90E02817390704F7C12CEE2492
:102A4000E394CE57DF4F0881C258D040CF57DF4FB5
:102A50002881C158D04061E870E06C0F7D1F6D5F28
:102A60007F4FC5010E94281160E0F401E758FE4F36
:102A7000E491A1E8B0E0AC0FBD1FA60FB11DEC932F
:102A80006F5FFFEF8F1A9F0A643078F3CD57DF4FE7
:102A90004881C358D04050E09A012E5F3F4F862FA7
:102AA00090E0281739070CF7C12CEE24E394CE5799
:102AB000DF4F0881C258D040CF57DF4F2881C1581F
:102AC000D04061E870E06C0F7D1F6D5F7F4FC501E6
:102AD0000E942811C5010E94580FC5010E94930F42
:102AE000482FBE016F5F7F4FC5010E94AF0F62E0AC
:102AF000C5010E940E0F6CE9C5010E941A0F60E526
:102B0000C5010E94140F60E0C5010E94200FC5019D
:102B10000E94580F61E0C5010E944A0F61E0C501A3
:102B20000E948D10C5010E94941060E0F401E758E6
:102B3000FE4FE491A1E8B0E0AC0FBD1FA60FB11DA0
:102B4000EC936F5F8FEF881A980A643078F3CD5753
:102B5000DF4F4881C358D04050E09A012E5F3F4F6D
:102B6000862F90E0281739070CF7C12CEE24E39448
:102B7000CE57DF4F0881C258D040CF57DF4F288152
:102B8000C158D04061E870E06C0F7D1F6D5F7F4FD2
:102B9000C5010E94281160E0F401E758FE4FE4915E
:102BA000A1E8B0E0AC0FBD1FA60FB11DEC936F5FA5
:102BB0009FEF891A990A643078F3CD57DF4F488127
:102BC000C358D04050E09A012E5F3F4F862F90E0CF
:102BD000281739070CF7C12CEE24E394CE57DF4FAA
:102BE0000881C258D040CF57DF4F2881C158D0400C
:102BF00061E870E06C0F7D1F6D5F7F4FC5010E9423
:102C0000281160E0F401E758FE4FE491A1E8B0E03C
:102C1000AC0FBD1FA60FB11DEC936F5FEFEF8E1AC7
:102C20009E0A643078F3CD57DF4F4881C358D040B7
:102C300050E09A012E5F3F4F862F90E0281739070A
:102C40000CF7C12CEE24E394CE57DF4F0881C25815
:102C5000D040CF57DF4F2881C158D04061E870E0A5
:102C60006C0F7D1F6D5F7F4FC5010E942811C5014C
:102C70000E94930F83309105D0F3482FBE016F5F00
:102C80007F4FC5010E94AF0FC5010E94380F60E061
:102C9000F401E758FE4FE491A1E8B0E0AC0FBD1F8E
:102CA000A60FB11DEC936F5FFFEF8F1A9F0A643080
:102CB00078F3CD57DF4F4881C358D04050E09A0198
:102CC0002E5F3F4F862F90E0281739070CF7CE571D
:102CD000DF4F0881C258D040CF57DF4F2881C158FD
:102CE000D04061E870E06C0F7D1F6D5F7F4FC501C4
:102CF0000E94BE10C5010E94930F83309105D0F34E
:102D0000482FBE016F5F7F4FC5010E94AF0FC50105
:102D10000E94380FF401E758FE4F60E08491A1E86B
:102D2000B0E0AC0FBD1FA60FB11D8C936F5F643078
:102D300010F43196F3CFCD57DF4F4881C358D040C0
:102D400050E09A012E5F3F4F862F90E028173907F9
:102D500084F761E870E06C0F7D1F6D5F7F4FC12CC1
:102D6000EE24E394CE57DF4F0881C258D040CF57AE
:102D7000DF4F2881C158D040C5010E94281160E072
:102D8000C5010E948D108AE290E0F5019383828351
:102D9000C5010E94580FC5010E94380F80E003C092
:102DA00081E001C082E0C057DF4F0FB6F894DEBF6C
:102DB0000FBECDBFDF91CF911F910F91EF90CF90BC
:102DC000BF90AF909F908F9008950F931F93CF93D4
:102DD000DF93EC0189EF91E09983888383E190E0B0
:102DE0000E942E1E8C010E94D80E1B830A8389E547
:102DF00092E00E94940788E18093B8006DE571E04D
:102E000089E693E00E949E1E8A819B810E947F0F2B
:102E10006FE371E089E693E00E949E1E8A819B81A8
:102E20000E94DA0F882319F061E271E002C067E0C6
:102E300071E089E693E00E949E1E63EF70E089E6F0
:102E400093E00E949E1E8A819B810E945B14182F32
:102E50006CED70E08A819B810E947B106CE470E0D5
:102E60008A819B810E9481106BEA7FEF8A819B811E
:102E70000E9487106CEF76E08A819B810E9475101A
:102E8000111130C063EE70E089E693E00E949E1E4F
:102E900061E08A819B810E948D1069EB70E089E678
:102EA00093E00E949E1E81E080935F03EA81FB8194
:102EB0008281938190935E0380935D0367EE71E05E
:102EC00089E693E00E94911E60915D0370915E031C
:102ED0004AE050E089E693E0DF91CF911F910F9196
:102EE0000C94871F68E970E089E693E00E946E1EEB
:102EF0004AE050E0612F89E693E00E94801F66E976
:102F000070E089E693E0DF91CF911F910F910C94CF
:102F10009E1E0F931F93CF93DF93EC0181E092E00D
:102F20009983888386E090E00E942E1E8C0128E021
:102F300030E04BE050E06DE070E00E94F7191D8337
:102F40000C8386E090E00E942E1E8C0129E030E088
:102F500043E050E06CE070E00E94F7191F830E839D
:102F60001B821A82DF91CF911F910F910895CF9309
:102F7000DF93EC018C819D810E941C1A8E819F81C0
:102F8000DF91CF910C941C1ACF92DF92EF92FF92B7
:102F90000F931F93CF93DF93EC01E881F9810190A8
:102FA000F081E02D09958A819B81009721F10E9493
:102FB000361A8B016B017C01EE24FF2401151105EB
:102FC00021F0C701B6010E94C61A8A819B81DC01EB
:102FD000ED91FC910190F081E02D0995882371F32A
:102FE000CE01DF91CF911F910F91FF90EF90DF9075
:102FF000CF900C94B717DF91CF911F910F91FF9055
:10300000EF90DF90CF900895FC0173836283089561
:10301000CF93DF93EC018A859B858130910571F018
:1030200082309105B1F0892B11F560E070E08E815E
:103030009F810E94101A60E070E013C060E070E0B1
:103040008C819D810E94101A61E070E08E819F81C9
:103050000AC060E070E08E819F810E94101A61E0DA
:1030600070E08C819D81DF91CF910C94101ADF91DB
:10307000CF910895CF92DF92EF92FF9220E030E05F
:1030800044EB53E40E9436236B017C0120E030E0E6
:10309000A9010E94552220E030E044EB53E487FF71
:1030A00005C0C701B6010E948F210EC0C701B6013D
:1030B0000E942524181654F420E030E044EB53E439
:1030C000C701B6010E948E216B017C01C701B601C8
:1030D000FF90EF90DF90CF900895FC016089718997
:1030E0008289938908954F925F926F927F928F9217
:1030F0009F92AF92BF92CF92DF92EF92FF920F9387
:103100001F93CF93DF9300D000D000D0CDB7DEB7B0
:103110008C014A015B01DC0118968D919C911997F5
:10312000DC01ED91FC910280F381E02D09956B01AA
:103130007C01B401CE0101960E943E1ABE016F5F70
:103140007F4FC8010E940418C8010E94C41768EE8E
:1031500073E080E090E00E94C61AF80180859185B6
:10316000DC01ED91FC910280F381E02D0995F801DD
:10317000228533852230310519F4A701960104C058
:103180009B01AC01C701B6010E948E216B017C013D
:1031900020E030E0A9010E94552287FF0AC020E00C
:1031A00030E044EB53E4C701B6010E948F216B016C
:1031B0007C01D8015C968D919C915D9701965D96FE
:1031C0009C938E935C97C501B4010E94F2229B01EF
:1031D000AC01C701B6010E9459222B013C01F80144
:1031E000608B718B828B938BA701960164897589A3
:1031F000868997890E948F21D80154966D937D937B
:103200008D939C93579758968D919D910D90BC915D
:10321000A02D880D991DAA1DBB1DF801808F918FCF
:10322000A28FB38FA30192016485758586859785EA
:103230000E948F21D8011C966D937D938D939C9352
:103240001F97C701B60126960FB6F894DEBF0FBED2
:10325000CDBFDF91CF911F910F91FF90EF90DF9045
:10326000CF90BF90AF909F908F907F906F905F9026
:103270004F900895CF92DF92EF92FF92CF93DF931A
:10328000EC01CB01BA010E943A186B017C0120E0ED
:1032900030E044E353E40E94552287FF03C082E0FC
:1032A00090E00CC0A701960160E070E084EB93E42D
:1032B0000E948E216B017C0181E090E09B878A87D0
:1032C00020E030E040E251E4C701B6010E9425242D
:1032D000181684F4288939894A895B89C701B6019F
:1032E0000E9459220E94C622AB01BC01CE010E945D
:1032F000731803C060E070E0CB011B861A86DF9173
:10330000CF91FF90EF90DF90CF900895CF92DF9212
:10331000EF92FF921F93CF93DF93EC017B010E940A
:10332000891787E092E0998388831C861D861E8614
:103330001F86188A198A1A8A1B8A1C8A1D8A1E8A65
:103340001F8A188E198E1A8E1B8E1D8E1C8EF98662
:10335000E88660E870E08E819F810E94211A60E813
:1033600070E08C819D810E94211A82E090E09B8711
:103370008A8794E6C92ED12CE12CF12CB701A60145
:10338000CE010E9473182AE030E0B701A60189E659
:1033900093E00E949D1F88ECC80ED11CE11CF11C1B
:1033A0008CEBC81682E0D806E104F10439F713E08B
:1033B000C12CD12C84E3E82E82E4F82EB701A601BB
:1033C000CE010E943A19A7019601C701B6010E94D9
:1033D0008F216B017C01115089F71B861A86DF91C2
:1033E000CF911F91FF90EF90DF90CF900895CF93F2
:1033F000DF931F92CDB7DEB7FC01862F2483358380
:10340000538342836083718361E029830E94C31BDD
:1034100061E02981822F0F90DF91CF910C94C31B23
:10342000CF93DF93EC0188810E94FC1B60E08C81CC
:10343000DF91CF910C94FC1B61E0FC0184810C9422
:10344000FC1BCF93DF93EC018A810E943B1BCE01D2
:10345000DF91CF910C941C1A2DE032E0FC013183F6
:10346000208342835383648375830895FC016281C2
:10347000738184819581089581E00895CF93DF93CE
:10348000EC01AB0160E070E00E942C1A83E192E055
:1034900099838883DF91CF9108951F920F920FB681
:1034A0000F9211242F933F938F939F93AF93BF93CA
:1034B0008091610390916203A0916303B0916403D2
:1034C0003091600323E0230F2D3720F40196A11DD6
:1034D000B11D05C026E8230F0296A11DB11D209342
:1034E00060038093610390936203A0936303B0939E
:1034F00064038091650390916603A0916703B09186
:1035000068030196A11DB11D809365039093660326
:10351000A0936703B0936803BF91AF919F918F9180
:103520003F912F910F900FBE0F901F9018952FB7BE
:10353000F8946091610370916203809163039091AC
:1035400064032FBF08953FB7F8948091650390916D
:103550006603A0916703B091680326B5A89B05C0D8
:103560002F3F19F00196A11DB11D3FBF6627782F8F
:10357000892F9A2F620F711D811D911D42E0660FE8
:10358000771F881F991F4A95D1F708958F929F92B0
:10359000AF92BF92CF92DF92EF92FF926B017C01CC
:1035A0000E94A31A4B015C01C114D104E104F1048F
:1035B000F1F00E948D210E94A31A681979098A09E5
:1035C0009B09683E73408105910570F321E0C21AA2
:1035D000D108E108F10888EE880E83E0981EA11C4E
:1035E000B11CC114D104E104F10429F7DDCFFF902F
:1035F000EF90DF90CF90BF90AF909F908F90089505
:10360000789484B5826084BD84B5816084BD85B5BD
:10361000826085BD85B5816085BDEEE6F0E0808184
:1036200081608083E1E8F0E01082808182608083A5
:10363000808181608083E0E8F0E080818160808328
:10364000E1EBF0E0808184608083E0EBF0E080815A
:1036500081608083EAE7F0E08081846080838081FC
:1036600082608083808181608083808180688083A4
:103670001092C10008951F93CF93DF93182FEB0191
:1036800061E00E94C31B209711F460E004C0CF3FAB
:10369000D10539F461E0812FDF91CF911F910C9416
:1036A000FC1BE12FF0E0EF50F64FE491E330F9F02E
:1036B00048F4E130B9F0E230A1F584B5806284BD10
:1036C000C8BD34C0E730E9F0E83019F1E43049F51D
:1036D00080918000806280938000D0938B00C093A3
:1036E0008A0024C084B5806884BDC7BD1FC0809196
:1036F0008000806880938000D0938900C093880008
:1037000015C08091B00080688093B000C093B30072
:103710000DC08091B00080628093B000C093B4006F
:1037200005C0C038D1050CF0B5CFAFCFDF91CF9138
:103730001F910895833081F028F4813099F0823010
:10374000A1F008958730A9F08830B9F08430D1F421
:10375000809180008F7D03C0809180008F7780935F
:103760008000089584B58F7702C084B58F7D84BDB5
:1037700008958091B0008F7703C08091B0008F7D55
:103780008093B0000895CF93DF9390E0FC01EB5F4E
:10379000F54F2491FC01E75EF54F8491882349F1B0
:1037A00090E0880F991FFC01EF5BF54FA591B49154
:1037B000895C954FFC01C591D4919FB7611108C0F8
:1037C000F8948C91209582238C93888182230AC05F
:1037D000623051F4F8948C91322F309583238C937E
:1037E0008881822B888304C0F8948C91822B8C93DF
:1037F0009FBFDF91CF9108950F931F93CF93DF93D6
:103800001F92CDB7DEB7282F30E0F901EF50F64F09
:103810008491F901EB5FF54F1491F901E75EF54FE3
:1038200004910023C9F0882321F069830E949A1B28
:103830006981E02FF0E0EE0FFF1FE95CF54FA591E5
:10384000B4919FB7F8948C91611103C010958123B6
:1038500001C0812B8C939FBF0F90DF91CF911F915F
:103860000F9108950E941427FC01818D228D90E014
:10387000805C9F4F821B91098F7399270895FC01EB
:10388000918D828D981731F0828DE80FF11D858D15
:1038900090E008958FEF9FEF0895FC01918D828D48
:1038A000981761F0828DDF01A80FB11D5D968C9194
:1038B000928D9F5F9F73928F90E008958FEF9FEF9F
:1038C000089581ED9DE1892B49F080E090E0892BFE
:1038D00029F00E94D11D81110C9400000895FC0173
:1038E000848DDF01A80FB11DA35ABF4F2C91848D89
:1038F00090E001968F739927848FA689B7892C93BE
:10390000A089B1898C9180648C93938D848D981358
:1039100006C00288F389E02D80818F7D8083089521
:10392000CF93DF93EC01888D8823C9F0EA89FB8966
:10393000808185FD05C0A889B9898C9186FD0FC05D
:103940000FB607FCF5CF808185FFF2CFA889B98932
:103950008C9185FFEDCFCE010E946F1CE7CFDF91E8
:10396000CF910895CF92DF92FF920F931F93CF9341
:10397000DF931F92CDB7DEB76C0181E0D601589678
:103980008C9358975B969C915B975C968C915C9717
:10399000981307C05096ED91FC915197808185FD59
:1039A0002EC0F601038D10E00F5F1F4F0F7311271C
:1039B000F02EF601848DF81211C00FB607FCF9CF76
:1039C000D6015096ED91FC915197808185FFF1CF02
:1039D000C60169830E946F1C6981EBCF838DE80F5C
:1039E000F11DE35AFF4F6083D6015B960C935B9702
:1039F0005296ED91FC915397808180620CC0D60164
:103A00005696ED91FC91579760835096ED91FC91FD
:103A1000519780818064808381E090E00F90DF91F6
:103A2000CF911F910F91FF90DF90CF900895BF929B
:103A3000CF92DF92EF92FF92CF93DF93EC016A0176
:103A40007B01B22EE889F98982E08083411581EEFD
:103A5000580761057105A1F060E079E08DE390E021
:103A6000A70196010E94AE24215031094109510954
:103A70005695479537952795211580E1380798F099
:103A8000E889F989108260E874E88EE190E0A70186
:103A900096010E94AE2421503109410951095695E1
:103AA000479537952795EC85FD853083EE85FF8515
:103AB0002083188EEC89FD89B082EA89FB89808198
:103AC00080618083EA89FB89808188608083EA89BC
:103AD000FB89808180688083EA89FB8980818F7D72
:103AE0008083DF91CF91FF90EF90DF90CF90BF90D8
:103AF00008951F920F920FB60F9211242F938F9358
:103B00009F93EF93FF93E0917903F0917A03808183
:103B1000E0917F03F091800382FD12C0908180913B
:103B200082038F5F8F7320918303821751F0E0919E
:103B30008203F0E0E759FC4F958F8093820301C028
:103B40008081FF91EF919F918F912F910F900FBEE8
:103B50000F901F9018951F920F920FB60F9211247D
:103B60002F933F934F935F936F937F938F939F9385
:103B7000AF93BF93EF93FF9389E693E00E946F1C8E
:103B8000FF91EF91BF91AF919F918F917F916F9135
:103B90005F914F913F912F910F900FBE0F901F900B
:103BA000189589E693E00E94341C21E0892B09F4E2
:103BB00020E0822F089510926C0310926B0388EE20
:103BC00093E0A0E0B0E080936D0390936E03A09328
:103BD0006F03B093700389E192E090936A0380933E
:103BE000690385EC90E0909376038093750384ECF1
:103BF00090E0909378038093770380EC90E090932B
:103C00007A038093790381EC90E090937C03809316
:103C10007B0382EC90E090937E0380937D0386EC9F
:103C200090E09093800380937F0310928203109220
:103C300083031092840310928503089508950E94CF
:103C4000001B0E941E1E0E945405C1E6DCE10E947A
:103C5000A2052097E1F30E94611CF9CF0C94232563
:103C6000CF92DF92EF92FF920F931F93CF93DF9348
:103C70007C016A01EB0100E010E00C151D0571F0FC
:103C80006991D701ED91FC910190F081E02DC70180
:103C90000995892B19F00F5F1F4FEFCFC801DF91F6
:103CA000CF911F910F91FF90EF90DF90CF900895EB
:103CB0006115710581F0DB010D900020E9F7AD0180
:103CC00041505109461B570BDC01ED91FC910280DC
:103CD000F381E02D099480E090E00895EF92FF9247
:103CE0000F931F93CF93DF938C017B01C0E0D0E053
:103CF000F701EC0FFD1F6491662359F0F801A081D4
:103D0000B181ED91FC91C8010995892B11F02196A3
:103D1000EFCFCE01DF91CF911F910F91FF90EF90E8
:103D200008950C94581EDC01ED91FC910190F081F6
:103D3000E02D099465E272E00C94581E0F931F93D6
:103D4000CF93DF93EC010E946E1E8C01CE010E9486
:103D50009A1E800F911FDF91CF911F910F910895AF
:103D60000F931F93CF93DF93EC010E94581E8C0199
:103D7000CE010E949A1E800F911FDF91CF911F915B
:103D80000F9108958F929F92AF92BF92DF92EF9220
:103D9000FF920F931F93CF93DF93CDB7DEB7A19719
:103DA0000FB6F894DEBF0FBECDBF7C01F42FD52E29
:103DB000CB0119A2223008F42AE08E010F5D1F4FBB
:103DC000822E912CA12CB12C6F2F7D2DA501940159
:103DD0000E94AE24F22FD32ECA01015011096A307D
:103DE00014F4E0E301C0E7E3E60FD801EC93232BE2
:103DF000242B252B49F7B801C7010E94581EA19614
:103E00000FB6F894DEBF0FBECDBFDF91CF911F91EB
:103E10000F91FF90EF90DF90BF90AF909F908F90A9
:103E20000895CF92DF92EF92FF920F931F93CF935B
:103E3000DF93EC016A017B012115310579F4E881FA
:103E4000F9810190F081E02D642FDF91CF911F91D6
:103E50000F91FF90EF90DF90CF9009942A303105B9
:103E6000E9F477FF1AC06DE20E94931E8C0144278B
:103E70005527BA014C195D096E097F092AE0CE0168
:103E80000E94C21E800F911FDF91CF911F910F9151
:103E9000FF90EF90DF90CF9008952AE0B701A60140
:103EA000CE01DF91CF911F910F91FF90EF90DF90A6
:103EB000CF900C94C21E0F931F93CF93DF93EC010E
:103EC0009A01AB01662757FD6095762F0E94111F5E
:103ED0008C01CE010E949A1E800F911FDF91CF911D
:103EE0001F910F9108952115310541F4DC01ED91E9
:103EF000FC910190F081E02D642F09940C94C21E76
:103F00009A01462F50E060E070E00C94731F0F930D
:103F10001F93CF93DF93EC019A01AB0160E070E057
:103F20000E94731F8C01CE010E949A1E800F911F68
:103F3000DF91CF911F910F9108950F931F93CF930E
:103F4000DF93EC010E94731F8C01CE010E949A1E28
:103F5000800F911FDF91CF911F910F9108954F9284
:103F60005F926F927F928F929F92AF92BF92CF9209
:103F7000DF92EF92FF920F931F93CF93DF93EC01A9
:103F80006A017B01B22E9A01AB01C701B6010E9402
:103F90009624882319F068E272E027C026013701D1
:103FA000E89477F82FEF3FEF4FE75FE7C301B201E7
:103FB0000E94962481110DC02FEF3FEF4FE75FE77E
:103FC000C301B2010E94552218161CF46CE272E083
:103FD0000CC02FEF3FEF4FE75FE4C701B6010E942F
:103FE00025241816ACF460E372E0CE01DF91CF9186
:103FF0001F910F91FF90EF90DF90CF90BF90AF9007
:104000009F908F907F906F905F904F900C94581E70
:104010002FEF3FEF4FE75FECC701B6010E9455223B
:1040200087FDE1CF20E030E0A901C701B6010E9481
:10403000552287FF0AC06DE2CE010E94931E8C01BB
:10404000F7FAF094F7F8F09402C000E010E0A12C29
:1040500060E070E080E09FE3AB1441F020E030E0EE
:1040600040E251E40E945922A394F6CF9B01AC0197
:10407000C701B6010E948F216B017C010E94C622FC
:104080002B013C010E94F2229B01AC01C701B60149
:104090000E948E216B017C012AE0B301A201CE01B6
:1040A0000E94C21E080F191FBB2039F064E372E0A2
:1040B000CE010E94581E080F191F7B2C772041F15A
:1040C00020E030E040E251E4C701B6010E94302414
:1040D0006B017C010E94C1224B01AA2497FCA09491
:1040E000BA2C2AE030E0B501A401CE010E94111FD4
:1040F000080F191FC501B4010E94F4229B01AC01F5
:10410000C701B6010E948E216B017C017A94D6CF43
:10411000C801DF91CF911F910F91FF90EF90DF9039
:10412000CF90BF90AF909F908F907F906F905F9057
:104130004F9008950F931F93CF93DF93EC010E944C
:10414000AF1F8C01CE010E949A1E800F911FDF913C
:10415000CF911F910F9108950F931F93CF93DF93EA
:10416000EC010E94971A688779878A879B87E88184
:10417000F9810084F185E02DCE01099597FF15C0E6
:104180000E94971A088519852A853B85601B710B4B
:10419000820B930B0C811D812E813F81601771076B
:1041A0008207930720F38FEF9FEFDF91CF911F914D
:1041B0000F910895FF920F931F93CF93DF93EC011C
:1041C0008B01F42ECE010E94AC209C0197FD28C0EB
:1041D0008D32910519F1C0970A9710F1FF2019F05F
:1041E0002E323105F9F001301105F9F002301105D8
:1041F00069F42D30310551F034F429503109223061
:10420000310520F012C02032310579F4E881F981BE
:104210000680F781E02DCE010995D4CF8DE203C051
:10422000C90105C08EE290E002C08FEF9FEFDF91E1
:10423000CF911F910F91FF900895CF92DF92FF923F
:104240000F931F93CF93DF9300D000D0CDB7DEB78D
:104250006C01042F40E00E94DA20FC0197FD4BC066
:1042600020E030E0A901F12C112707FD1095E0179F
:10427000F107E9F0ED32F105C1F0CF01C0970A97DF
:10428000B0F4AAE0B0E00E94EF249B01AC01CF01A2
:10429000AA2797FDA095BA2F280F391F4A1F5B1F29
:1042A000205331094109510902C0FF24F394D6017A
:1042B000ED91FC910680F781E02DC60129833A83B8
:1042C0004B835C830995C6010E94AC20FC01C0971A
:1042D00029813A814B815C810A9748F2E017F10706
:1042E00031F2FF2061F066277727CB01621B730B49
:1042F000840B950B06C060E070E0CB0102C0CA01E0
:10430000B9010F900F900F900F90DF91CF911F91F7
:104310000F91FF90DF90CF90089508955058BB27DC
:10432000AA270ED058C249D230F04ED220F031F434
:104330009F3F11F41EF419C20EF4E095E7FB01C291
:10434000E92F5AD280F3BA176207730784079507DB
:1043500018F071F49EF572C20EF4E0950B2EBA2F90
:10436000A02D0B01B90190010C01CA01A00111247B
:10437000FF27591B99F0593F50F4503E68F11A1627
:10438000F040A22F232F342F4427585FF3CF4695B8
:1043900037952795A795F0405395C9F77EF41F16DA
:1043A000BA0B620B730B840BBAF09150A1F0FF0FA4
:1043B000BB1F661F771F881FC2F70EC0BA0F621F90
:1043C000731F841F48F4879577956795B795F79580
:1043D0009E3F08F0B3CF9395880F08F09927EE0F12
:1043E000979587950895E9D158F080E891E009F410
:1043F0009EEFEAD128F040E851E059F45EEF09C0A1
:10440000B4C11CC2E92FE078F7D168F3092E052A60
:10441000C1F3261737074807590738F00E2E07F85B
:10442000E02569F0E025E0640AC0EF6307F8009436
:1044300007FADB01B9019D01DC01CA01AD01EF936F
:1044400047D0C9D10AD05F91552331F02BED3FE021
:1044500049E450FD49EC63CF0895DF93DD27B92F80
:10446000BF7740E85FE31616170648075B0710F4AE
:10447000D92FEFD19F938F937F936F9354D2E8E618
:10448000F0E076D1A8D12F913F914F915F91F4D177
:10449000DD2349F09058A2EA2AED3FE049EC5FE3C2
:1044A000D0785D274DDFDF9196C127D108F481E0F8
:1044B00008950CD090C188D140F07FD130F021F424
:1044C0005F3F19F03EC15111BAC14FC195D198F368
:1044D0009923C9F35523B1F3951B550BBB27AA2785
:1044E00062177307840738F09F5F5F4F220F331FF7
:1044F000441FAA1FA9F333D00E2E3AF0E0E830D0C3
:1045000091505040E695001CCAF729D0FE2F27D0C5
:10451000660F771F881FBB1F261737074807AB0793
:10452000B0E809F0BB0B802DBF01FF2793585F4F08
:104530002AF09E3F510568F004C181C15F3FECF352
:10454000983EDCF3869577956795B795F7959F5FCD
:10455000C9F7880F911D9695879597F90895E1E021
:10456000660F771F881FBB1F621773078407BA0780
:1045700020F0621B730B840BBA0BEE1F88F7E095DB
:10458000089504D06894B1115AC108953DD188F0BE
:104590009F5790F0B92F9927B751A0F0D1F0660F2F
:1045A000771F881F991F1AF0BA95C9F712C0B1304A
:1045B00081F044D1B1E0089541C1672F782F882759
:1045C000B85F39F0B93FCCF3869577956795B39589
:1045D000D9F73EF490958095709561957F4F8F4FF8
:1045E0009F4F0895E89409C097FB3EF490958095FD
:1045F000709561957F4F8F4F9F4F9923A9F0F92FA9
:1046000096E9BB279395F695879577956795B79526
:10461000F111F8CFFAF4BB0F11F460FF1BC06F5F0C
:104620007F4F8F4F9F4F16C0882311F096E911C01E
:10463000772321F09EE8872F762F05C0662371F03F
:1046400096E8862F70E060E02AF09A95660F771F53
:10465000881FDAF7880F9695879597F90895ADD05A
:1046600018F011F0B1D038F480C0E9C0E92FC4D0FF
:10467000B0F35523C9F3E7FB621773078407950767
:10468000A8F199F3E92FFF2788232AF03197660FC5
:10469000771F881FDAF7952F5527442332F0915062
:1046A0005040220F331F441FD2F7BB27E91BF50BE5
:1046B000621B730B840BB109C1F222F4620F731FEA
:1046C000841FB11D31972AF0660F771F881FBB1F0B
:1046D000EFCF915050405AF041F0882332F0660FEE
:1046E000771F881F91505040C1F7939530C0869531
:1046F000779567959F5FD9F7F8CF990F0008550F09
:10470000AA0BE0E8FEEF16161706E807F907C0F057
:1047100012161306E407F50798F0621B730B840B5F
:10472000950B39F40A2661F0232B242B252B21F439
:1047300008950A2609F4A140A6958FEF811D811DD9
:10474000089597F99F6780E870E060E008959F3FC3
:1047500031F0915020F4879577956795B795880F3C
:10476000911D9695879597F908959FEF80EC089590
:10477000DF93CF931F930F93FF92EF92DF927B0112
:104780008C01689405C0DA2EEF0176D0FE01E89422
:10479000A5912591359145915591AEF3EF01D0DD6D
:1047A000FE019701A801DA9479F7DF90EF90FF906E
:1047B0000F911F91CF91DF91089500240A9416164E
:1047C000170618060906089500240A9412161306FF
:1047D000140605060895092E0394000C11F488238D
:1047E00052F0BB0F40F4BF2B11F460FF04C06F5FA9
:1047F0007F4F8F4F9F4F089557FD9058440F551F7F
:1048000059F05F3F71F04795880F97FB991F61F052
:104810009F3F79F087950895121613061406551FC9
:10482000F2CF4695F1DF08C0161617061806991F35
:10483000F1CF86957105610508940895E894BB272A
:1048400066277727CB0197F9089557DF08F48FEF94
:1048500008959B01AC0160E070E080E89FE329CE01
:104860000BD0B9CFAADF28F0AFDF18F0952309F0FD
:1048700068CF7BCF1124E3CFBFDFA0F3959FD1F3A7
:10488000950F50E0551F629FF001729FBB27F00DFE
:10489000B11D639FAA27F00DB11DAA1F649F662753
:1048A000B00DA11D661F829F2227B00DA11D621FA2
:1048B000739FB00DA11D621F839FA00D611D221F5C
:1048C000749F3327A00D611D231F849F600D211D40
:1048D000822F762F6A2F11249F5750408AF0E1F0E3
:1048E00088234AF0EE0FFF1FBB1F661F771F881F2C
:1048F00091505040A9F79E3F510570F022CF9FCFB5
:104900005F3FECF3983EDCF3869577956795B79516
:10491000F795E7959F5FC1F7FE2B880F911D969540
:10492000879597F908959B01AC019ACFE6DE880B35
:10493000990B089597FB072E16F4009407D077FD86
:1049400009D00E94FA2407FC05D03EF49095819589
:104950009F4F0895709561957F4F0895A1E21A2E9B
:10496000AA1BBB1BFD010DC0AA1FBB1FEE1FFF1F13
:10497000A217B307E407F50720F0A21BB30BE40B63
:10498000F50B661F771F881F991F1A9469F76095AA
:104990007095809590959B01AC01BD01CF01089564
:1049A000052E97FB1EF400940E94E72457FD07D0C4
:1049B0000E94AE2407FC03D04EF40C94E7245095DB
:1049C0004095309521953F4F4F4F5F4F08959095FB
:1049D0008095709561957F4F8F4F9F4F08950E94EE
:1049E0001425A59F900DB49F900DA49F800D911D3F
:1049F00011240895AA1BBB1B51E107C0AA1FBB1FAE
:104A0000A617B70710F0A61BB70B881F991F5A955A
:104A1000A9F780959095BC01CD010895EE0FFF1F79
:104A20000590F491E02D0994A29FB001B39FC001BD
:104A3000A39F700D811D1124911DB29F700D811DCA
:104A40001124911D0895CF93DF938230910510F4C6
:104A500082E090E0E0910804F091090420E030E069
:104A6000A0E0B0E0309739F14081518148175907F3
:104A7000B8F04817590771F482819381109729F093
:104A800013969C938E9312972CC090930904809355
:104A9000080427C02115310531F04217530718F0DB
:104AA000A901DB0101C0EF019A01BD01DF01028014
:104AB000F381E02DD7CF21153105F9F0281B390BF3
:104AC0002430310580F48A819B816115710521F0C4
:104AD000FB019383828304C09093090480930804AC
:104AE000FE01329644C0FE01E20FF31F81939193C1
:104AF00022503109398328833AC02091060430912D
:104B00000704232B41F420910201309103013093DB
:104B10000704209306042091000130910101211522
:104B2000310541F42DB73EB7409104015091050184
:104B3000241B350BE0910604F0910704E217F307FC
:104B4000A0F42E1B3F0B2817390778F0AC014E5FFD
:104B50005F4F2417350748F04E0F5F1F509307042F
:104B6000409306048193919302C0E0E0F0E0CF010E
:104B7000DF91CF910895CF93DF93009709F487C019
:104B8000FC01329713821282C0910804D09109046B
:104B9000209781F420813181280F391F80910604EC
:104BA000909107048217930779F5F0930704E09337
:104BB00006046DC0DE0120E030E0AE17BF0750F400
:104BC00012964D915C9113979D014115510509F184
:104BD000DA01F3CFB383A28340815181840F951F03
:104BE0008A179B0771F48D919C911197840F951FE3
:104BF00002969183808312968D919C911397938353
:104C000082832115310529F4F0930904E093080407
:104C10003EC0D9011396FC93EE9312974D915D918E
:104C2000A40FB51FEA17FB0779F480819181840FE7
:104C3000951F0296D90111969C938E938281938140
:104C400013969C938E931297E0E0F0E08A819B810B
:104C5000009719F0FE01EC01F9CFCE0102962881F0
:104C60003981820F931F2091060430910704281781
:104C7000390769F4309729F4109209041092080456
:104C800002C013821282D0930704C0930604DF91FE
:104C9000CF910895A0E0B0E0E0E5F6E20C94332770
:104CA000EC01CB01209719F40E942325B8C0FE0126
:104CB000E60FF71F9E0122503109E217F30708F4AF
:104CC000ACC0D9010D911C91119706171707B8F0C8
:104CD0000530110508F49FC0A8014450510946173A
:104CE000570708F498C002501109061B170B0193CF
:104CF00011936D937C93CF010E94BB258CC05B0107
:104D0000A01AB10A4E01800E911EA0910804B09124
:104D10000904612C712C60E070E0109709F449C01F
:104D2000A815B905C9F5ED90FC901197670142E00F
:104D3000C40ED11CCA14DB0478F147018A189B0801
:104D4000640142E0C40ED11C1296BC9012971396D7
:104D5000AC91B5E0CB16D10440F0B282A38391822E
:104D60008082D9018D939C9309C00E5F1F4F0E0D59
:104D70001F1DF90111830083EB2DFA2F61157105B9
:104D800031F0DB011396FC93EE93129744C0F0933D
:104D90000904E09308043FC06D917C911197661659
:104DA000770608F43B01BD0112960D90BC91A02D31
:104DB000B4CF609106047091070468157905E9F491
:104DC00068167906D0F44091000150910101411517
:104DD000510541F44DB75EB7609104017091050132
:104DE000461B570BE417F507C0F4F0930704E09354
:104DF0000604F901918380830EC00E9423257C0163
:104E0000009759F0A801BE010E942627CE010E94FA
:104E1000BB25C70104C0CE0102C080E090E0CDB741
:104E2000DEB7EEE00C944F2781E090E0F8940C940C
:104E30006627FB01DC0104C08D910190801921F4EB
:104E400041505040C8F7881B990B0895FB01DC01C5
:104E500002C001900D9241505040D8F708952F9212
:104E60003F924F925F926F927F928F929F92AF92FA
:104E7000BF92CF92DF92EF92FF920F931F93CF9347
:104E8000DF93CDB7DEB7CA1BDB0B0FB6F894DEBFDE
:104E90000FBECDBF09942A88398848885F846E8404
:104EA0007D848C849B84AA84B984C884DF80EE804E
:104EB000FD800C811B81AA81B981CE0FD11D0FB657
:104EC000F894DEBF0FBECDBFED0108951AE0C2E534
:104ED000DAE004C0FE010E9410252296C435D107F5
:064EE000C9F7F894FFCFB2
:104EE60000000A048000E803636F6D70617373202D
:104EF600696E6974200067696D6D6520612064655F
:104F0600677265653A2000636F6D706173733A204E
:104F1600006C61737420563A200074726176656C79
:104F26006C65642064697374616E63653A2000740D
:104F3600726176656C6C65642074696D653A2000F3
:104F460063757272506F733A2000616363657074A3
:104F560065643A200073706565643A200065787070
:104F66006563746564207475726E2074696D653A44
:104F7600200064697374616E63652074726176657E
:104F86006C6C65643A20006E6577506F733A20004A
:104F9600000000005A0A301EC50A390AAD0AAC0ADA
:104FA6000000000055072807FD0605071807270714
:104FB600000000005A0A301EC50A390AAD0AAC0ABA
:104FC6004649464F3A20007061636B6574207369E9
:104FD6007A653A2000000000001713E01200000076
:104FE60000321C00000000081800000000321C00FF
:104FF6000000003C1A00000000B21C301E341C4D9C
:105006001C3F1C901C0D0A006E616E00696E6600E6
:065016006F7666002E001B
:00000001FF
