:100000000C9429050C9451050C9451050C948D0AFF
:100010000C948D0A0C948D0A0C9451050C94510586
:100020000C9451050C9451050C9451050C945105F8
:100030000C9451050C9451050C9451050C945105E8
:100040000C945B190C9451050C94421B0C94741B7A
:100050000C9451050C9451050C9451050C945105C8
:100060000C947D080C945105084AD73B3BCE016E99
:1000700084BCBFFDC12F3D6C74319ABD56833DDAFF
:100080003D00C77F11BED9E4BB4C3E916BAAAABE0E
:10009000000000803F002900444D5020496E6974E3
:1000A00069616C697A6174696F6E206661696C65FB
:1000B000642028636F64652000444D5020726561A0
:1000C0006479212057616974696E6720666F7220B8
:1000D000666972737420696E746572727570742EBD
:1000E0002E2E00456E61626C696E6720444D502E65
:1000F0002E2E00496E697469616C697A696E672099
:10010000444D502E2E2E004D505536303530206344
:100110006F6E6E656374696F6E206661696C65648D
:10012000004D50553630353020636F6E6E65637408
:10013000696F6E207375636365737366756C0054C5
:10014000657374696E672064657669636520636FA3
:100150006E6E656374696F6E732E2E2E00496E6924
:100160007469616C697A696E6720493243206465FD
:1001700076696365732E2E2E0001B202FFFF019097
:10018000040923A135016A0206000160080000008D
:100190000000000000006004400000000162020056
:1001A0000000600400400000037B034CCD6C03ABF7
:1001B0000336567600680402CB47A20218040005F5
:1001C0008BC1010C0400000000037F060CC92C97B2
:1001D0009797038903264666006C022000024004BC
:1001E0000000000002440400000000024804000077
:1001F0000000024C04000000000250040000000057
:100200000254040000000002580400000000025CD8
:10021000040000000002BC040000000001EC040027
:10022000004000037F060CC92C9797970402030D2A
:10023000355D040904872D353D00A3010000000051
:1002400001078601FE074105F120283038077E01AD
:10025000300746019A074704F1283038076C04F14B
:100260002830380216020002FB00003E000B003668
:10027000000100020003000000650054FFEF0000D1
:10028000FA80000B12820001000200000000000052
:10029000000000000000000000280000FFFF458172
:1002A000FFFFFA7200000000000003E800000001F8
:1002B00000017FFFFFFE8001001B00000000000026
:1002C0000000000000000000003E0330400000007D
:1002D00002CAE3093E800000200000000000000088
:1002E000400000006000000041FF000000000B2AF9
:1002F0000000165500002182FD872650FD80000079
:10030000001F000000058000000000000001000048
:100310000002000000030000400000000000046F25
:100320000002653200005EC04000000000000000D6
:100330000000000000000000FB8C6F5DFD5D08D92F
:10034000007C733B006C12CC3200139D3200D0D67F
:1003500032000800400001F4FFE68079020000004E
:100360000000D0D600002710FB0000004000000075
:10037000000000000000000000000001000000007C
:1003800000000100010000000000FA36FFBC308EC2
:100390000005FBF0FFD95BC8FFD09ABE000010A992
:1003A000FFF41EB200CEBBF7000000010000000405
:1003B000000200020200000CFFC280000001800069
:1003C00000CF80004000000000000001000000009D
:1003D0000000060000000014000000000000000003
:1003E000000000000000000000000000000000000D
:1003F00000000000000000000000000000000000FD
:10040000000000000000000000000000033F68B68C
:10041000793528BCC67ED16C800000004000000009
:100420000000B26A000000000000000000000000B0
:1004300000003FF00000003000000000000000005D
:1004400000000000000000000000000000000000AC
:1004500000000000000000000000254D002F706D1E
:10046000000005AE000C02D0000000000065005442
:10047000FFEF000000000000000001000044000049
:1004800000000C00000001000000000000650000FA
:1004900000540000FFEF000000000000000000001A
:1004A000000000000000000040000000000000000C
:1004B00000000000000000004000000000000000FC
:1004C0000000000000000000000000010000000229
:1004D000000000000000000000000000000000001C
:1004E000000000000000000000000000000000000C
:1004F0000000000000000000001B000000000000E1
:1005000000000000000000000000000000000000EB
:1005100000000000000000000000000000000000DB
:100520000000000040000000001B00000000000070
:1005300000000000000000000000000000000000BB
:1005400000000000000000000000000000000000AB
:10055000000000000000000000000000000000009B
:100560000000000000000000D8DCBAA2F1DEB2B842
:10057000B4A88191F74A907F916AF3F9DBA8F9B0AA
:10058000BAA080F2CE81F3C2F1C1F2C3F3CCA2B221
:1005900080F1C6D880BAA7DFDFDFF2A7C3CBC5B62C
:1005A000F087A2942448703C95406834589B78A208
:1005B000F183922D557DD8B1B4B8A1D09180F2705D
:1005C000F370F27C80A8F101B09887D943D886C92E
:1005D00088BAA1F20EB89780F1A9DFDFDFAADFDFCA
:1005E000DFF2AAC5CDC7A90CC92C97979797F1A997
:1005F00089264666B0B4BA80ACDEF2CAF1B28C028B
:10060000A9B69800890E161EB8A9B4992C547CB0CE
:100610008AA896365676F1B9AFB4B083C0B8A89719
:1006200011B18F98B9AFF0240844106418F1A329D0
:10063000557DAF83B593AFF0002850F1A3869F613D
:10064000A6DADEDFD9FAA38696DB31A6D9F8DFBABF
:10065000A68FC2C5C7B28CC1B8A2DFDFDFA3DFDFC0
:10066000DFD8D8F1B8A8B286B4980D355DB8AA988D
:10067000B0872D353DB2B6BAAF8C96198F9FA70EB5
:10068000161EB49AB8AA872C547CB9A3DEDFDFA368
:10069000B180F2C4CDC9F1B8A9B499830D355D8993
:1006A000B9A32D557DB593A30E161EA92C547CB865
:1006B000B4B0F19783A81184A50998A383F0DA2434
:1006C0000844106418D8F1A529557DA58595021A0E
:1006D0002E3A565A4048F9F3A3D9F8F098832408E3
:1006E000441064189782A8F111F098A224084410CD
:1006F0006418DAF3DED883A59401D9A302F1A2C36A
:10070000C5C7D8F18492A24DDA2AD84869D92AD827
:100710006855DA32D85071D932D8705DDA3AD85883
:1007200079D93AD87893A34DDA2AD84869D92AD802
:100730006855DA32D85071D932D8705DDA3AD85863
:1007400079D93AD878A88A9AF02850789EF38818F0
:10075000F19F1D98A8D908D8C89F129EF315A8DA52
:100760001210D8F1AFC8978734B5B994A421F3D942
:1007700022D8F22DF3D92AD8F235F3D932D881A470
:10078000606061D961D86C6869D969D8747071D9B1
:1007900071D8B1A384193D5DA3831A3E5E931030D6
:1007A000811011B8B0AF8F94F2DA3ED8B49AA8870E
:1007B00029DAF8D8879A35DAF8D8879A3DDAF8D85E
:1007C000B1B9A49885022E56A581000C14A397B048
:1007D0008AF12DD928D84DD948D86DD968D8B18497
:1007E0000DDA0ED8A32983DA2C0ED8A3844983DA34
:1007F0002C4C0ED8B8B0A88A9AF520AADADFD8A86F
:1008000040AAD0DADED8A860AADAD0DFD8F197867D
:10081000A8319B069907AB9728889BF00C201440C1
:10082000B8B0B4A88C9CF0042851791D301438B2AB
:1008300082ABD0982C505078789BF11AB0F08A9CFB
:10084000A82951798B2951798A2470598B205871A4
:100850008A4469388B3940688A6448318B304960F2
:10086000A588200971584468113964493019F1ACE0
:10087000002C547CF08CA804285078F1889726A886
:100880005998AC8C02264666F0899CA82951792497
:100890007059446938644831A98809205970AB11EE
:1008A000384069A8193148608CA83C415C207C0024
:1008B000F187981986A86E767EA999882D557D9E18
:1008C000B9A38A228A6E8A568A5E9FB1830626461B
:1008D000660E2E4E6E9DB8AD002C547CF2B18CB4D9
:1008E00099B9A32D557D8191AC38AD3AB58391ACC2
:1008F0002DD928D84DD948D86DD968D88C9DAE2926
:10090000D904AED851D904AED879D904D881F39D91
:10091000AD008DAE1981ADD901D8F2AEDA26D88EF0
:10092000912983A7D9ADADADADF32AD8D8F1B0AC3C
:1009300089913E5E76F3AC2E2EF1B18C5A9CAC2C94
:100940002828289CAC3018A8988128343C9724A7E4
:1009500028343C9C24F2B089AC912C4C6C8A9B2DA1
:10096000D9D8D851D9D8D879D9D8D8F19E88A33137
:10097000DAD8D8912DD928D84DD948D86DD968D88A
:10098000B18393353D8025DAD8D88569DAD8D8B4D3
:100990009381A328343CF3AB8BF8A391B609B4D967
:1009A000ABDEFAB0879CB9A3DDF1A3A3A3A395F1B5
:1009B000A3A3A39DF1A3A3A3A3F2A3B49080F2A346
:1009C000A3A3A3A3A3A3A3A3A3B2A3A3A3A3A3A3E8
:1009D000B087B599F1A3A3A398F1A3A3A3A397A369
:1009E000A3A3A3F39BA3A3DCB9A7F1262626D8D8FB
:1009F000FF000000080002010000030407000000DF
:100A000000000000000102040810204080010204E0
:100A10000810200102040810200404040404040443
:100A200004020202020202030303030303000000A4
:100A30000023002600290000000000250028002BCC
:100A40000000000000240027002A00009307001384
:100A5000A41B11241FBECFEFD8E0DEBFCDBF11E035
:100A6000A0E0B1E0E0E2FCE402C005900D92AA39FA
:100A7000B107D9F723E0AAE9B1E001C01D92A3357F
:100A8000B207E1F71AE0C2E5DAE004C02297FE01FE
:100A90000E94B823CC34D107C9F70E94E81B0C94FC
:100AA0000E260C940000DC011C968D919C911D97E4
:100AB000DC01ED91FC910480F581E02D0994DC01CD
:100AC0001C968D919C911D97DC01ED91FC91068007
:100AD000F781E02D0994DC011C968D919C911D9766
:100AE000DC01ED91FC910084F185E02D0994DC019D
:100AF0001C968D919C911D97DC01ED91FC910284D7
:100B0000F385E02D0994DC011C968D919C911D9735
:100B1000DC01ED91FC910190F081E02D0994CF93DF
:100B2000DF938FE190E00E94F71BEC0120E045E0AD
:100B300064E00E94590B40E855E260E070E0CE01AD
:100B40000E94890B8EE090E00E94F71BFC0113824B
:100B5000128248EE53E060E070E044835583668380
:100B600077838AE291E091838083D587C487F0936D
:100B70009B01E0939A0184E090E00E94F71BEC0156
:100B80000E94E40FD0939F01C0939E018CE190E0FE
:100B90000E94F71BEC0160919E0170919F010E94E1
:100BA0005E12D0939D01C0939C01DF91CF91089577
:100BB000CF92DF92EF92FF92CF93DF93E0919A0171
:100BC000F0919B0168E071E0848595850E947B1C13
:100BD00080919A0190919B01DC01ED91FC91048040
:100BE000F581E02D0995892B99F368EE73E080E09B
:100BF00090E00E94D419E0919A01F0919B016AE182
:100C000071E0848595850E945C1C80919E01909185
:100C10009F01DC01ED91FC910280F381E02D0995AB
:100C2000AB01BC01E0919A01F0919B0122E030E020
:100C3000848595850E945F1EC0919A01D0919B0189
:100C400064E670E080E090E00E94D41941E060E04A
:100C500070E08C859D850E94E21E6B017C01E09115
:100C60009A01F0919B012AE030E0AB01BC01848540
:100C700095850E94261DC701B6010E949C21AB01EB
:100C8000BC0180919C0190919D010E94EC11E0912A
:100C90009A01F0919B016AE171E0848595850E943B
:100CA0005C1C80919E0190919F01DC01ED91FC9173
:100CB0000280F381E02D0995AB01BC01E0919A011E
:100CC000F0919B0122E030E084859585DF91CF9102
:100CD000FF90EF90DF90CF900C945F1E8091D00139
:100CE00090E02091D101821B910908952091D101BA
:100CF0008091D001281750F4E22FF0E0EE52FE4F21
:100D0000808190E02F5F2093D10108958FEF9FEFB6
:100D10000895E091D1018091D001E81730F4F0E01E
:100D2000EE52FE4F808190E008958FEF9FEF08957F
:100D30000895CF92DF92EF92FF920F931F93CF937C
:100D4000DF937C01CB018A012091AC01222389F041
:100D5000EB016B01C40ED51ECC15DD0569F0699160
:100D6000D701ED91FC910190F081E02DC70109952B
:100D7000F3CF642F0E945408C801DF91CF911F91D7
:100D80000F91FF90EF90DF90CF900895CF93DF9376
:100D90001F92CDB7DEB769832091AC012223D1F039
:100DA0002091AD01203240F021E030E0FC0133839E
:100DB000228380E090E015C08091AE01E82FF0E042
:100DC000E155FE4F998190838F5F8093AE018093B0
:100DD000AD0105C061E0CE0101960E94540881E09A
:100DE00090E00F90DF91CF910895FC011382128261
:100DF00048EE53E060E070E0448355836683778378
:100E00008AE391E09183808308951092D10110923A
:100E1000D0011092AE011092AD010C94970781E0C1
:100E20008093AC016093CF011092AE011092AD019E
:100E300008950F93062F21E04091AD016FEA71E014
:100E40008091CF010E94FD071092AE011092AD017A
:100E50001092AC010F9108958F929F92AF92BF9222
:100E6000CF92DF92EF92FF920F931F93CF93DF9376
:100E7000EC01F62ED42E48015901EE2019F10E9402
:100E80000F071E2D143008F013E01150B8F0E88160
:100E9000F98128E0129FB0011124A501940104C03A
:100EA00056954795379527956A95D2F7CA01B901A6
:100EB0000190F081E02DCE010995E7CF60E0CE01F1
:100EC0000E9419074D2D413208F040E22C2D62EDB1
:100ED00071E08F2D0E94B5071092D1018093D0014F
:100EE000DF91CF911F910F91FF90EF90DF90CF9006
:100EF000BF90AF909F908F900895CF92EF920F93F5
:100F00001F93C22EE12C00E010E098010E942C07F4
:100F10001F910F91EF90CF90089521E00C947D07E1
:100F200061E00C94190780EA91E00C94F5061092A8
:100F30005F0281E080935D0210925C0261E082E1D9
:100F40000E940A1B61E083E10E940A1BE9EBF0E0CA
:100F500080818E7F808380818D7F808388E48093F1
:100F6000B80085E48093BC000895413208F043C086
:100F700090915F029111FCCF91E090935F022093DA
:100F80005D022FEF2093F20110923702240F20937D
:100F9000360290935E0290915E02880F892B8093B7
:100FA0005E0280915C02813061F410925C0280915B
:100FB0005E028093BB008091BC0083FDF8CF85EC7E
:100FC00001C085EE8093BC0080915F028130E1F327
:100FD00080913702841710F44091370228E332E001
:100FE000FB01D9018A2F821B841718F48D918193FC
:100FF000F9CF842F089580E008950F93413208F0CF
:101000004AC090915F029111FCCF92E090935F02F1
:1010100000935D029FEF9093F2011092370240938C
:101020003602FB0168E372E0DB019A2F961B9417EE
:1010300018F491919D93F9CF10925E0290915E0207
:10104000880F892B80935E0280915C02813061F46D
:1010500010925C0280915E028093BB008091BC0084
:1010600083FDF8CF85EC01C085EE8093BC00222380
:1010700021F080915F028230E1F38091F2018F3F95
:1010800061F08091F201803251F08091F201803361
:1010900041F483E007C081E005C080E003C082E046
:1010A00001C084E00F910895613298F420915F02AD
:1010B000243089F460931402FC0186E192E0DC01A3
:1010C0002A2F281B261718F421912D93F9CF80E0A1
:1010D000089581E0089582E0089585ED8093BC0035
:1010E0008091BC0084FDFCCF10925F02089585ECD6
:1010F0008093BC0010925F0208951F920F920FB66A
:101100000F9211242F933F934F935F936F937F938D
:101110008F939F93AF93BF93EF93FF938091B90009
:10112000887F803609F49EC078F5883209F45DC066
:1011300090F4803109F456C038F4882309F4F5C0DE
:10114000883009F44FC0F5C0883109F44EC08032B0
:1011500009F45FC0EEC0803409F46AC058F48033EB
:1011600009F457C0883309F0E4C08093F2010E946B
:101170007708DFC0803509F44FC0883509F45DC0B9
:10118000883409F0D6C0D3C0883909F4C4C0A8F4A3
:10119000883709F467C038F4883609F463C08037AB
:1011A00009F460C0C6C0883809F4B5C0803909F4B4
:1011B0005FC0803809F0BDC05BC0803B09F483C0CC
:1011C00038F4803A09F466C0883A09F47CC0B1C0AA
:1011D000803C09F4A4C0883C09F4A1C0883B09F410
:1011E00087C0A7C080915E0210C0909137028091A5
:1011F0003602981770F5E091370281E08E0F8093E8
:101200003702F0E0E85CFD4F80818093BB0085EC05
:1012100083C08093F2018BC0E091370281E08E0F92
:10122000809337028091BB00F0E0E85CFD4F808343
:1012300090913702809136026BC0E091370281E0D5
:101240008E0F809337028091BB00F0E0E85CFD4F89
:10125000808380915D0281116AC081E080935C028D
:1012600084EA5EC083E080935F021092F301CFCFE7
:101270008091F301803208F04EC0E091F30181E0EB
:101280008E0F8093F3018091BB00F0E0EC50FE4F95
:101290008083BDCF0E9477088091F301803230F4C3
:1012A000E091F301F0E0EC50FE4F10826091F30109
:1012B00070E0E0915802F091590284EF91E00995B5
:1012C0001092F30136C084E080935F021092150201
:1012D00010921402E0915A02F0915B0209958091FC
:1012E0001402811105C081E080931402109216024D
:1012F000E091150281E08E0F80931502F0E0EA5E26
:10130000FD4F80818093BB00909115028091140263
:10131000981708F47CCF85E88093BC000AC085EC60
:101320008093BC0010925F0204C01092F2010E94F0
:101330006D08FF91EF91BF91AF919F918F917F9138
:101340006F915F914F913F912F910F900FBE0F9032
:101350001F9018952091A2023091A30228173907F7
:10136000B9F49091600280916102981789F0E09140
:101370006002F0E0EE59FD4F80812091600230E084
:101380002F5F3F4F2F7333272093600290E0089523
:101390008FEF9FEF08951F93CF93DF93DC015C964F
:1013A0008D919C915D97009749F481E090E01396B0
:1013B0009C938E93129780E090E03BC05196ED9104
:1013C000FC91529750962C915097322F30951FB721
:1013D0005E964C915E9741FB772770F941FD6095D1
:1013E000F8944081772311F0422B01C043234083BE
:1013F000EC012197F1F748E0508160FF02C0522BC9
:1014000001C053235083EC012197F1F766954150B9
:1014100099F78081772311F0832301C0822B808389
:101420001FBF5C968D919C915D970197F1F781E0CC
:1014300090E0DF91CF911F91089508952091A2022D
:101440003091A3022817390771F4909160028091BE
:101450006102981741F0E0916002F0E0EE59FD4F13
:10146000808190E008958FEF9FEF08952091A20270
:101470003091A3022817390771F4809161022091FD
:10148000600290E0805C9F4F821B910960E470E0F5
:101490000E944223089580E090E00895E091A20226
:1014A000F091A302E817F90769F4A389B4899C9124
:1014B0008589809589238C931092A3021092A202B1
:1014C00081E0089580E00895CF93DF93EC018A8D49
:1014D0009B8D892BF1F08091A2029091A3028C1731
:1014E0009D07B9F0009711F00E944E0A8E8D8E7FF5
:1014F0008E8F1092610210926002D093A302C0936B
:10150000A202EB89FC8980819D89892B808381E0FF
:1015100001C080E0DF91CF9108951F920F920FB626
:101520000F9211242F933F934F935F936F937F9369
:101530008F939F93AF93BF93EF93FF93E091A2029A
:10154000F091A302309709F451C0868DA685B78526
:10155000958581FF04C08C91892329F447C08C9123
:10156000892309F043C0A389B4899C91858980951A
:1015700089238C93868997890197F1F7208D318D86
:10158000A685B785758558E040E0C9010197F1F758
:10159000842F90E095958795482F6C91672309F0EB
:1015A0004068515091F7868D81FD40958091610290
:1015B00090E001968F73992720916002281749F0D7
:1015C000A0916102B0E0AE59BD4F4C93809361028F
:1015D00003C0868D8160868F828D938D0197F1F790
:1015E000A389B4898C919589892B8C93FF91EF9174
:1015F000BF91AF919F918F917F916F915F914F912B
:101600003F912F910F900FBE0F901F9018951F9331
:10161000CF93DF93EC01162F6E8D6695617081E09C
:101620006827812F0E940A1B61E0812F0E94D11A36
:10163000812F90E0FC01EB5FF54FE491E88BFC011A
:10164000E75EF54FE491F0E0EE0FFF1FE95CF54F28
:10165000859194919A8B898BDF91CF911F910895F9
:101660001F93CF93DF93EC01162F60E0812F0E9430
:10167000D11A8E8D81FD04C061E0812F0E940A1B6A
:101680001C87812F90E0FC01EB5FF54FE491ED8723
:10169000FC01E75EF54FE491F0E0EE0FFF1FE35D24
:1016A000F54F859194919F878E87DF91CF911F9100
:1016B0000895FF920F931F93CF93DF93EC01F62EC3
:1016C000522F1B821A8208EE13E020E030E00C83D8
:1016D0001D832E833F838AE491E0998388831F8A48
:1016E0001E8A198E188E1B8E1A8E1D8E1C8E8E8D44
:1016F0008E7F50FB81F98E8F642FCE010E94070BE5
:101700006F2DCE01DF91CF911F910F91FF900C941F
:10171000300BCF93DF93EC019A01AB011B8E1A8E35
:10172000198E188E1F8A1E8A60E079E08DE390E0A2
:101730000E947823C9012430310520F0B90163509B
:10174000710902C061E070E07D8F6C8FEC85E6313D
:1017500008F068C0B901769567956431710518F095
:101760006351710902C061E070E07F8B6E8B069758
:1017700018F0C901059702C081E090E0998F888F29
:10178000C901880F991F820F931F9695879596958B
:1017900087958D30910510F00C9702C081E090E0A4
:1017A0009B8F8A8F20916800E83050F091E0EE30F6
:1017B00008F490E081E001C0880F9A95EAF701C033
:1017C00084E0822B809368002C85283038F02E30FE
:1017D00040F0263148F48CE690E008C08DE690E0B9
:1017E00005C08BE690E002C080E090E09C8B8B8B84
:1017F000283030F481E001C0880F2A95EAF70DC047
:10180000822F90E02E3010F4089701C00E9791E0DF
:1018100001C0990F8A95EAF7892F8D8B8C8D9D8D4C
:101820000197F1F7CE01DF91CF910C94640ACF922A
:10183000DF92EF92FF92DC01ED91FC910190F0813B
:10184000E02D099520E030E044E353E40E94D822E3
:101850002BED3FE049E450E40E94012120E030E01C
:1018600044EB53E40E94DE216B017C0120E030E078
:10187000A9010E94FD2087FF0AC020E030E044EB70
:1018800053E4C701B6010E9437206B017C01C701F8
:10189000B601FF90EF90DF90CF9008954F925F9246
:1018A0006F927F928F929F92AF92BF92CF92DF9270
:1018B000EF92FF92CF93DF93CDB7DEB7C454D10937
:1018C0000FB6F894DEBF0FBECDBF7C018091A6029B
:1018D000882309F4D6C0F701828193810E940E16F5
:1018E0008115944029F4F701828193810E94D315D8
:1018F000F701828193810E940E164091A4025091BB
:10190000A50284179507A0F3BE016F5F7F4FF70113
:10191000828193810E942A16698170E0762F662762
:101920008A81680F711D882777FD8095982F0E9406
:101930009C2120E030E040E858E30E94D8226B016F
:101940007C01698570E0762F66278A85680F711D96
:10195000882777FD8095982F0E949C2120E030E019
:1019600040E858E30E94D8224B015C01A701960190
:10197000C701B6010E94372025966CAF7DAF8EAFB0
:101980009FAF2597A5019401C501B4010E9437209E
:101990002B013C01A701960125966CAD7DAD8EAD66
:1019A0009FAD25970E94D8226B017C01A50194016F
:1019B000C301B2010E94D8229B01AC01C701B6014C
:1019C0000E94372020E030E040E85FE30E943620AC
:1019D0006B017C016D8170E0762F66278E81680F28
:1019E000711D882777FD8095982F0E949C2120E00B
:1019F00030E040E858E30E94D8229B01AC01C301CB
:101A0000B2010E94D8222B013C016D8570E0762F37
:101A100066278E85680F711D882777FD8095982F22
:101A20000E949C2120E030E040E858E30E94D82248
:101A30009B01AC0125966CAD7DAD8EAD9FAD25971C
:101A40000E94D8229B01AC01C301B2010E94362042
:101A5000A7019601CC5BDF4F0FB6F894DEBF0FBE37
:101A6000CDBFDF91CF91FF90EF90DF90CF90BF90EF
:101A7000AF909F908F907F906F905F904F900C945D
:101A8000AA2060E070E0CB01CC5BDF4F0FB6F8948A
:101A9000DEBF0FBECDBFDF91CF91FF90EF90DF9003
:101AA000CF90BF90AF909F908F907F906F905F90FE
:101AB0004F9008958F929F92AF92BF92CF92EF92E4
:101AC0000F931F93CF93DF93CDB7DEB7C059D109E2
:101AD0000FB6F894DEBF0FBECDBF5C010E94E115CA
:101AE0006EE170E080E090E00E94D41960E0C501F2
:101AF0000E94E81521E041E060E1C5010E9416174F
:101B000066E0C5010E942117C5010E94271720E049
:101B100040E060E0C5010E941617C5010E945D16F5
:101B2000C5010E947B16182FC5010E94A216882E9F
:101B3000C5010E94C916982E4FE760E0C5010E94BA
:101B4000A11560E0C5010E94CC1548E660E0C50122
:101B50000E94A115C5010E94DA1564E170E080E0E1
:101B600090E00E94D419EE24E39400E020E049E8DC
:101B700057E068E672E0C5010E948418882309F4E2
:101B80000EC240EC50E068EA71E0C5010E944C19B9
:101B9000882309F406C263E0C5010E94EF1562E1E3
:101BA000C5010E94AD1564E0C5010E94571561E0B2
:101BB000C5010E945D1563E0C5010E94681563E0E0
:101BC000C5010E94731563E0C5010E944F1960E0D2
:101BD000C5010E94551960E0C5010E947416612F6D
:101BE000C5010E949716682DC5010E94BE16692D79
:101BF000C5010E94E516812C912CF401E758FE4F97
:101C0000E491A1E8B0E0AC0FBD1FA80DB11DEC93AD
:101C100081E0880D9FEF891A990AE3E0E81568F7DB
:101C2000CD57DF4F4881C358D04050E09A012E5F16
:101C30003F4F90E02817390704F7C12CEE24E394B6
:101C4000CE57DF4F0881C258D040CF57DF4F288191
:101C5000C158D04061E870E06C0F7D1F6D5F7F4F11
:101C6000C5010E94A31760E0F401E758FE4FE4911C
:101C7000A1E8B0E0AC0FBD1FA60FB11DEC936F5FE4
:101C8000FFEF8F1A9F0A643078F3CD57DF4F4881FA
:101C9000C358D04050E09A012E5F3F4F862F90E00E
:101CA000281739070CF7C12CEE24E394CE57DF4FE9
:101CB0000881C258D040CF57DF4F2881C158D0404B
:101CC00061E870E06C0F7D1F6D5F7F4FC5010E9462
:101CD000A317C5010E94D315C5010E940E16482FF7
:101CE000BE016F5F7F4FC5010E942A1662E0C501E9
:101CF0000E9489156CE9C5010E94951560E5C50132
:101D00000E948F1560E0C5010E949B15C5010E94CD
:101D1000D31561E0C5010E94C51561E0C5010E94AF
:101D20000817C5010E940F1760E0F401E758FE4F45
:101D3000E491A1E8B0E0AC0FBD1FA60FB11DEC937C
:101D40006F5F8FEF881A980A643078F3CD57DF4FB2
:101D50004881C358D04050E09A012E5F3F4F862FF4
:101D600090E0281739070CF7C12CEE24E394CE57E6
:101D7000DF4F0881C258D040CF57DF4F2881C1586C
:101D8000D04061E870E06C0F7D1F6D5F7F4FC50133
:101D90000E94A31760E0F401E758FE4FE491A1E828
:101DA000B0E0AC0FBD1FA60FB11DEC936F5F9FEFAE
:101DB000891A990A643078F3CD57DF4F4881C358A8
:101DC000D04050E09A012E5F3F4F862F90E02817B9
:101DD00039070CF7C12CEE24E394CE57DF4F08816E
:101DE000C258D040CF57DF4F2881C158D04061E85A
:101DF00070E06C0F7D1F6D5F7F4FC5010E94A317C0
:101E000060E0F401E758FE4FE491A1E8B0E0AC0FC8
:101E1000BD1FA60FB11DEC936F5FEFEF8E1A9E0AE8
:101E2000643078F3CD57DF4F4881C358D04050E03D
:101E30009A012E5F3F4F862F90E0281739070CF745
:101E4000C12CEE24E394CE57DF4F0881C258D04016
:101E5000CF57DF4F2881C158D04061E870E06C0F48
:101E60007D1F6D5F7F4FC5010E94A317C5010E94B2
:101E70000E1683309105D0F3482FBE016F5F7F4F60
:101E8000C5010E942A16C5010E94B31560E0F40145
:101E9000E758FE4FE491A1E8B0E0AC0FBD1FA60FDC
:101EA000B11DEC936F5FFFEF8F1A9F0A643078F3D8
:101EB000CD57DF4F4881C358D04050E09A012E5F84
:101EC0003F4F862F90E0281739070CF7CE57DF4F8A
:101ED0000881C258D040CF57DF4F2881C158D04029
:101EE00061E870E06C0F7D1F6D5F7F4FC5010E9440
:101EF0003917C5010E940E1683309105D0F3482F83
:101F0000BE016F5F7F4FC5010E942A16C5010E9466
:101F1000B315F401E758FE4F60E08491A1E8B0E00A
:101F2000AC0FBD1FA60FB11D8C936F5F643010F412
:101F30003196F3CFCD57DF4F4881C358D04050E0A2
:101F40009A012E5F3F4F862F90E02817390784F7BC
:101F500061E870E06C0F7D1F6D5F7F4FC12CEE2438
:101F6000E394CE57DF4F0881C258D040CF57DF4FA0
:101F70002881C158D040C5010E94A31760E0C50167
:101F80000E9408178AE290E0F50193838283C501DD
:101F90000E94D315C5010E94B31580E003C081E003
:101FA00001C082E0C057DF4F0FB6F894DEBF0FBE0E
:101FB000CDBFDF91CF911F910F91EF90CF90BF9048
:101FC000AF909F908F9008950F931F93CF93DF93BF
:101FD000EC0188E691E09983888383E190E00E9498
:101FE000F71B8C010E9453151B830A8380EA91E042
:101FF0000E94050788E18093B8006DE571E082EBEF
:1020000092E00E94691C8A819B810E94FA156FE30D
:1020100071E082EB92E00E94691C8A819B810E94A0
:102020005516882319F061E271E002C067E071E0A3
:1020300082EB92E00E94691C63EF70E082EB92E019
:102040000E94691C8A819B810E945A0D182F6CED99
:1020500070E08A819B810E94F6166CE470E08A81B0
:102060009B810E94FC166BEA7FEF8A819B810E9414
:1020700002176CEF76E08A819B810E94F0161111A5
:1020800030C063EE70E082EB92E00E94691C61E078
:102090008A819B810E94081769EB70E082EB92E0D5
:1020A0000E94691C81E08093A602EA81FB81828103
:1020B00093819093A5028093A40266E571E082EB80
:1020C00092E00E945C1C6091A4027091A5024AE01B
:1020D00050E082EB92E0DF91CF911F910F910C9431
:1020E0004C1D68E970E082EB92E00E94391C4AE0E6
:1020F00050E0612F82EB92E00E94451D66E970E09E
:1021000082EB92E0DF91CF911F910F910C94691CAB
:102110000F931F93CF93DF93EC0186E090E00E9432
:10212000F71B8C0128E030E04BE050E06DE070E000
:102130000E94CB121B830A8386E090E00E94F71B6B
:102140008C0129E030E043E050E06CE070E00E9458
:10215000CB121D830C8319821882DF91CF911F91BE
:102160000F910895CF93DF93EC018A819B810E94A8
:10217000F0128C819D81DF91CF910C94F012CF925F
:10218000DF92EF92FF920F931F93CF93DF93EC01B7
:102190008E819F818130910571F02CF4892B09F596
:1021A00060E070E00DC08230910541F00397C9F402
:1021B00060E070E00CC061E070E009C061E070E0D8
:1021C0008C819D810E94E41260E070E006C08C81E9
:1021D0009D810E94E41261E070E08A819B810E94EF
:1021E000E41288819981009721F10E943C158C01AD
:1021F0006C01E12CF12C88819981DC01ED91FC913D
:102200000190F081E02D0995811108C0011511059B
:1022100091F3C701B6010E94D419EDCFCE01DF9131
:10222000CF911F910F91FF90EF90DF90CF900C9482
:10223000B210DF91CF911F910F91FF90EF90DF903F
:10224000CF900895FC017183608308954F925F924F
:102250006F927F928F929F92AF92BF92CF92DF92B6
:10226000EF92FF920F931F93CF93DF9300D000D094
:102270001F92CDB7DEB78C014A015B01DC011896D5
:102280008D919C911997DC01ED91FC910280F38175
:10229000E02D09956B017C01B401CE0101960E94ED
:1022A0004615BE016F5F7F4FC8010E942211C80111
:1022B0000E94BF1068EE73E080E090E00E94D419A5
:1022C000F80180859185DC01ED91FC910280F3811C
:1022D000E02D0995F801268137812330310519F465
:1022E000A701960104C09B01AC01C701B6010E9481
:1022F00036206B017C0120E030E0A9010E94FD2026
:1023000087FF0AC020E030E044EB53E4C701B60188
:102310000E9437206B017C01D8015A968D919C91C7
:102320005B9701965B969C938E935A97C501B40177
:102330000E949A219B01AC01C701B6010E940121B4
:102340002B013C01F80166877787808B918BA70171
:10235000960162897389848995890E943720D80102
:1023600052966D937D938D939C93559756968D9130
:102370009D910D90BC91A02D880D991DAA1DBB1D8E
:10238000F801868B978BA08FB18FA3019201628594
:102390007385848595850E943720D8011A966D93A0
:1023A0007D938D939C931D97C701B6010F900F905D
:1023B0000F900F900F90DF91CF911F910F91FF9091
:1023C000EF90DF90CF90BF90AF909F908F907F90D5
:1023D0006F905F904F900895CF92DF92EF92FF92AF
:1023E000CF93DF93EC01CB01BA0120E030E044EB66
:1023F00053E40E94DE216B017C0120E030E0A90162
:102400000E94FD2020E030E044EB53E487FF05C04C
:10241000C701B6010E9437200EC0C701B6010E9455
:10242000CD22181654F420E030E044EB53E4C70109
:10243000B6010E9436206B017C0120E030E044E3CD
:1024400053E4C701B6010E94FD2087FF03C083E06B
:1024500090E00CC0A701960160E070E084EB93E48B
:102460000E9436206B017C0182E090E09F838E8386
:1024700020E030E040E251E4C701B6010E94CD22E5
:10248000181684F42E853F8548895989C701B601FD
:102490000E9401210E946E21AB01BC01CE010E946D
:1024A000261103C060E070E0CB011F821E82DF9125
:1024B000CF91FF90EF90DF90CF900895CF92DF9271
:1024C000EF92FF921F93CF93DF93EC017B010E9469
:1024D00088101A861B861C861D861E861F86188AF3
:1024E000198A1A8A1B8A1C8A1D8A1E8A1F8A188EBC
:1024F000198E1B8E1A8EF986E88664E670E08C8150
:102500009D810E94F51264E670E08A819B810E94A1
:10251000F51283E090E09F838E8394E6C92ED12C40
:10252000E12CF12CB701A601CE010E9426112AE070
:1025300030E0B701A60182EB92E00E94621D88ECB8
:10254000C80ED11CE11CF11C8CEBC81682E0D80629
:10255000E104F10439F713E0C12CD12C84E3E82E17
:1025600082E4F82EB701A601CE010E94EC11A7016A
:102570009601C701B6010E9437206B017C01115002
:1025800089F71F821E82DF91CF911F91FF90EF90FC
:10259000DF90CF900895CF93DF931F92CDB7DEB732
:1025A000FC01862F248335835383428360837183A8
:1025B00061E029830E94D11A61E02981822F0F9066
:1025C000DF91CF910C94D11ACF93DF93EC018881E6
:1025D0000E940A1B60E08C81DF91CF910C940A1B52
:1025E00061E0FC0184810C940A1BCF93DF93EC0122
:1025F0008A810E94491ACE01DF91CF910C94F0128A
:1026000084E190E00E94F91B9093A8028093A702B6
:102610000895EF92FF920F931F93CF93DF9300D013
:10262000CDB7DEB7062F142F682F80EA91E02983FB
:102630003A830E940F07602F80EA91E00E94C6064D
:102640002981022FE22E3A81F32E8E2D801B8117D5
:1026500040F4F70161917F0180EA91E00E94C60693
:10266000F4CF80EA91E00E94900791E0811190E020
:10267000892F0F900F90DF91CF911F910F91FF90B5
:10268000EF900895CF93DF931F92CDB7DEB74983C4
:102690009E012F5F3F4F41E00E9409130F90DF9191
:1026A000CF910895DF92EF92FF920F931F93CF93F4
:1026B000DF93C62F042F7901682F80EA91E00E94F2
:1026C0000F076C2F80EA91E00E94C60610E0000F11
:1026D000111FD12CCD2DD0E0C017D1078CF4CC0F19
:1026E000DD1FCE0DDF1D698180EA91E00E94C606E4
:1026F000688180EA91E00E94C606D394D394EACF21
:1027000080EA91E00E94900791E0811190E0892F8A
:10271000DF91CF911F910F91FF90EF90DF9008957F
:10272000CF93DF9300D0CDB7DEB75A8349839E01A4
:102730002F5F3F4F41E00E9452130F900F90DF91A7
:10274000CF9108953F924F925F926F927F928F92B6
:102750009F92AF92BF92CF92DF92EF92FF920F9330
:102760001F93CF93DF9300D000D000D0CDB7DEB75A
:10277000682E562E742E3A8329830E94A5196B0168
:102780007C01312C412C872D90E09C838B83480168
:10279000A12CB12C3714B0F5662D80EA91E00E948F
:1027A0000F07652D80EA91E00E94C60680EA91E05D
:1027B0000E949007662D80EA91E00E940F074B81EE
:1027C0005C81431951094132510514F040E250E057
:1027D000662D80EA91E00E948D0780EA91E00E94D8
:1027E0006E06892B59F10115110579F10E94A51981
:1027F0006C197D098E099F09681579058A059B0565
:1028000020F11CC00115110589F10E94A5196C1950
:102810007D098E099F0920E030E06017710782076B
:10282000930720F1872D90E0242D332727FD309545
:1028300028173907DCF444244A9418C0872D90E205
:10284000971508F480E2380EA5CFE981FA81E40DEE
:10285000F11D47FCFA95FE83ED8380EA91E00E942A
:102860007606ED81FE8180834394B7CF842D269632
:102870000FB6F894DEBF0FBECDBFDF91CF911F9191
:102880000F91FF90EF90DF90CF90BF90AF909F900F
:102890008F907F906F905F904F903F9008950F932F
:1028A0001F9389019A0141E00E94A2131F910F9189
:1028B0000895DF92EF92FF920F931F93CF93DF93D0
:1028C0001F92CDB7DEB7D42E79019801AE014F5FCC
:1028D0005F4F0E944F1461E070E001C0660FDA9410
:1028E000EAF799819623F70190830F90DF91CF91BA
:1028F0001F910F91FF90EF90DF900895CF92DF929C
:10290000EF92FF920F931F93CF93DF931F92CDB758
:10291000DEB7C42ED22E9701AE014F5F5F4F0E94EB
:102920004F148823F1F04C2D50E04D1951094F5FA1
:102930005F4F61E070E002C0660F771FDA94E2F744
:1029400061507109042E01C0660F0A94EAF72981CB
:10295000262330E002C0359527954A95E2F7F80125
:1029600020830F90DF91CF911F910F91FF90EF90F7
:10297000DF90CF900895EF92FF920F931F93CF9324
:10298000DF931F92CDB7DEB7182F062FF42EE22E5D
:102990002091060130910701AE014F5F5F4F0E9409
:1029A0004F14898121E030E00F2C01C0220F0A94DE
:1029B000EAF7EE2019F0482F422B03C0422F409532
:1029C00048234983602F812F0E9442130F90DF918B
:1029D000CF911F910F91FF90EF900895DF92EF92AA
:1029E000FF920F931F93CF93DF931F92CDB7DEB764
:1029F000F82EE62ED42E122F2091060130910701D9
:102A0000AE014F5F5F4F0E944F14882319F14D2D87
:102A100050E0411B51094F5F5F4FE1E0F0E002C021
:102A2000EE0FFF1F1A95E2F73197042E01C0EE0F4B
:102A30000A94EAF701C0000F4A95EAF74E2F409535
:102A400089814823E0234E2B49836E2D8F2D0E94D0
:102A5000421301C080E00F90DF91CF911F910F9141
:102A6000FF90EF90DF90089520E731E0FC01318383
:102A70002083738362830895FC018281938108958A
:102A8000FC01848191E0982794830895CF93DF938C
:102A9000EC010E94341586E791E0998388831C82BB
:102AA000DF91CF91089528E6FC0120830895462FF9
:102AB00069E1FC0180810C9442130F93062F23E0FF
:102AC00045E06AE1FC0180810E94EE140F910895B7
:102AD0000F93062F23E042E06AE1FC0180810E940F
:102AE000EE140F9108950F93062F22E044E06BE15E
:102AF000FC0180810E94EE140F9108950F93062F20
:102B000022E044E06CE1FC0180810E94EE140F9110
:102B10000895462F6FE1FC0180810C944213462FEB
:102B200060E2FC0180810C944213462F61E2FC01BB
:102B300080810C944213462F62E2FC0180810C9448
:102B40004213643048F4262F220F260F2B5D622F8C
:102B5000FC0180810C9442130895462F68E3FC0128
:102B600080810C944213CF93DF93EC0120910601F6
:102B700030910701AC014F5F5F4F6AE388810E948B
:102B80004F148981DF91CF910895262F46E06AE6A0
:102B9000FC0180810C94BB14262F45E06AE6FC0101
:102BA00080810C94BB1421E042E06AE6FC01808144
:102BB0000C94BB1421E041E06AE6FC0180810C9496
:102BC000BB1421E047E06BE6FC0180810C94BB1450
:102BD000262F46E06BE6FC0180810C94BB140F931A
:102BE000062F23E042E06BE6FC0180810E94EE1498
:102BF0000F910895CF93DF93EC0161E00E94EF15F0
:102C000060E0CE010E94731560E0CE010E947E1547
:102C100060E0CE01DF91CF910C94E8150F931F93E4
:102C2000CF93DF93EC0100910601109107019C0105
:102C30002F5F3F4F42E062E788810E94A2138981A3
:102C400090E0982F88272A81822BDF91CF911F91C6
:102C50000F9108950F931F939B010091060110910E
:102C6000070164E7FC0180810E94A2131F910F916C
:102C70000895EF92FF920F931F93CF93DF93EC0190
:102C8000E0900601F09007018C010F5F1F4F26E0D6
:102C900046E065E788810E947E148981DF91CF91AB
:102CA0001F910F91FF90EF9008950E94391691E0C7
:102CB000843309F090E0892F08950F931F93CF93E9
:102CC000DF93EC0100910601109107019C012F5F39
:102CD0003F4F40E060E088810E9459148981DF9174
:102CE000CF911F910F910895262F40E060E0FC01E5
:102CF00080810C94BB14EF92FF920F931F93CF939C
:102D0000DF93EC01E0900601F09007018C010F5F6A
:102D10001F4F26E046E060E088810E947E14898192
:102D2000DF91CF911F910F91FF90EF9008950F9336
:102D3000062F26E046E060E0FC0180810E94EE1450
:102D40000F910895EF92FF920F931F93CF93DF930C
:102D5000EC01E0900601F09007018C010F5F1F4F1E
:102D600026E046E061E088810E947E148981DF913F
:102D7000CF911F910F91FF90EF9008950F93062F21
:102D800026E046E061E0FC0180810E94EE140F9194
:102D90000895EF92FF920F931F93CF93DF93EC016F
:102DA000E0900601F09007018C010F5F1F4F26E0B5
:102DB00046E062E088810E947E148981DF91CF9194
:102DC0001F910F91FF90EF9008950F93062F26E02B
:102DD00046E062E0FC0180810E94EE140F910895AC
:102DE000AB016AE0FC0180810C949013AB0163E1BC
:102DF000FC0180810C949013AB0165E1FC018081A2
:102E00000C949013AB0167E1FC0180810C9490134A
:102E1000262F47E06AE6FC0180810C94BB1421E078
:102E200043E06AE6FC0180810C94BB146F712111B0
:102E3000606241116064462F6DE6FC0180810C9454
:102E40004213462F6EE6FC0180810C944213CF930F
:102E5000DF93EC012091060130910701AC014F5F37
:102E60005F4F6FE688810E944F148981DF91CF9177
:102E700008955F926F927F928F929F92AF92BF92CE
:102E8000CF92DF92EF92FF920F931F93CF93DF9336
:102E90007C015B016A01622E702E20E040E0662D0D
:102EA0000E941617602FC7010E942117C0E0D0E0D2
:102EB000812C99249394CC15DD05A8F5CE0140967C
:102EC000C816D90618F45C2C5C1A02C0A0E15A2E70
:102ED000252D30E0C401871991098217930714F456
:102EE000572C5194009106011091070195012C0F68
:102EF0003D1F452D6FE6F70180810E94A213C50D8D
:102F0000D11D750CCC15DD05B0F6711001C06394B0
:102F100020E040E0662DC7010E941617672DC7010B
:102F20000E942117C8CFDF91CF911F910F91FF9081
:102F3000EF90DF90CF90BF90AF909F908F907F9059
:102F40006F905F9008952F923F924F925F926F9291
:102F50007F928F929F92AF92BF92CF92DF92EF9229
:102F6000FF920F931F93CF93DF9300D000D01F9257
:102F7000CDB7DEB79D838C837B836A834A01322E73
:102F8000D02EE98220E040E0632D0E941617602FCA
:102F90008C819D810E942117E980EE2029F080E13B
:102FA00090E00E94CB235C01CC2031F080E190E0E6
:102FB0000E94CB23582E492EE12CF12CE814F90461
:102FC00008F07AC0C70140968816990618F4282C94
:102FD0002E1802C010E1212E222D30E080E091E079
:102FE0008D1991098217930714F42D2C2194EA81ED
:102FF000FB81EE0DFF1DCC2059F0852DA52DB42DA4
:103000009A2F981B921530F494919D933196F8CF96
:103010005E2E4F2E252D342D422D6FE6AC81BD81C5
:103020008C910E940913622C712CB981BB2369F128
:10303000A114B10451F120E040E0632D8C819D8109
:103040000E9416176D2D8C819D810E942117009181
:103050000601109107019501422D6FE6EC81FD817B
:1030600080810E94A213A301B501852D942D0E9499
:10307000C125892B51F0C5010E946324CC2049F160
:10308000852D942D0E94632424C0E60CF71CD20CDD
:10309000E814F90408F092CFD11001C0339420E075
:1030A00040E0632D8C819D810E9416176D2D8C81CF
:1030B0009D810E94211782CFF981FF2319F0C5015C
:1030C0000E946324CC2039F0852D942D0E94632426
:1030D00002C080E001C081E00F900F900F900F9030
:1030E0000F90DF91CF911F910F91FF90EF90DF90A4
:1030F000CF90BF90AF909F908F907F906F905F9098
:103100004F903F902F900895CF92EF920F93CC2441
:10311000C3940E94A3170F91EF90CF9008952F9220
:103120003F924F925F926F927F928F929F92AF9257
:10313000BF92CF92DF92EF92FF920F931F93CF93A4
:10314000DF9300D01F92CDB7DEB74C017B836A833B
:103150003A01D22E222331F088E090E00E94CB2366
:10316000182FF92E212C312C2614370408F051C0C9
:10317000EA81FB81E20DF31DC10103965C01DD20B4
:10318000C1F04491F10131968A819B81E80FF91FCA
:103190000491F1013296E80FF91F5490511044C088
:1031A000F4E02F0E311CEA81FB81EA0DFB1D8491B6
:1031B0000DC0408101815280EA81FB81E80FF91F37
:1031C00051100DC084E0280E311C80818130D1F473
:1031D00042E368E3F40180810E944213C5CF1E2FB1
:1031E000FF2E452C512CC12CEE24E394242FA20158
:1031F000612F7F2DC4010E94A31712012A0C3B1CD2
:103200008111B2CFDD2061F0812F9F2D0E946324B8
:1032100007C0DD2039F0812F9F2D0E94632402C05A
:1032200080E024C081E022C0252C312CF2E0F5158D
:1032300048F4B101812F9F2D49830E94F224182F59
:10324000F92E4981812F9F2DA0E0B0E02A813B819A
:103250002A0D3B1DA215B30520F6F901EA0FFB1F4D
:103260005491FC015193CF011196F4CF0F900F9020
:103270000F90DF91CF911F910F91FF90EF90DF9012
:10328000CF90BF90AF909F908F907F906F905F9006
:103290004F903F902F90089521E00C948F18462F67
:1032A00060E7FC0180810C944213462F61E7FC012A
:1032B00080810C9442131F920F920FB60F9211242B
:1032C0002F933F938F939F93AF93BF938091AA02C5
:1032D0009091AB02A091AC02B091AD023091A902E5
:1032E00023E0230F2D3720F40196A11DB11D05C049
:1032F00026E8230F0296A11DB11D2093A9028093F9
:10330000AA029093AB02A093AC02B093AD0280915D
:10331000AE029091AF02A091B002B091B1020196BD
:10332000A11DB11D8093AE029093AF02A093B00295
:10333000B093B102BF91AF919F918F913F912F9127
:103340000F900FBE0F901F9018952FB7F8946091B3
:10335000AA027091AB028091AC029091AD022FBF96
:1033600008953FB7F8948091AE029091AF02A0917A
:10337000B002B091B10226B5A89B05C02F3F19F04D
:103380000196A11DB11D3FBF6627782F892F9A2F67
:10339000620F711D811D911D42E0660F771F881F0E
:1033A000991F4A95D1F708958F929F92AF92BF923D
:1033B000CF92DF92EF92FF926B017C010E94B119D4
:1033C0004B015C01C114D104E104F104F1F00E944D
:1033D000521F0E94B119681979098A099B09683E30
:1033E00073408105910570F321E0C21AD108E1080C
:1033F000F10888EE880E83E0981EA11CB11CC11450
:10340000D104E104F10429F7DDCFFF90EF90DF90C4
:10341000CF90BF90AF909F908F900895789484B58F
:10342000826084BD84B5816084BD85B5826085BDC0
:1034300085B5816085BDEEE6F0E0808181608083A6
:10344000E1E8F0E010828081826080838081816089
:103450008083E0E8F0E0808181608083E1EBF0E050
:10346000808184608083E0EBF0E0808181608083F4
:10347000EAE7F0E0808184608083808182608083DD
:103480008081816080838081806880831092C10008
:1034900008951F93CF93DF93182FEB0161E00E94F3
:1034A000D11A209711F460E004C0CF3FD10539F460
:1034B00061E0812FDF91CF911F910C940A1BE12FC6
:1034C000F0E0EF50F64FE491E330F9F048F4E130EA
:1034D000B9F0E230A1F584B5806284BDC8BD34C0C6
:1034E000E730E9F0E83019F1E43049F580918000E7
:1034F000806280938000D0938B00C0938A0024C0A8
:1035000084B5806884BDC7BD1FC08091800080687D
:1035100080938000D0938900C093880015C080916B
:10352000B00080688093B000C093B3000DC080915C
:10353000B00080628093B000C093B40005C0C03872
:10354000D1050CF0B5CFAFCFDF91CF911F9108958A
:10355000833081F028F4813099F08230A1F0089511
:103560008730A9F08830B9F08430D1F480918000A0
:103570008F7D03C0809180008F77809380000895B5
:1035800084B58F7702C084B58F7D84BD0895809106
:10359000B0008F7703C08091B0008F7D8093B00022
:1035A0000895CF93DF9390E0FC01EB5FF54F2491FA
:1035B000FC01E75EF54F8491882349F190E0880F84
:1035C000991FFC01EF5BF54FA591B491895C954F74
:1035D000FC01C591D4919FB7611108C0F8948C91FA
:1035E000209582238C93888182230AC0623051F413
:1035F000F8948C91322F309583238C938881822B81
:10360000888304C0F8948C91822B8C939FBFDF91A8
:10361000CF9108950F931F93CF93DF931F92CDB750
:10362000DEB7282F30E0F901EF50F64F8491F90111
:10363000EB5FF54F1491F901E75EF54F049100231C
:10364000C9F0882321F069830E94A81A6981E02FBC
:10365000F0E0EE0FFF1FE95CF54FA591B4919FB725
:10366000F8948C91611103C01095812301C0812BC6
:103670008C939FBF0F90DF91CF911F910F91089571
:103680000E94BC251F920F920FB60F9211242F9308
:103690008F939F93EF93FF93E091C202F091C30247
:1036A0008081E091C802F091C90282FD12C0908130
:1036B0008091CB028F5F8F732091CC02821751F0E3
:1036C000E091CB02F0E0EE54FD4F958F8093CB025A
:1036D00001C08081FF91EF919F918F912F910F9069
:1036E0000FBE0F901F9018951F920F920FB60F925A
:1036F00011242F933F934F935F936F937F938F93F7
:103700009F93AF93BF93EF93FF9382EB92E00E945E
:103710008E1FFF91EF91BF91AF919F918F917F91FC
:103720006F915F914F913F912F910F900FBE0F902E
:103730001F90189582EB92E00E94531F21E0892B85
:1037400009F420E0822F08951092B5021092B4027D
:1037500088EE93E0A0E0B0E08093B6029093B702C9
:10376000A093B802B093B9028DE891E09093B302B0
:103770008093B20285EC90E09093BF028093BE02EA
:1037800084EC90E09093C1028093C00280EC90E0C2
:103790009093C3028093C20281EC90E09093C502A3
:1037A0008093C40282EC90E09093C7028093C6029B
:1037B00086EC90E09093C9028093C8021092CB02ED
:1037C0001092CC021092CD021092CE02089508956C
:1037D0000E940E1A0E94E71B0E948F05C0E8DFE1DD
:1037E0000E94D8052097E1F30E94801FF9CF0C9426
:1037F000CB230C94CB23CF92DF92EF92FF920F93C7
:103800001F93CF93DF937C016A01EB0100E010E08E
:103810000C151D0571F06991D701ED91FC91019096
:10382000F081E02DC7010995892B19F00F5F1F4F1B
:10383000EFCFC801DF91CF911F910F91FF90EF90D3
:10384000DF90CF9008956115710581F0DB010D9037
:103850000020E9F7AD0141505109461B570BDC012F
:10386000ED91FC910280F381E02D099480E090E0DD
:103870000895EF92FF920F931F93CF93DF938C01E4
:103880007B01C0E0D0E0F701EC0FFD1F64916623DF
:1038900059F0F801A081B181ED91FC91C801099521
:1038A000892B11F02196EFCFCE01DF91CF911F919F
:1038B0000F91FF90EF9008950C94231CDC01ED9183
:1038C000FC910190F081E02D099468E771E00C947F
:1038D000231C0F931F93CF93DF93EC010E94391C9D
:1038E0008C01CE010E94651C800F911FDF91CF914A
:1038F0001F910F9108950F931F93CF93DF93EC01C6
:103900000E94231C8C01CE010E94651C800F911F18
:10391000DF91CF911F910F9108958F929F92AF9257
:10392000BF92DF92EF92FF920F931F93CF93DF939B
:10393000CDB7DEB7A1970FB6F894DEBF0FBECDBFEF
:103940007C01F42FD52ECB0119A2223008F42AE0F5
:103950008E010F5D1F4F822E912CA12CB12C6F2F49
:103960007D2DA50194010E945623F22FD32ECA016A
:10397000015011096A3014F4E0E301C0E7E3E60FF7
:10398000D801EC93232B242B252B49F7B801C70131
:103990000E94231CA1960FB6F894DEBF0FBECDBFC8
:1039A000DF91CF911F910F91FF90EF90DF90BF902B
:1039B000AF909F908F900895CF92DF92EF92FF92F9
:1039C0000F931F93CF93DF93EC016A017B012115C5
:1039D000310579F4E881F9810190F081E02D642FBF
:1039E000DF91CF911F910F91FF90EF90DF90CF90DB
:1039F00009942A303105E9F477FF1AC06DE20E947C
:103A00005E1C8C0144275527BA014C195D096E09CB
:103A10007F092AE0CE010E948D1C800F911FDF914B
:103A2000CF911F910F91FF90EF90DF90CF9008956D
:103A30002AE0B701A601CE01DF91CF911F910F912E
:103A4000FF90EF90DF90CF900C948D1C0F931F93FD
:103A5000CF93DF93EC010E94DC1C8C01CE010E940D
:103A6000651C800F911FDF91CF911F910F910895D9
:103A70002115310541F4DC01ED91FC910190F081BB
:103A8000E02D642F09940C948D1C9A01462F50E070
:103A900060E070E00C94381D0F931F93CF93DF9379
:103AA000EC019A01AB0160E070E00E94381D8C01CE
:103AB000CE010E94651C800F911FDF91CF911F9155
:103AC0000F9108950F931F93CF93DF93EC010E9402
:103AD000381D8C01CE010E94651C800F911FDF9163
:103AE000CF911F910F9108954F925F926F927F92A5
:103AF0008F929F92AF92BF92CF92DF92EF92FF92FE
:103B00000F931F93CF93DF93EC016A017B01B22ED9
:103B10009A01AB01C701B6010E943E23882319F028
:103B20006BE771E027C026013701E89477F82FEFA3
:103B30003FEF4FE75FE7C301B2010E943E238111CF
:103B40000DC02FEF3FEF4FE75FE7C301B2010E94C7
:103B5000FD2018161CF46FE771E00CC02FEF3FEF4B
:103B60004FE75FE4C701B6010E94CD221816ACF4FE
:103B700063E871E0CE01DF91CF911F910F91FF902B
:103B8000EF90DF90CF90BF90AF909F908F907F90FD
:103B90006F905F904F900C94231C2FEF3FEF4FE7F7
:103BA0005FECC701B6010E94FD2087FDE1CF20E058
:103BB00030E0A901C701B6010E94FD2087FF0AC0BD
:103BC0006DE2CE010E945E1C8C01F7FAF094F7F8CA
:103BD000F09402C000E010E0A12C60E070E080E012
:103BE0009FE3AB1441F020E030E040E251E40E945A
:103BF0000121A394F6CF9B01AC01C701B6010E943D
:103C000037206B017C010E946E212B013C010E9438
:103C10009A219B01AC01C701B6010E9436206B01BD
:103C20007C012AE0B301A201CE010E948D1C080F85
:103C3000191FBB2039F067E871E0CE010E94231CF8
:103C4000080F191F7B2C772041F120E030E040E283
:103C500051E4C701B6010E94D8226B017C010E9489
:103C600069214B01AA2497FCA094BA2C2AE030E0E9
:103C7000B501A401CE010E94DC1C080F191FC5016B
:103C8000B4010E949C219B01AC01C701B6010E94B6
:103C900036206B017C017A94D6CFC801DF91CF9199
:103CA0001F910F91FF90EF90DF90CF90BF90AF905A
:103CB0009F908F907F906F905F904F9008950F939B
:103CC0001F93CF93DF93EC010E94741D8C01CE01F2
:103CD0000E94651C800F911FDF91CF911F910F9162
:103CE00008950F931F93CF93DF93EC010E94A519C2
:103CF000688779878A879B87E881F9810084F185C5
:103D0000E02DCE01099597FF15C00E94A5190885E1
:103D100019852A853B85601B710B820B930B0C81E7
:103D20001D812E813F81601771078207930720F361
:103D30008FEF9FEFDF91CF911F910F910895FF9229
:103D40000F931F93CF93DF93EC018B01F42ECE01E1
:103D50000E94711E9C0197FD28C08D32910519F1BA
:103D6000C0970A9710F1FF2019F02E323105F9F0B3
:103D700001301105F9F00230110569F42D303105DB
:103D800051F034F4295031092230310520F012C0AD
:103D90002032310579F4E881F9810680F781E02D40
:103DA000CE010995D4CF8DE203C0C90105C08EE2D2
:103DB00090E002C08FEF9FEFDF91CF911F910F91A5
:103DC000FF900895CF92DF92FF920F931F93CF93AE
:103DD000DF9300D000D0CDB7DEB76C01042F40E0F8
:103DE0000E949F1EFC0197FD4BC020E030E0A9011E
:103DF000F12C112707FD1095E017F107E9F0ED32DE
:103E0000F105C1F0CF01C0970A97B0F4AAE0B0E085
:103E10000E9497239B01AC01CF01AA2797FDA09593
:103E2000BA2F280F391F4A1F5B1F20533109410940
:103E3000510902C0FF24F394D601ED91FC91068054
:103E4000F781E02DC60129833A834B835C83099572
:103E5000C6010E94711EFC01C09729813A814B81E5
:103E60005C810A9748F2E017F10731F2FF2061F018
:103E700066277727CB01621B730B840B950B06C05B
:103E800060E070E0CB0102C0CA01B9010F900F9051
:103E90000F900F90DF91CF911F910F91FF90DF90C6
:103EA000CF9008950895FC01818D228D90E0805C73
:103EB0009F4F821B91098F7399270895FC01918D63
:103EC000828D981731F0828DE80FF11D858D90E07D
:103ED00008958FEF9FEF0895FC01918D828D9817C3
:103EE00061F0828DDF01A80FB11D5D968C91928DDE
:103EF0009F5F9F73928F90E008958FEF9FEF0895DB
:103F00008AE99BE1892B49F080E090E0892B29F038
:103F10000E949A1B81110C9400000895FC01848D6D
:103F2000DF01A80FB11DA35ABF4F2C91848D90E0E3
:103F300001968F739927848FA689B7892C93A089BE
:103F4000B1898C9180648C93938D848D981306C075
:103F50000288F389E02D80818F7D80830895CF933F
:103F6000DF93EC01888D8823C9F0EA89FB89808181
:103F700085FD05C0A889B9898C9186FD0FC00FB653
:103F800007FCF5CF808185FFF2CFA889B9898C9194
:103F900085FFEDCFCE010E948E1FE7CFDF91CF913D
:103FA0000895CF92DF92FF920F931F93CF93DF93E9
:103FB0001F92CDB7DEB76C0181E0D60158968C9385
:103FC00058975B969C915B975C968C915C97981345
:103FD00007C05096ED91FC915197808185FD2EC0D0
:103FE000F601038D10E00F5F1F4F0F731127F02EA6
:103FF000F601848DF81211C00FB607FCF9CFD60177
:104000005096ED91FC915197808185FFF1CFC601CB
:1040100069830E948E1F6981EBCF838DE80FF11DAC
:10402000E35AFF4F6083D6015B960C935B975296E1
:10403000ED91FC915397808180620CC0D601569619
:10404000ED91FC91579760835096ED91FC915197BB
:1040500080818064808381E090E00F90DF91CF9138
:104060001F910F91FF90DF90CF9008955058BB277C
:10407000AA270ED058C249D230F04ED220F031F4E7
:104080009F3F11F41EF419C20EF4E095E7FB01C244
:10409000E92F5AD280F3BA1762077307840795078E
:1040A00018F071F49EF572C20EF4E0950B2EBA2F43
:1040B000A02D0B01B90190010C01CA01A00111242E
:1040C000FF27591B99F0593F50F4503E68F11A16DA
:1040D000F040A22F232F342F4427585FF3CF46956B
:1040E00037952795A795F0405395C9F77EF41F168D
:1040F000BA0B620B730B840BBAF09150A1F0FF0F57
:10410000BB1F661F771F881FC2F70EC0BA0F621F42
:10411000731F841F48F4879577956795B795F79532
:104120009E3F08F0B3CF9395880F08F09927EE0FC4
:10413000979587950895E9D158F080E891E009F4C2
:104140009EEFEAD128F040E851E059F45EEF09C053
:10415000B4C11CC2E92FE078F7D168F3092E052A13
:10416000C1F3261737074807590738F00E2E07F80E
:10417000E02569F0E025E0640AC0EF6307F80094E9
:1041800007FADB01B9019D01DC01CA01AD01EF9322
:1041900047D0C9D10AD05F91552331F02BED3FE0D4
:1041A00049E450FD49EC63CF0895DF93DD27B92F33
:1041B000BF7740E85FE31616170648075B0710F461
:1041C000D92FEFD19F938F937F936F9354D2E8E6CB
:1041D000F0E076D1A8D12F913F914F915F91F4D12A
:1041E000DD2349F09058A2EA2AED3FE049EC5FE375
:1041F000D0785D274DDFDF9196C127D108F481E0AB
:1042000008950CD090C188D140F07FD130F021F4D6
:104210005F3F19F03EC15111BAC14FC195D198F31A
:104220009923C9F35523B1F3951B550BBB27AA2737
:1042300062177307840738F09F5F5F4F220F331FA9
:10424000441FAA1FA9F333D00E2E3AF0E0E830D075
:1042500091505040E695001CCAF729D0FE2F27D078
:10426000660F771F881FBB1F261737074807AB0746
:10427000B0E809F0BB0B802DBF01FF2793585F4FBB
:104280002AF09E3F510568F004C181C15F3FECF305
:10429000983EDCF3869577956795B795F7959F5F80
:1042A000C9F7880F911D9695879597F90895E1E0D4
:1042B000660F771F881FBB1F621773078407BA0733
:1042C00020F0621B730B840BBA0BEE1F88F7E0958E
:1042D000089504D06894B1115AC108953DD188F071
:1042E0009F5790F0B92F9927B751A0F0D1F0660FE2
:1042F000771F881F991F1AF0BA95C9F712C0B130FD
:1043000081F044D1B1E0089541C1672F782F88270B
:10431000B85F39F0B93FCCF3869577956795B3953B
:10432000D9F73EF490958095709561957F4F8F4FAA
:104330009F4F0895E89409C097FB3EF490958095AF
:10434000709561957F4F8F4F9F4F9923A9F0F92F5B
:1043500096E9BB279395F695879577956795B795D9
:10436000F111F8CFFAF4BB0F11F460FF1BC06F5FBF
:104370007F4F8F4F9F4F16C0882311F096E911C0D1
:10438000772321F09EE8872F762F05C0662371F0F2
:1043900096E8862F70E060E02AF09A95660F771F06
:1043A000881FDAF7880F9695879597F90895ADD00D
:1043B00018F011F0B1D038F480C0E9C0E92FC4D0B2
:1043C000B0F35523C9F3E7FB62177307840795071A
:1043D000A8F199F3E92FFF2788232AF03197660F78
:1043E000771F881FDAF7952F5527442332F0915015
:1043F0005040220F331F441FD2F7BB27E91BF50B98
:10440000621B730B840BB109C1F222F4620F731F9C
:10441000841FB11D31972AF0660F771F881FBB1FBD
:10442000EFCF915050405AF041F0882332F0660FA0
:10443000771F881F91505040C1F7939530C08695E3
:10444000779567959F5FD9F7F8CF990F0008550FBB
:10445000AA0BE0E8FEEF16161706E807F907C0F00A
:1044600012161306E407F50798F0621B730B840B12
:10447000950B39F40A2661F0232B242B252B21F4EC
:1044800008950A2609F4A140A6958FEF811D811D8C
:10449000089597F99F6780E870E060E008959F3F76
:1044A00031F0915020F4879577956795B795880FEF
:1044B000911D9695879597F908959FEF80EC089543
:1044C000DF93CF931F930F93FF92EF92DF927B01C5
:1044D0008C01689405C0DA2EEF0176D0FE01E894D5
:1044E000A5912591359145915591AEF3EF01D0DD20
:1044F000FE019701A801DA9479F7DF90EF90FF9021
:104500000F911F91CF91DF91089500240A94161600
:10451000170618060906089500240A9412161306B1
:10452000140605060895092E0394000C11F488233F
:1045300052F0BB0F40F4BF2B11F460FF04C06F5F5B
:104540007F4F8F4F9F4F089557FD9058440F551F31
:1045500059F05F3F71F04795880F97FB991F61F005
:104560009F3F79F087950895121613061406551F7C
:10457000F2CF4695F1DF08C0161617061806991FE8
:10458000F1CF86957105610508940895E894BB27DD
:1045900066277727CB0197F9089557DF08F48FEF47
:1045A00008959B01AC0160E070E080E89FE329CEB4
:1045B0000BD0B9CFAADF28F0AFDF18F0952309F0B0
:1045C00068CF7BCF1124E3CFBFDFA0F3959FD1F35A
:1045D000950F50E0551F629FF001729FBB27F00DB1
:1045E000B11D639FAA27F00DB11DAA1F649F662706
:1045F000B00DA11D661F829F2227B00DA11D621F55
:10460000739FB00DA11D621F839FA00D611D221F0E
:10461000749F3327A00D611D231F849F600D211DF2
:10462000822F762F6A2F11249F5750408AF0E1F095
:1046300088234AF0EE0FFF1FBB1F661F771F881FDE
:1046400091505040A9F79E3F510570F022CF9FCF67
:104650005F3FECF3983EDCF3869577956795B795C9
:10466000F795E7959F5FC1F7FE2B880F911D9695F3
:10467000879597F908959B01AC019ACFE6DE880BE8
:10468000990B089597FB072E16F4009407D077FD39
:1046900009D00E94A22307FC05D03EF49095819595
:1046A0009F4F0895709561957F4F0895A1E21A2E4E
:1046B000AA1BBB1BFD010DC0AA1FBB1FEE1FFF1FC6
:1046C000A217B307E407F50720F0A21BB30BE40B16
:1046D000F50B661F771F881F991F1A9469F760955D
:1046E0007095809590959B01AC01BD01CF01089517
:1046F000052E97FB1EF400940E948F2357FD07D0D0
:104700000E94562307FC03D04EF40C948F2350953F
:104710004095309521953F4F4F4F5F4F08959095AD
:104720008095709561957F4F8F4F9F4F08950E94A0
:10473000BC23A59F900DB49F900DA49F800D911D4B
:1047400011240895AA1BBB1B51E107C0AA1FBB1F60
:10475000A617B70710F0A61BB70B881F991F5A950D
:10476000A9F780959095BC01CD010895EE0FFF1F2C
:104770000590F491E02D0994A29FB001B39FC00170
:10478000A39F700D811D1124911DB29F700D811D7D
:104790001124911D0895CF93DF938230910510F479
:1047A00082E090E0E0915103F091520320E030E08C
:1047B000A0E0B0E0309739F14081518148175907A6
:1047C000B8F04817590771F482819381109729F046
:1047D00013969C938E9312972CC0909352038093C0
:1047E000510327C02115310531F04217530718F046
:1047F000A901DB0101C0EF019A01BD01DF010280C7
:10480000F381E02DD7CF21153105F9F0281B390BA5
:104810002430310580F48A819B816115710521F076
:10482000FB019383828304C09093520380935103CE
:10483000FE01329644C0FE01E20FF31F8193919373
:1048400022503109398328833AC020914F03309197
:104850005003232B41F42091020130910301309346
:10486000500320934F032091000130910101211545
:10487000310541F42DB73EB7409104015091050137
:10488000241B350BE0914F03F0915003E217F3071F
:10489000A0F42E1B3F0B2817390778F0AC014E5FB0
:1048A0005F4F2417350748F04E0F5F1F509350039A
:1048B00040934F038193919302C0E0E0F0E0CF0179
:1048C000DF91CF910895CF93DF93009709F487C0CC
:1048D000FC01329713821282C0915103D09152038E
:1048E000209781F420813181280F391F80914F0357
:1048F000909150038217930779F5F0935003E0935A
:104900004F036DC0DE0120E030E0AE17BF0750F46A
:1049100012964D915C9113979D014115510509F136
:10492000DA01F3CFB383A28340815181840F951FB5
:104930008A179B0771F48D919C911197840F951F95
:1049400002969183808312968D919C911397938305
:1049500082832115310529F4F0935203E09351032A
:104960003EC0D9011396FC93EE9312974D915D9141
:10497000A40FB51FEA17FB0779F480819181840F9A
:10498000951F0296D90111969C938E9382819381F3
:1049900013969C938E931297E0E0F0E08A819B81BE
:1049A000009719F0FE01EC01F9CFCE0102962881A3
:1049B0003981820F931F20914F03309150032817A4
:1049C000390769F4309729F4109252031092510379
:1049D00002C013821282D0935003C0934F03DF9121
:1049E000CF910895A0E0B0E0E8EFF4E20C94DB256D
:1049F000EC01CB01209719F40E94CB23B8C0FE0133
:104A0000E60FF71F9E0122503109E217F30708F461
:104A1000ACC0D9010D911C91119706171707B8F07A
:104A20000530110508F49FC0A801445051094617EC
:104A3000570708F498C002501109061B170B019381
:104A400011936D937C93CF010E9463248CC05B0112
:104A5000A01AB10A4E01800E911EA0915103B0918F
:104A60005203612C712C60E070E0109709F449C08A
:104A7000A815B905C9F5ED90FC901197670142E0C2
:104A8000C40ED11CCA14DB0478F147018A189B08B4
:104A9000640142E0C40ED11C1296BC90129713968A
:104AA000AC91B5E0CB16D10440F0B282A3839182E1
:104AB0008082D9018D939C9309C00E5F1F4F0E0D0C
:104AC0001F1DF90111830083EB2DFA2F611571056C
:104AD00031F0DB011396FC93EE93129744C0F093F0
:104AE0005203E09351033FC06D917C91119766167C
:104AF000770608F43B01BD0112960D90BC91A02DE4
:104B0000B4CF60914F037091500368157905E9F4B3
:104B100068167906D0F440910001509101014115C9
:104B2000510541F44DB75EB76091040170910501E4
:104B3000461B570BE417F507C0F4F0935003E093BE
:104B40004F03F901918380830EC00E94CB237C0127
:104B5000009759F0A801BE010E94CE25CE010E9407
:104B60006324C70104C0CE0102C080E090E0CDB74D
:104B7000DEB7EEE00C94F72581E090E0F8940C9419
:104B80000E26FB01DC0104C08D910190801921F4F7
:104B900041505040C8F7881B990B0895FB01DC0178
:104BA00002C001900D9241505040D8F708952F92C5
:104BB0003F924F925F926F927F928F929F92AF92AD
:104BC000BF92CF92DF92EF92FF920F931F93CF93FA
:104BD000DF93CDB7DEB7CA1BDB0B0FB6F894DEBF91
:104BE0000FBECDBF09942A88398848885F846E84B7
:104BF0007D848C849B84AA84B984C884DF80EE8001
:104C0000FD800C811B81AA81B981CE0FD11D0FB609
:104C1000F894DEBF0FBECDBFED010895F894FFCF2D
:104C2000000053038000E8030A67696D6D65206129
:104C3000206465677265653A20000A09636F6D70CC
:104C40006173733A2000000000008305FB1B5305CD
:104C50005F056B05770500000000C60699066E0625
:104C600076068906980600000000CB09FB1B360A71
:104C7000AA091E0A1D0A7061636B65742073697A44
:104C8000653A2000000000004E0C170C00000000E8
:104C9000401B0000000040150D0A006E616E0069A7
:104CA0006E66006F7666002E0000000000D11FFBCC
:0A4CB0001B531F6C1F5E1FAF1F0097
:00000001FF
