:100000000C945D000C9485000C9485000C94CD0339
:100010000C94A2030C9473030C9485000C9485003B
:100020000C9485000C9485000C9485000C9485003C
:100030000C9485000C9485000C9485000C9485002C
:100040000C9429030C9485000C94F7020C94D102B3
:100050000C9485000C9485000C9485000C9485000C
:100060000C9485000C9485000000000024002700FB
:100070002A0000000000250028002B0004040404CE
:100080000404040402020202020203030303030342
:10009000010204081020408001020408102001021F
:1000A00004081020000000080002010000030407FB
:1000B0000000000000000000F80311241FBECFEF75
:1000C000D8E0DEBFCDBF12E0A0E0B1E0ECEAF2E1A3
:1000D00002C005900D92A630B107D9F723E0A6E043
:1000E000B2E001C01D92AE30B207E1F710E0CDE5FD
:1000F000D0E004C02197FE010E94FA07CC35D10759
:10010000C9F70E9437040C9454090C940000E5E2EE
:10011000F2E0A089B18982E08C93A485B5851C9218
:10012000A685B7858FEC8C93108EA489B58986E05F
:100130008C93A289B3898C9180618C93A289B389B5
:100140008C9188608C93A289B3898C9180688C9300
:100150000288F389E02D80818F7D80830895CF927E
:10016000DF92EF92FF920F931F93CF93DF936C0177
:100170007A018B01C0E0D0E0CE15DF0589F0D8010F
:100180006D918D01D601ED91FC910190F081E02DF2
:10019000C6010995892B11F47E0102C02196ECCF8E
:1001A000C701DF91CF911F910F91FF90EF90DF90EA
:1001B000CF900895FC01918D828D981761F0828D0A
:1001C000DF01A80FB11D5D968C91928D9F5F9F738B
:1001D000928F90E008958FEF9FEF0895FC01918D2D
:1001E000828D981731F0828DE80FF11D858D90E09A
:1001F00008958FEF9FEF0895FC01918D228D892F37
:1002000090E0805C9F4F821B91098F73992708951E
:1002100085E292E00E94FC0021E0892B09F420E0B5
:10022000822F0895FC01848DDF01A80FB11DA35A10
:10023000BF4F2C91848D90E001968F739927848F06
:10024000A689B7892C93A089B1898C9180648C93FD
:10025000938D848D981306C00288F389E02D8081E8
:100260008F7D80830895EF92FF920F931F93CF931A
:10027000DF93EC0181E0888F9B8D8C8D981305C0F6
:10028000E889F989808185FD24C0F62E0B8D10E068
:100290000F5F1F4F0F731127E02E8C8DE8120CC0DB
:1002A0000FB607FCFACFE889F989808185FFF5CF81
:1002B000CE010E941201F1CF8B8DFE01E80FF11DDE
:1002C000E35AFF4FF0820B8FEA89FB8980818062BD
:1002D00007C0EE89FF896083E889F989808180649D
:1002E000808381E090E0DF91CF911F910F91FF908B
:1002F000EF900895CF93DF93EC01888D8823C9F0A8
:10030000EA89FB89808185FD05C0A889B9898C911E
:1003100086FD0FC00FB607FCF5CF808185FFF2CFB9
:10032000A889B9898C9185FFEDCFCE010E94120179
:10033000E7CFDF91CF91089580E090E0892B29F0FD
:100340000E94080181110C94000008953FB7F894B1
:1003500080910B0290910C02A0910D02B0910E02BF
:1003600026B5A89B05C02F3F19F00196A11DB11D10
:100370003FBFBA2FA92F982F8827820F911DA11D4B
:10038000B11DBC01CD0142E0660F771F881F991F88
:100390004A95D1F708958F929F92AF92BF92CF92D4
:1003A000DF92EF92FF926B017C010E94A6014B014C
:1003B0005C01C114D104E104F104F1F00E94A60132
:1003C000DC01CB0188199909AA09BB09883E934031
:1003D000A105B10570F321E0C21AD108E108F108C6
:1003E00088EE880E83E0981EA11CB11CC114D104B4
:1003F000E104F10419F7DDCFFF90EF90DF90CF908B
:10040000BF90AF909F908F9008952FB7F894609110
:100410000702709108028091090290910A022FBF91
:100420000895EF92FF921F93CF93DF93EC01188111
:10043000162768837C0180E1E80EF11C112399F0F6
:10044000CE15DF0581F010FF0BC089819A810097DE
:1004500039F0DC01ED91FC910190F081E02D0995DE
:1004600016952296EBCFDF91CF911F91FF90EF90E1
:100470000895FC01238134812F5F3F4F3483238310
:1004800008956115710579F0FB0101900020E9F7ED
:100490003197AF01461B570BDC01ED91FC910280B7
:1004A000F381E02D099480E090E008954F925F92EF
:1004B0006F927F92EF92FF920F931F93CF93DF93F0
:1004C000CDB7DEB7A1970FB6F894DEBF0FBECDBF94
:1004D0007C01FA01CB0119A2223008F42AE08E0136
:1004E0000F5D1F4F422E512C612C712CBF01A301B7
:1004F00092010E943209F901CA01015011096A30C2
:1005000014F4605D01C0695CD8016C93232B242B2B
:10051000252B61F7B801C7010E944102A1960FB6D1
:10052000F894DEBF0FBECDBFDF91CF911F910F9129
:10053000FF90EF907F906F905F904F9008950F9392
:100540001F93CF93DF93EC010E9441028C016FE374
:1005500071E0CE010E944102800F911FDF91CF9187
:100560001F910F9108950C944102CF93DF93EC01FA
:100570006CE171E085E292E00E94B3024A8150E0B2
:1005800060E070E02AE085E292E00E9456026FE3AC
:1005900071E085E292E0DF91CF910C9441020E94DC
:1005A0002D091F920F920FB60F9211242F933F9394
:1005B0004F935F936F937F938F939F93AF93BF936B
:1005C000EF93FF9385E292E00E941201FF91EF9179
:1005D000BF91AF919F918F917F916F915F914F915B
:1005E0003F912F910F900FBE0F901F9018951F9263
:1005F0000F920FB60F9211242F938F939F93EF9327
:10060000FF93E0913502F09136028081E0913B0248
:10061000F0913C0282FD12C0908180913E028F5F7A
:100620008F7320913F02821751F0E0913E02F0E07B
:10063000EB5DFD4F958F80933E0201C08081FF915D
:10064000EF919F918F912F910F900FBE0F901F9060
:1006500018951F920F920FB60F9211242F933F936C
:100660008F939F93AF93BF9380910702909108025D
:10067000A0910902B0910A023091060223E0230FF3
:100680002D3720F40196A11DB11D05C026E8230FCA
:100690000296A11DB11D209306028093070290933C
:1006A0000802A0930902B0930A0280910B02909174
:1006B0000C02A0910D02B0910E020196A11DB11D78
:1006C00080930B0290930C02A0930D02B0930E0244
:1006D000BF91AF919F918F913F912F910F900FBE3E
:1006E0000F901F9018951F920F920FB60F92112422
:1006F0002F933F934F935F936F937F938F939F932A
:10070000AF93BF93EF93FF9380910F0290911002EC
:10071000892B39F069B180911302909114020E94E3
:100720001102FF91EF91BF91AF919F918F917F91B6
:100730006F915F914F913F912F910F900FBE0F904E
:100740001F9018951F920F920FB60F9211242F939E
:100750003F934F935F936F937F938F939F93AF9349
:10076000BF93EF93FF938091110290911202009733
:1007700019F066B10E941102FF91EF91BF91AF9104
:100780009F918F917F916F915F914F913F912F91A9
:100790000F900FBE0F901F9018951F920F920FB6DB
:1007A0000F9211242F933F934F935F936F937F93F7
:1007B0008F939F93AF93BF93EF93FF9380910F021B
:1007C00090911002009719F063B10E941102FF91FD
:1007D000EF91BF91AF919F918F917F916F915F91B9
:1007E0004F913F912F910F900FBE0F901F90189532
:1007F000E5E2F2E01382128288EE93E0A0E0B0E03E
:1008000084839583A683B78380E191E0918380837D
:1008100085EC90E09587848784EC90E097878687C5
:1008200080EC90E0918B808B81EC90E0938B828BBD
:1008300082EC90E0958B848B86EC90E0978B868B96
:10084000118E128E138E148EE2ECF2E01682178255
:1008500010861186128613861486158616861786CC
:10086000108A118A128A138A148A158A0895CF93DE
:10087000DF93CDB7DEB72F970FB6F894DEBF0FBE6C
:10088000CDBF789484B5826084BD84B5816084BD19
:1008900085B5826085BD85B5816085BD80916E001E
:1008A000816080936E00109281008091810082604F
:1008B000809381008091810081608093810080918C
:1008C00080008160809380008091B100846080937B
:1008D000B1008091B00081608093B00080917A0077
:1008E000846080937A0080917A00826080937A009D
:1008F00080917A00816080937A0080917A0080688C
:1009000080937A001092C1001092060310920703A0
:1009100010920803109209031092C4021092C502AB
:100920001092C6021092C70260ED77E080E090E07E
:100930000E94CB0185E292E090930503809304032B
:100940000E9487000E9405026093C4027093C50252
:100950008093C6029093C70260E371E08091040324
:10096000909105030E94B3026AE070E080E090E09D
:100970000E94CB0181E08093D8020E94870062E44C
:1009800071E085E292E00E949F02B4EF2B2E3324A7
:100990003394412C512C812C912C540183940AE0E6
:1009A00011E00E940502672B682B692B41F40E941D
:1009B0000502623071058105910508F405C10E94A8
:1009C0000502609321027093220280932302909388
:1009D0002402C0901D02D0901E02E0901F02F090F1
:1009E00020026C157D058E059F0540F460931D0265
:1009F00070931E0280931F0290932002C0901D02EC
:100A0000D0901E02E0901F02F09020029B01AC01EA
:100A10002C193D094E095F0969017A013AEFC316A5
:100A2000D104E104F10408F4CFC060931D02709377
:100A30001E0280931F02909320022092D0023092D7
:100A4000D1024092D2025092D3021092D40210925C
:100A5000D5021092D6021092D7028091C8029091CE
:100A6000C902A091CA02B091CB028093CC029093AC
:100A7000CD02A093CE02B093CF020E9405026093F4
:100A8000C8027093C9028093CA029093CB020E945D
:100A900005026093C4027093C5028093C6029093CE
:100AA000C7020E9405026B017C016CE671E0809137
:100AB0000403909105030E94B3022AE041E050E054
:100AC00060E070E080910403909105030E9456025B
:100AD00063E771E080910403909105030E94B302E3
:100AE0002AE0B701A60180910403909105030E94BA
:100AF000560265E771E080910403909105030E941E
:100B0000B3028091C8029091C902A091CA02B0912B
:100B1000CB02B701A601481B590B6A0B7B0B2AE0DD
:100B200080910403909105030E94560265E771E0ED
:100B300080910403909105030E94B3024091C80282
:100B40005091C9026091CA027091CB028091CC028F
:100B50009091CD02A091CE02B091CF02481B590BCB
:100B60006A0B7B0B2AE080910403909105030E949D
:100B7000560267E771E080910403909105030E949B
:100B8000B3020E940502AB01BC012AE0809104037C
:100B9000909105030E94560269E771E08091040379
:100BA000909105030E949F0265E070E080E090E074
:100BB0000E94CB010E9405026093C8027093C90293
:100BC0008093CA029093CB0268EE73E080E090E0DD
:100BD0000E94CB0160E871E085E292E00E949F02F2
:100BE00085E090E00E940008FC0140E1428311830F
:100BF000008314821382909316028093150285E07D
:100C000090E00E940008FC0181E18283118300834F
:100C100014821382F0931802E093170285E090E0AB
:100C20000E940008FC0184E0828311830083148207
:100C30001382F0931A02E093190285E090E00E947B
:100C40000008FC018CE082831183008314821382EC
:100C5000F0931C02E0931B02A5E1CA2EA2E0DA2E5B
:100C60003601D301ED90FD903D0160E971E085E230
:100C700092E00E949F02C7010E94B502F7018281A3
:100C8000883028F021E08E3018F420E001C022E006
:100C9000822F90E0880F991FAC01415F5D4FFA01F0
:100CA000A081B181109751F581E190E02B874E87AB
:100CB0005F870E940008DC01FC0131E111923A9546
:100CC000E9F7FC01119230E111923A95E9F74E856E
:100CD0005F85FA01918380832B85B501A40104C04F
:100CE000440F551F661F771F2A95D2F78BB3842BAD
:100CF0008BBB80916800482B40936800F7012281EC
:100D0000283038F02E3010F488EF01C082EF820FC7
:100D100001C0822F482F50E05A874987B501A401AE
:100D200004C0440F551F661F771F8A95D2F74D8365
:100D30005E836F837887283038F02E3040F026317C
:100D400048F4ECE6F0E008C0EDE6F0E005C0EBE6C4
:100D5000F0E002C0E0E0F0E080815D81852B8083DF
:100D600030E0B90160577F4F7A836983FB0164915A
:100D7000A90144585F4F5C834B83FA01449144239B
:100D8000E1F050E0440F551FFA01E859FF4F8591FB
:100D900094919D878C87FA01EE58FF4F859194912D
:100DA0005FB7F894EC85FD854081609546234083CC
:100DB000FC014081642360835FBFF901EC55FF4F64
:100DC0002491E981FA818491EB81FC813491332370
:100DD000C1F1222339F1233091F038F42130A9F008
:100DE000223001F594B59F7D12C0273091F0283054
:100DF000A1F02430B9F4909180009F7D03C09091C0
:100E000080009F77909380000DC094B59F7794BD2C
:100E100009C09091B0009F7703C09091B0009F7D72
:100E20009093B000E32FF0E0EE0FFF1FEE58FF4F5E
:100E3000459154919FB7F894FA012081822B8083C9
:100E40009FBF8C91FD818F2B8C9389859A85880F0C
:100E5000991FA80FB91F1296FC92EE9211972DE1DF
:100E6000621622E0720609F0FCCE65EA71E085E2C6
:100E700092E00E949F025AE0F52E6FE371E085E256
:100E800092E00E94410245E1642E42E0742ED301BB
:100E9000ED91FD913D014381548160E070E02AE0D5
:100EA00085E292E00E9456026FEB71E085E292E0EB
:100EB0000E94B302BDE16B16B2E07B0641F76FE31F
:100EC00071E085E292E00E94410268EE73E080E00A
:100ED00090E00E94CB01FA94F110CFCF61EC71E069
:100EE00085E292E00E949F02F601619071906F018D
:100EF00065ED71E085E292E00E949F02C3010E94CD
:100F0000B502D30112962C91283028F081E02E30C2
:100F100018F480E001C082E0E82EF12CEE0CFF1CFA
:100F2000F701E15FFD4F80819181009709F450C086
:100F3000283038F02E3010F438EF01C032EF320F85
:100F400001C0322FE32FF0E0B501A40104C0440F2B
:100F5000551F661F771F3A95D2F7283038F02E308C
:100F600040F0263148F4ACE6B0E008C0ADE6B0E0B1
:100F700005C0ABE6B0E002C0A0E0B0E03C9121E0EB
:100F8000411120E023232C93EE0FFF1FE80FF91FE0
:100F900012821182AC014F5E5F4F9C012F5F3F4F69
:100FA000F9012417350739F02E5F3F4F60817181B9
:100FB000672BB1F30DC02BB31BBA209168001092C0
:100FC00068000E949508F701E15FFD4F11821082D1
:100FD000C3010E949508BDE1CB16B2E0DB0609F023
:100FE00083CF68EE71E085E292E00E949F020E944A
:100FF0009C01D7CCEE0FFF1F0590F491E02D0994D2
:10100000CF93DF938230910510F482E090E0E0917D
:101010000C03F0910D0320E030E0C0E0D0E0309709
:1010200011F14081518148175907C0F048175907FD
:1010300061F482819381209719F09B838A832BC06E
:1010400090930D0380930C0326C02115310519F0F0
:101050004217530718F49A01BE01DF01EF01028025
:10106000F381E02DDCCF2115310509F1281B390B67
:101070002430310590F412968D919C91139761154F
:10108000710521F0FB019383828304C090930D03CB
:1010900080930C03FD01329644C0FD01E20FF31F63
:1010A00081939193225031092D933C933AC0209122
:1010B0000A0330910B03232B41F42091020130915C
:1010C000030130930B0320930A0320910001309118
:1010D00001012115310541F42DB73EB740910401BE
:1010E00050910501241B350BE0910A03F0910B038D
:1010F000E217F307A0F42E1B3F0B2817390778F0EF
:10110000AC014E5F5F4F2417350748F04E0F5F1F4D
:1011100050930B0340930A038193919302C0E0E044
:10112000F0E0CF01DF91CF9108950F931F93CF93FC
:10113000DF93009709F48CC0FC013297138212826E
:1011400000910C0310910D030115110581F420810C
:101150003181820F931F20910A0330910B032817CE
:10116000390779F5F0930B03E0930A0371C0D801B6
:1011700040E050E0AE17BF0750F412962D913C911D
:101180001397AD012115310509F1D901F3CF9D0167
:10119000DA013383228360817181860F971F821762
:1011A000930769F4EC0128813981260F371F2E5FE0
:1011B0003F4F318320838A819B8193838283452B98
:1011C00029F4F0930D03E0930C0342C01396FC93B3
:1011D000EE931297ED01499159919E01240F351F0D
:1011E000E217F30771F480819181840F951F0296B5
:1011F00011969C938E938281938113969C938E93E8
:101200001297E0E0F0E0D80112968D919C9113972F
:10121000009719F0F8018C01F6CF8D919C919801FF
:101220002E5F3F4F820F931F20910A0330910B03D3
:101230002817390769F4309729F410920D0310929A
:101240000C0302C01382128210930B0300930A0353
:10125000DF91CF911F910F91089581E090E0F89474
:101260000C945409A1E21A2EAA1BBB1BFD010DC050
:10127000AA1FBB1FEE1FFF1FA217B307E407F50746
:1012800020F0A21BB30BE40BF50B661F771F881F22
:10129000991F1A9469F760957095809590959B01B8
:0C12A000AC01BD01CF010895F894FFCF10
:1012AC0000000E0380000000000039020000000066
:1012BC003301AF00FC00DA00EE007A010A496E74CB
:1012CC00657272757074206F6E2070696E3A2000B2
:1012DC00564D4450565F317C315F564D4450560D3F
:1012EC000A000A2D2D2D2D2D2D2D2D2D2D2D2D2D95
:1012FC0050524F4752414D2053544152542D2D2D95
:10130C002D2D2D2D2D2D2D2D2D2D0A00564D4450CE
:10131C00455F003A323A007C005F564D4450450020
:10132C000A436F756E7465727320696E69742E0052
:10133C00417474616368696E6720696E746572725A
:10134C007570742E000A436F756E74657273206924
:10135C006E69742066696E69736865642E0A00098B
:10136C00000A44656C6574696E6720636F756E74F2
:10137C006572732E000A44656C6574696E67206330
:10138C006F756E7465722E000A44656C6574696EB7
:10139C006720636F756E746572732066696E69730E
:0613AC006865642E0000DC
:107E0000112484B714BE81FFF0D085E080938100F7
:107E100082E08093C00088E18093C10086E0809377
:107E2000C20080E18093C4008EE0C9D0259A86E02C
:107E300020E33CEF91E0309385002093840096BBD3
:107E4000B09BFECF1D9AA8958150A9F7CC24DD24C4
:107E500088248394B5E0AB2EA1E19A2EF3E0BF2EE7
:107E6000A2D0813461F49FD0082FAFD0023811F036
:107E7000013811F484E001C083E08DD089C08234E0
:107E800011F484E103C0853419F485E0A6D080C0E4
:107E9000853579F488D0E82EFF2485D0082F10E0AE
:107EA000102F00270E291F29000F111F8ED06801E7
:107EB0006FC0863521F484E090D080E0DECF843638
:107EC00009F040C070D06FD0082F6DD080E0C81688
:107ED00080E7D80618F4F601B7BEE895C0E0D1E017
:107EE00062D089930C17E1F7F0E0CF16F0E7DF06D8
:107EF00018F0F601B7BEE89568D007B600FCFDCFD4
:107F0000A601A0E0B1E02C9130E011968C91119780
:107F100090E0982F8827822B932B1296FA010C0160
:107F200087BEE89511244E5F5F4FF1E0A038BF0790
:107F300051F7F601A7BEE89507B600FCFDCF97BE46
:107F4000E89526C08437B1F42ED02DD0F82E2BD052
:107F50003CD0F601EF2C8F010F5F1F4F84911BD097
:107F6000EA94F801C1F70894C11CD11CFA94CF0C13
:107F7000D11C0EC0853739F428D08EE10CD085E9AC
:107F80000AD08FE07ACF813511F488E018D01DD067
:107F900080E101D065CF982F8091C00085FFFCCF94
:107FA0009093C60008958091C00087FFFCCF809118
:107FB000C00084FD01C0A8958091C6000895E0E648
:107FC000F0E098E1908380830895EDDF803219F02E
:107FD00088E0F5DFFFCF84E1DECF1F93182FE3DFCA
:107FE0001150E9F7F2DF1F91089580E0E8DFEE27F6
:047FF000FF270994CA
:027FFE00040479
:0400000300007E007B
:00000001FF