:100000000C945D000C9485000C9485000C94C9033D
:100010000C949E030C946F030C9485000C94850043
:100020000C9485000C9485000C9485000C9485003C
:100030000C9485000C9485000C9485000C9485002C
:100040000C9425030C9485000C94F3020C94CD02BF
:100050000C9485000C9485000C9485000C9485000C
:100060000C9485000C9485000000000024002700FB
:100070002A0000000000250028002B0004040404CE
:100080000404040402020202020203030303030342
:10009000010204081020408001020408102001021F
:1000A00004081020000000080002010000030407FB
:1000B0000000000000000000F40311241FBECFEF79
:1000C000D8E0DEBFCDBF12E0A0E0B1E0ECECF0E1A3
:1000D00002C005900D92A634B107D9F723E0A6E43B
:1000E000B2E001C01D92A634B207E1F710E0CDE501
:1000F000D0E004C02197FE010E940A07CC35D10749
:10010000C9F70E9433040C9464080C940000EDE5D8
:10011000F2E0A089B18982E08C93A485B5851C9218
:10012000A685B7858FEC8C93108EA489B58986E05F
:100130008C93A289B3898C9180618C93A289B389B5
:100140008C9188608C93A289B3898C9180688C9300
:100150000288F389E02D80818F7D80830895CF927E
:10016000DF92EF92FF920F931F93CF93DF936C0177
:100170007A018B01C0E0D0E0CE15DF0589F0D8010F
:100180006D918D01D601ED91FC910190F081E02DF2
:10019000C6010995892B11F47E0102C02196ECCF8E
:1001A000C701DF91CF911F910F91FF90EF90DF90EA
:1001B000CF900895FC01918D828D981761F0828D0A
:1001C000DF01A80FB11D5D968C91928D9F5F9F738B
:1001D000928F90E008958FEF9FEF0895FC01918D2D
:1001E000828D981731F0828DE80FF11D858D90E09A
:1001F00008958FEF9FEF0895FC01918D228D892F37
:1002000090E0805C9F4F821B91098F73992708951E
:100210008DE592E00E94FC0021E0892B09F420E0AA
:10022000822F0895FC01848DDF01A80FB11DA35A10
:10023000BF4F2C91848D90E001968F739927848F06
:10024000A689B7892C93A089B1898C9180648C93FD
:10025000938D848D981306C00288F389E02D8081E8
:100260008F7D80830895EF92FF920F931F93CF931A
:10027000DF93EC0181E0888F9B8D8C8D981305C0F6
:10028000E889F989808185FD24C0F62E0B8D10E068
:100290000F5F1F4F0F731127E02E8C8DE8120CC0DB
:1002A0000FB607FCFACFE889F989808185FFF5CF81
:1002B000CE010E941201F1CF8B8DFE01E80FF11DDE
:1002C000E35AFF4FF0820B8FEA89FB8980818062BD
:1002D00007C0EE89FF896083E889F989808180649D
:1002E000808381E090E0DF91CF911F910F91FF908B
:1002F000EF900895CF93DF93EC01888D8823C9F0A8
:10030000EA89FB89808185FD05C0A889B9898C911E
:1003100086FD0FC00FB607FCF5CF808185FFF2CFB9
:10032000A889B9898C9185FFEDCFCE010E94120179
:10033000E7CFDF91CF91089580E090E0892B29F0FD
:100340000E94080181110C94000008953FB7F894B1
:100350008091470290914802A0914902B0914A02CF
:1003600026B5A89B05C02F3F19F00196A11DB11D10
:100370003FBFBA2FA92F982F8827820F911DA11D4B
:10038000B11DBC01CD0142E0660F771F881F991F88
:100390004A95D1F708958F929F92AF92BF92CF92D4
:1003A000DF92EF92FF926B017C010E94A6014B014C
:1003B0005C01C114D104E104F104F1F00E94A60132
:1003C000DC01CB0188199909AA09BB09883E934031
:1003D000A105B10570F321E0C21AD108E108F108C6
:1003E00088EE880E83E0981EA11CB11CC114D104B4
:1003F000E104F10419F7DDCFFF90EF90DF90CF908B
:10040000BF90AF909F908F900895EF92FF921F93AF
:10041000CF93DF93EC011881162768837C0180E17C
:10042000E80EF11C112399F0CE15DF0581F010FFC5
:100430000BC089819A81009739F0DC01ED91FC9124
:100440000190F081E02D099516952296EBCFDF9172
:10045000CF911F91FF90EF900895FC01238134818B
:100460002F5F3F4F3483238308956115710579F021
:10047000FB0101900020E9F73197AF01461B570BB4
:10048000DC01ED91FC910280F381E02D099480E084
:1004900090E00895CF93DF93BC018DE592E00E9438
:1004A0003502EC016FE371E08DE592E00E943502C8
:1004B0008C0F9D1FDF91CF9108954F925F926F92A5
:1004C0007F92EF92FF920F931F93CF93DF93CDB75D
:1004D000DEB7A1970FB6F894DEBF0FBECDBF7C018B
:1004E000FA01CB0119A2223008F42AE08E010F5D37
:1004F0001F4F422E512C612C712CBF01A301920180
:100500000E944208F901CA01015011096A3014F42D
:10051000605D01C0695CD8016C93232B242B252BD3
:1005200061F7B801C7010E943502A1960FB6F89491
:10053000DEBF0FBECDBFDF91CF911F910F91FF9016
:10054000EF907F906F905F904F900895CF93DF93DF
:10055000482F50E060E070E02AE08DE592E00E94D4
:100560005D02EC016FE371E08DE592E00E943502DF
:100570008C0F9D1FDF91CF910895CF93DF93EC01F6
:100580006CE171E08DE592E00E9435028A81DF9195
:10059000CF910C94A6020E943D081F920F920FB6B5
:1005A0000F9211242F933F934F935F936F937F93F9
:1005B0008F939F93AF93BF93EF93FF938DE592E05B
:1005C0000E941201FF91EF91BF91AF919F918F9186
:1005D0007F916F915F914F913F912F910F900FBE3F
:1005E0000F901F9018951F920F920FB60F92112423
:1005F0002F938F939F93EF93FF93E0916D02F09170
:100600006E028081E0917302F091740282FD12C04B
:100610009081809176028F5F8F732091770282178D
:1006200051F0E0917602F0E0E35AFD4F958F809310
:10063000760201C08081FF91EF919F918F912F9160
:100640000F900FBE0F901F9018951F920F920FB62C
:100650000F9211242F933F938F939F93AF93BF9348
:1006600080914B0290914C02A0914D02B0914E02AC
:100670003091460223E0230F2D3720F40196A11D6F
:10068000B11D05C026E8230F0296A11DB11D2093C0
:10069000460280934B0290934C02A0934D02B0937C
:1006A0004E028091470290914802A0914902B09178
:1006B0004A020196A11DB11D809347029093480202
:1006C000A0934902B0934A02BF91AF919F918F913D
:1006D0003F912F910F900FBE0F901F9018951F9272
:1006E0000F920FB60F9211242F933F934F935F9366
:1006F0006F937F938F939F93AF93BF93EF93FF93EA
:1007000080914F0290915002892B39F069B180910C
:100710005302909154020E940502FF91EF91BF9104
:10072000AF919F918F917F916F915F914F913F9189
:100730002F910F900FBE0F901F9018951F920F9240
:100740000FB60F9211242F933F934F935F936F93A4
:100750007F938F939F93AF93BF93EF93FF9380917A
:10076000510290915202009719F066B10E94050261
:10077000FF91EF91BF91AF919F918F917F916F9179
:100780005F914F913F912F910F900FBE0F901F904F
:1007900018951F920F920FB60F9211242F933F932B
:1007A0004F935F936F937F938F939F93AF93BF9379
:1007B000EF93FF9380914F0290915002009719F0B0
:1007C00063B10E940502FF91EF91BF91AF919F919C
:1007D0008F917F916F915F914F913F912F910F90EA
:1007E0000FBE0F901F901895EDE5F2E01382128274
:1007F00088EE93E0A0E0B0E084839583A683B7837E
:1008000080E191E09183808385EC90E095878487F7
:1008100084EC90E09787868780EC90E0918B808BCA
:1008200081EC90E0938B828B82EC90E0958B848BB3
:1008300086EC90E0978B868B118E128E138E148E21
:10084000EAEFF2E01682178210861186128613866E
:100850001486158616861786108A118A128A138ABC
:10086000148A158A0895CF93DF93CDB7DEB7299701
:100870000FB6F894DEBF0FBECDBF789484B582600A
:1008800084BD84B5816084BD85B5826085BD85B534
:10089000816085BD80916E00816080936E001092B2
:1008A000810080918100826080938100809181002D
:1008B00081608093810080918000816080938000BE
:1008C0008091B10084608093B1008091B00081601C
:1008D0008093B00080917A00846080937A00809148
:1008E0007A00826080937A0080917A0081608093A0
:1008F0007A0080917A00806880937A001092C1001B
:1009000010923E0310923F03109240031092410355
:100910001092FC021092FD021092FE021092FF0251
:1009200060ED77E080E090E00E94CB018DE592E001
:1009300090933D0380933C030E9487002FB7F89467
:1009400080914B0290914C02A0914D02B0914E02C9
:100950002FBF8093FC029093FD02A093FE02B09300
:10096000FF0260E371E080913C0390913D030E949F
:1009700035026AE070E080E090E00E94CB0181E007
:10098000809310030E94870082E491E00E944A0253
:100990000AE0602E01E0702E812C912C540183948A
:1009A00068EE73E080E090E00E94CB018CE691E07D
:1009B0000E944A0285E090E00E941007FC0180E15D
:1009C00082837182608214821382F0935602E093D4
:1009D000550285E090E00E941007FC0141E142834E
:1009E000718260821482138290935802809357021E
:1009F00085E090E00E941007FC0184E08283718210
:100A0000608214821382F0935A02E093590285E0C7
:100A100090E00E941007FC018CE08283718260826A
:100A200014821382F0935C02E0935B02B5E54B2ED7
:100A3000B2E05B2E620110E1212ED6014D915D9155
:100A40006D01598748878CE791E00E944A028885AA
:100A500099850E94BD02A885B98512968C9188302F
:100A600028F021E08E3018F420E001C022E0022FAF
:100A700010E0000F111F015B1D4FF801A081B18133
:100A8000109731F581E190E02F830E941007DC017F
:100A9000FC0141E111924A95E9F7FC011192622DA6
:100AA00011926A95E9F7F801918380832F81B5014E
:100AB000A40104C0440F551F661F771F2A95D2F763
:100AC0008BB3842B8BBB80916800482B40936800CC
:100AD000E885F9852281283038F02E3010F438EF7F
:100AE00001C032EF320F01C0322F832F90E07C0122
:100AF000EE0CFF1CFD01EE0DFF1D81819281892B03
:100B000009F099C0B501A40104C0440F551F661F28
:100B1000771F3A95D2F74B835C836D837E832830B1
:100B200038F02E3040F0263148F0E0E0F0E008C028
:100B3000EDE6F0E005C0EBE6F0E002C0ECE6F0E048
:100B400080815B81852B808330E0890100571F4FB6
:100B5000F8013490A90144585F4F5A834983FA0140
:100B600044914423C9F050E0440F551FFA01E8595D
:100B7000FF4F85919491FA01EE58FF4F6591749162
:100B80005FB7F894FC014081309443214083FB011E
:100B90008081382230825FBFF901EC55FF4F2491EC
:100BA000F8010491E981FA8194919923C1F12223FA
:100BB00039F1233091F038F42130A9F0223001F5D9
:100BC00084B58F7D12C0273091F02830A1F02430F9
:100BD000B9F4809180008F7D03C0809180008F7771
:100BE000809380000DC084B58F7784BD09C080914B
:100BF000B0008F7703C08091B0008F7D8093B000EC
:100C0000E92FF0E0EE0FFF1FEE58FF4F8591949112
:100C10002FB7F894FC013081032B00832FBF8C91F8
:100C2000FB818F2B8C93AE0DBF1D48855985129685
:100C30005C934E9311975DE5C51652E0D50609F019
:100C4000FCCE81E991E00E944A021AE06FE371E074
:100C50008DE592E00E94350265E5E62E62E0F62E13
:100C6000D701ED91FD917D014381548160E070E0F9
:100C70002AE08DE592E00E945D026BEA71E08DE56D
:100C800092E00E943502BDE5EB16B2E0FB0641F7AB
:100C90006FE371E08DE592E00E94350268EE73E04B
:100CA00080E090E00E94CB01115081F68DEA91E046
:100CB0000E944A02F201C190D1902F0181EC91E093
:100CC0000E944A02C6010E94BD02D60112964C91B2
:100CD000483030F0FF24F3944E3020F4F12C02C061
:100CE00052E0F52E8F2D90E01C01220C331CF101F7
:100CF000E15BFD4F008111810115110509F47AC0F6
:100D000064ED71E08DE592E04F830E9435024F81E2
:100D100050E060E070E02AE08DE592E00E945D0224
:100D200063EE71E08DE592E00E9435028F2D0E9406
:100D3000A602F6012281283038F02E3010F438EF68
:100D400001C032EF320F01C0322F832F90E0B50186
:100D5000A40104C0440F551F661F771F3A95D2F7B0
:100D6000283038F02E3040F0263148F4ECE6F0E040
:100D700008C0EDE6F0E005C0EBE6F0E002C0E0E020
:100D8000F0E02081409542234083880F991FF801AD
:100D9000E80FF91F128211828FEE91E00E944A0241
:100DA00098012F5E3F4FC8010196FC0182179307FF
:100DB00031F0029640815181452BB9F31BC060E2AE
:100DC00072E08DE592E00E9435028F2D0E94A6020E
:100DD0008BB31BBA8091680010926800C8010E9412
:100DE000A507F101E15BFD4F1182108280E392E0E3
:100DF0000E944A02C6010E94A507FDE54F16F2E0D7
:100E00005F0609F057CF83E092E00E944A020E94F9
:100E10009C01C6CDEE0FFF1F0590F491E02D0994C3
:100E2000CF93DF938230910510F482E090E0E0915F
:100E30004403F091450320E030E0C0E0D0E030977B
:100E400011F14081518148175907C0F048175907DF
:100E500061F482819381209719F09B838A832BC050
:100E6000909345038093440326C02115310519F062
:100E70004217530718F49A01BE01DF01EF01028007
:100E8000F381E02DDCCF2115310509F1281B390B49
:100E90002430310590F412968D919C911397611531
:100EA000710521F0FB019383828304C09093450375
:100EB00080934403FD01329644C0FD01E20FF31F0D
:100EC00081939193225031092D933C933AC0209104
:100ED000420330914303232B41F4209102013091CE
:100EE000030130934303209342032091000130918A
:100EF00001012115310541F42DB73EB740910401A0
:100F000050910501241B350BE0914203F0914303FE
:100F1000E217F307A0F42E1B3F0B2817390778F0D0
:100F2000AC014E5F5F4F2417350748F04E0F5F1F2F
:100F300050934303409342038193919302C0E0E0B6
:100F4000F0E0CF01DF91CF9108950F931F93CF93DE
:100F5000DF93009709F48CC0FC0132971382128250
:100F600000914403109145030115110581F420817E
:100F70003181820F931F2091420330914303281740
:100F8000390779F5F0934303E093420371C0D80128
:100F900040E050E0AE17BF0750F412962D913C91FF
:100FA0001397AD012115310509F1D901F3CF9D0149
:100FB000DA013383228360817181860F971F821744
:100FC000930769F4EC0128813981260F371F2E5FC2
:100FD0003F4F318320838A819B8193838283452B7A
:100FE00029F4F0934503E093440342C01396FC9325
:100FF000EE931297ED01499159919E01240F351FEF
:10100000E217F30771F480819181840F951F029696
:1010100011969C938E938281938113969C938E93C9
:101020001297E0E0F0E0D80112968D919C91139711
:10103000009719F0F8018C01F6CF8D919C919801E1
:101040002E5F3F4F820F931F209142033091430345
:101050002817390769F4309729F410924503109244
:10106000440302C01382128210934303009342038D
:10107000DF91CF911F910F91089581E090E0F89456
:101080000C946408A1E21A2EAA1BBB1BFD010DC023
:10109000AA1FBB1FEE1FFF1FA217B307E407F50728
:1010A00020F0A21BB30BE40BF50B661F771F881F04
:1010B000991F1A9469F760957095809590959B019A
:0C10C000AC01BD01CF010895F894FFCFF2
:1010CC00000046038000000000002D02000000001C
:1010DC003301AF00FC00DA00EE007A010A496E74AD
:1010EC00657272757074206F6E2070696E3A200094
:1010FC00564D4450565F317C315F564D4450560D21
:10110C000A000A2D2D2D2D2D2D2D2D2D2D2D2D2D76
:10111C0050524F4752414D2053544152542D2D2D76
:10112C002D2D2D2D2D2D2D2D2D2D0A000A436F75B6
:10113C006E7465727320696E69742E0041747461EB
:10114C006368696E6720696E746572727570742E4F
:10115C00000A436F756E7465727320696E69742032
:10116C0066696E69736865642E0A0009000A446535
:10117C006C6574696E6720636F756E746572732E1F
:10118C00000A44656C6574696E6720636F756E74D4
:10119C0065722E0044697361626C696E67207069B8
:1011AC006E20002066726F6D20706F727420004488
:1011BC006F6E652064697361626C696E672070691B
:1011CC006E2E000A44656C6574696E6720636F75DA
:1011DC006E746572732066696E69736865642E003F
:1011EC0044697361626C696E6720706F7274200061
:1011FC00446F6E652064697361626C696E67207000
:06120C006F72742E000059
:00000001FF
