:100000000C9429050C9451050C9451050C94400A4C
:100010000C94400A0C94400A0C9451050C94510520
:100020000C9451050C9451050C9451050C945105F8
:100030000C9451050C9451050C9451050C945105E8
:100040000C94AD1A0C9451050C94941C0C94C61C81
:100050000C9451050C9451050C9451050C945105C8
:100060000C9430080C945105084AD73B3BCE016EE6
:1000700084BCBFFDC12F3D6C74319ABD56833DDAFF
:100080003D00C77F11BED9E4BB4C3E916BAAAABE0E
:10009000000000803F002900444D5020496E6974E3
:1000A00069616C697A6174696F6E206661696C65FB
:1000B000642028636F64652000444D5020726561A0
:1000C0006479212057616974696E6720666F7220B8
:1000D000666972737420696E746572727570742EBD
:1000E0002E2E00456E61626C696E6720444D502E65
:1000F0002E2E00496E697469616C697A696E672099
:10010000444D502E2E2E004D505536303530206344
:100110006F6E6E656374696F6E206661696C65648D
:10012000004D50553630353020636F6E6E65637408
:10013000696F6E207375636365737366756C0054C5
:10014000657374696E672064657669636520636FA3
:100150006E6E656374696F6E732E2E2E00496E6924
:100160007469616C697A696E6720493243206465FD
:1001700076696365732E2E2E0001B202FFFF019097
:10018000040923A135016A0206000160080000008D
:100190000000000000006004400000000162020056
:1001A0000000600400400000037B034CCD6C03ABF7
:1001B0000336567600680402CB47A20218040005F5
:1001C0008BC1010C0400000000037F060CC92C97B2
:1001D0009797038903264666006C022000024004BC
:1001E0000000000002440400000000024804000077
:1001F0000000024C04000000000250040000000057
:100200000254040000000002580400000000025CD8
:10021000040000000002BC040000000001EC040027
:10022000004000037F060CC92C9797970402030D2A
:10023000355D040904872D353D00A3010000000051
:1002400001078601FE074105F120283038077E01AD
:10025000300746019A074704F1283038076C04F14B
:100260002830380216020002FB00003E000B003668
:10027000000100020003000000650054FFEF0000D1
:10028000FA80000B12820001000200000000000052
:10029000000000000000000000280000FFFF458172
:1002A000FFFFFA7200000000000003E800000001F8
:1002B00000017FFFFFFE8001001B00000000000026
:1002C0000000000000000000003E0330400000007D
:1002D00002CAE3093E800000200000000000000088
:1002E000400000006000000041FF000000000B2AF9
:1002F0000000165500002182FD872650FD80000079
:10030000001F000000058000000000000001000048
:100310000002000000030000400000000000046F25
:100320000002653200005EC04000000000000000D6
:100330000000000000000000FB8C6F5DFD5D08D92F
:10034000007C733B006C12CC3200139D3200D0D67F
:1003500032000800400001F4FFE68079020000004E
:100360000000D0D600002710FB0000004000000075
:10037000000000000000000000000001000000007C
:1003800000000100010000000000FA36FFBC308EC2
:100390000005FBF0FFD95BC8FFD09ABE000010A992
:1003A000FFF41EB200CEBBF7000000010000000405
:1003B000000200020200000CFFC280000001800069
:1003C00000CF80004000000000000001000000009D
:1003D0000000060000000014000000000000000003
:1003E000000000000000000000000000000000000D
:1003F00000000000000000000000000000000000FD
:10040000000000000000000000000000033F68B68C
:10041000793528BCC67ED16C800000004000000009
:100420000000B26A000000000000000000000000B0
:1004300000003FF00000003000000000000000005D
:1004400000000000000000000000000000000000AC
:1004500000000000000000000000254D002F706D1E
:10046000000005AE000C02D0000000000065005442
:10047000FFEF000000000000000001000044000049
:1004800000000C00000001000000000000650000FA
:1004900000540000FFEF000000000000000000001A
:1004A000000000000000000040000000000000000C
:1004B00000000000000000004000000000000000FC
:1004C0000000000000000000000000010000000229
:1004D000000000000000000000000000000000001C
:1004E000000000000000000000000000000000000C
:1004F0000000000000000000001B000000000000E1
:1005000000000000000000000000000000000000EB
:1005100000000000000000000000000000000000DB
:100520000000000040000000001B00000000000070
:1005300000000000000000000000000000000000BB
:1005400000000000000000000000000000000000AB
:10055000000000000000000000000000000000009B
:100560000000000000000000D8DCBAA2F1DEB2B842
:10057000B4A88191F74A907F916AF3F9DBA8F9B0AA
:10058000BAA080F2CE81F3C2F1C1F2C3F3CCA2B221
:1005900080F1C6D880BAA7DFDFDFF2A7C3CBC5B62C
:1005A000F087A2942448703C95406834589B78A208
:1005B000F183922D557DD8B1B4B8A1D09180F2705D
:1005C000F370F27C80A8F101B09887D943D886C92E
:1005D00088BAA1F20EB89780F1A9DFDFDFAADFDFCA
:1005E000DFF2AAC5CDC7A90CC92C97979797F1A997
:1005F00089264666B0B4BA80ACDEF2CAF1B28C028B
:10060000A9B69800890E161EB8A9B4992C547CB0CE
:100610008AA896365676F1B9AFB4B083C0B8A89719
:1006200011B18F98B9AFF0240844106418F1A329D0
:10063000557DAF83B593AFF0002850F1A3869F613D
:10064000A6DADEDFD9FAA38696DB31A6D9F8DFBABF
:10065000A68FC2C5C7B28CC1B8A2DFDFDFA3DFDFC0
:10066000DFD8D8F1B8A8B286B4980D355DB8AA988D
:10067000B0872D353DB2B6BAAF8C96198F9FA70EB5
:10068000161EB49AB8AA872C547CB9A3DEDFDFA368
:10069000B180F2C4CDC9F1B8A9B499830D355D8993
:1006A000B9A32D557DB593A30E161EA92C547CB865
:1006B000B4B0F19783A81184A50998A383F0DA2434
:1006C0000844106418D8F1A529557DA58595021A0E
:1006D0002E3A565A4048F9F3A3D9F8F098832408E3
:1006E000441064189782A8F111F098A224084410CD
:1006F0006418DAF3DED883A59401D9A302F1A2C36A
:10070000C5C7D8F18492A24DDA2AD84869D92AD827
:100710006855DA32D85071D932D8705DDA3AD85883
:1007200079D93AD87893A34DDA2AD84869D92AD802
:100730006855DA32D85071D932D8705DDA3AD85863
:1007400079D93AD878A88A9AF02850789EF38818F0
:10075000F19F1D98A8D908D8C89F129EF315A8DA52
:100760001210D8F1AFC8978734B5B994A421F3D942
:1007700022D8F22DF3D92AD8F235F3D932D881A470
:10078000606061D961D86C6869D969D8747071D9B1
:1007900071D8B1A384193D5DA3831A3E5E931030D6
:1007A000811011B8B0AF8F94F2DA3ED8B49AA8870E
:1007B00029DAF8D8879A35DAF8D8879A3DDAF8D85E
:1007C000B1B9A49885022E56A581000C14A397B048
:1007D0008AF12DD928D84DD948D86DD968D8B18497
:1007E0000DDA0ED8A32983DA2C0ED8A3844983DA34
:1007F0002C4C0ED8B8B0A88A9AF520AADADFD8A86F
:1008000040AAD0DADED8A860AADAD0DFD8F197867D
:10081000A8319B069907AB9728889BF00C201440C1
:10082000B8B0B4A88C9CF0042851791D301438B2AB
:1008300082ABD0982C505078789BF11AB0F08A9CFB
:10084000A82951798B2951798A2470598B205871A4
:100850008A4469388B3940688A6448318B304960F2
:10086000A588200971584468113964493019F1ACE0
:10087000002C547CF08CA804285078F1889726A886
:100880005998AC8C02264666F0899CA82951792497
:100890007059446938644831A98809205970AB11EE
:1008A000384069A8193148608CA83C415C207C0024
:1008B000F187981986A86E767EA999882D557D9E18
:1008C000B9A38A228A6E8A568A5E9FB1830626461B
:1008D000660E2E4E6E9DB8AD002C547CF2B18CB4D9
:1008E00099B9A32D557D8191AC38AD3AB58391ACC2
:1008F0002DD928D84DD948D86DD968D88C9DAE2926
:10090000D904AED851D904AED879D904D881F39D91
:10091000AD008DAE1981ADD901D8F2AEDA26D88EF0
:10092000912983A7D9ADADADADF32AD8D8F1B0AC3C
:1009300089913E5E76F3AC2E2EF1B18C5A9CAC2C94
:100940002828289CAC3018A8988128343C9724A7E4
:1009500028343C9C24F2B089AC912C4C6C8A9B2DA1
:10096000D9D8D851D9D8D879D9D8D8F19E88A33137
:10097000DAD8D8912DD928D84DD948D86DD968D88A
:10098000B18393353D8025DAD8D88569DAD8D8B4D3
:100990009381A328343CF3AB8BF8A391B609B4D967
:1009A000ABDEFAB0879CB9A3DDF1A3A3A3A395F1B5
:1009B000A3A3A39DF1A3A3A3A3F2A3B49080F2A346
:1009C000A3A3A3A3A3A3A3A3A3B2A3A3A3A3A3A3E8
:1009D000B087B599F1A3A3A398F1A3A3A3A397A369
:1009E000A3A3A3F39BA3A3DCB9A7F1262626D8D8FB
:1009F000FF000000080002010000030407000000DF
:100A000000000000000102040810204080010204E0
:100A10000810200102040810200404040404040443
:100A200004020202020202030303030303000000A4
:100A30000023002600290000000000250028002BCC
:100A40000000000000240027002A00004607711360
:100A5000F61C11241FBECFEFD8E0DEBFCDBF12E0E1
:100A6000A0E0B1E0E8EAFEE402C005900D92AE30ED
:100A7000B107D9F723E0AEE0B2E001C01D92A73C78
:100A8000B207E1F71AE0C2E5DAE004C02297FE01FE
:100A90000E94FC24CC34D107C9F70E943A1D0C9463
:100AA00052270C940000CF93DF9384E090E00E94E3
:100AB000491DEC010E94970FD0931302C0931202BC
:100AC0008AE090E00E94491DEC0160911202709151
:100AD00013020E942011D0931102C09310028FE1E3
:100AE00090E00E94491DEC0120E045E064E00E9496
:100AF0000C0B40E855E260E070E0CE010E943C0B38
:100B0000BE0180E00E94231390930F0280930E0297
:100B1000DF91CF910895CF92DF92EF92FF92CF9322
:100B2000DF93E0910E02F0910F0268E071E084859E
:100B300095850E94CF1D80910E0290910F02DC01DD
:100B4000ED91FC910480F581E02D0995892B99F3B5
:100B500068EE73E080E090E00E94261BE0910E02B8
:100B6000F0910F026AE171E0848595850E94B01DC5
:100B70008091120290911302DC01ED91FC910280B0
:100B8000F381E02D0995AB01BC01E0910E02F091DB
:100B90000F0222E030E0848595850E94A31FC0915A
:100BA0000E02D0910F0264E670E080E090E00E94B7
:100BB000261B41E060E070E08C859D850E94262028
:100BC0006B017C01E0910E02F0910F022AE030E00F
:100BD000AB01BC01848595850E947A1EC701B601D0
:100BE0000E94E022AB01BC018091100290911102A1
:100BF0000E948412E0910E02F0910F026AE171E00E
:100C0000848595850E94B01D8091120290911302F7
:100C1000DC01ED91FC910280F381E02D0995AB019F
:100C2000BC01E0910E02F0910F0222E030E08485D9
:100C30009585DF91CF91FF90EF90DF90CF900C944E
:100C4000A31F8091440290E020914502821B9109EC
:100C500008952091450280914402281750F4E22F14
:100C6000F0E0EA5BFD4F808190E02F5F209345022A
:100C700008958FEF9FEF0895E0914502809144021F
:100C8000E81730F4F0E0EA5BFD4F808190E00895D2
:100C90008FEF9FEF08950895CF92DF92EF92FF922A
:100CA0000F931F93CF93DF937C01CB018A01209197
:100CB0002002222389F0EB016B01C40ED51ECC1556
:100CC000DD0569F06991D701ED91FC910190F0810A
:100CD000E02DC7010995F3CF642F0E940708C801D2
:100CE000DF91CF911F910F91FF90EF90DF90CF9008
:100CF0000895CF93DF931F92CDB7DEB7698320911C
:100D000020022223D1F020912102203240F021E064
:100D100030E0FC013383228380E090E015C08091B5
:100D20002202E82FF0E0ED5DFD4F998190838F5F07
:100D3000809322028093210205C061E0CE010196DA
:100D40000E94070881E090E00F90DF91CF91089515
:100D5000FC011382128248EE53E060E070E04483AD
:100D60005583668377838AE291E091838083089537
:100D70001092450210924402109222021092210217
:100D80000C944A0781E08093200260934302109202
:100D900022021092210208950F93062F21E0409124
:100DA000210263E272E0809143020E94B007109238
:100DB000220210922102109220020F9108958F9228
:100DC0009F92AF92BF92CF92DF92EF92FF920F93DA
:100DD0001F93CF93DF93EC01F62ED42E48015901D7
:100DE000EE2019F10E94C2061E2D143008F013E007
:100DF0001150B8F0E881F98128E0129FB001112468
:100E0000A501940104C056954795379527956A9595
:100E1000D2F7CA01B9010190F081E02DCE01099508
:100E2000E7CF60E0CE010E94CC064D2D413208F0A4
:100E300040E22C2D66E472E08F2D0E94680710922C
:100E4000450280934402DF91CF911F910F91FF9053
:100E5000EF90DF90CF90BF90AF909F908F900895CC
:100E6000CF92EF920F931F93C22EE12C00E010E07F
:100E700098010E94DF061F910F91EF90CF90089587
:100E800021E00C94300761E00C94CC0684E192E000
:100E90000C94A8061092D30281E08093D1021092A4
:100EA000D00261E082E10E945C1C61E083E10E946B
:100EB0005C1CE9EBF0E080818E7F808380818D7FF8
:100EC000808388E48093B80085E48093BC00089513
:100ED000413208F043C09091D3029111FCCF91E0D0
:100EE0009093D3022093D1022FEF209366021092A9
:100EF000AB02240F2093AA029093D2029091D202C7
:100F0000880F892B8093D2028091D002813061F4C6
:100F10001092D0028091D2028093BB008091BC00DD
:100F200083FDF8CF85EC01C085EE8093BC008091F5
:100F3000D3028130E1F38091AB02841710F4409129
:100F4000AB022CEA32E0FB01D9018A2F821B841705
:100F500018F48D918193F9CF842F089580E008953E
:100F60000F93413208F04AC09091D3029111FCCF07
:100F700092E09093D3020093D1029FEF9093660288
:100F80001092AB024093AA02FB016CEA72E0DB0113
:100F90009A2F961B941718F491919D93F9CF109264
:100FA000D2029091D202880F892B8093D202809135
:100FB000D002813061F41092D0028091D2028093ED
:100FC000BB008091BC0083FDF8CF85EC01C085EEAD
:100FD0008093BC00222321F08091D3028230E1F380
:100FE000809166028F3F61F080916602803251F0FD
:100FF00080916602803341F483E007C081E005C040
:1010000080E003C082E001C084E00F910895613266
:1010100098F42091D302243089F460938802FC0173
:101020008AE892E0DC012A2F281B261718F4219168
:101030002D93F9CF80E0089581E0089582E008952E
:1010400085ED8093BC008091BC0084FDFCCF1092A4
:10105000D302089585EC8093BC001092D3020895CA
:101060001F920F920FB60F9211242F933F934F931D
:101070005F936F937F938F939F93AF93BF93EF9300
:10108000FF938091B900887F803609F49EC078F57F
:10109000883209F45DC090F4803109F456C038F408
:1010A000882309F4F5C0883009F44FC0F5C08831B1
:1010B00009F44EC0803209F45FC0EEC0803409F4F8
:1010C0006AC058F4803309F457C0883309F0E4C08B
:1010D000809366020E942A08DFC0803509F44FC061
:1010E000883509F45DC0883409F0D6C0D3C088398A
:1010F00009F4C4C0A8F4883709F467C038F4883606
:1011000009F463C0803709F460C0C6C0883809F4A8
:10111000B5C0803909F45FC0803809F0BDC05BC03C
:10112000803B09F483C038F4803A09F466C0883AF9
:1011300009F47CC0B1C0803C09F4A4C0883C09F427
:10114000A1C0883B09F487C0A7C08091D20210C01B
:101150009091AB028091AA02981770F5E091AB02D2
:1011600081E08E0F8093AB02F0E0E455FD4F80816B
:101170008093BB0085EC83C0809366028BC0E091B6
:10118000AB0281E08E0F8093AB028091BB00F0E058
:10119000E455FD4F80839091AB028091AA026BC011
:1011A000E091AB0281E08E0F8093AB028091BB0097
:1011B000F0E0E455FD4F80838091D10281116AC037
:1011C00081E08093D00284EA5EC083E08093D30202
:1011D00010926702CFCF80916702803208F04EC034
:1011E000E091670281E08E0F809367028091BB00DF
:1011F000F0E0E859FD4F8083BDCF0E942A0880911E
:101200006702803230F4E0916702F0E0E859FD4F68
:1012100010826091670270E0E091CC02F091CD0203
:1012200088E692E009951092670236C084E08093C8
:10123000D3021092890210928802E091CE02F091BE
:10124000CF02099580918802811105C081E08093C9
:10125000880210928A02E091890281E08E0F8093C9
:101260008902F0E0E657FD4F80818093BB009091AA
:10127000890280918802981708F47CCF85E88093D2
:10128000BC000AC085EC8093BC001092D30204C05D
:10129000109266020E942008FF91EF91BF91AF91DA
:1012A0009F918F917F916F915F914F913F912F917E
:1012B0000F900FBE0F901F9018952091160330913C
:1012C000170328173907B9F49091D4028091D502F9
:1012D000981789F0E091D402F0E0EA52FD4F808146
:1012E0002091D40230E02F5F3F4F2F73332720939C
:1012F000D40290E008958FEF9FEF08951F93CF934E
:10130000DF93DC015C968D919C915D97009749F489
:1013100081E090E013969C938E93129780E090E08A
:101320003BC05196ED91FC91529750962C9150975D
:10133000322F30951FB75E964C915E9741FB772711
:1013400070F941FD6095F8944081772311F0422BAC
:1013500001C043234083EC012197F1F748E050811D
:1013600060FF02C0522B01C053235083EC01219730
:10137000F1F76695415099F78081772311F0832327
:1013800001C0822B80831FBF5C968D919C915D97DD
:101390000197F1F781E090E0DF91CF911F910895DF
:1013A000089520911603309117032817390771F417
:1013B0009091D4028091D502981741F0E091D40227
:1013C000F0E0EA52FD4F808190E008958FEF9FEFAB
:1013D000089520911603309117032817390771F4E7
:1013E0008091D5022091D40290E0805C9F4F821BB7
:1013F000910960E470E00E948624089580E090E006
:101400000895E0911603F0911703E817F90769F4BE
:10141000A389B4899C918589809589238C931092A6
:1014200017031092160381E0089580E00895CF938A
:10143000DF93EC018A8D9B8D892BF1F0809116034F
:10144000909117038C179D07B9F0009711F00E9437
:10145000010A8E8D8E7F8E8F1092D5021092D4024B
:10146000D0931703C0931603EB89FC8980819D8973
:10147000892B808381E001C080E0DF91CF910895C6
:101480001F920F920FB60F9211242F933F934F93F9
:101490005F936F937F938F939F93AF93BF93EF93DC
:1014A000FF93E0911603F0911703309709F451C0B0
:1014B000868DA685B785958581FF04C08C9189238B
:1014C00029F447C08C91892309F043C0A389B489CA
:1014D0009C918589809589238C938689978901972A
:1014E000F1F7208D318DA685B785758558E040E0F0
:1014F000C9010197F1F7842F90E095958795482FC2
:101500006C91672309F04068515091F7868D81FDF9
:1015100040958091D50290E001968F739927209194
:10152000D402281749F0A091D502B0E0AA52BD4FCD
:101530004C938093D50203C0868D8160868F828D07
:10154000938D0197F1F7A389B4898C919589892BA3
:101550008C93FF91EF91BF91AF919F918F917F916C
:101560006F915F914F913F912F910F900FBE0F9010
:101570001F9018951F93CF93DF93EC01162F6E8D5C
:101580006695617081E06827812F0E945C1C61E094
:10159000812F0E94231C812F90E0FC01EB5FF54F0F
:1015A000E491E88BFC01E75EF54FE491F0E0EE0F8B
:1015B000FF1FE95CF54F859194919A8B898BDF91A0
:1015C000CF911F9108951F93CF93DF93EC01162FB6
:1015D00060E0812F0E94231C8E8D81FD04C061E09C
:1015E000812F0E945C1C1C87812F90E0FC01EB5F27
:1015F000F54FE491ED87FC01E75EF54FE491F0E0F3
:10160000EE0FFF1FE35DF54F859194919F878E87C5
:10161000DF91CF911F910895FF920F931F93CF9366
:10162000DF93EC01F62E522F1B821A8208EE13E094
:1016300020E030E00C831D832E833F838AE391E01A
:10164000998388831F8A1E8A198E188E1B8E1A8E84
:101650001D8E1C8E8E8D8E7F50FB81F98E8F642F98
:10166000CE010E94BA0A6F2DCE01DF91CF911F915A
:101670000F91FF900C94E30ACF93DF93EC019A0152
:10168000AB011B8E1A8E198E188E1F8A1E8A60E07F
:1016900079E08DE390E00E94BC24C901243031053B
:1016A00020F0B9016350710902C061E070E07D8FE4
:1016B0006C8FEC85E63108F068C0B90176956795C6
:1016C0006431710518F06351710902C061E070E086
:1016D0007F8B6E8B069718F0C901059702C081E0D9
:1016E00090E0998F888FC901880F991F820F931FEF
:1016F00096958795969587958D30910510F00C9766
:1017000002C081E090E09B8F8A8F20916800E830D2
:1017100050F091E0EE3008F490E081E001C0880FD5
:101720009A95EAF701C084E0822B809368002C85AB
:10173000283038F02E3040F0263148F48CE690E026
:1017400008C08DE690E005C08BE690E002C080E026
:1017500090E09C8B8B8B283030F481E001C0880FA7
:101760002A95EAF70DC0822F90E02E3010F40897EA
:1017700001C00E9791E001C0990F8A95EAF7892F71
:101780008D8B8C8D9D8D0197F1F7CE01DF91CF91DF
:101790000C94170ACF92DF92EF92FF92DC01ED9149
:1017A000FC910190F081E02D099520E030E044E3C8
:1017B00053E40E941C242BED3FE049E450E40E94D6
:1017C000452220E030E044EB53E40E9422236B01E9
:1017D0007C0120E030E0A9010E94412287FF0AC07D
:1017E00020E030E044EB53E4C701B6010E947B21C6
:1017F0006B017C01C701B601FF90EF90DF90CF90A5
:1018000008954F925F926F927F928F929F92AF92C4
:10181000BF92CF92DF92EF92FF92CF93DF93CDB73B
:10182000DEB7C454D1090FB6F894DEBF0FBECDBFEA
:101830007C0180911A03882309F4D6C0F7018281C4
:1018400093810E94D6168115944029F4F701828174
:1018500093810E949B16F701828193810E94D61684
:10186000409118035091190384179507A0F3BE0106
:101870006F5F7F4FF701828193810E94F216698129
:1018800070E0762F66278A81680F711D882777FDA3
:101890008095982F0E94E02220E030E040E858E355
:1018A0000E941C246B017C01698570E0762F6627FD
:1018B0008A85680F711D882777FD8095982F0E9473
:1018C000E02220E030E040E858E30E941C244B0175
:1018D0005C01A7019601C701B6010E947B212596F4
:1018E0006CAF7DAF8EAF9FAF2597A5019401C50169
:1018F000B4010E947B212B013C01A7019601259692
:101900006CAD7DAD8EAD9FAD25970E941C246B0103
:101910007C01A5019401C301B2010E941C249B011A
:10192000AC01C701B6010E947B2120E030E040E815
:101930005FE30E947A216B017C016D8170E0762F5C
:1019400066278E81680F711D882777FD8095982FF7
:101950000E94E02220E030E040E858E30E941C248E
:101960009B01AC01C301B2010E941C242B013C016C
:101970006D8570E0762F66278E85680F711D88272C
:1019800077FD8095982F0E94E02220E030E040E82B
:1019900058E30E941C249B01AC0125966CAD7DADE3
:1019A0008EAD9FAD25970E941C249B01AC01C30105
:1019B000B2010E947A21A7019601CC5BDF4F0FB6DE
:1019C000F894DEBF0FBECDBFDF91CF91FF90EF90B7
:1019D000DF90CF90BF90AF909F908F907F906F904F
:1019E0005F904F900C94EE2160E070E0CB01CC5BF7
:1019F000DF4F0FB6F894DEBF0FBECDBFDF91CF91A2
:101A0000FF90EF90DF90CF90BF90AF909F908F901E
:101A10007F906F905F904F9008958F929F92AF92BA
:101A2000BF92CF92EF920F931F93CF93DF93CDB7D7
:101A3000DEB7C059D1090FB6F894DEBF0FBECDBFD7
:101A40005C010E94A9166EE170E080E090E00E94C7
:101A5000261B60E0C5010E94B01621E041E060E174
:101A6000C5010E94DE1766E0C5010E94E917C501A5
:101A70000E94EF1720E040E060E0C5010E94DE1701
:101A8000C5010E942517C5010E944317182FC501E3
:101A90000E946A17882EC5010E949117982E4FE761
:101AA00060E0C5010E94691660E0C5010E949416BD
:101AB00048E660E0C5010E946916C5010E94A216B1
:101AC00064E170E080E090E00E94261BEE24E39445
:101AD00000E020E049E857E068E672E0C5010E94B6
:101AE0004C19882309F40EC240EC50E068EA71E01A
:101AF000C5010E94141A882309F406C263E0C501D7
:101B00000E94B71662E1C5010E94751664E0C50126
:101B10000E941F1661E0C5010E94251663E0C50101
:101B20000E94301663E0C5010E943B1663E0C501C8
:101B30000E94171A60E0C5010E941D1A60E0C501ED
:101B40000E943C17612FC5010E945F17682DC501D7
:101B50000E948617692DC5010E94AD17812C912C1A
:101B6000F401E758FE4FE491A1E8B0E0AC0FBD1FCF
:101B7000A80DB11DEC9381E0880D9FEF891A990A99
:101B8000E3E0E81568F7CD57DF4F4881C358D040F0
:101B900050E09A012E5F3F4F90E02817390704F775
:101BA000C12CEE24E394CE57DF4F0881C258D040B9
:101BB000CF57DF4F2881C158D04061E870E06C0FEB
:101BC0007D1F6D5F7F4FC5010E946B1860E0F401BF
:101BD000E758FE4FE491A1E8B0E0AC0FBD1FA60F9F
:101BE000B11DEC936F5FFFEF8F1A9F0A643078F39B
:101BF000CD57DF4F4881C358D04050E09A012E5F47
:101C00003F4F862F90E0281739070CF7C12CEE24A0
:101C1000E394CE57DF4F0881C258D040CF57DF4FF3
:101C20002881C158D04061E870E06C0F7D1F6D5F66
:101C30007F4FC5010E946B18C5010E949B16C5010C
:101C40000E94D616482FBE016F5F7F4FC5010E94CC
:101C5000F21662E0C5010E9451166CE9C5010E94AE
:101C60005D1660E5C5010E94571660E0C5010E943F
:101C70006316C5010E949B1661E0C5010E948D1686
:101C800061E0C5010E94D017C5010E94D71760E02E
:101C9000F401E758FE4FE491A1E8B0E0AC0FBD1F9E
:101CA000A60FB11DEC936F5F8FEF881A980A64300E
:101CB00078F3CD57DF4F4881C358D04050E09A01A8
:101CC0002E5F3F4F862F90E0281739070CF7C12C65
:101CD000EE24E394CE57DF4F0881C258D040CF574F
:101CE000DF4F2881C158D04061E870E06C0F7D1F44
:101CF0006D5F7F4FC5010E946B1860E0F401E758EB
:101D0000FE4FE491A1E8B0E0AC0FBD1FA60FB11DDE
:101D1000EC936F5F9FEF891A990A643078F3CD577F
:101D2000DF4F4881C358D04050E09A012E5F3F4FAB
:101D3000862F90E0281739070CF7C12CEE24E39486
:101D4000CE57DF4F0881C258D040CF57DF4F288190
:101D5000C158D04061E870E06C0F7D1F6D5F7F4F10
:101D6000C5010E946B1860E0F401E758FE4FE49152
:101D7000A1E8B0E0AC0FBD1FA60FB11DEC936F5FE3
:101D8000EFEF8E1A9E0A643078F3CD57DF4F48810B
:101D9000C358D04050E09A012E5F3F4F862F90E00D
:101DA000281739070CF7C12CEE24E394CE57DF4FE8
:101DB0000881C258D040CF57DF4F2881C158D0404A
:101DC00061E870E06C0F7D1F6D5F7F4FC5010E9461
:101DD0006B18C5010E94D61683309105D0F3482FA9
:101DE000BE016F5F7F4FC5010E94F216C5010E94C0
:101DF0007B1660E0F401E758FE4FE491A1E8B0E003
:101E0000AC0FBD1FA60FB11DEC936F5FFFEF8F1AD4
:101E10009F0A643078F3CD57DF4F4881C358D040D4
:101E200050E09A012E5F3F4F862F90E02817390728
:101E30000CF7CE57DF4F0881C258D040CF57DF4F45
:101E40002881C158D04061E870E06C0F7D1F6D5F44
:101E50007F4FC5010E940118C5010E94D61683302C
:101E60009105D0F3482FBE016F5F7F4FC5010E94DF
:101E7000F216C5010E947B16F401E758FE4F60E0A0
:101E80008491A1E8B0E0AC0FBD1FA60FB11D8C93EB
:101E90006F5F643010F43196F3CFCD57DF4F488138
:101EA000C358D04050E09A012E5F3F4F862F90E0FC
:101EB0002817390784F761E870E06C0F7D1F6D5FAC
:101EC0007F4FC12CEE24E394CE57DF4F0881C258D8
:101ED000D040CF57DF4F2881C158D040C5010E9464
:101EE0006B1860E0C5010E94D0178AE290E0F5010E
:101EF00093838283C5010E949B16C5010E947B16B5
:101F000080E003C081E001C082E0C057DF4F0FB620
:101F1000F894DEBF0FBECDBFDF91CF911F910F911F
:101F2000EF90CF90BF90AF909F908F9008950F93B8
:101F30001F93CF93DF93EC0188E591E09983888329
:101F400083E190E00E94491D8C010E941B161B83B7
:101F50000A8384E192E00E94B80688E18093B80089
:101F60006DE571E086E293E00E94BD1D8A819B8150
:101F70000E94C2166FE371E086E293E00E94BD1DED
:101F80008A819B810E941D17882319F061E271E00C
:101F900002C067E071E086E293E00E94BD1D63EF3E
:101FA00070E086E293E00E94BD1D8A819B810E94C1
:101FB0000D0D182F6CED70E08A819B810E94BE1779
:101FC0006CE470E08A819B810E94C4176BEA7FEF0A
:101FD0008A819B810E94CA176CEF76E08A819B817F
:101FE0000E94B817111130C063EE70E086E293E0F2
:101FF0000E94BD1D61E08A819B810E94D01769EB20
:1020000070E086E293E00E94BD1D81E080931A0398
:10201000EA81FB8182819381909319038093180355
:1020200066E471E086E293E00E94B01D60911803BF
:10203000709119034AE050E086E293E0DF91CF917E
:102040001F910F910C94A01E68E970E086E293E066
:102050000E948D1D4AE050E0612F86E293E00E94CD
:10206000991E66E970E086E293E0DF91CF911F91BF
:102070000F910C94BD1D0F931F93CF93DF93EC0131
:1020800086E090E00E94491D8C0128E030E04BE0A2
:1020900050E06DE070E00E94B2121B830A8386E07C
:1020A00090E00E94491D8C0129E030E043E050E0BF
:1020B0006CE070E00E94B2121D830C8319821882BA
:1020C000DF91CF911F910F910895CF93DF93EC0192
:1020D0008A819B810E94D7128C819D81DF91CF9153
:1020E0000C94D712CF92DF92EF92FF920F931F932F
:1020F000CF93DF93EC018E819F818130910571F048
:102100002CF4892B09F560E070E00DC08230910558
:1021100041F00397C9F460E070E00CC061E070E04A
:1021200009C061E070E08C819D810E94CB1260E06B
:1021300070E006C08C819D810E94CB1261E070E04E
:102140008A819B810E94CB1288819981009721F11D
:102150000E94AD158C016C01E12CF12C88819981D4
:10216000DC01ED91FC910190F081E02D0995811148
:1021700008C00115110591F3C701B6010E94261B85
:10218000EDCFCE01DF91CF911F910F91FF90EF9096
:10219000DF90CF900C946510DF91CF911F910F913C
:1021A000FF90EF90DF90CF900895FC0171836083E2
:1021B00008958130910599F01CF4892B69F00BC0CA
:1021C0008230910529F0039731F422E731E009C00C
:1021D0002DE631E006C008952CE531E002C024E68A
:1021E00031E0C9010895CF92DF92EF92FF926B0127
:1021F0007C0120E030E0A9010E94412220E030E093
:1022000044EB53E487FF05C0C701B6010E947B2160
:102210000EC0C701B6010E94112487FD0AC020E04C
:1022200030E044EB53E4C701B6010E947A216B0110
:102230007C01C701B601FF90EF90DF90CF90089529
:102240000F931F93CF93DF93EC018B010E943B1000
:102250001987088764E670E08C819D810E94DC12FA
:1022600064E670E08A819B81DF91CF911F910F918D
:102270000C94DC124F925F926F927F928F929F929A
:10228000AF92BF92CF92DF92EF92FF920F931F9384
:10229000CF93DF934C016A017B0180E00E945313CE
:1022A0005C0120E030E044EB53E4C701B6010E943A
:1022B00022230E94F3106B017C01D40118968D91AA
:1022C0009C911997DC01ED91FC910280F381E02D46
:1022D00009952B013C01A114B10421F168E771E0DB
:1022E000F501848595850E94B01D22E030E0B301A0
:1022F000A201D5011C968D919C911D970E94A31F50
:1023000062E871E0F501848595850E94B01D22E0A8
:1023100030E0B701A601D5011C968D919C911D97C7
:102320000E94A31F20E030E044E353E4C701B6015C
:102330000E94112418160CF58AE090E00E94491DB5
:10234000EC0120E030E044E353E4C701B6010E9411
:102350007A21AB01BC0197018601CE010E94511A7E
:10236000B301A201CE010E94621A882319F083E012
:1023700090E020C082E090E025C08AE090E00E94DA
:10238000491DEC0120E030E044E353E4C701B6010D
:102390000E947B218B019C01B701A601CE010E9406
:1023A000511AB301A201CE010E94621A882341F0A2
:1023B00082E090E0F40197838683198618860BC02B
:1023C00083E090E0D40117969C938E93169781E05A
:1023D00090E099878887A114B10409F44FC068E898
:1023E00071E0F501848595850E94B01D4881598171
:1023F0006A817B8122E030E0D5011C968D919C9111
:102400001D970E94A11F68E171E0F5018485958503
:102410000E94B01D4C815D816E817F8122E030E0A1
:10242000D5011C968D919C911D970E94A31F60E978
:1024300071E0F501848595850E94B01D8885998598
:102440000E94A11ABC01D5011C968D919C911D97EB
:102450000E94CF1D68E971E0F501848595850E9491
:10246000B01DD40116968D919C9117970E94D9109A
:10247000BC01F501848595850E94CF1D88E090E020
:102480000E94491D8C01D40118966D917C91199779
:10249000AE010E94F915B801C4010E94D510C40113
:1024A0000E947210209731F0CE010E94A01ACE0136
:1024B0000E944D1D01151105B1F0C8010E941516AD
:1024C000C801DF91CF911F910F91FF90EF90DF90A6
:1024D000CF90BF90AF909F908F907F906F905F90C4
:1024E0004F900C944D1DDF91CF911F910F91FF9054
:1024F000EF90DF90CF90BF90AF909F908F907F90A4
:102500006F905F904F9008950F931F93CF93DF9339
:1025100000D000D0CDB7DEB78C019A01AB01DC0151
:1025200018968D919C911997DC01ED91FC91028098
:10253000F381E02D29833A834B835C8309952981BC
:102540003A814B815C810E947B21AB01BC01C801B7
:102550000F900F900F900F90DF91CF911F910F91DF
:102560000C943A11CF93DF931F92CDB7DEB7FC01E5
:10257000862F24833583538342836083718361E094
:1025800029830E94231C61E02981822F0F90DF9113
:10259000CF910C94231CCF93DF93EC0188810E9490
:1025A0005C1C60E08C81DF91CF910C945C1C61E03D
:1025B000FC0184810C945C1CCF93DF93EC018A8135
:1025C0000E949B1BCE01DF91CF910C94D712DC01AE
:1025D0001C968D919C911D97DC01ED91FC910480DE
:1025E000F581E02D0994DC011C968D919C911D973D
:1025F000DC01ED91FC910680F781E02D0994DC016E
:102600001C968D919C911D97DC01ED91FC910084AD
:10261000F185E02D0994DC011C968D919C911D970C
:10262000DC01ED91FC910284F385E02D0994DC013D
:102630001C968D919C911D97DC01ED91FC91019070
:10264000F081E02D09941F93CF93DF93182FEB01B6
:102650008A3018F58EE090E00E94491DFC0113823B
:10266000128248EE53E060E070E044835583668355
:10267000778323EB31E031832083D587C487909122
:102680001B0380911C03A92FB82FA10FB11DA10F0F
:10269000B11DED93FC93CF0102C080E090E0DF918B
:1026A000CF911F9108958A3068F420911B03909177
:1026B0001C03E22FF92FE80FF11DE80FF11D8081B7
:1026C0009181089580E090E00895FC0184859585CE
:1026D000613019F464EA71E002C069EA71E00C94B7
:1026E000CF1D84E190E00E944B1D90931C038093CA
:1026F0001B030895EF92FF920F931F93CF93DF93E5
:1027000000D0CDB7DEB7062F142F682F84E192E0FA
:1027100029833A830E94C206602F84E192E00E94DE
:1027200079062981022FE22E3A81F32E8E2D801B0D
:10273000811740F4F70161917F0184E192E00E94EA
:102740007906F4CF84E192E00E94430791E0811181
:1027500090E0892F0F900F90DF91CF911F910F91F3
:10276000FF90EF900895CF93DF931F92CDB7DEB720
:1027700049839E012F5F3F4F41E00E947A130F90E3
:10278000DF91CF910895DF92EF92FF920F931F9305
:10279000CF93DF93C62F042F7901682F84E192E055
:1027A0000E94C2066C2F84E192E00E94790610E03C
:1027B000000F111FD12CCD2DD0E0C017D1078CF404
:1027C000CC0FDD1FCE0DDF1D698184E192E00E94F8
:1027D0007906688184E192E00E947906D394D394CB
:1027E000EACF84E192E00E94430791E0811190E0FA
:1027F000892FDF91CF911F910F91FF90EF90DF9084
:102800000895CF93DF9300D0CDB7DEB75A834983C5
:102810009E012F5F3F4F41E00E94C3130F900F9026
:10282000DF91CF9108953F924F925F926F927F9286
:102830008F929F92AF92BF92CF92DF92EF92FF92D0
:102840000F931F93CF93DF9300D000D000D0CDB76C
:10285000DEB7682E562E742E3A8329830E94F71A0B
:102860006B017C01312C412C872D90E09C838B8364
:102870004801A12CB12C3714B0F5662D84E192E00B
:102880000E94C206652D84E192E00E94790684E1EF
:1028900092E00E944307662D84E192E00E94C20606
:1028A0004B815C81431951094132510514F040E2DA
:1028B00050E0662D84E192E00E94400784E192E0BE
:1028C0000E942106892B59F10115110579F10E9409
:1028D000F71A6C197D098E099F09681579058A0513
:1028E0009B0520F11CC00115110589F10E94F71A02
:1028F0006C197D098E099F0920E030E0601771078F
:102900008207930720F1872D90E0242D332727FDA0
:10291000309528173907DCF444244A9418C0872DD1
:1029200090E2971508F480E2380EA5CFE981FA818C
:10293000E40DF11D47FCFA95FE83ED8384E192E0FE
:102940000E942906ED81FE8180834394B7CF842DB8
:1029500026960FB6F894DEBF0FBECDBFDF91CF91A4
:102960001F910F91FF90EF90DF90CF90BF90AF90AD
:102970009F908F907F906F905F904F903F900895C1
:102980000F931F9389019A0141E00E9413141F9134
:102990000F910895DF92EF92FF920F931F93CF93C1
:1029A000DF931F92CDB7DEB7D42E79019801AE0127
:1029B0004F5F5F4F0E94C01461E070E001C0660F7E
:1029C000DA94EAF799819623F70190830F90DF91CB
:1029D000CF911F910F91FF90EF90DF900895CF92CC
:1029E000DF92EF92FF920F931F93CF93DF931F928B
:1029F000CDB7DEB7C42ED22E9701AE014F5F5F4F29
:102A00000E94C0148823F1F04C2D50E04D1951095B
:102A10004F5F5F4F61E070E002C0660F771FDA948E
:102A2000E2F761507109042E01C0660F0A94EAF7BB
:102A30002981262330E002C0359527954A95E2F793
:102A4000F80120830F90DF91CF911F910F91FF909C
:102A5000EF90DF90CF900895EF92FF920F931F9326
:102A6000CF93DF931F92CDB7DEB7182F062FF42E2A
:102A7000E22E2091060130910701AE014F5F5F4FBA
:102A80000E94C014898121E030E00F2C01C0220F88
:102A90000A94EAF7EE2019F0482F422B03C0422F88
:102AA000409548234983602F812F0E94B3130F90D4
:102AB000DF91CF911F910F91FF90EF900895DF92DA
:102AC000EF92FF920F931F93CF93DF931F92CDB797
:102AD000DEB7F82EE62ED42E122F2091060130916B
:102AE0000701AE014F5F5F4F0E94C014882319F1A8
:102AF0004D2D50E0411B51094F5F5F4FE1E0F0E089
:102B000002C0EE0FFF1F1A95E2F73197042E01C0A5
:102B1000EE0F0A94EAF701C0000F4A95EAF74E2F2C
:102B2000409589814823E0234E2B49836E2D8F2DBC
:102B30000E94B31301C080E00F90DF91CF911F91ED
:102B40000F91FF90EF90DF90089523EC31E0FC01AE
:102B500031832083738362830895FC018281938192
:102B60000895CF92DF92EF92FF920F931F93CF932E
:102B7000DF938C0180E00E945313EC01D80114967E
:102B80008D919C911597DC01ED91FC910280F38170
:102B9000E02D09956B017C01AB01BC01F801868138
:102BA00097810E94921A11E018272097C1F065ECD6
:102BB00071E08C859D850E94B01D22E030E0B70158
:102BC000A6018C859D850E94A31F61ED71E08C8517
:102BD0009D850E94B01D612FCE010E946513812F3B
:102BE000DF91CF911F910F91FF90EF90DF90CF90E9
:102BF0000895EF92FF920F931F93CF93DF93EC0111
:102C00008B017A0160E070E00E94A5158EED91E0E5
:102C1000998388831D830C83FF82EE82DF91CF919D
:102C20001F910F91FF90EF9008952EED31E0FC0180
:102C300031832083089528E6FC0120830895462FE0
:102C400069E1FC0180810C94B3130F93062F23E0FC
:102C500045E06AE1FC0180810E945F150F910895B3
:102C60000F93062F23E042E06AE1FC0180810E947D
:102C70005F150F9108950F93062F22E044E06BE15A
:102C8000FC0180810E945F150F9108950F93062F1C
:102C900022E044E06CE1FC0180810E945F150F910D
:102CA0000895462F6FE1FC0180810C94B313462FE9
:102CB00060E2FC0180810C94B313462F61E2FC01B9
:102CC00080810C94B313462F62E2FC0180810C9446
:102CD000B313643048F4262F220F260F2B5D622F8A
:102CE000FC0180810C94B3130895462F68E3FC0126
:102CF00080810C94B313CF93DF93EC0120910601F4
:102D000030910701AC014F5F5F4F6AE388810E94F9
:102D1000C0148981DF91CF910895262F46E06AE69D
:102D2000FC0180810C942C15262F45E06AE6FC01FD
:102D300080810C942C1521E042E06AE6FC01808140
:102D40000C942C1521E041E06AE6FC0180810C9492
:102D50002C1521E047E06BE6FC0180810C942C15DA
:102D6000262F46E06BE6FC0180810C942C150F9316
:102D7000062F23E042E06BE6FC0180810E945F1594
:102D80000F910895CF93DF93EC0161E00E94B71695
:102D900060E0CE010E943B1660E0CE010E94461624
:102DA00060E0CE01DF91CF910C94B0160F931F938A
:102DB000CF93DF93EC0100910601109107019C0174
:102DC0002F5F3F4F42E062E788810E9413148981A0
:102DD00090E0982F88272A81822BDF91CF911F9135
:102DE0000F9108950F931F939B010091060110917D
:102DF000070164E7FC0180810E9413141F910F9169
:102E00000895EF92FF920F931F93CF93DF93EC01FE
:102E1000E0900601F09007018C010F5F1F4F26E044
:102E200046E065E788810E94EF148981DF91CF91A8
:102E30001F910F91FF90EF9008950E94011791E06C
:102E4000843309F090E0892F08950F931F93CF9357
:102E5000DF93EC0100910601109107019C012F5FA7
:102E60003F4F40E060E088810E94CA148981DF9171
:102E7000CF911F910F910895262F40E060E0FC0153
:102E800080810C942C15EF92FF920F931F93CF9398
:102E9000DF93EC01E0900601F09007018C010F5FD9
:102EA0001F4F26E046E060E088810E94EF14898190
:102EB000DF91CF911F910F91FF90EF9008950F93A5
:102EC000062F26E046E060E0FC0180810E945F154D
:102ED0000F910895EF92FF920F931F93CF93DF937B
:102EE000EC01E0900601F09007018C010F5F1F4F8D
:102EF00026E046E061E088810E94EF148981DF913D
:102F0000CF911F910F91FF90EF9008950F93062F8F
:102F100026E046E061E0FC0180810E945F150F9190
:102F20000895EF92FF920F931F93CF93DF93EC01DD
:102F3000E0900601F09007018C010F5F1F4F26E023
:102F400046E062E088810E94EF148981DF91CF9191
:102F50001F910F91FF90EF9008950F93062F26E099
:102F600046E062E0FC0180810E945F150F910895A8
:102F7000AB016AE0FC0180810C940114AB0163E1B8
:102F8000FC0180810C940114AB0165E1FC0180819E
:102F90000C940114AB0167E1FC0180810C940114D5
:102FA000262F47E06AE6FC0180810C942C1521E075
:102FB00043E06AE6FC0180810C942C156F712111AD
:102FC000606241116064462F6DE6FC0180810C94C3
:102FD000B313462F6EE6FC0180810C94B313CF939C
:102FE000DF93EC012091060130910701AC014F5FA6
:102FF0005F4F6FE688810E94C0148981DF91CF9175
:1030000008955F926F927F928F929F92AF92BF923C
:10301000CF92DF92EF92FF920F931F93CF93DF93A4
:103020007C015B016A01622E702E20E040E0662D7B
:103030000E94DE17602FC7010E94E917C0E0D0E0B0
:10304000812C99249394CC15DD05A8F5CE014096EA
:10305000C816D90618F45C2C5C1A02C0A0E15A2EDE
:10306000252D30E0C401871991098217930714F4C4
:10307000572C5194009106011091070195012C0FD6
:103080003D1F452D6FE6F70180810E941314C50D89
:10309000D11D750CCC15DD05B0F6711001C063941F
:1030A00020E040E0662DC7010E94DE17672DC701B2
:1030B0000E94E917C8CFDF91CF911F910F91FF9028
:1030C000EF90DF90CF90BF90AF909F908F907F90C8
:1030D0006F905F9008952F923F924F925F926F9200
:1030E0007F928F929F92AF92BF92CF92DF92EF9298
:1030F000FF920F931F93CF93DF9300D000D01F92C6
:10310000CDB7DEB79D838C837B836A834A01322EE1
:10311000D02EE98220E040E0632D0E94DE17602F70
:103120008C819D810E94E917E980EE2029F080E1E1
:1031300090E00E940F255C01CC2031F080E190E00E
:103140000E940F25582E492EE12CF12CE814F90489
:1031500008F07AC0C70140968816990618F4282C02
:103160002E1802C010E1212E222D30E080E091E0E7
:103170008D1991098217930714F42D2C2194EA815B
:10318000FB81EE0DFF1DCC2059F0852DA52DB42D12
:103190009A2F981B921530F494919D933196F8CF05
:1031A0005E2E4F2E252D342D422D6FE6AC81BD8134
:1031B0008C910E947A13622C712CB981BB2369F126
:1031C000A114B10451F120E040E0632D8C819D8178
:1031D0000E94DE176D2D8C819D810E94E917009160
:1031E0000601109107019501422D6FE6EC81FD81EA
:1031F00080810E941314A301B501852D942D0E9496
:103200000527892B51F0C5010E94A725CC2049F143
:10321000852D942D0E94A72524C0E60CF71CD20C06
:10322000E814F90408F092CFD11001C0339420E0E3
:1032300040E0632D8C819D810E94DE176D2D8C8175
:103240009D810E94E91782CFF981FF2319F0C50102
:103250000E94A725CC2039F0852D942D0E94A7250A
:1032600002C080E001C081E00F900F900F900F909E
:103270000F90DF91CF911F910F91FF90EF90DF9012
:10328000CF90BF90AF909F908F907F906F905F9006
:103290004F903F902F900895CF92EF920F93CC24B0
:1032A000C3940E946B180F91EF90CF9008952F92C6
:1032B0003F924F925F926F927F928F929F92AF92C6
:1032C000BF92CF92DF92EF92FF920F931F93CF9313
:1032D000DF9300D01F92CDB7DEB74C017B836A83AA
:1032E0003A01D22E222331F088E090E00E940F258F
:1032F000182FF92E212C312C2614370408F051C038
:10330000EA81FB81E20DF31DC10103965C01DD2022
:10331000C1F04491F10131968A819B81E80FF91F38
:103320000491F1013296E80FF91F5490511044C0F6
:10333000F4E02F0E311CEA81FB81EA0DFB1D849124
:103340000DC0408101815280EA81FB81E80FF91FA5
:1033500051100DC084E0280E311C80818130D1F4E1
:1033600042E368E3F40180810E94B313C5CF1E2FAE
:10337000FF2E452C512CC12CEE24E394242FA201C6
:10338000612F7F2DC4010E946B1812012A0C3B1C77
:103390008111B2CFDD2061F0812F9F2D0E94A725E2
:1033A00007C0DD2039F0812F9F2D0E94A72502C084
:1033B00080E024C081E022C0252C312CF2E0F515FC
:1033C00048F4B101812F9F2D49830E943626182F82
:1033D000F92E4981812F9F2DA0E0B0E02A813B8109
:1033E0002A0D3B1DA215B30520F6F901EA0FFB1FBC
:1033F0005491FC015193CF011196F4CF0F900F908F
:103400000F90DF91CF911F910F91FF90EF90DF9080
:10341000CF90BF90AF909F908F907F906F905F9074
:103420004F903F902F90089521E00C945719462F0C
:1034300060E7FC0180810C94B313462F61E7FC0127
:1034400080810C94B3138F929F92AF92BF92CF92D0
:10345000DF92EF92FF92CF93DF93EC01C880D98087
:10346000EA80FB808C809D80AE80BF80A5019401A6
:10347000C701B6010E941124181644F4888299826B
:10348000AA82BB82CC82DD82EE82FF82DF91CF9165
:10349000FF90EF90DF90CF90BF90AF909F908F9074
:1034A00008950F931F93FC0111861086408351836A
:1034B0006283738304831583268337831F910F915F
:1034C0000C94231ACF92DF92EF92FF921F93CF9327
:1034D000DF93EC016A017B019A01AB01688179817C
:1034E0008A819B810E944122181674F011E02C8180
:1034F0003D814E815F81C701B6010E9441221816AD
:103500000CF410E0812F01C080E0DF91CF911F917A
:10351000FF90EF90DF90CF9008950E94621A91E0A3
:1035200089270895FC01208531852115310521F079
:103530002130310519F008950C94621A0C948D1AFB
:103540000895009719F0019721F0089520EE31E0D9
:1035500002C026EE31E0C90108951F920F920FB606
:103560000F9211242F933F938F939F93AF93BF9309
:1035700080911E0390911F03A0912003B09121031D
:1035800030911D0323E0230F2D3720F40196A11D58
:10359000B11D05C026E8230F0296A11DB11D209381
:1035A0001D0380931E0390931F03A0932003B093E9
:1035B00021038091220390912303A0912403B091D1
:1035C00025030196A11DB11D80932203909323032F
:1035D000A0932403B0932503BF91AF919F918F9146
:1035E0003F912F910F900FBE0F901F9018952FB7FE
:1035F000F89460911E0370911F03809120039091B5
:1036000021032FBF08953FB7F89480912203909132
:103610002303A0912403B091250326B5A89B05C0E0
:103620002F3F19F00196A11DB11D3FBF6627782FCE
:10363000892F9A2F620F711D811D911D42E0660F27
:10364000771F881F991F4A95D1F708958F929F92EF
:10365000AF92BF92CF92DF92EF92FF926B017C010B
:103660000E94031B4B015C01C114D104E104F1046D
:10367000F1F00E9496200E94031B681979098A09BB
:103680009B09683E73408105910570F321E0C21AE1
:10369000D108E108F10888EE880E83E0981EA11C8D
:1036A000B11CC114D104E104F10429F7DDCFFF906E
:1036B000EF90DF90CF90BF90AF909F908F90089544
:1036C000789484B5826084BD84B5816084BD85B5FD
:1036D000826085BD85B5816085BDEEE6F0E08081C4
:1036E00081608083E1E8F0E01082808182608083E5
:1036F000808181608083E0E8F0E080818160808368
:10370000E1EBF0E0808184608083E0EBF0E0808199
:1037100081608083EAE7F0E080818460808380813B
:1037200082608083808181608083808180688083E3
:103730001092C10008951F93CF93DF93182FEB01D0
:1037400061E00E94231C209711F460E004C0CF3F89
:10375000D10539F461E0812FDF91CF911F910C9455
:103760005C1CE12FF0E0EF50F64FE491E330F9F00C
:1037700048F4E130B9F0E230A1F584B5806284BD4F
:10378000C8BD34C0E730E9F0E83019F1E43049F55C
:1037900080918000806280938000D0938B00C093E2
:1037A0008A0024C084B5806884BDC7BD1FC08091D5
:1037B0008000806880938000D0938900C093880047
:1037C00015C08091B00080688093B000C093B300B2
:1037D0000DC08091B00080628093B000C093B400AF
:1037E00005C0C038D1050CF0B5CFAFCFDF91CF9178
:1037F0001F910895833081F028F4813099F0823050
:10380000A1F008958730A9F08830B9F08430D1F460
:10381000809180008F7D03C0809180008F7780939E
:103820008000089584B58F7702C084B58F7D84BDF4
:1038300008958091B0008F7703C08091B0008F7D94
:103840008093B0000895CF93DF9390E0FC01EB5F8D
:10385000F54F2491FC01E75EF54F8491882349F1EF
:1038600090E0880F991FFC01EF5BF54FA591B49193
:10387000895C954FFC01C591D4919FB7611108C037
:10388000F8948C91209582238C93888182230AC09E
:10389000623051F4F8948C91322F309583238C93BD
:1038A0008881822B888304C0F8948C91822B8C931E
:1038B0009FBFDF91CF9108950F931F93CF93DF9315
:1038C0001F92CDB7DEB7282F30E0F901EF50F64F49
:1038D0008491F901EB5FF54F1491F901E75EF54F23
:1038E00004910023C9F0882321F069830E94FA1B08
:1038F0006981E02FF0E0EE0FFF1FE95CF54FA59125
:10390000B4919FB7F8948C91611103C010958123F5
:1039100001C0812B8C939FBF0F90DF91CF911F919E
:103920000F9108950E9400271F920F920FB60F92D9
:1039300011242F938F939F93EF93FF93E09136037E
:10394000F09137038081E0913C03F0913D0382FDCB
:1039500012C0908180913F038F5F8F73209140034D
:10396000821751F0E0913F03F0E0EA5DFC4F958F44
:1039700080933F0301C08081FF91EF919F918F91D0
:103980002F910F900FBE0F901F9018951F920F92BE
:103990000FB60F9211242F933F934F935F936F9322
:1039A0007F938F939F93AF93BF93EF93FF9386E2A1
:1039B00093E00E94D220FF91EF91BF91AF919F9130
:1039C0008F917F916F915F914F913F912F910F90C8
:1039D0000FBE0F901F90189586E293E00E949720EB
:1039E00021E0892B09F420E0822F08951092290309
:1039F0001092280388EE93E0A0E0B0E080932A03C1
:103A000090932B03A0932C03B0932D0381E092E0BD
:103A1000909327038093260385EC90E090933303E3
:103A20008093320384EC90E09093350380933403C9
:103A300080EC90E0909337038093360381EC90E024
:103A4000909339038093380382EC90E090933B038A
:103A500080933A0386EC90E090933D0380933C037F
:103A600010923F03109240031092410310924203C0
:103A7000089508950E94601B0E94391D0E945305FD
:103A8000C4ECD0E20E948B052097E1F30E94C42091
:103A9000F9CF0C940F250C940F250C94A725CF92E9
:103AA000DF92EF92FF920F931F93CF93DF937C01EE
:103AB0006A01EB0100E010E00C151D0571F0699141
:103AC000D701ED91FC910190F081E02DC70109959E
:103AD000892B19F00F5F1F4FEFCFC801DF91CF91F6
:103AE0001F910F91FF90EF90DF90CF900895611597
:103AF000710581F0DB010D900020E9F7AD01415027
:103B00005109461B570BDC01ED91FC910280F381BA
:103B1000E02D099480E090E00895EF92FF920F93DA
:103B20001F93CF93DF938C017B01C0E0D0E0F701BE
:103B3000EC0FFD1F6491662359F0F801A081B1815B
:103B4000ED91FC91C8010995892B11F02196EFCFD9
:103B5000CE01DF91CF911F910F91FF90EF900895CB
:103B60000C94771DDC01ED91FC910190F081E02D2A
:103B700009946CEE71E00C94771D0F931F93CF9313
:103B8000DF93EC010E948D1D8C01CE010E94B91DB6
:103B9000800F911FDF91CF911F910F9108950F9387
:103BA0001F93CF93DF93EC010E94771D8C01CE0110
:103BB0000E94B91D800F911FDF91CF911F910F912E
:103BC00008958F929F92AF92BF92DF92EF92FF92F1
:103BD0000F931F93CF93DF93CDB7DEB7A1970FB6A7
:103BE000F894DEBF0FBECDBF7C01F42FD52ECB01E4
:103BF00019A2223008F42AE08E010F5D1F4F822E99
:103C0000912CA12CB12C6F2F7D2DA50194010E9428
:103C10009A24F22FD32ECA01015011096A3014F4EC
:103C2000E0E301C0E7E3E60FD801EC93232B242B5C
:103C3000252B49F7B801C7010E94771DA1960FB641
:103C4000F894DEBF0FBECDBFDF91CF911F910F91D2
:103C5000FF90EF90DF90BF90AF909F908F9008956E
:103C6000CF92DF92EF92FF920F931F93CF93DF9348
:103C7000EC016A017B012115310579F4E881F981B4
:103C80000190F081E02D642FDF91CF911F910F9172
:103C9000FF90EF90DF90CF9009942A303105E9F43E
:103CA00077FF1AC06DE20E94B21D8C014427552790
:103CB000BA014C195D096E097F092AE0CE010E9404
:103CC000E11D800F911FDF91CF911F910F91FF9008
:103CD000EF90DF90CF9008952AE0B701A601CE01C2
:103CE000DF91CF911F910F91FF90EF90DF90CF90D8
:103CF0000C94E11D0F931F93CF93DF93EC010E946F
:103D0000301E8C01CE010E94B91D800F911FDF91E2
:103D1000CF911F910F9108952115310541F4DC01D8
:103D2000ED91FC910190F081E02D642F09940C94A9
:103D3000E11D9A01462F50E060E070E00C948C1E6B
:103D40000F931F93CF93DF93EC019A01AB0160E0D7
:103D500070E00E948C1E8C01CE010E94B91D800F64
:103D6000911FDF91CF911F910F9108954F925F9214
:103D70006F927F928F929F92AF92BF92CF92DF927B
:103D8000EF92FF920F931F93CF93DF93EC016A01A1
:103D90007B01B22E9A01AB01C701B6010E948224B9
:103DA000882319F06FEE71E027C026013701E894EF
:103DB00077F82FEF3FEF4FE75FE7C301B2010E94B3
:103DC000822481110DC02FEF3FEF4FE75FE7C30162
:103DD000B2010E94412218161CF463EF71E00CC07E
:103DE0002FEF3FEF4FE75FE4C701B6010E941124B8
:103DF0001816ACF467EF71E0CE01DF91CF911F91FF
:103E00000F91FF90EF90DF90CF90BF90AF909F9079
:103E10008F907F906F905F904F900C94771D2FEF55
:103E20003FEF4FE75FECC701B6010E94412287FDDB
:103E3000E1CF20E030E0A901C701B6010E94412294
:103E400087FF0AC06DE2CE010E94B21D8C01F7FA15
:103E5000F094F7F8F09402C000E010E0A12C60E0CC
:103E600070E080E09FE3AB1441F020E030E040E2FE
:103E700051E40E944522A394F6CF9B01AC01C701F7
:103E8000B6010E947B216B017C010E94B2222B01B2
:103E90003C010E94DE229B01AC01C701B6010E94D9
:103EA0007A216B017C012AE0B301A201CE010E94BC
:103EB000E11D080F191FBB2039F06BEF71E0CE0137
:103EC0000E94771D080F191F7B2C772041F120E0FD
:103ED00030E040E251E4C701B6010E941C246B01AE
:103EE0007C010E94AD224B01AA2497FCA094BA2C1D
:103EF0002AE030E0B501A401CE010E94301E080F77
:103F0000191FC501B4010E94E0229B01AC01C70149
:103F1000B6010E947A216B017C017A94D6CFC80148
:103F2000DF91CF911F910F91FF90EF90DF90CF9095
:103F3000BF90AF909F908F907F906F905F904F90C9
:103F400008950C94B61E0F931F93CF93DF93EC014B
:103F50000E94B61E8C01CE010E94B91D800F911FD8
:103F6000DF91CF911F910F9108950F931F93CF93DE
:103F7000DF93EC010E94F71A688779878A879B870D
:103F8000E881F9810084F185E02DCE01099597FF44
:103F900015C00E94F71A088519852A853B85601B84
:103FA000710B820B930B0C811D812E813F81601759
:103FB00071078207930720F38FEF9FEFDF91CF9177
:103FC0001F910F910895FF920F931F93CF93DF934B
:103FD000EC018B01F42ECE010E94B51F9C0197FDD0
:103FE00028C08D32910519F1C0970A9710F1FF2072
:103FF00019F02E323105F9F001301105F9F00230D7
:10400000110569F42D30310551F034F4295031098E
:104010002230310520F012C02032310579F4E881D8
:10402000F9810680F781E02DCE010995D4CF8DE28C
:1040300003C0C90105C08EE290E002C08FEF9FEF80
:10404000DF91CF911F910F91FF900895CF92DF9252
:10405000FF920F931F93CF93DF9300D000D0CDB783
:10406000DEB76C01042F40E00E94E31FFC0197FDC6
:104070004BC020E030E0A901F12C112707FD10957D
:10408000E017F107E9F0ED32F105C1F0CF01C0977B
:104090000A97B0F4AAE0B0E00E94DB249B01AC01D7
:1040A000CF01AA2797FDA095BA2F280F391F4A1FC5
:1040B0005B1F205331094109510902C0FF24F394C9
:1040C000D601ED91FC910680F781E02DC601298390
:1040D0003A834B835C830995C6010E94B51FFC019E
:1040E000C09729813A814B815C810A9748F2E01799
:1040F000F10731F2FF2061F066277727CB01621BC1
:10410000730B840B950B06C060E070E0CB0102C01E
:10411000CA01B9010F900F900F900F90DF91CF91CE
:104120001F910F91FF90DF90CF9008950895FC01AB
:10413000818D228D90E0805C9F4F821B91098F734F
:1041400099270895FC01918D828D981731F0828D09
:10415000E80FF11D858D90E008958FEF9FEF089592
:10416000FC01918D828D981761F0828DDF01A80F7F
:10417000B11D5D968C91928D9F5F9F73928F90E0A1
:1041800008958FEF9FEF08958CEE9CE1892B49F005
:1041900080E090E0892B29F00E94EC1C81110C94A6
:1041A00000000895FC01848DDF01A80FB11DA35A02
:1041B000BF4F2C91848D90E001968F739927848F47
:1041C000A689B7892C93A089B1898C9180648C933E
:1041D000938D848D981306C00288F389E02D808129
:1041E0008F7D80830895CF93DF93EC01888D8823A2
:1041F000C9F0EA89FB89808185FD05C0A889B98954
:104200008C9186FD0FC00FB607FCF5CF808185FF2E
:10421000F2CFA889B9898C9185FFEDCFCE010E949C
:10422000D220E7CFDF91CF910895CF92DF92FF9216
:104230000F931F93CF93DF931F92CDB7DEB76C011F
:1042400081E0D60158968C9358975B969C915B972A
:104250005C968C915C97981307C05096ED91FC91F9
:104260005197808185FD2EC0F601038D10E00F5F10
:104270001F4F0F731127F02EF601848DF81211C015
:104280000FB607FCF9CFD6015096ED91FC915197EE
:10429000808185FFF1CFC60169830E94D2206981A8
:1042A000EBCF838DE80FF11DE35AFF4F6083D601FA
:1042B0005B960C935B975296ED91FC91539780819E
:1042C00080620CC0D6015696ED91FC9157976083A1
:1042D0005096ED91FC91519780818064808381E0BC
:1042E00090E00F90DF91CF911F910F91FF90DF90A1
:1042F000CF9008955058BB27AA270ED058C249D254
:1043000030F04ED220F031F49F3F11F41EF419C268
:104310000EF4E095E7FB01C2E92F5AD280F3BA17F9
:10432000620773078407950718F071F49EF572C24F
:104330000EF4E0950B2EBA2FA02D0B01B9019001C0
:104340000C01CA01A0011124FF27591B99F0593F04
:1043500050F4503E68F11A16F040A22F232F342F4C
:104360004427585FF3CF469537952795A795F0409A
:104370005395C9F77EF41F16BA0B620B730B840BAF
:10438000BAF09150A1F0FF0FBB1F661F771F881F67
:10439000C2F70EC0BA0F621F731F841F48F48795BF
:1043A00077956795B795F7959E3F08F0B3CF9395AE
:1043B000880F08F09927EE0F979587950895E9D112
:1043C00058F080E891E009F49EEFEAD128F040E847
:1043D00051E059F45EEF09C0B4C11CC2E92FE07886
:1043E000F7D168F3092E052AC1F3261737074807C6
:1043F000590738F00E2E07F8E02569F0E025E06453
:104400000AC0EF6307F8009407FADB01B9019D01C8
:10441000DC01CA01AD01EF9347D0C9D10AD05F9149
:10442000552331F02BED3FE049E450FD49EC63CFDB
:104430000895DF93DD27B92FBF7740E85FE31616B5
:10444000170648075B0710F4D92FEFD19F938F937E
:104450007F936F9354D2E8E6F0E076D1A8D12F9104
:104460003F914F915F91F4D1DD2349F09058A2EA3A
:104470002AED3FE049EC5FE3D0785D274DDFDF9127
:1044800096C127D108F481E008950CD090C188D15D
:1044900040F07FD130F021F45F3F19F03EC151115F
:1044A000BAC14FC195D198F39923C9F35523B1F3FC
:1044B000951B550BBB27AA2762177307840738F093
:1044C0009F5F5F4F220F331F441FAA1FA9F333D0F2
:1044D0000E2E3AF0E0E830D091505040E695001CA6
:1044E000CAF729D0FE2F27D0660F771F881FBB1F62
:1044F000261737074807AB07B0E809F0BB0B802D3C
:10450000BF01FF2793585F4F2AF09E3F510568F087
:1045100004C181C15F3FECF3983EDCF3869577954B
:104520006795B795F7959F5FC9F7880F911D969589
:10453000879597F90895E1E0660F771F881FBB1FE5
:10454000621773078407BA0720F0621B730B840B92
:10455000BA0BEE1F88F7E095089504D06894B11166
:104560005AC108953DD188F09F5790F0B92F9927EF
:10457000B751A0F0D1F0660F771F881F991F1AF06E
:10458000BA95C9F712C0B13081F044D1B1E00895B5
:1045900041C1672F782F8827B85F39F0B93FCCF336
:1045A000869577956795B395D9F73EF49095809564
:1045B000709561957F4F8F4F9F4F0895E89409C084
:1045C00097FB3EF490958095709561957F4F8F4F46
:1045D0009F4F9923A9F0F92F96E9BB279395F6955C
:1045E000879577956795B795F111F8CFFAF4BB0FDA
:1045F00011F460FF1BC06F5F7F4F8F4F9F4F16C03E
:10460000882311F096E911C0772321F09EE8872FC7
:10461000762F05C0662371F096E8862F70E060E083
:104620002AF09A95660F771F881FDAF7880F9695FC
:10463000879597F90895ADD018F011F0B1D038F4FE
:1046400080C0E9C0E92FC4D0B0F35523C9F3E7FB1C
:104650006217730784079507A8F199F3E92FFF27DD
:1046600088232AF03197660F771F881FDAF7952F76
:104670005527442332F091505040220F331F441FDE
:10468000D2F7BB27E91BF50B621B730B840BB10937
:10469000C1F222F4620F731F841FB11D31972AF0FB
:1046A000660F771F881FBB1FEFCF915050405AF005
:1046B00041F0882332F0660F771F881F91505040D9
:1046C000C1F7939530C08695779567959F5FD9F729
:1046D000F8CF990F0008550FAA0BE0E8FEEF161669
:1046E0001706E807F907C0F012161306E407F507E6
:1046F00098F0621B730B840B950B39F40A2661F05A
:10470000232B242B252B21F408950A2609F4A140FC
:10471000A6958FEF811D811D089597F99F6780E809
:1047200070E060E008959F3F31F0915020F487954C
:1047300077956795B795880F911D9695879597F909
:1047400008959FEF80EC0895DF93CF931F930F930D
:10475000FF92EF92DF927B018C01689405C0DA2E04
:10476000EF0176D0FE01E894A59125913591459110
:104770005591AEF3EF01D0DDFE019701A801DA9467
:1047800079F7DF90EF90FF900F911F91CF91DF911C
:10479000089500240A9416161706180609060895A7
:1047A00000240A9412161306140605060895092E0D
:1047B0000394000C11F4882352F0BB0F40F4BF2B7C
:1047C00011F460FF04C06F5F7F4F8F4F9F4F0895BC
:1047D00057FD9058440F551F59F05F3F71F04795B2
:1047E000880F97FB991F61F09F3F79F08795089597
:1047F000121613061406551FF2CF4695F1DF08C0B6
:10480000161617061806991FF1CF869571056105D2
:1048100008940895E894BB2766277727CB0197F97A
:10482000089557DF08F48FEF08959B01AC0160E015
:1048300070E080E89FE329CE0BD0B9CFAADF28F043
:10484000AFDF18F0952309F068CF7BCF1124E3CFB9
:10485000BFDFA0F3959FD1F3950F50E0551F629FE6
:10486000F001729FBB27F00DB11D639FAA27F00DC9
:10487000B11DAA1F649F6627B00DA11D661F829FF0
:104880002227B00DA11D621F739FB00DA11D621FD5
:10489000839FA00D611D221F749F3327A00D611DF2
:1048A000231F849F600D211D822F762F6A2F1124D4
:1048B0009F5750408AF0E1F088234AF0EE0FFF1F27
:1048C000BB1F661F771F881F91505040A9F79E3F5E
:1048D000510570F022CF9FCF5F3FECF3983EDCF3A1
:1048E000869577956795B795F795E7959F5FC1F79B
:1048F000FE2B880F911D9695879597F908959B013A
:10490000AC019ACFE6DE880B990B089597FB072E32
:1049100016F4009407D077FD09D00E94E62407FC26
:1049200005D03EF4909581959F4F089570956195BF
:104930007F4F0895A1E21A2EAA1BBB1BFD010DC0DB
:10494000AA1FBB1FEE1FFF1FA217B307E407F5073F
:1049500020F0A21BB30BE40BF50B661F771F881F1B
:10496000991F1A9469F760957095809590959B01B1
:10497000AC01BD01CF010895052E97FB1EF40094F4
:104980000E94D32457FD07D00E949A2407FC03D02D
:104990004EF40C94D32450954095309521953F4F7B
:1049A0004F4F5F4F089590958095709561957F4F1B
:1049B0008F4F9F4F08950E940025A59F900DB49F93
:1049C000900DA49F800D911D11240895AA1BBB1B5F
:1049D00051E107C0AA1FBB1FA617B70710F0A61BFF
:1049E000B70B881F991F5A95A9F780959095BC0120
:1049F000CD010895EE0FFF1F0590F491E02D09946D
:104A0000A29FB001B39FC001A39F700D811D11240F
:104A1000911DB29F700D811D1124911D0895CF939A
:104A2000DF938230910510F482E090E0E091C503BD
:104A3000F091C60320E030E0A0E0B0E0309739F11B
:104A40004081518148175907B8F04817590771F448
:104A500082819381109729F013969C938E931297DD
:104A60002CC09093C6038093C50327C02115310540
:104A700031F04217530718F0A901DB0101C0EF0123
:104A80009A01BD01DF010280F381E02DD7CF21150E
:104A90003105F9F0281B390B2430310580F48A8167
:104AA0009B816115710521F0FB019383828304C012
:104AB0009093C6038093C503FE01329644C0FE0165
:104AC000E20FF31F81939193225031093983288398
:104AD0003AC02091C3033091C403232B41F42091A9
:104AE0000201309103013093C4032093C30320914A
:104AF0000001309101012115310541F42DB73EB778
:104B00004091040150910501241B350BE091C30332
:104B1000F091C403E217F307A0F42E1B3F0B2817F4
:104B2000390778F0AC014E5F5F4F2417350748F026
:104B30004E0F5F1F5093C4034093C303819391931F
:104B400002C0E0E0F0E0CF01DF91CF910895CF9374
:104B5000DF93009709F487C0FC0132971382128219
:104B6000C091C503D091C603209781F42081318183
:104B7000280F391F8091C3039091C40382179307B4
:104B800079F5F093C403E093C3036DC0DE0120E028
:104B900030E0AE17BF0750F412964D915C91139719
:104BA0009D014115510509F1DA01F3CFB383A283C9
:104BB00040815181840F951F8A179B0771F48D9155
:104BC0009C911197840F951F029691838083129672
:104BD0008D919C911397938382832115310529F43C
:104BE000F093C603E093C5033EC0D9011396FC932E
:104BF000EE9312974D915D91A40FB51FEA17FB0735
:104C000079F480819181840F951F0296D9011196C4
:104C10009C938E938281938113969C938E9312978B
:104C2000E0E0F0E08A819B81009719F0FE01EC0141
:104C3000F9CFCE01029628813981820F931F2091EE
:104C4000C3033091C4032817390769F4309729F456
:104C50001092C6031092C50302C013821282D09331
:104C6000C403C093C303DF91CF910895A0E0B0E0E7
:104C7000ECE3F6E20C941F27EC01CB01209719F42A
:104C80000E940F25B8C0FE01E60FF71F9E012250BB
:104C90003109E217F30708F4ACC0D9010D911C915A
:104CA000119706171707B8F00530110508F49FC0D3
:104CB000A801445051094617570708F498C00250FC
:104CC0001109061B170B019311936D937C93CF0170
:104CD0000E94A7258CC05B01A01AB10A4E01800E6C
:104CE000911EA091C503B091C603612C712C60E0A8
:104CF00070E0109709F449C0A815B905C9F5ED9001
:104D0000FC901197670142E0C40ED11CCA14DB0469
:104D100078F147018A189B08640142E0C40ED11C57
:104D20001296BC9012971396AC91B5E0CB16D104B5
:104D300040F0B282A38391828082D9018D939C93AB
:104D400009C00E5F1F4F0E0D1F1DF9011183008357
:104D5000EB2DFA2F6115710531F0DB011396FC93F1
:104D6000EE93129744C0F093C603E093C5033FC08F
:104D70006D917C9111976616770608F43B01BD0191
:104D800012960D90BC91A02DB4CF6091C303709189
:104D9000C40368157905E9F468167906D0F44091E2
:104DA0000001509101014115510541F44DB75EB725
:104DB0006091040170910501461B570BE417F5073C
:104DC000C0F4F093C403E093C303F901918380839B
:104DD0000EC00E940F257C01009759F0A801BE016A
:104DE0000E941227CE010E94A725C70104C0CE0150
:104DF00002C080E090E0CDB7DEB7EEE00C943B2738
:104E000081E090E0F8940C945227FB01DC0104C08F
:104E10008D910190801921F441505040C8F7881BB2
:104E2000990B0895FB01DC0102C001900D924150E5
:104E30005040D8F708952F923F924F925F926F9211
:104E40007F928F929F92AF92BF92CF92DF92EF921A
:104E5000FF920F931F93CF93DF93CDB7DEB7CA1B9B
:104E6000DB0B0FB6F894DEBF0FBECDBF09942A88C6
:104E7000398848885F846E847D848C849B84AA846E
:104E8000B984C884DF80EE80FD800C811B81AA81FB
:104E9000B981CE0FD11D0FB6F894DEBF0FBECDBFC6
:084EA000ED010895F894FFCF25
:104EA8000000C7038000E8030A67696D6D6520612B
:104EB800206465677265653A20000A09636F6D7042
:104EC8006173733A20000000000079064C06210641
:104ED80029063C064B06000000007E094F1DE90923
:104EE8005D09D109D0097061636B65742073697AB3
:104EF800653A200000000000010CCA0B464F5257CB
:104F0800415244004241434B57415244004C4546AC
:104F1800540052494748540043757272656E743A9A
:104F280020006E65773A200052616E67653A20006E
:104F3800436865636B3A2000446972656374696FFE
:104F48006E3A2000747275650066616C73650000C6
:104F580000000017134F1DE712F312FF120B130086
:104F6800000000921C646972656374696F6E3A2070
:104F780000726573756C743A200000000000B1156A
:104F8800496E6E6572004F75746572000D0A006E89
:104F9800616E00696E66006F7666002E0000000084
:0E4FA8000015214F1D9720B020A220F32000FD
:00000001FF
