:100000000C94AB040C94D3040C94D3040C94D3043C
:100010000C94D3040C94D3040C94D3040C94D30404
:100020000C94D3040C94D3040C94D3040C94D304F4
:100030000C94D3040C94D3040C94D3040C94D304E4
:100040000C945A070C94D3040C94E2060C94BC064E
:100050000C94D3040C94D3040C94D3040C94D304C4
:100060000C94BA0A0C94D304084AD73B3BCE016ED9
:1000700084BCBFFDC12F3D6C74319ABD56833DDAFF
:100080003D00C77F11BED9E4BB4C3E916BAAAABE0E
:10009000000000803F0001B202FFFF01900409232D
:1000A000A135016A0206000160080000000000009E
:1000B00000000060044000000001620200000060D7
:1000C0000400400000037B034CCD6C03AB033656A9
:1000D0007600680402CB47A202180400058BC10118
:1000E0000C0400000000037F060CC92C97979703AF
:1000F0008903264666006C022000024004000000CE
:100100000002440400000000024804000000000255
:100110004C040000000002500400000000025404DF
:100120000000000002580400000000025C0400000F
:10013000000002BC040000000001EC0400004000CC
:10014000037F060CC92C9797970402030D355D04B5
:100150000904872D353D00A301000000000107863A
:1001600001FE074105F120283038077E013007469F
:10017000019A074704F1283038076C04F128303819
:100180000216020002FB00003E000B0036000100D8
:10019000020003000000650054FFEF0000FA800039
:1001A0000B128200010002000000000000000000AD
:1001B000000000000000280000FFFF4581FFFFFA5B
:1001C0007200000000000003E80000000100017F51
:1001D000FFFFFE8001001B00000000000000000087
:1001E0000000000000003E03304000000002CAE3AF
:1001F000093E8000002000000000000000400000D8
:10020000006000000041FF000000000B2A00001603
:100210005500002182FD872650FD800000001F0050
:100220000000058000000000000001000000020046
:100230000000030000400000000000046F000265A1
:100240003200005EC040000000000000000000001E
:100250000000000000FB8C6F5DFD5D08D9007C7321
:100260003B006C12CC3200139D3200D0D632000815
:1002700000400001F4FFE68079020000000000D099
:10028000D600002710FB0000004000000000000026
:10029000000000000000000001000000000000015C
:1002A00000010000000000FA36FFBC308E0005FBA4
:1002B000F0FFD95BC8FFD09ABE000010A9FFF41E62
:1002C000B200CEBBF70000000100000004000200F5
:1002D000020200000CFFC280000001800000CF80FD
:1002E00000400000000000000100000000000006C7
:1002F00000000000140000000000000000000000EA
:1003000000000000000000000000000000000000ED
:1003100000000000000000000000000000000000DD
:10032000000000000000000000033F68B679352897
:10033000BCC67ED16C80000000400000000000B20E
:100340006A00000000000000000000000000003F04
:10035000F00000003000000000000000000000007D
:10036000000000000000000000000000000000008D
:1003700000000000000000254D002F706D000005FA
:10038000AE000C02D00000000000650054FFEF003A
:100390000000000000000001000044000000000C0C
:1003A0000000000100000000000065000000540093
:1003B00000FFEF000000000000000000000000004F
:1003C00000000000004000000000000000000000ED
:1003D00000000000004000000000000000000000DD
:1003E000000000000000000001000000020000000A
:1003F00000000000000000000000000000000000FD
:1004000000000000000000000000000000000000EC
:100410000000000000001B000000000000000000C1
:1004200000000000000000000000000000000000CC
:1004300000000000000000000000000000000000BC
:100440000040000000001B00000000000000000051
:10045000000000000000000000000000000000009C
:10046000000000000000000000000000000000008C
:10047000000000000000000000000000000000007C
:100480000000000000D8DCBAA2F1DEB2B8B4A88146
:1004900091F74A907F916AF3F9DBA8F9B0BAA0808E
:1004A000F2CE81F3C2F1C1F2C3F3CCA2B280F1C6A5
:1004B000D880BAA7DFDFDFF2A7C3CBC5B6F087A22B
:1004C000942448703C95406834589B78A2F18392FC
:1004D0002D557DD8B1B4B8A1D09180F270F370F2EF
:1004E0007C80A8F101B09887D943D886C988BAA181
:1004F000F20EB89780F1A9DFDFDFAADFDFDFF2AA13
:10050000C5CDC7A90CC92C97979797F1A9892646FD
:1005100066B0B4BA80ACDEF2CAF1B28C02A9B69869
:1005200000890E161EB8A9B4992C547CB08AA896DE
:10053000365676F1B9AFB4B083C0B8A89711B18F71
:1005400098B9AFF0240844106418F1A329557DAF81
:1005500083B593AFF0002850F1A3869F61A6DADE41
:10056000DFD9FAA38696DB31A6D9F8DFBAA68FC207
:10057000C5C7B28CC1B8A2DFDFDFA3DFDFDFD8D809
:10058000F1B8A8B286B4980D355DB8AA98B0872D99
:10059000353DB2B6BAAF8C96198F9FA70E161EB412
:1005A0009AB8AA872C547CB9A3DEDFDFA3B180F20E
:1005B000C4CDC9F1B8A9B499830D355D89B9A32D0E
:1005C000557DB593A30E161EA92C547CB8B4B0F17A
:1005D0009783A81184A50998A383F0DA240844100E
:1005E0006418D8F1A529557DA58595021A2E3A568D
:1005F0005A4048F9F3A3D9F8F098832408441064CA
:10060000189782A8F111F098A2240844106418DA0F
:10061000F3DED883A59401D9A302F1A2C3C5C7D83C
:10062000F18492A24DDA2AD84869D92AD86855DAD5
:1006300032D85071D932D8705DDA3AD85879D93A6F
:10064000D87893A34DDA2AD84869D92AD86855DAD8
:1006500032D85071D932D8705DDA3AD85879D93A4F
:10066000D878A88A9AF02850789EF38818F19F1DB0
:1006700098A8D908D8C89F129EF315A8DA1210D8E6
:10068000F1AFC8978734B5B994A421F3D922D8F231
:100690002DF3D92AD8F235F3D932D881A46060611C
:1006A000D961D86C6869D969D8747071D971D8B1B9
:1006B000A384193D5DA3831A3E5E9310308110110F
:1006C000B8B0AF8F94F2DA3ED8B49AA88729DAF896
:1006D000D8879A35DAF8D8879A3DDAF8D8B1B9A42C
:1006E0009885022E56A581000C14A397B08AF12D8F
:1006F000D928D84DD948D86DD968D8B1840DDA0E2B
:10070000D8A32983DA2C0ED8A3844983DA2C4C0E83
:10071000D8B8B0A88A9AF520AADADFD8A840AAD01B
:10072000DADED8A860AADAD0DFD8F19786A8319BA4
:10073000069907AB9728889BF00C201440B8B0B4FA
:10074000A88C9CF0042851791D301438B282ABD0AB
:10075000982C505078789BF11AB0F08A9CA82951B7
:10076000798B2951798A2470598B2058718A446970
:10077000388B3940688A6448318B304960A58820BD
:100780000971584468113964493019F1AC002C548E
:100790007CF08CA804285078F1889726A85998AC4A
:1007A0008C02264666F0899CA82951792470594408
:1007B0006938644831A98809205970AB11384069FB
:1007C000A8193148608CA83C415C207C00F18798D6
:1007D0001986A86E767EA999882D557D9EB9A38A23
:1007E000228A6E8A568A5E9FB183062646660E2E40
:1007F0004E6E9DB8AD002C547CF2B18CB499B9A367
:100800002D557D8191AC38AD3AB58391AC2DD92869
:10081000D84DD948D86DD968D88C9DAE29D904AEA9
:10082000D851D904AED879D904D881F39DAD008DC3
:10083000AE1981ADD901D8F2AEDA26D88E912983CE
:10084000A7D9ADADADADF32AD8D8F1B0AC89913E02
:100850005E76F3AC2E2EF1B18C5A9CAC2C28282855
:100860009CAC3018A8988128343C9724A728343CA5
:100870009C24F2B089AC912C4C6C8A9B2DD9D8D891
:1008800051D9D8D879D9D8D8F19E88A331DAD8D817
:10089000912DD928D84DD948D86DD968D8B183932E
:1008A000353D8025DAD8D88569DAD8D8B49381A3C4
:1008B00028343CF3AB8BF8A391B609B4D9ABDEFA7C
:1008C000B0879CB9A3DDF1A3A3A3A395F1A3A3A330
:1008D0009DF1A3A3A3A3F2A3B49080F2A3A3A3A327
:1008E000A3A3A3A3A3A3B2A3A3A3A3A3A3B087B5C6
:1008F00099F1A3A3A398F1A3A3A3A397A3A3A3A34D
:10090000F39BA3A3DCB9A7F1262626D8D8FF0000C5
:100910000000250028002B0004040404040404043F
:10092000020202020202030303030303010204089A
:100930001020408001020408102001020408102049
:10094000000000080002010000030407000000008E
:1009500000000000911411241FBECFEFD8E0DEBFCD
:10096000CDBF12E0A0E0B1E0E4E2F5E302C0059003
:100970000D92AA35B107D9F724E0AAE5B2E001C08B
:100980001D92A131B207E1F714E0CBEAD4E004C034
:100990002197FE010E94DC14CA3AD107C9F70E94D0
:1009A0006B0E0C94901A0C940000FC01918D828DBA
:1009B000981761F0828DDF01A80FB11D5D968C91B3
:1009C000928D9F5F9F73928F90E008958FEF9FEFBE
:1009D0000895FC01918D828D981731F0828DE80F7A
:1009E000F11D858D90E008958FEF9FEF0895FC0134
:1009F000918D228D892F90E0805C9F4F821B910901
:100A00008F73992708958CE193E00E94F70421E009
:100A1000892B09F420E0822F0895FC01848DDF01E9
:100A2000A80FB11DA35ABF4F2C91848D90E0019661
:100A30008F739927848FA689B7892C93A089B18950
:100A40008C9180648C93938D848D981306C002885A
:100A5000F389E02D80818F7D80830895EF92FF924E
:100A60000F931F93CF93DF93EC0181E0888F9B8DD1
:100A70008C8D981305C0E889F989808185FD24C093
:100A8000F62E0B8D10E00F5F1F4F0F731127E02E16
:100A90008C8DE8120CC00FB607FCFACFE889F989F3
:100AA000808185FFF5CFCE010E940D05F1CF8B8DA2
:100AB000FE01E80FF11DE35AFF4FF0820B8FEA8928
:100AC000FB898081806207C0EE89FF896083E889A5
:100AD000F98980818064808381E090E0DF91CF910B
:100AE0001F910F91FF90EF900895CF93DF93EC014A
:100AF000888D8823C9F0EA89FB89808185FD05C03E
:100B0000A889B9898C9186FD0FC00FB607FCF5CF77
:100B1000808185FFF2CFA889B9898C9185FFEDCFBF
:100B2000CE010E940D05E7CFDF91CF91089580E0BF
:100B300090E0892B29F00E94030581110C9400009C
:100B400008953FB7F8948091CD029091CE02A09184
:100B5000CF02B091D00226B5A89B05C02F3F19F057
:100B60000196A11DB11D3FBFBA2FA92F982F88272D
:100B7000820F911DA11DB11DBC01CD0142E0660F88
:100B8000771F881F991F4A95D1F7089580915A02BF
:100B900090E020915B02821B9109089585ED80937E
:100BA000BC008091BC0084FDFCCF1092F702089538
:100BB00040918302262F30E0240F311D2132310570
:100BC000DCF42091F7022430C9F4FC0180E090E0CD
:100BD000861758F4309183022191DC01AF59BD4F43
:100BE000A30FB11D2C930196F3CF80918302680F60
:100BF0006093830280E0089581E0089582E0089583
:100C00000895E0915B0280915A02E81730F4F0E019
:100C1000E855FD4F808190E008958FEF9FEF089594
:100C200090915B0280915A02981750F4E92FF0E0FE
:100C3000E855FD4F208130E09F5F90935B0202C03A
:100C40002FEF3FEFC9010895CF92DF92EF92FF920D
:100C50000F931F93CF93DF937C01262F972F8A0149
:100C60008091F802882391F0C62FD72F6E01C40E11
:100C7000D51ECC15DD0571F06991D701ED91FC9180
:100C80000190F081E02DC7010995F3CF642F822FE9
:100C90000E94D805C801DF91CF911F910F91FF905D
:100CA000EF90DF90CF900895CF93DF931F92CDB751
:100CB000DEB769832091F8022223D1F020911B0333
:100CC000203240F021E030E0FC013383228380E0D9
:100CD00090E015C08091F902E82FF0E0E650FD4F5A
:100CE000998190838F5F8093F90280931B0305C0E5
:100CF00061E0CE0101960E94D80581E090E00F905E
:100D0000DF91CF9108950E94F818CF92DF92EF9271
:100D1000FF92DC01ED91FC910190F081E02D0995AD
:100D200020E030E044E353E40E9479192BED3FE0EA
:100D300049E450E40E94C11520E030E044EB53E464
:100D40000E946D166B017C0120E030E0A9010E9439
:100D5000131987FF0AC020E030E044EB53E4C701D9
:100D6000B6010E94E3146B017C01C701B601FF903C
:100D7000EF90DF90CF9008951F920F920FB60F92D1
:100D800011242F933F934F935F936F937F938F9390
:100D90009F93AF93BF93EF93FF938CE193E00E94F7
:100DA0000D05FF91EF91BF91AF919F918F917F9131
:100DB0006F915F914F913F912F910F900FBE0F90C8
:100DC0001F9018951F920F920FB60F9211242F9318
:100DD0008F939F93EF93FF93E0912C03F0912D035A
:100DE0008081E0913203F091330382FD12C0908143
:100DF000809135038F5F8F7320913603821751F0F6
:100E0000E0913503F0E0E45EFC4F958F809335036D
:100E100001C08081FF91EF919F918F912F910F9051
:100E20000FBE0F901F9018958F929F92AF92BF9216
:100E3000CF92DF92EF92FF926B017C010E94A1059D
:100E40004B015C01C114D104E104F104F1F00E94F2
:100E5000A105DC01CB0188199909AA09BB09883EC3
:100E60009340A105B10570F321E0C21AD108E10851
:100E7000F10888EE880E83E0981EA11CB11CC114F5
:100E8000D104E104F10419F7DDCFFF90EF90DF907A
:100E9000CF90BF90AF909F908F9008952FB7F89408
:100EA0006091C9027091CA028091CB029091CC02EC
:100EB0002FBF08951F920F920FB60F9211242F93F8
:100EC0003F938F939F93AF93BF938091C90290916B
:100ED000CA02A091CB02B091CC023091C80223E0AB
:100EE000230F2D3720F40196A11DB11D05C026E862
:100EF000230F0296A11DB11D2093C8028093C90241
:100F00009093CA02A093CB02B093CC028091CD0201
:100F10009091CE02A091CF02B091D0020196A11D76
:100F2000B11D8093CD029093CE02A093CF02B093D7
:100F3000D002BF91AF919F918F913F912F910F90D0
:100F40000FBE0F901F901895EF92FF920F931F9373
:100F5000CF93DF9300D0CDB7DEB7142F91E09093FD
:100F6000F80280931A031092F90210921B0381E099
:100F700094E029833A830E9454062981022FE22EAD
:100F80003A81F32E8E2D801B811740F4F701619179
:100F90007F0181E094E00E945406F4CF0E943B0C54
:100FA00091E0811190E0892F0F900F90DF91CF9108
:100FB0001F910F91FF90EF900895CF93DF931F92B1
:100FC000CDB7DEB749839E012F5F3F4F41E00E94BE
:100FD000A4070F90DF91CF910895462F6EE6FC0194
:100FE00080810C94DD072F923F924F925F926F9217
:100FF0007F928F929F92AF92BF92CF92DF92EF92A9
:10100000FF920F931F93CF93DF93CDB7DEB7279750
:101010000FB6F894DEBF0FBECDBFE82E6B834F83B3
:1010200069010E944E074B015C016E2C660CF12C8D
:101030001E82772473945F81452F50E05D834C833B
:101040001801412C512C4F81F41608F099C0709270
:10105000F802E0921A031092F90210921B036B81BE
:1010600081E094E00E9454060E943B0C7092F802CA
:10107000E0921A031092F90210921B038091F7027A
:101080008111FCCF2C813D812F193109213231058D
:1010900014F020E230E0213208F020E27092F702F2
:1010A0007092F6028FEF8093F5021092F402820F95
:1010B0008093F3027092D2028091D20286298093AB
:1010C000D2028091D102813071F41092D1028091CC
:1010D000D2028093BB008091BC0083FDF8CF95ECD9
:1010E0009093BC0003C0E5EEE093BC008091F70252
:1010F0008130E1F38091F402821710F42091F40220
:10110000A3EDB2E0E8EAF2E08E2F48EA52E0841B59
:10111000821718F48D918193F7CF10925B02209380
:101120005A0290915A0280915B02981719F10115A9
:10113000110599F4A6012E81420F511D27FD5A95E4
:101140005A83498381E094E00E941006E981FA8184
:1011500080832E812F5F2E83E4CF0E944E07DC0117
:10116000CB0188199909AA09BB0982159305A40521
:10117000B50500F38F81813208F080E2F80E63CF6D
:10118000FE8001151105D9F00E944E07DC01CB014C
:1011900088199909AA09BB0920E030E08017910756
:1011A000A207B30760F05F81252F30E08F2D0F2C51
:1011B000000C990B8217930714F4FF24FA948F2DD7
:1011C00027960FB6F894DEBF0FBECDBFDF91CF914B
:1011D0001F910F91FF90EF90DF90CF90BF90AF9055
:1011E0009F908F907F906F905F904F903F902F9047
:1011F00008950F931F939B0108EE13E064E7FC0131
:1012000080810E94F3071F910F9108950F931F9300
:10121000CF93DF93EC019C012F5F3F4F08EE13E06B
:1012200042E062E788810E94F307298130E0322F93
:1012300022278A81A901482BCA01DF91CF911F91F2
:101240000F910895BF92CF92DF92EF92FF920F938A
:101250001F93CF93DF931F92CDB7DEB7F82EE62E04
:10126000C42EB22ED02E08EE13E09E012F5F3F4F0A
:1012700041E00E94F307882321F1EC2DF0E0EB1907
:10128000F109319621E030E002C0220F331FBA94F9
:10129000E2F7215031090E2E01C0220F0A94EAF71D
:1012A0008D2D01C0880FEA95EAF7422F409599816C
:1012B00049232823422B49836E2D8F2D0E94DD0761
:1012C00001C080E00F90DF91CF911F910F91FF90AF
:1012D000EF90DF90CF90BF900895CF92DF92EF9282
:1012E000FF920F931F93CF93DF931F92CDB7DEB77B
:1012F000F82EE62ED42EC22E08EE13E09E012F5FAC
:101300003F4F41E00E94F3079981CC2041F041E03A
:1013100050E001C0440FDA94EAF7492B09C021E0FC
:1013200030E0A90101C0440FDA94EAF7409549235F
:1013300049836E2D8F2D0E94DD070F90DF91CF9195
:101340001F910F91FF90EF90DF90CF90089521E0D3
:1013500042E06AE6FC0180810C946D094F925F9235
:101360006F927F928F929F92AF92BF92CF92DF92B5
:10137000EF92FF92CF93DF93CDB7DEB7C454D1097C
:101380000FB6F894DEBF0FBECDBF20915E022223C0
:1013900009F4D7C07C01FC01828193810E94060977
:1013A0008115944029F4F701828193810E94A70955
:1013B000F701828193810E94060940915C0250915D
:1013C0005D0284179507A0F3BE016F5F7F4FF701A1
:1013D000828193810E94F908698170E0762F6627E7
:1013E0008A81680F711D072E000C880B990B0E94D3
:1013F0001A1920E030E040E858E30E9479196B01A7
:101400007C01698570E0762F66278A85680F711DDB
:10141000072E000C880B990B0E941A1920E030E06F
:1014200040E858E30E9479194B015C01A70196013D
:10143000C701B6010E94E31425966CAF7DAF8EAF55
:101440009FAF2597A5019401C501B4010E94E31443
:101450002B013C01A701960125966CAD7DAD8EADAB
:101460009FAD25970E9479196B017C01A50194011C
:10147000C301B2010E9479199B01AC01C701B601F9
:101480000E94E31420E030E040E85FE30E94E214B1
:101490006B017C016D8170E0762F66278E81680F6D
:1014A000711D072E000C880B990B0E941A1920E061
:1014B00030E040E858E30E9479199B01AC01C30178
:1014C000B2010E9479192B013C016D8570E0762FE5
:1014D00066278E85680F711D072E000C880B990BEF
:1014E0000E941A1920E030E040E858E30E94791980
:1014F0009B01AC0125966CAD7DAD8EAD9FAD259762
:101500000E9479199B01AC01C301B2010E94E2144F
:10151000A7019601CC5BDF4F0FB6F894DEBF0FBE7C
:10152000CDBFDF91CF91FF90EF90DF90CF90BF9034
:10153000AF909F908F907F906F905F904F900C94A2
:10154000621560E070E0CB01CC5BDF4F0FB6F89422
:10155000DEBF0FBECDBFDF91CF91FF90EF90DF9048
:10156000CF90BF90AF909F908F907F906F905F9043
:101570004F9008951F920F920FB60F9211242F9340
:101580003F934F935F936F937F938F939F93AF930B
:10159000BF93EF93FF938091B900887F803609F461
:1015A0009CC068F5883209F45BC090F4803109F47E
:1015B00054C038F4882309F4F6C0883009F44DC0CB
:1015C000F6C0883109F44CC0803209F45DC0EFC028
:1015D000803409F468C048F4803309F455C0883376
:1015E00009F0E5C08093F502D8C0803509F44FC0FA
:1015F000883509F45DC0883409F0D9C0D6C088396F
:1016000009F4C7C0A8F4883709F467C038F48836ED
:1016100009F463C0803709F460C0C9C0883809F490
:10162000B8C0803909F45FC0803809F0C0C05BC021
:10163000803B09F486C038F4803A09F466C0883AE1
:1016400009F47FC0B4C0803C09F4A7C0883C09F409
:10165000A4C0883B09F48AC0AAC08091D20210C0FD
:101660009091F4028091F302981770F5E091F402E2
:1016700081E08E0F8093F402F0E0ED52FD4F808107
:101680008093BB0085EC86C08093F5028EC0E0910C
:10169000F40281E08E0F8093F4028091BB00F0E0B1
:1016A000ED52FD4F80839091F4028091F3026EC061
:1016B000E091F40281E08E0F8093F4028091BB00F0
:1016C000F0E0ED52FD4F80838091F60281116DC0F4
:1016D00081E08093D10284EA61C083E08093F702C5
:1016E0001092A702CFCF8091A702803208F051C09C
:1016F000E091A70281E08E0F8093A7028091BB004A
:10170000F0E0E957FD4F8083BDCF85EC8093BC00AE
:101710001092F7028091A702803230F4E091A70284
:10172000F0E0E957FD4F10826091A70270E0E09170
:101730008502F091860287E892E009951092A7024F
:1017400036C084E08093F7021092840210928302E4
:10175000E0918102F09182020995809183028111CA
:1017600005C081E08093830210926102E0918402BF
:1017700081E08E0F80938402F0E0EF59FD4F80816D
:101780008093BB009091840280918302981708F4A3
:1017900079CF85E88093BC000AC085EC8093BC00BB
:1017A0001092F70204C01092F5020E94CE05FF913C
:1017B000EF91BF91AF919F918F917F916F915F91C9
:1017C0004F913F912F910F900FBE0F901F90189542
:1017D000CF92DF92EF92FF920F931F93CF93DF93FD
:1017E0006C017A018B01C0E0D0E0CE15DF0589F0F5
:1017F000D8016D918D01D601ED91FC910190F081A0
:10180000E02DC6010995892B11F47E0102C02196B5
:10181000ECCFC701DF91CF911F910F91FF90EF9017
:10182000DF90CF900895ECE1F3E0A089B18982E0E8
:101830008C93A485B5851C92A685B7858FEC8C9377
:10184000108EA489B58986E08C93A289B3898C9186
:1018500080618C93A289B3898C9188608C93A289D2
:10186000B3898C9180688C930288F389E02D808104
:101870008F7D8083089520911B0390911A0321325C
:1018800008F04AC08091F7028111FCCF32E030931A
:10189000F70231E03093F6023FEF3093F5021092F9
:1018A000F4022093F302AAEFB2E043ED52E0FA0112
:1018B0003E2F341B321718F43D913193F9CF10921B
:1018C000D2022091D202990F922B9093D202909142
:1018D000D102913061F41092D1029091D202909392
:1018E000BB009091BC0093FDF8CF95EC01C095EE44
:1018F0009093BC009091F7029230E1F39091F50241
:101900009F3F79F08091F502803241F08091F5029D
:10191000803331F084E005C081E003C082E001C083
:1019200083E01092F90210921B031092F8020895BE
:10193000CF93DF93EA0191E09093F80280931A032A
:101940001092F90210921B0381E094E00E94540669
:10195000698181E094E00E945406688181E094E00E
:101960000E9454060E943B0C91E0811190E0892F67
:10197000DF91CF9108952F923F924F925F926F9295
:101980007F928F929F92AF92BF92CF92DF92EF920F
:10199000FF920F931F93CF93DF9300D000D0CDB76A
:1019A000DEB79C838B837A8369835A01222EF02EC3
:1019B000422F4F716DE6DC018C910E94DD07602F94
:1019C0008B819C810E94ED0780E190E00E940117CD
:1019D0003C01EE2031F080E190E00E940117482E9A
:1019E000392EC12CD12CCA14DB0408F077C0C601F3
:1019F0004096A816B90618F45A2C5C1802C080E16B
:101A0000582E852D90E020E031E02F19310928175C
:101A1000390714F45F2C5194E981FA81EC0DFD1D16
:101A2000EE2059F0942DA42DB32D8A2F891B8515F6
:101A300030F484918D933196F8CF4E2E3F2E242D85
:101A4000332D452D6FE6EB81FC8180810E94A40738
:101A5000852C912C6114710449F1422D4F716DE672
:101A6000AB81BC818C910E94DD076F2D8B819C81A5
:101A70000E94ED0708EE13E09301452D6FE6EB8120
:101A8000FC8180810E94F307A401B301842D932D72
:101A90000E94FD18892B51F0C3010E949617EE2079
:101AA00039F1842D932D0E94961722C0C80CD91CA1
:101AB000F50CCA14DB0408F096CFF11001C0239492
:101AC000422D4F716DE6AB81BC818C910E94DD0788
:101AD0006F2D8B819C810E94ED0785CFC3010E94F1
:101AE0009617EE2039F0842D932D0E94961702C090
:101AF00080E001C081E00F900F900F900F90DF9178
:101B0000CF911F910F91FF90EF90DF90CF90BF90FA
:101B1000AF909F908F907F906F905F904F903F908D
:101B20002F900895EF92FF920F931F93CF93DF931F
:101B30001F92CDB7DEB77A0189019E012F5F3F4F1B
:101B400041E00E94F307882339F029812E7730E0A5
:101B500035952795F70120830F90DF91CF911F9145
:101B60000F91FF90EF90089590E0FC01E05CF64F3C
:101B70002491FC01E45DF64F3491FC01E85EF64FE0
:101B8000E491EE23B1F1222339F1233091F038F4BE
:101B90002130A9F0223001F584B58F7D12C02730A5
:101BA00091F02830A1F02430B9F4809180008F7D2D
:101BB00003C0809180008F77809380000DC084B532
:101BC0008F7784BD09C08091B0008F7703C080916A
:101BD000B0008F7D8093B000F0E0EE0FFF1FE25F5A
:101BE000F64FA591B4918FB7F894EC913E2B3C93AE
:101BF0008FBF08956115710579F0FB0101900020F8
:101C0000E9F73197AF01461B570BDC01ED91FC91D1
:101C10000280F381E02D099480E090E00895CF9355
:101C2000DF93BC018CE193E00E94FA0DEC0167E7C1
:101C300071E08CE193E00E94FA0D8C0F9D1FDF9103
:101C4000CF9108954F925F926F927F92EF92FF92A1
:101C50000F931F93CF93DF93CDB7DEB7A1970FB646
:101C6000F894DEBF0FBECDBF7C01FA01CB0119A2F3
:101C7000223008F42AE08E010F5D1F4F422E512CB6
:101C8000612C712CBF01A30192010E94371AF90146
:101C9000CA01015011096A3014F4605D01C0695C29
:101CA000D8016C93232B242B252B61F7B801C70196
:101CB0000E94FA0DA1960FB6F894DEBF0FBECDBFFD
:101CC000DF91CF911F910F91FF90EF907F906F90D8
:101CD0005F904F900895CF93DF93CDB7DEB7C7598C
:101CE000D1090FB6F894DEBF0FBECDBF789484B58E
:101CF000826084BD84B5816084BD85B5826085BD08
:101D000085B5816085BD80916E00816080936E0095
:101D10001092810080918100826080938100809187
:101D20008100816080938100809180008160809338
:101D300080008091B10084608093B1008091B000F8
:101D400081608093B00080917A00846080937A00F3
:101D500080917A00826080937A0080917A0081601D
:101D600080937A0080917A00806880937A00109244
:101D7000C1001092FD031092FE031092FF03109217
:101D800000041092BB031092BC031092BD0310928A
:101D9000BE0360ED77E080E090E00E9414078CE1E4
:101DA00093E09093FC038093FB030E94130C0E942A
:101DB0004E076093BB037093BC038093BD03909365
:101DC000BE0368E671E08091FB039091FC030E94E2
:101DD000FA0D6AE070E080E090E00E94140711E0E4
:101DE0001093CF030E94130C8AE791E00E940F0E1C
:101DF00084E090E00E9401174C018AE091E0D40158
:101E00008D939C9383E190E00E94011728E6FC01EA
:101E10002083D40113969C938E93129710925B02A9
:101E200010925A021092F90210921B031092F702BC
:101E30001093F6021092D10282E10E94B40D83E168
:101E40000E94B40D8091B9008E7F8093B90080917B
:101E5000B9008D7F8093B90088E48093B80085E451
:101E60008093BC0088E18093B8008BE891E00E94E9
:101E70000F0EF401E280F38001E023E042E06BE624
:101E8000D7018C910E94220900E022E044E06BE13E
:101E9000F70180810E94220922E044E06CE1D70131
:101EA0008C910E94220920E046E06BE6F7018081D8
:101EB0000E946D0987EA91E00E940F0ED4011296EC
:101EC0000D911C911397A8014F5F5F4F28EE33E0EF
:101ED00065E7F80180810E94920DD80111968C91DE
:101EE000843319F08EE491E002C080E391E00E9417
:101EF0000F0E85EC91E00E940F0EF401C280D3809A
:101F000021E047E06BE6D6018C910E946D096EE1FD
:101F100070E080E090E00E94140720E046E06BE66D
:101F2000F60180810E946D0940E76DE6D6018C9133
:101F30000E94DD0766E0C6010E94ED077601BFEF53
:101F4000EB1AFB0A08EE13E0970141E06FE6F60199
:101F500080810E94F30740E06DE6D6018C910E94DB
:101F6000DD079E012F5F3F4F41E060E0F601808179
:101F70000E94F30789818170D60111968C93119785
:101F800028EE33E0A70160E08C910E94920DF601EB
:101F9000318028EE33E0A70161E080810E94920D3C
:101FA000D60111964C90119728EE33E0A70162E01C
:101FB0008C910E94920DF60121804FE765E28081AD
:101FC0000E94DD0720E045E06AE6D6018C910E9480
:101FD0006D0948E665E2F60180810E94DD0721E097
:101FE00041E06AE6D6018C910E946D0964E170E0DF
:101FF00080E090E00E941407EE24E39400E020E0EB
:1020000049E857E065E871E0C6010E94BB0C8823EF
:1020100009F400C388E090E00E940117582E192FA0
:10202000E12CF12CF701EB53FF4F2491F701EA5318
:10203000FF4F04913701B3E06B0E711CF701E953B8
:10204000FF4FE491EE2391F1AE2EB12CE33088F0F6
:10205000B501852D912FC956DF4F2883C759D04030
:102060000E942E18582E192FC956DF4F2881C759A4
:10207000D040A52DB12F80E090E08A159B0548F453
:10208000F301E80FF91FEB53FF4FE491ED93019635
:10209000F4CFE12CA501652D712FC6010E94BB0C68
:1020A0007501E60CF71C811117C010C0E4E0EE0EBC
:1020B000F11CF301EB53FF4FE491E13039F442E3BB
:1020C00068E3D6018C910E94DD0706C0852D912F13
:1020D0000E94961712E09FC2B0ECEB16F10408F4D0
:1020E000A1CF852D912F0E94961703E023E042E0B7
:1020F0006BE6F60180810E94220942E168E3D60185
:102100008C910E94DD0744E069E1F60180810E9424
:10211000DD0701E023E045E06AE1D6018C910E94F1
:10212000220903E023E042E06AE1F60180810E9497
:10213000220922E044E06BE1D6018C910E94220941
:1021400043E060E7F60180810E94DD0740E061E73F
:10215000D6018C910E94DD0720E040E060E0F601AE
:1021600080810E946D09032D26E046E060E0D601E3
:102170008C910E942209042D26E046E061E0F601E0
:1021800080810E942209022D26E046E062E0D6010D
:102190008C910E942209A12CB12CF501EA56FF4F27
:1021A000E491A1E8B0E0AC0FBD1FAA0DB11DEC9306
:1021B00081E08A0DBFEFAB1ABB0AE3E0EA1568F7CE
:1021C000CD57DF4F4881C358D04050E09A012E5F71
:1021D0003F4F90E02817390704F7E12CCE57DF4F27
:1021E0000881C258D040CF57DF4F2881C158D04016
:1021F00061E870E06C0F7D1F6D5F7F4FC6010E942C
:10220000BB0C80E0F501EA56FF4FE491A1E8B0E095
:10221000AC0FBD1FA80FB11DEC938F5FFFEFAF1A7E
:10222000BF0A843078F3CD57DF4F4881C358D04080
:1022300050E0BA016E5F7F4F282F30E062177307BE
:102240000CF7E12CCE57DF4F0881C258D040CF5752
:10225000DF4F2881C158D04061E870E06C0F7D1FCE
:102260006D5F7F4FC6010E94BB0CC6010E94A7098B
:10227000C6010E940609482FBE016F5F7F4FC6014D
:102280000E94F90842E06FE1D6018C910E94DD07BF
:102290004CE961E2F60180810E94DD0740E560E2E1
:1022A000D6018C910E94DD0740E062E2F601808158
:1022B0000E94DD07C6010E94A70921E046E06AE608
:1022C000D6018C910E946D0921E047E06AE6F60193
:1022D00080810E946D0921E043E06AE6D6018C917D
:1022E0000E946D0980E0F501EA56FF4FE491A1E8F4
:1022F000B0E0AC0FBD1FA80FB11DEC938F5FBFEF17
:10230000AB1ABB0A843078F3CD57DF4F4881C358EE
:10231000D04050E0BA016E5F7F4F282F30E0621747
:1023200073070CF7E12CCE57DF4F0881C258D0401D
:10233000CF57DF4F2881C158D04061E870E06C0F63
:102340007D1F6D5F7F4FC6010E94BB0C80E0F501D1
:10235000EA56FF4FE491A1E8B0E0AC0FBD1FA80F13
:10236000B11DEC938F5FEFEFAE1ABE0A843078F3A5
:10237000CD57DF4F4881C358D04050E0BA016E5F5F
:102380007F4F282F30E0621773070CF7E12CCE57F0
:10239000DF4F0881C258D040CF57DF4F2881C15846
:1023A000D04061E870E06C0F7D1F6D5F7F4FC6010C
:1023B0000E94BB0C80E0F501EA56FF4FE491A1E8D2
:1023C000B0E0AC0FBD1FA80FB11DEC938F5FFFEF06
:1023D000AF1ABF0A843078F3CD57DF4F4881C35816
:1023E000D04050E0BA016E5F7F4F282F30E0621777
:1023F00073070CF7E12CCE57DF4F0881C258D0404D
:10240000CF57DF4F2881C158D04061E870E06C0F92
:102410007D1F6D5F7F4FC6010E94BB0CC6010E94ED
:10242000060983309105D0F3482FBE016F5F7F4FBF
:10243000C6010E94F908C6010E947C1480E0F501E3
:10244000EA56FF4FE491A1E8B0E0AC0FBD1FA80F22
:10245000B11DEC938F5F9FEFA91AB90A843078F30E
:10246000CD57DF4FA881C358D040CA56DF4FA8834D
:10247000C659D0406A2E712CA3014E5F5F4F282FA2
:1024800030E042175307DCF6CE57DF4F3880C25892
:10249000D040CF57DF4FB881C158D040CB56DF4F27
:1024A000B883C559D0404B2F4F716DE6F60180813E
:1024B0000E94DD07632DC6010E94ED07E12CF12C7F
:1024C00091E8492E512C4C0E5D1EF3E04F0E511C2D
:1024D000E614F70408F047C0C7014096681679066D
:1024E00038F4CA56DF4F2880C659D0402E1802C093
:1024F00080E1282E822D90E020E031E0231931097F
:102500002817390714F4232C219492012E0D3F1D16
:1025100008EE13E0422D6FE6D6018C910E94F3077E
:10252000E20CF11C320CE614F70490F631100BC0EB
:10253000CB56DF4FB881C559D040BF5FCB56DF4F78
:10254000B883C559D040CB56DF4F4881C559D040DC
:102550004F716DE6F60180810E94DD07632DC60193
:102560000E94ED07B5CFC6010E9406098330910590
:10257000D0F3482FBE016F5F7F4FC6010E94F9085C
:10258000C6010E947C14F501EA56FF4F80E0949149
:10259000A1E8B0E0AC0FBD1FA80FB11D9C938F5FE9
:1025A000843010F43196F3CFCD57DF4F4881C358B4
:1025B000D04050E0BA016E5F7F4F282F30E06217A5
:1025C000730784F761E870E06C0F7D1F6D5F7F4FCC
:1025D000E12CCE57DF4F0881C258D040CF57DF4F94
:1025E0002881C158D040C6010E94BB0C20E047E0C2
:1025F0006AE6D6018C910E946D098AE290E0F601AC
:1026000093838283C6010E94A709C6010E947C149D
:1026100010E001C011E0D4011296ED91FC911397E6
:1026200080812CED30E0CD56DF4F39832883C359AC
:10263000D040AE014D565F4F63E10E94980CD4012B
:102640001296ED91FC91139780812CE430E0CF56E7
:10265000DF4F39832883C159D040AE014F565F4FB9
:1026600065E10E94980CD4011296ED91FC911397AC
:1026700080812BEA3FEFCF57DF4F39832883C15842
:10268000D040AE014F575F4F67E10E94980CD401D4
:102690001296ED91FC91139780812CEF36E03A83EE
:1026A0002983AE014F5F5F4F6AE00E94980C1111C1
:1026B00039C089ED91E00E940F0ED4011296ED9180
:1026C000FC91139721E047E06AE680810E946D0942
:1026D00089EE91E00E940F0E81E080935E02D401AA
:1026E0001296ED91FC9113978281938190935D02F4
:1026F00080935C0263E172E08CE193E00E94FA0D4A
:1027000040915C0250915D0260E070E02AE08CE153
:1027100093E00E94220E67E771E08CE193E00E9453
:10272000FA0D13C061E272E08CE193E00E94FA0DB1
:10273000412F50E060E070E02AE08CE193E00E94DD
:10274000220E82E492E00E940F0E9092600280922C
:102750005F0268EE73E080E090E00E94140764E49A
:1027600072E08CE193E00E94FA0D80915F029091FB
:102770006002DC01ED91FC910280F381E02D09956E
:102780006B017C019B01AC010E94FC16882319F0AF
:102790006EE472E01AC046015701E894B7F82FEFD3
:1027A0003FEF4FE75FE7C501B4010E94FC168111BE
:1027B00011C02FEF3FEF4FE75FE7C501B4010E9463
:1027C000131918163CF462E572E08CE193E00E9464
:1027D000FA0D89C02FEF3FEF4FE75FE4C701B60165
:1027E0000E94EB1618161CF466E572E0EECF2FEF90
:1027F0003FEF4FE75FECC701B6010E94131987FD59
:10280000F3CF20E030E0A901C701B6010E941319FF
:1028100087FF0FC0E0911C03F0911D030190F08130
:10282000E02D6DE28CE193E00995F7FAF094F7F86A
:10283000F0942AE037ED43EA5BE3C701B6010E945A
:10284000E3144B015C010E9433166B017C010E9472
:1028500018199B01AC01C501B4010E94E2144B019F
:102860005C012AE0B701A6018CE193E00E94220EF0
:10287000E0911C03F0911D030190F081E02D6EE2C8
:102880008CE193E0099520E030E040E251E4C5019D
:10289000B4010E9479194B015C010E9433166B014F
:1028A000E12CF12C2AE0B701A6018CE193E00E9413
:1028B000220EC701B6010E9418199B01AC01C50187
:1028C000B4010E94E21420E030E040E251E40E94B2
:1028D00079190E943316AB0160E070E02AE08CE1C8
:1028E00093E00E94220E67E771E08CE193E00E9482
:1028F000FA0D0E9497052DCF0F931F93CF93DF936F
:10290000EC019C012F5F3F4F08EE13E041E06AE3CA
:1029100088810E94F3078981DF91CF911F910F91E8
:102920000895ECE1F3E01382128288EE93E0A0E0D8
:10293000B0E084839583A683B78324E131E03183BB
:10294000208325EC30E03587248724EC30E037877E
:10295000268720EC30E0318B208B21EC30E0338B6C
:10296000228B22EC30E0358B248B26EC30E0378B49
:10297000268B118E128E138E148EE9EBF3E01682E5
:10298000178210861186128613861486158616867F
:102990001786108A118A128A138A148A158AE1E02E
:1029A000F4E01382128284839583A683B78384E242
:1029B00091E0918380830895EE0FFF1F0590F491BD
:1029C000E02D09945058BB27AA270E94FA140C94B2
:1029D000FD190E94EF1938F00E94F61920F039F421
:1029E0009F3F19F426F40C94EC190EF4E095E7FBE4
:1029F0000C94E619E92F0E940E1A58F3BA176207D1
:102A000073078407950720F079F4A6F50C94301A23
:102A10000EF4E0950B2EBA2FA02D0B01B9019001F9
:102A20000C01CA01A0011124FF27591B99F0593F3D
:102A300050F4503E68F11A16F040A22F232F342F85
:102A40004427585FF3CF469537952795A795F040D3
:102A50005395C9F77EF41F16BA0B620B730B840BE8
:102A6000BAF09150A1F0FF0FBB1F661F771F881FA0
:102A7000C2F70EC0BA0F621F731F841F48F48795F8
:102A800077956795B795F7959E3F08F0B0CF9395EA
:102A9000880F08F09927EE0F9795879508950E9463
:102AA000EF1960F080E891E009F49EEF0E94F619BA
:102AB00028F040E851E071F45EEF0CC00C94EC1982
:102AC0000C94301AE92FE0780E940E1A40F3092E78
:102AD000052AB1F3261737074807590738F00E2E95
:102AE00007F8E02569F0E025E0640AC0EF6307F825
:102AF000009407FADB01B9019D01DC01CA01AD01B7
:102B0000EF930E94D8150E94FD190E9492155F91C3
:102B1000552339F02BED3FE049E450FD49EC0C948E
:102B2000E3140895DF93DD27B92FBF7740E85FE313
:102B30001616170648075B0718F4D92F0E94F016DF
:102B40009F938F937F936F930E94F816E8E6F0E0CF
:102B50000E94C4160E94FD192F913F914F915F91E1
:102B60000E948C19DD2351F09058A2EA2AED3FE033
:102B700049EC5FE3D0785D270E94FA14DF910C9452
:102B8000FD190E94D5150C94FD190E94F61958F0F4
:102B90000E94EF1940F029F45F3F29F00C94E619E8
:102BA00051110C94311A0C94EC190E940E1A68F30E
:102BB0009923B1F3552391F3951B550BBB27AA27F6
:102BC00062177307840738F09F5F5F4F220F331F30
:102BD000441FAA1FA9F335D00E2E3AF0E0E832D0F8
:102BE00091505040E695001CCAF72BD0FE2F29D0FB
:102BF000660F771F881FBB1F261737074807AB07CD
:102C0000B0E809F0BB0B802DBF01FF2793585F4F41
:102C10003AF09E3F510578F00C94E6190C94311A65
:102C20005F3FE4F3983ED4F3869577956795B79523
:102C3000F7959F5FC9F7880F911D9695879597F92E
:102C40000895E1E0660F771F881FBB1F62177307A7
:102C50008407BA0720F0621B730B840BBA0BEE1FBC
:102C600088F7E09508950E94161A88F09F5798F00B
:102C7000B92F9927B751B0F0E1F0660F771F881F81
:102C8000991F1AF0BA95C9F714C0B13091F00E949B
:102C9000301AB1E008950C94301A672F782F8827E6
:102CA000B85F39F0B93FCCF3869577956795B395C2
:102CB000D9F73EF490958095709561957F4F8F4F31
:102CC0009F4F08950E94EF1920F019F00E94F61905
:102CD00050F40C94EC190C94311AE92F0E940E1A3E
:102CE00088F35523B1F3E7FB621773078407950751
:102CF000A8F189F3E92FFF2788232AF03197660F7F
:102D0000771F881FDAF7952F5527442332F091500B
:102D10005040220F331F441FD2F7BB27E91BF50B8E
:102D2000621B730B840BB109B1F222F4620F731FA3
:102D3000841FB11D31972AF0660F771F881FBB1FB4
:102D4000EFCF9150504062F041F0882332F0660F8F
:102D5000771F881F91505040C1F793950C94B61679
:102D60008695779567959F5FD9F7F7CF9F3F31F0AD
:102D7000915020F4879577956795B795880F911DA9
:102D80009695879597F90895DF93CF931F930F93A7
:102D9000FF92EF92DF927B018C01689406C0DA2EDD
:102DA000EF010E948C19FE01E894A59125913591BF
:102DB00045915591A6F3EF010E94FA14FE01970187
:102DC000A801DA9469F7DF90EF90FF900F911F91BF
:102DD000CF91DF9108950E94551908F48FEF08955F
:102DE0009B01AC0160E070E080E89FE30C94C115AA
:102DF0009B01AC010C9479190E945519880B990B11
:102E00000895CF93DF938230910510F482E090E033
:102E1000E0910F04F091100420E030E0C0E0D0E039
:102E2000309711F14081518148175907C0F0481778
:102E3000590761F482819381209719F09B838A83DB
:102E40002BC09093100480930F0426C021153105E8
:102E500019F04217530718F49A01BE01DF01EF0180
:102E60000280F381E02DDCCF2115310509F1281B0B
:102E7000390B2430310590F412968D919C91139763
:102E80006115710521F0FB019383828304C0909347
:102E9000100480930F04FD01329644C0FD01E20F3F
:102EA000F31F81939193225031092D933C933AC0A3
:102EB00020910D0430910E04232B41F42091020146
:102EC0003091030130930E0420930D0420910001F2
:102ED000309101012115310541F42DB73EB74091E4
:102EE000040150910501241B350BE0910D04F09174
:102EF0000E04E217F307A0F42E1B3F0B2817390727
:102F000078F0AC014E5F5F4F2417350748F04E0F45
:102F10005F1F50930E0440930D048193919302C060
:102F2000E0E0F0E0CF01DF91CF9108950F931F9380
:102F3000CF93DF93009709F48CC0FC013297138282
:102F4000128200910F04109110040115110581F4F3
:102F500020813181820F931F20910D0430910E0446
:102F60002817390779F5F0930E04E0930D0471C02A
:102F7000D80140E050E0AE17BF0750F412962D91F3
:102F80003C911397AD012115310509F1D901F3CF1A
:102F90009D01DA013383228360817181860F971F3F
:102FA0008217930769F4EC0128813981260F371FB6
:102FB0002E5F3F4F318320838A819B81938382835D
:102FC000452B29F4F0931004E0930F0442C01396AC
:102FD000FC93EE931297ED01499159919E01240FB4
:102FE000351FE217F30771F480819181840F951FDB
:102FF000029611969C938E938281938113969C9353
:103000008E931297E0E0F0E0D80112968D919C919A
:103010001397009719F0F8018C01F6CF8D919C91D0
:1030200098012E5F3F4F820F931F20910D04309126
:103030000E042817390769F4309729F41092100408
:1030400010920F0402C01382128210930E04009398
:103050000D04DF91CF911F910F910895A0E0B0E092
:10306000E4E3F8E10C945D1AEC01009721F4CB0144
:103070000E940117B8C0FC01E60FF71F9C01225007
:103080003109E217F30708F4ACC0D9010D911C9186
:10309000119706171707B0F00530110508F49FC007
:1030A000C80104978617970708F499C002501109C0
:1030B000061B170B019311936D937C93CF010E9414
:1030C00096178DC05B01A01AB10A4C01800E911EAB
:1030D000A0910F04B091100440E050E0E12CF12CDD
:1030E000109709F44AC0A815B905D1F56D907C90E8
:1030F0001197630182E0C80ED11CCA14DB0480F171
:10310000A3014A195B096A0182E0C80ED11C12961C
:10311000BC9012971396AC91B5E0CB16D10440F059
:10312000B282A38351834083D9016D937C930AC0FB
:103130000E5F1F4FC301800F911FF90191838083A0
:10314000EB2DFA2FE114F10431F0D7011396FC9323
:10315000EE93129744C0F0931004E0930F043FC025
:103160008D919C9111974817590708F4AC017D0186
:1031700012960D90BC91A02DB3CF80910D0490912B
:103180000E0488159905E1F446175707C8F4809195
:10319000000190910101009741F48DB79EB74091D5
:1031A000040150910501841B950BE817F907C8F439
:1031B000F0930E04E0930D04F901718360830FC056
:1031C000CB010E9401177C01009759F0A801BE01B4
:1031D0000E940A19CE010E949617C70104C0CE01B1
:1031E00002C080E090E0CDB7DEB7EEE00C94791A33
:1031F00081E090E0F8940C94901AFB01DC0104C08B
:103200008D910190801921F441505040C8F7881BDE
:10321000990B0895FB01DC0102C001900D92415011
:103220005040D8F708950E94551908F481E0089598
:10323000E89409C097FB3EF4909580957095619550
:103240007F4F8F4F9F4F9923A9F0F92F96E9BB2706
:103250009395F695879577956795B795F111F8CF82
:10326000FAF4BB0F11F460FF1BC06F5F7F4F8F4FED
:103270009F4F16C0882311F096E911C0772321F0E3
:103280009EE8872F762F05C0662371F096E8862F7B
:1032900070E060E02AF09A95660F771F881FDAF7D2
:1032A000880F9695879597F90895990F0008550FFF
:1032B000AA0BE0E8FEEF16161706E807F907C0F0BC
:1032C00012161306E407F50798F0621B730B840BC4
:1032D000950B39F40A2661F0232B242B252B21F49E
:1032E00008950A2609F4A140A6958FEF811D811D3E
:1032F00008950E948C190C94FD190E94EF1938F062
:103300000E94F61920F0952311F00C94E6190C9404
:10331000EC1911240C94311A0E940E1A70F3959F27
:10332000C1F3950F50E0551F629FF001729FBB27BC
:10333000F00DB11D639FAA27F00DB11DAA1F649F58
:103340006627B00DA11D661F829F2227B00DA11D0B
:10335000621F739FB00DA11D621F839FA00D611D91
:10336000221F749F3327A00D611D231F849F600DB2
:10337000211D822F762F6A2F11249F5750409AF0DB
:10338000F1F088234AF0EE0FFF1FBB1F661F771F67
:10339000881F91505040A9F79E3F510580F00C9432
:1033A000E6190C94311A5F3FE4F3983ED4F3869506
:1033B00077956795B795F795E7959F5FC1F7FE2BD2
:1033C000880F911D9695879597F9089597F99F67AE
:1033D00080E870E060E008959FEF80EC089500249D
:1033E0000A941616170618060906089500240A946A
:1033F00012161306140605060895092E0394000CF0
:1034000011F4882352F0BB0F40F4BF2B11F460FF7E
:1034100004C06F5F7F4F8F4F9F4F089557FD9058A7
:10342000440F551F59F05F3F71F04795880F97FB88
:10343000991F61F09F3F79F0879508951216130642
:103440001406551FF2CF4695F1DF08C01616170671
:103450001806991FF1CF86957105610508940895A6
:10346000E894BB2766277727CB0197F90895A1E257
:103470001A2EAA1BBB1BFD010DC0AA1FBB1FEE1FEE
:10348000FF1FA217B307E407F50720F0A21BB30B39
:10349000E40BF50B661F771F881F991F1A9469F7B5
:1034A00060957095809590959B01AC01BD01CF0111
:1034B00008952F923F924F925F926F927F928F92D8
:1034C0009F92AF92BF92CF92DF92EF92FF920F93B3
:1034D0001F93CF93DF93CDB7DEB7CA1BDB0B0FB6BD
:1034E000F894DEBF0FBECDBF09942A88398848887A
:1034F0005F846E847D848C849B84AA84B984C88410
:10350000DF80EE80FD800C811B81AA81B981CE0F06
:10351000D11D0FB6F894DEBF0FBECDBFED010895EB
:04352000F894FFCF4D
:1035240000001104800000000000AE098506E803D5
:10353400000000002E05E80BF704D504E904750526
:103544000000000054062406C60510060106000605
:103554004D50553630353020636F6E6E6563746937
:103564006F6E207375636365737366756C004D507D
:10357400553630353020636F6E6E656374696F6ED7
:10358400206661696C656400564D4450565F317C19
:10359400315F564D4450560D0A0050726F67726188
:1035A4006D20737461727465642E00496E69746968
:1035B400616C697A696E6720493243206465766973
:1035C4006365732E2E2E0054657374696E672064D0
:1035D400657669636520636F6E6E656374696F6E8B
:1035E400732E2E2E00496E697469616C697A696E56
:1035F4006720444D502E2E2E00456E61626C696E1C
:103604006720444D502E2E2E00444D50207265618B
:103614006479212057616974696E6720666F72202E
:10362400666972737420696E746572727570742E33
:103634002E2E007061636B65742073697A653A207D
:1036440000444D5020496E697469616C697A6174F3
:10365400696F6E206661696C65642028636F6465B8
:1036640020002900436F6D706173733A20006E610E
:0A3674006E00696E66006F76660056
:107E0000112484B714BE81FFF0D085E080938100F7
:107E100082E08093C00088E18093C10086E0809377
:107E2000C20080E18093C4008EE0C9D0259A86E02C
:107E300020E33CEF91E0309385002093840096BBD3
:107E4000B09BFECF1D9AA8958150A9F7CC24DD24C4
:107E500088248394B5E0AB2EA1E19A2EF3E0BF2EE7
:107E6000A2D0813461F49FD0082FAFD0023811F036
:107E7000013811F484E001C083E08DD089C08234E0
:107E800011F484E103C0853419F485E0A6D080C0E4
:107E9000853579F488D0E82EFF2485D0082F10E0AE
:107EA000102F00270E291F29000F111F8ED06801E7
:107EB0006FC0863521F484E090D080E0DECF843638
:107EC00009F040C070D06FD0082F6DD080E0C81688
:107ED00080E7D80618F4F601B7BEE895C0E0D1E017
:107EE00062D089930C17E1F7F0E0CF16F0E7DF06D8
:107EF00018F0F601B7BEE89568D007B600FCFDCFD4
:107F0000A601A0E0B1E02C9130E011968C91119780
:107F100090E0982F8827822B932B1296FA010C0160
:107F200087BEE89511244E5F5F4FF1E0A038BF0790
:107F300051F7F601A7BEE89507B600FCFDCF97BE46
:107F4000E89526C08437B1F42ED02DD0F82E2BD052
:107F50003CD0F601EF2C8F010F5F1F4F84911BD097
:107F6000EA94F801C1F70894C11CD11CFA94CF0C13
:107F7000D11C0EC0853739F428D08EE10CD085E9AC
:107F80000AD08FE07ACF813511F488E018D01DD067
:107F900080E101D065CF982F8091C00085FFFCCF94
:107FA0009093C60008958091C00087FFFCCF809118
:107FB000C00084FD01C0A8958091C6000895E0E648
:107FC000F0E098E1908380830895EDDF803219F02E
:107FD00088E0F5DFFFCF84E1DECF1F93182FE3DFCA
:107FE0001150E9F7F2DF1F91089580E0E8DFEE27F6
:047FF000FF270994CA
:027FFE00040479
:0400000300007E007B
:00000001FF