:100000000C9428050C9450050C9450050C943F0A50
:100010000C943F0A0C943F0A0C9450050C94500524
:100020000C9450050C9450050C9450050C945005FC
:100030000C9450050C9450050C9450050C945005EC
:100040000C94101A0C9450050C94F71B0C94291C5A
:100050000C9450050C9450050C9450050C945005CC
:100060000C942F080C945005084AD73B3BCE016EE8
:1000700084BCBFFDC12F3D6C74319ABD56833DDAFF
:100080003D00C77F11BED9E4BB4C3E916BAAAABE0E
:10009000000000803F002900444D5020496E6974E3
:1000A00069616C697A6174696F6E206661696C65FB
:1000B000642028636F64652000444D5020726561A0
:1000C0006479212057616974696E6720666F7220B8
:1000D000666972737420696E746572727570742EBD
:1000E0002E2E00456E61626C696E6720444D502E65
:1000F0002E2E00496E697469616C697A696E672099
:10010000444D502E2E2E004D505536303530206344
:100110006F6E6E656374696F6E206661696C65648D
:10012000004D50553630353020636F6E6E65637408
:10013000696F6E207375636365737366756C0054C5
:10014000657374696E672064657669636520636FA3
:100150006E6E656374696F6E732E2E2E00496E6924
:100160007469616C697A696E6720493243206465FD
:1001700076696365732E2E2E0001B202FFFF019097
:10018000040923A135016A0206000160080000008D
:100190000000000000006004400000000162020056
:1001A0000000600400400000037B034CCD6C03ABF7
:1001B0000336567600680402CB47A20218040005F5
:1001C0008BC1010C0400000000037F060CC92C97B2
:1001D0009797038903264666006C022000024004BC
:1001E0000000000002440400000000024804000077
:1001F0000000024C04000000000250040000000057
:100200000254040000000002580400000000025CD8
:10021000040000000002BC040000000001EC040027
:10022000004000037F060CC92C9797970402030D2A
:10023000355D040904872D353D00A3010000000051
:1002400001078601FE074105F120283038077E01AD
:10025000300746019A074704F1283038076C04F14B
:100260002830380216020002FB00003E000B003668
:10027000000100020003000000650054FFEF0000D1
:10028000FA80000B12820001000200000000000052
:10029000000000000000000000280000FFFF458172
:1002A000FFFFFA7200000000000003E800000001F8
:1002B00000017FFFFFFE8001001B00000000000026
:1002C0000000000000000000003E0330400000007D
:1002D00002CAE3093E800000200000000000000088
:1002E000400000006000000041FF000000000B2AF9
:1002F0000000165500002182FD872650FD80000079
:10030000001F000000058000000000000001000048
:100310000002000000030000400000000000046F25
:100320000002653200005EC04000000000000000D6
:100330000000000000000000FB8C6F5DFD5D08D92F
:10034000007C733B006C12CC3200139D3200D0D67F
:1003500032000800400001F4FFE68079020000004E
:100360000000D0D600002710FB0000004000000075
:10037000000000000000000000000001000000007C
:1003800000000100010000000000FA36FFBC308EC2
:100390000005FBF0FFD95BC8FFD09ABE000010A992
:1003A000FFF41EB200CEBBF7000000010000000405
:1003B000000200020200000CFFC280000001800069
:1003C00000CF80004000000000000001000000009D
:1003D0000000060000000014000000000000000003
:1003E000000000000000000000000000000000000D
:1003F00000000000000000000000000000000000FD
:10040000000000000000000000000000033F68B68C
:10041000793528BCC67ED16C800000004000000009
:100420000000B26A000000000000000000000000B0
:1004300000003FF00000003000000000000000005D
:1004400000000000000000000000000000000000AC
:1004500000000000000000000000254D002F706D1E
:10046000000005AE000C02D0000000000065005442
:10047000FFEF000000000000000001000044000049
:1004800000000C00000001000000000000650000FA
:1004900000540000FFEF000000000000000000001A
:1004A000000000000000000040000000000000000C
:1004B00000000000000000004000000000000000FC
:1004C0000000000000000000000000010000000229
:1004D000000000000000000000000000000000001C
:1004E000000000000000000000000000000000000C
:1004F0000000000000000000001B000000000000E1
:1005000000000000000000000000000000000000EB
:1005100000000000000000000000000000000000DB
:100520000000000040000000001B00000000000070
:1005300000000000000000000000000000000000BB
:1005400000000000000000000000000000000000AB
:10055000000000000000000000000000000000009B
:100560000000000000000000D8DCBAA2F1DEB2B842
:10057000B4A88191F74A907F916AF3F9DBA8F9B0AA
:10058000BAA080F2CE81F3C2F1C1F2C3F3CCA2B221
:1005900080F1C6D880BAA7DFDFDFF2A7C3CBC5B62C
:1005A000F087A2942448703C95406834589B78A208
:1005B000F183922D557DD8B1B4B8A1D09180F2705D
:1005C000F370F27C80A8F101B09887D943D886C92E
:1005D00088BAA1F20EB89780F1A9DFDFDFAADFDFCA
:1005E000DFF2AAC5CDC7A90CC92C97979797F1A997
:1005F00089264666B0B4BA80ACDEF2CAF1B28C028B
:10060000A9B69800890E161EB8A9B4992C547CB0CE
:100610008AA896365676F1B9AFB4B083C0B8A89719
:1006200011B18F98B9AFF0240844106418F1A329D0
:10063000557DAF83B593AFF0002850F1A3869F613D
:10064000A6DADEDFD9FAA38696DB31A6D9F8DFBABF
:10065000A68FC2C5C7B28CC1B8A2DFDFDFA3DFDFC0
:10066000DFD8D8F1B8A8B286B4980D355DB8AA988D
:10067000B0872D353DB2B6BAAF8C96198F9FA70EB5
:10068000161EB49AB8AA872C547CB9A3DEDFDFA368
:10069000B180F2C4CDC9F1B8A9B499830D355D8993
:1006A000B9A32D557DB593A30E161EA92C547CB865
:1006B000B4B0F19783A81184A50998A383F0DA2434
:1006C0000844106418D8F1A529557DA58595021A0E
:1006D0002E3A565A4048F9F3A3D9F8F098832408E3
:1006E000441064189782A8F111F098A224084410CD
:1006F0006418DAF3DED883A59401D9A302F1A2C36A
:10070000C5C7D8F18492A24DDA2AD84869D92AD827
:100710006855DA32D85071D932D8705DDA3AD85883
:1007200079D93AD87893A34DDA2AD84869D92AD802
:100730006855DA32D85071D932D8705DDA3AD85863
:1007400079D93AD878A88A9AF02850789EF38818F0
:10075000F19F1D98A8D908D8C89F129EF315A8DA52
:100760001210D8F1AFC8978734B5B994A421F3D942
:1007700022D8F22DF3D92AD8F235F3D932D881A470
:10078000606061D961D86C6869D969D8747071D9B1
:1007900071D8B1A384193D5DA3831A3E5E931030D6
:1007A000811011B8B0AF8F94F2DA3ED8B49AA8870E
:1007B00029DAF8D8879A35DAF8D8879A3DDAF8D85E
:1007C000B1B9A49885022E56A581000C14A397B048
:1007D0008AF12DD928D84DD948D86DD968D8B18497
:1007E0000DDA0ED8A32983DA2C0ED8A3844983DA34
:1007F0002C4C0ED8B8B0A88A9AF520AADADFD8A86F
:1008000040AAD0DADED8A860AADAD0DFD8F197867D
:10081000A8319B069907AB9728889BF00C201440C1
:10082000B8B0B4A88C9CF0042851791D301438B2AB
:1008300082ABD0982C505078789BF11AB0F08A9CFB
:10084000A82951798B2951798A2470598B205871A4
:100850008A4469388B3940688A6448318B304960F2
:10086000A588200971584468113964493019F1ACE0
:10087000002C547CF08CA804285078F1889726A886
:100880005998AC8C02264666F0899CA82951792497
:100890007059446938644831A98809205970AB11EE
:1008A000384069A8193148608CA83C415C207C0024
:1008B000F187981986A86E767EA999882D557D9E18
:1008C000B9A38A228A6E8A568A5E9FB1830626461B
:1008D000660E2E4E6E9DB8AD002C547CF2B18CB4D9
:1008E00099B9A32D557D8191AC38AD3AB58391ACC2
:1008F0002DD928D84DD948D86DD968D88C9DAE2926
:10090000D904AED851D904AED879D904D881F39D91
:10091000AD008DAE1981ADD901D8F2AEDA26D88EF0
:10092000912983A7D9ADADADADF32AD8D8F1B0AC3C
:1009300089913E5E76F3AC2E2EF1B18C5A9CAC2C94
:100940002828289CAC3018A8988128343C9724A7E4
:1009500028343C9C24F2B089AC912C4C6C8A9B2DA1
:10096000D9D8D851D9D8D879D9D8D8F19E88A33137
:10097000DAD8D8912DD928D84DD948D86DD968D88A
:10098000B18393353D8025DAD8D88569DAD8D8B4D3
:100990009381A328343CF3AB8BF8A391B609B4D967
:1009A000ABDEFAB0879CB9A3DDF1A3A3A3A395F1B5
:1009B000A3A3A39DF1A3A3A3A3F2A3B49080F2A346
:1009C000A3A3A3A3A3A3A3A3A3B2A3A3A3A3A3A3E8
:1009D000B087B599F1A3A3A398F1A3A3A3A397A369
:1009E000A3A3A3F39BA3A3DCB9A7F1262626D8D8FB
:1009F000FF000000080002010000030407000000DF
:100A000000000000000102040810204080010204E0
:100A10000810200102040810200404040404040443
:100A200004020202020202030303030303000000A4
:100A30000023002600290000000000250028002BCC
:100A40000000000000240027002A00004507591C70
:100A500011241FBECFEFD8E0DEBFCDBF11E0A0E074
:100A6000B1E0E2E7FDE402C005900D92A03CB107C1
:100A7000D9F723E0A0ECB1E001C01D92AB38B2077A
:100A8000E1F71AE0C0E5DAE004C02297FE010E9417
:100A90006124CC34D107C9F70E949D1C0C94B72661
:100AA0000C940000CF93DF938FE190E00E94AC1C88
:100AB000EC0120E045E064E00E940B0B40E855E2C9
:100AC00060E070E0CE010E943B0BBE0180E00E941E
:100AD00084139093C1018093C00184E090E00E9450
:100AE000AC1CEC010E94960FD093C501C093C401C9
:100AF00080E390E00E94AC1CEC016091C401709115
:100B0000C5010E94D810D093C301C093C201DF91E8
:100B1000CF910895CF92DF92EF92FF92CF93DF9320
:100B2000E091C001F091C10168E071E08485958594
:100B30000E942E1D8091C0019091C101DC01ED91B8
:100B4000FC910480F581E02D0995892B99F368EEDD
:100B500073E080E090E00E94891AE091C001F0917A
:100B6000C1016AE171E0848595850E940F1D809125
:100B7000C4019091C501DC01ED91FC910280F381EB
:100B8000E02D0995AB01BC01E091C001F091C101DC
:100B900022E030E0848595850E94081FC091C00145
:100BA000D091C10164E670E080E090E00E94891A73
:100BB00041E060E070E08C859D850E948B1F6B0199
:100BC0007C01E091C001F091C1012AE030E0AB016D
:100BD000BC01848595850E94E11DC701B6010E9474
:100BE0004522AB01BC018091C2019091C3010E94DA
:100BF000AC11E091C001F091C1016AE171E084851E
:100C000095850E940F1D8091C4019091C501DC0162
:100C1000ED91FC910280F381E02D0995AB01BC01BF
:100C2000E091C001F091C10122E030E0848595851A
:100C3000DF91CF91FF90EF90DF90CF900C94081F41
:100C40008091F60190E02091F701821B91090895AF
:100C50002091F7018091F601281750F4E22FF0E07F
:100C6000E850FE4F808190E02F5F2093F7010895B8
:100C70008FEF9FEF0895E091F7018091F601E8175B
:100C800030F4F0E0E850FE4F808190E008958FEF5F
:100C90009FEF08950895CF92DF92EF92FF920F9306
:100CA0001F93CF93DF937C01CB018A012091D20166
:100CB000222389F0EB016B01C40ED51ECC15DD0596
:100CC00069F06991D701ED91FC910190F081E02DDF
:100CD000C7010995F3CF642F0E940608C801DF9170
:100CE000CF911F910F91FF90EF90DF90CF900895DB
:100CF000CF93DF931F92CDB7DEB769832091D201E6
:100D00002223D1F02091D301203240F021E030E0C5
:100D1000FC013383228380E090E015C08091D401F0
:100D2000E82FF0E0EB52FE4F998190838F5F809324
:100D3000D4018093D30105C061E0CE0101960E94E9
:100D4000060881E090E00F90DF91CF910895FC01BB
:100D50001382128248EE53E060E070E044835583D2
:100D6000668377838AE291E091838083089510926D
:100D7000F7011092F6011092D4011092D3010C9455
:100D8000490781E08093D2016093F5011092D4016C
:100D90001092D30108950F93062F21E04091D301C3
:100DA00065ED71E08091F5010E94AF071092D401CA
:100DB0001092D3011092D2010F9108958F929F92B9
:100DC000AF92BF92CF92DF92EF92FF920F931F9359
:100DD000CF93DF93EC01F62ED42E48015901EE207B
:100DE00019F10E94C1061E2D143008F013E01150B5
:100DF000B8F0E881F98128E0129FB0011124A50123
:100E0000940104C056954795379527956A95D2F772
:100E1000CA01B9010190F081E02DCE010995E7CF1B
:100E200060E0CE010E94CB064D2D413208F040E239
:100E30002C2D68EF71E08F2D0E9467071092F7014B
:100E40008093F601DF91CF911F910F91FF90EF906A
:100E5000DF90CF90BF90AF909F908F900895CF92EA
:100E6000EF920F931F93C22EE12C00E010E0980147
:100E70000E94DE061F910F91EF90CF90089521E020
:100E80000C942F0761E00C94CB0686EC91E00C9457
:100E9000A7061092850281E080938302109282025D
:100EA00061E082E10E94BF1B61E083E10E94BF1B01
:100EB000E9EBF0E080818E7F808380818D7F80836D
:100EC00088E48093B80085E48093BC0008954132A3
:100ED00008F043C0909185029111FCCF91E090936E
:100EE0008502209383022FEF2093180210925D0257
:100EF000240F20935C029093840290918402880FC7
:100F0000892B8093840280918202813061F4109257
:100F10008202809184028093BB008091BC0083FD9B
:100F2000F8CF85EC01C085EE8093BC0080918502EE
:100F30008130E1F380915D02841710F440915D02ED
:100F40002EE532E0FB01D9018A2F821B841718F4A9
:100F50008D918193F9CF842F089580E008950F93A8
:100F6000413208F04AC0909185029111FCCF92E085
:100F700090938502009383029FEF90931802109242
:100F80005D0240935C02FB016EE572E0DB019A2F8B
:100F9000961B941718F491919D93F9CF10928402A7
:100FA00090918402880F892B809384028091820221
:100FB000813061F410928202809184028093BB00A0
:100FC0008091BC0083FDF8CF85EC01C085EE809355
:100FD000BC00222321F0809185028230E1F38091D0
:100FE00018028F3F61F080911802803251F0809199
:100FF0001802803341F483E007C081E005C080E03F
:1010000003C082E001C084E00F910895613298F43A
:1010100020918502243089F460933A02FC018CE32C
:1010200092E0DC012A2F281B261718F421912D931A
:10103000F9CF80E0089581E0089582E0089585ED7C
:101040008093BC008091BC0084FDFCCF109285028F
:10105000089585EC8093BC001092850208951F923C
:101060000F920FB60F9211242F933F934F935F93DC
:101070006F937F938F939F93AF93BF93EF93FF9360
:101080008091B900887F803609F49EC078F5883257
:1010900009F45DC090F4803109F456C038F4882317
:1010A00009F4F5C0883009F44FC0F5C0883109F45F
:1010B0004EC0803209F45FC0EEC0803409F46AC0CB
:1010C00058F4803309F457C0883309F0E4C08093A2
:1010D00018020E942908DFC0803509F44FC0883506
:1010E00009F45DC0883409F0D6C0D3C0883909F44A
:1010F000C4C0A8F4883709F467C038F4883609F406
:1011000063C0803709F460C0C6C0883809F4B5C030
:10111000803909F45FC0803809F0BDC05BC0803BF6
:1011200009F483C038F4803A09F466C0883A09F4B7
:101130007CC0B1C0803C09F4A4C0883C09F4A1C0C3
:10114000883B09F487C0A7C08091840210C09091A9
:101150005D0280915C02981770F5E0915D0281E07C
:101160008E0F80935D02F0E0E25AFD4F8081809304
:10117000BB0085EC83C0809318028BC0E0915D02B8
:1011800081E08E0F80935D028091BB00F0E0E25A17
:10119000FD4F808390915D0280915C026BC0E09175
:1011A0005D0281E08E0F80935D028091BB00F0E0D4
:1011B000E25AFD4F80838091830281116AC081E0F1
:1011C0008093820284EA5EC083E08093850210925D
:1011D0001902CFCF80911902803208F04EC0E09101
:1011E000190281E08E0F809319028091BB00F0E01C
:1011F000E65EFD4F8083BDCF0E94290880911902D1
:10120000803230F4E0911902F0E0E65EFD4F10828A
:101210006091190270E0E0917E02F0917F028AE114
:1012200092E009951092190236C084E080938502FD
:1012300010923B0210923A02E0918002F0918102FA
:10124000099580913A02811105C081E080933A02AC
:1012500010923C02E0913B0281E08E0F80933B02B2
:10126000F0E0E45CFD4F80818093BB0090913B02F5
:1012700080913A02981708F47CCF85E88093BC00EF
:101280000AC085EC8093BC001092850204C01092C5
:1012900018020E941F08FF91EF91BF91AF919F919B
:1012A0008F917F916F915F914F913F912F910F900F
:1012B0000FBE0F901F9018952091C8023091C9025F
:1012C00028173907B9F49091860280918702981700
:1012D00089F0E0918602F0E0E857FD4F808120918F
:1012E000860230E02F5F3F4F2F7333272093860213
:1012F00090E008958FEF9FEF08951F93CF93DF93B2
:10130000DC015C968D919C915D97009749F481E09A
:1013100090E013969C938E93129780E090E03BC0F0
:101320005196ED91FC91529750962C915097322FF7
:1013300030951FB75E964C915E9741FB772770F909
:1013400041FD6095F8944081772311F0422B01C054
:1013500043234083EC012197F1F748E0508160FF7F
:1013600002C0522B01C053235083EC012197F1F7A7
:101370006695415099F78081772311F0832301C04E
:10138000822B80831FBF5C968D919C915D97019706
:10139000F1F781E090E0DF91CF911F9108950895DA
:1013A0002091C8023091C9022817390771F4909131
:1013B000860280918702981741F0E0918602F0E062
:1013C000E857FD4F808190E008958FEF9FEF0895DB
:1013D0002091C8023091C9022817390771F4809111
:1013E00087022091860290E0805C9F4F821B9109CA
:1013F00060E470E00E94EB23089580E090E008959F
:10140000E091C802F091C902E817F90769F4A389CD
:10141000B4899C918589809589238C931092C90207
:101420001092C80281E0089580E00895CF93DF9381
:10143000EC018A8D9B8D892BF1F08091C8029091EF
:10144000C9028C179D07B9F0009711F00E94000A9D
:101450008E8D8E7F8E8F1092870210928602D0938F
:10146000C902C093C802EB89FC8980819D89892BC0
:10147000808381E001C080E0DF91CF9108951F92C9
:101480000F920FB60F9211242F933F934F935F93B8
:101490006F937F938F939F93AF93BF93EF93FF933C
:1014A000E091C802F091C902309709F451C0868DCD
:1014B000A685B785958581FF04C08C91892329F481
:1014C00047C08C91892309F043C0A389B4899C91BA
:1014D0008589809589238C93868997890197F1F76F
:1014E000208D318DA685B785758558E040E0C9010E
:1014F0000197F1F7842F90E095958795482F6C918F
:10150000672309F04068515091F7868D81FD409521
:101510008091870290E001968F739927209186022F
:10152000281749F0A0918702B0E0A857BD4F4C930F
:101530008093870203C0868D8160868F828D938D14
:101540000197F1F7A389B4898C919589892B8C93A4
:10155000FF91EF91BF91AF919F918F917F916F918B
:101560005F914F913F912F910F900FBE0F901F9061
:1015700018951F93CF93DF93EC01162F6E8D669510
:10158000617081E06827812F0E94BF1B61E0812F7D
:101590000E94861B812F90E0FC01EB5FF54FE491E8
:1015A000E88BFC01E75EF54FE491F0E0EE0FFF1FE2
:1015B000E95CF54F859194919A8B898BDF91CF915E
:1015C0001F9108951F93CF93DF93EC01162F60E0D6
:1015D000812F0E94861B8E8D81FD04C061E0812FCA
:1015E0000E94BF1B1C87812F90E0FC01EB5FF54F31
:1015F000E491ED87FC01E75EF54FE491F0E0EE0F3A
:10160000FF1FE35DF54F859194919F878E87DF9152
:10161000CF911F910895FF920F931F93CF93DF9364
:10162000EC01F62E522F1B821A8208EE13E020E006
:1016300030E00C831D832E833F838AE391E09983FE
:1016400088831F8A1E8A198E188E1B8E1A8E1D8EF5
:101650001C8E8E8D8E7F50FB81F98E8F642FCE0174
:101660000E94B90A6F2DCE01DF91CF911F910F918A
:10167000FF900C94E20ACF93DF93EC019A01AB0147
:101680001B8E1A8E198E188E1F8A1E8A60E079E0D2
:101690008DE390E00E942124C9012430310520F01F
:1016A000B9016350710902C061E070E07D8F6C8FF9
:1016B000EC85E63108F068C0B9017695679564312C
:1016C000710518F06351710902C061E070E07F8B11
:1016D0006E8B069718F0C901059702C081E090E073
:1016E000998F888FC901880F991F820F931F969534
:1016F0008795969587958D30910510F00C9702C0CF
:1017000081E090E09B8F8A8F20916800E83050F054
:1017100091E0EE3008F490E081E001C0880F9A95E6
:10172000EAF701C084E0822B809368002C85283082
:1017300038F02E3040F0263148F48CE690E008C0B6
:101740008DE690E005C08BE690E002C080E090E07E
:101750009C8B8B8B283030F481E001C0880F2A9558
:10176000EAF70DC0822F90E02E3010F4089701C0E8
:101770000E9791E001C0990F8A95EAF7892F8D8B1A
:101780008C8D9D8D0197F1F7CE01DF91CF910C9457
:10179000160ACF92DF92EF92FF92DC01ED91FC915D
:1017A0000190F081E02D099520E030E044E353E41E
:1017B0000E9481232BED3FE049E450E40E94AA21DE
:1017C00020E030E044EB53E40E9487226B017C016F
:1017D00020E030E0A9010E94A62187FF0AC020E096
:1017E00030E044EB53E4C701B6010E94E0206B01F6
:1017F0007C01C701B601FF90EF90DF90CF90089574
:101800004F925F926F927F928F929F92AF92BF9210
:10181000CF92DF92EF92FF92CF93DF93CDB7DEB7F7
:10182000C454D1090FB6F894DEBF0FBECDBF7C0102
:101830008091CC02882309F4D6C0F701828193817C
:101840000E94C3168115944029F4F7018281938187
:101850000E948816F701828193810E94C3164091ED
:10186000CA025091CB0284179507A0F3BE016F5FA7
:101870007F4FF701828193810E94DF16698170E0BA
:10188000762F66278A81680F711D882777FD8095DE
:10189000982F0E94452220E030E040E858E30E9463
:1018A00081236B017C01698570E0762F66278A852C
:1018B000680F711D882777FD8095982F0E9445221B
:1018C00020E030E040E858E30E9481234B015C01B6
:1018D000A7019601C701B6010E94E02025966CAFD2
:1018E0007DAF8EAF9FAF2597A5019401C501B401CF
:1018F0000E94E0202B013C01A701960125966CADCA
:101900007DAD8EAD9FAD25970E9481236B017C013B
:10191000A5019401C301B2010E9481239B01AC0186
:10192000C701B6010E94E02020E030E040E85FE31C
:101930000E94DF206B017C016D8170E0762F6627AD
:101940008E81680F711D882777FD8095982F0E94E2
:10195000452220E030E040E858E30E9481239B01CB
:10196000AC01C301B2010E9481232B013C016D85B2
:1019700070E0762F66278E85680F711D882777FDAA
:101980008095982F0E94452220E030E040E858E3FF
:101990000E9481239B01AC0125966CAD7DAD8EAD7F
:1019A0009FAD25970E9481239B01AC01C301B20129
:1019B0000E94DF20A7019601CC5BDF4F0FB6F894A1
:1019C000DEBF0FBECDBFDF91CF91FF90EF90DF90D4
:1019D000CF90BF90AF909F908F907F906F905F90CF
:1019E0004F900C94532160E070E0CB01CC5BDF4F53
:1019F0000FB6F894DEBF0FBECDBFDF91CF91FF9041
:101A0000EF90DF90CF90BF90AF909F908F907F909E
:101A10006F905F904F9008958F929F92AF92BF9278
:101A2000CF92EF920F931F93CF93DF93CDB7DEB793
:101A3000C059D1090FB6F894DEBF0FBECDBF5C010F
:101A40000E9496166EE170E080E090E00E94891A94
:101A500060E0C5010E949D1621E041E060E1C50102
:101A60000E94CB1766E0C5010E94D617C5010E94EF
:101A7000DC1720E040E060E0C5010E94CB17C50103
:101A80000E941217C5010E943017182FC5010E942D
:101A90005717882EC5010E947E17982E4FE760E0E9
:101AA000C5010E94561660E0C5010E94811648E6F5
:101AB00060E0C5010E945616C5010E948F1664E1C0
:101AC00070E080E090E00E94891AEE24E39400E048
:101AD00020E049E857E068E672E0C5010E94391944
:101AE000882309F40EC240EC50E068EA71E0C501B9
:101AF0000E94011A882309F406C263E0C5010E940E
:101B0000A41662E1C5010E94621664E0C5010E944C
:101B10000C1661E0C5010E94121663E0C5010E9427
:101B20001D1663E0C5010E94281663E0C5010E94EE
:101B3000041A60E0C5010E940A1A60E0C5010E9413
:101B40002917612FC5010E944C17682DC5010E94FD
:101B50007317692DC5010E949A17812C912CF401ED
:101B6000E758FE4FE491A1E8B0E0AC0FBD1FA80D0F
:101B7000B11DEC9381E0880D9FEF891A990AE3E08B
:101B8000E81568F7CD57DF4F4881C358D04050E083
:101B90009A012E5F3F4F90E02817390704F7C12CB8
:101BA000EE24E394CE57DF4F0881C258D040CF5780
:101BB000DF4F2881C158D04061E870E06C0F7D1F75
:101BC0006D5F7F4FC5010E94581860E0F401E7582F
:101BD000FE4FE491A1E8B0E0AC0FBD1FA60FB11D10
:101BE000EC936F5FFFEF8F1A9F0A643078F3CD5745
:101BF000DF4F4881C358D04050E09A012E5F3F4FDD
:101C0000862F90E0281739070CF7C12CEE24E394B7
:101C1000CE57DF4F0881C258D040CF57DF4F2881C1
:101C2000C158D04061E870E06C0F7D1F6D5F7F4F41
:101C3000C5010E945818C5010E948816C5010E945E
:101C4000C316482FBE016F5F7F4FC5010E94DF168C
:101C500062E0C5010E943E166CE9C5010E944A1669
:101C600060E5C5010E94441660E0C5010E9450165F
:101C7000C5010E94881661E0C5010E947A1661E0E4
:101C8000C5010E94BD17C5010E94C41760E0F401A0
:101C9000E758FE4FE491A1E8B0E0AC0FBD1FA60FDE
:101CA000B11DEC936F5F8FEF881A980A643078F358
:101CB000CD57DF4F4881C358D04050E09A012E5F86
:101CC0003F4F862F90E0281739070CF7C12CEE24E0
:101CD000E394CE57DF4F0881C258D040CF57DF4F33
:101CE0002881C158D04061E870E06C0F7D1F6D5FA6
:101CF0007F4FC5010E94581860E0F401E758FE4F7D
:101D0000E491A1E8B0E0AC0FBD1FA60FB11DEC93AC
:101D10006F5F9FEF891A990A643078F3CD57DF4FD0
:101D20004881C358D04050E09A012E5F3F4F862F24
:101D300090E0281739070CF7C12CEE24E394CE5716
:101D4000DF4F0881C258D040CF57DF4F2881C1589C
:101D5000D04061E870E06C0F7D1F6D5F7F4FC50163
:101D60000E94581860E0F401E758FE4FE491A1E8A2
:101D7000B0E0AC0FBD1FA60FB11DEC936F5FEFEF8E
:101D80008E1A9E0A643078F3CD57DF4F4881C358CE
:101D9000D04050E09A012E5F3F4F862F90E02817E9
:101DA00039070CF7C12CEE24E394CE57DF4F08819E
:101DB000C258D040CF57DF4F2881C158D04061E88A
:101DC00070E06C0F7D1F6D5F7F4FC5010E9458183A
:101DD000C5010E94C31683309105D0F3482FBE0180
:101DE0006F5F7F4FC5010E94DF16C5010E94681614
:101DF00060E0F401E758FE4FE491A1E8B0E0AC0FD9
:101E0000BD1FA60FB11DEC936F5FFFEF8F1A9F0AE6
:101E1000643078F3CD57DF4F4881C358D04050E04D
:101E20009A012E5F3F4F862F90E0281739070CF755
:101E3000CE57DF4F0881C258D040CF57DF4F28819F
:101E4000C158D04061E870E06C0F7D1F6D5F7F4F1F
:101E5000C5010E94EE17C5010E94C316833091058B
:101E6000D0F3482FBE016F5F7F4FC5010E94DF1680
:101E7000C5010E946816F401E758FE4F60E08491A6
:101E8000A1E8B0E0AC0FBD1FA60FB11D8C936F5F32
:101E9000643010F43196F3CFCD57DF4F4881C358EB
:101EA000D04050E09A012E5F3F4F862F90E02817D8
:101EB000390784F761E870E06C0F7D1F6D5F7F4F1D
:101EC000C12CEE24E394CE57DF4F0881C258D04096
:101ED000CF57DF4F2881C158D040C5010E94581804
:101EE00060E0C5010E94BD178AE290E0F50193838E
:101EF0008283C5010E948816C5010E94681680E091
:101F000003C081E001C082E0C057DF4F0FB6F894F4
:101F1000DEBF0FBECDBFDF91CF911F910F91EF902C
:101F2000CF90BF90AF909F908F9008950F931F9385
:101F3000CF93DF93EC0188E591E09983888383E177
:101F400090E00E94AC1C8C010E9408161B830A833F
:101F500086EC91E00E94B70688E18093B8006DE5B9
:101F600071E08AEE92E00E941C1D8A819B810E9492
:101F7000AF166FE371E08AEE92E00E941C1D8A8129
:101F80009B810E940A17882319F061E271E002C068
:101F900067E071E08AEE92E00E941C1D63EF70E042
:101FA0008AEE92E00E941C1D8A819B810E940C0D8A
:101FB000182F6CED70E08A819B810E94AB176CE456
:101FC00070E08A819B810E94B1176BEA7FEF8A8162
:101FD0009B810E94B7176CEF76E08A819B810E94FB
:101FE000A517111130C063EE70E08AEE92E00E94F6
:101FF0001C1D61E08A819B810E94BD1769EB70E026
:102000008AEE92E00E941C1D81E08093CC02EA815E
:10201000FB81828193819093CB028093CA0266E414
:1020200071E08AEE92E00E940F1D6091CA027091E9
:10203000CB024AE050E08AEE92E0DF91CF911F910F
:102040000F910C94071E68E970E08AEE92E00E94FE
:10205000EC1C4AE050E0612F8AEE92E00E94001EE4
:1020600066E970E08AEE92E0DF91CF911F910F91C7
:102070000C941C1D0F931F93CF93DF93EC0186E00C
:1020800090E00E94AC1C8C0128E030E04BE050E076
:102090006DE070E00E9413131B830A8386E090E0DA
:1020A0000E94AC1C8C0129E030E043E050E06CE081
:1020B00070E00E9413131D830C8319821882DF9134
:1020C000CF911F910F910895CF93DF93EC018A81F7
:1020D0009B810E9438138C819D81DF91CF910C945C
:1020E0003813CF92DF92EF92FF920F931F93CF930B
:1020F000DF93EC018E819F818130910571F02CF48A
:10210000892B09F560E070E00DC08230910541F047
:102110000397C9F460E070E00CC061E070E009C0B2
:1021200061E070E08C819D810E942C1360E070E082
:1021300006C08C819D810E942C1361E070E08A8131
:102140009B810E942C1388819981009721F10E9424
:10215000F1158C016C01E12CF12C88819981DC0155
:10216000ED91FC910190F081E02D0995811108C05D
:102170000115110591F3C701B6010E94891AEDCF2F
:10218000CE01DF91CF911F910F91FF90EF90DF90E3
:10219000CF900C946410DF91CF911F910F91FF901D
:1021A000EF90DF90CF900895FC01718360830895D4
:1021B0002F923F924F925F926F927F928F929F9257
:1021C000AF92BF92CF92DF92EF92FF920F931F9345
:1021D000CF93DF93CDB7DEB729970FB6F894DEBF64
:1021E0000FBECDBF8C015B010E943A1064E670E027
:1021F000D80114968D919C9115970E943D1364E629
:1022000070E0F801828193810E943D1380E00E947A
:10221000B0136C0183E090E0D80117969C938E93E5
:102220001697F801108611861286138618018824E5
:102230008394912C92E3E92EF12CD501ED91FC9140
:102240000280F381E02DC50109959B01AC01B70126
:10225000CE0101962E833F83488759870E94FB1544
:10226000BE016F5F7F4FC8010E94D410C8010E9459
:10227000711068EE73E080E090E00E94891AD50149
:10228000ED91FC910280F381E02DC50109952E812D
:102290003F81488559850E94DF202B013C0120E0C9
:1022A00030E0A9010E94A62187FF0AC020E030E0AB
:1022B00044EB53E4C301B2010E94E0202B013C0136
:1022C000F1014486558666867786C114D104E1F013
:1022D0004AE050E0B401D6011C968D919C911D9767
:1022E0000E94D91D68E171E0F601848595850E9400
:1022F0000F1D22E030E0B301A201D6011C968D91A2
:102300009C911D970E94081FB2E3EB0EF11CE4E0C4
:102310002E0E311CFFEF8F1A9F0A84EFE81681E022
:10232000F80609F08ACF29960FB6F894DEBF0FBEE3
:10233000CDBFDF91CF911F910F91FF90EF90DF9074
:10234000CF90BF90AF909F908F907F906F905F9055
:102350004F903F902F9008952F923F924F925F920F
:102360006F927F928F929F92AF92BF92CF92DF92A5
:10237000EF92FF920F931F93CF93DF93CDB7DEB70A
:1023800063970FB6F894DEBF0FBECDBF9F838E83D9
:102390006A017B0180E00E94B0131C0120E030E064
:1023A00044EB53E4C701B6010E9487226B017C0114
:1023B00020E030E0A9010E94A62120E030E044EBBB
:1023C00053E487FF05C0C701B6010E94E0200EC09C
:1023D000C701B6010E947623181654F420E030E0BD
:1023E00044EB53E4C701B6010E94DF206B017C017E
:1023F00020E030E044E353E4C701B6010E94A62187
:1024000087FF03C083E090E00CC0A701960160E065
:1024100070E084EB93E40E94DF206B017C0182E09A
:1024200090E0EE81FF819783868320E030E040E2F8
:1024300051E4C701B6010E94A62187FDD2C06E807B
:102440007F8001E010E0F30184849584A684B78442
:10245000A5019401C701B6010E94A621F801319699
:1024600087FFA0C001501109EE0FFF1FEE0FFF1FE5
:102470008E819F81E80FF91F4080518062807380B8
:10248000A3019201C701B6010E94DF206887798706
:102490008A879B87A3019201C501B4010E94DF20B6
:1024A0006C877D878E879F879B01AC0168857985C6
:1024B0008A859B850E94AA214B015C01B80188276F
:1024C00077FD8095982F0E944522A50194010E94D6
:1024D000E0202B013C0120E030E048E452E40E947F
:1024E00081230E941722688B798B8A8B9B8B0889AA
:1024F00019892114310409F460C06CE571E0F1011F
:10250000848595850E940F1D22E030E0488559851D
:102510006A857B85F101848595850E94081F68E6A0
:1025200071E0F101848595850E940F1D22E030E065
:102530004C855D856E857F85F101848595850E943A
:10254000081F63E771E0F101848595850E940F1DE6
:1025500022E030E0B501A401F101848595850E9457
:10256000081F67E771E0F101848595850E940F1DC2
:1025700022E030E0B301A201F101848595850E943B
:10258000081F6BE771E0F101848595850E940F1D9E
:102590004AE050E068897989F101848595850E9437
:1025A000071E0BC08F01F4E06F0E711C0A3011057D
:1025B00009F049CF04EF11E003C001151105D1F373
:1025C000B801CE0101960E94FB15BE016F5F7F4FDF
:1025D0008E819F810E94D4108E819F810E947110F4
:1025E00003C0C12CD12C7601EE81FF8117821682A7
:1025F000C701B60163960FB6F894DEBF0FBECDBF1C
:10260000DF91CF911F910F91FF90EF90DF90CF90CE
:10261000BF90AF909F908F907F906F905F904F9002
:102620003F902F900895CF93DF931F92CDB7DEB7E1
:10263000FC01862F24833583538342836083718317
:1026400061E029830E94861B61E02981822F0F901F
:10265000DF91CF910C94861BCF93DF93EC0188819F
:102660000E94BF1B60E08C81DF91CF910C94BF1B57
:1026700061E0FC0184810C94BF1BCF93DF93EC01DC
:102680008A810E94FE1ACE01DF91CF910C943813FB
:10269000DC011C968D919C911D97DC01ED91FC91C4
:1026A0000480F581E02D0994DC011C968D919C91AC
:1026B0001D97DC01ED91FC910680F781E02D0994D6
:1026C000DC011C968D919C911D97DC01ED91FC9194
:1026D0000084F185E02D0994DC011C968D919C917C
:1026E0001D97DC01ED91FC910284F385E02D0994A6
:1026F000DC011C968D919C911D97DC01ED91FC9164
:102700000190F081E02D09941F93CF93DF93182F50
:10271000EB018A30F8F48EE090E00E94AC1CFC01E2
:102720001382128248EE53E060E070E044835583E8
:102730006683778326E831E031832083D587C48799
:10274000A12FB0E0AA0FBB1FA353BD4FED93FC9385
:10275000CF0102C080E090E0DF91CF911F910895FA
:102760008A3048F4E82FF0E0EE0FFF1FE353FD4FEF
:1027700080819181089580E090E00895EF92FF922A
:102780000F931F93CF93DF9300D0CDB7DEB7062F03
:10279000142F682F86EC91E029833A830E94C106AA
:1027A000602F86EC91E00E9478062981022FE22EAC
:1027B0003A81F32E8E2D801B811740F4F701619131
:1027C0007F0186EC91E00E947806F4CF86EC91E0E0
:1027D0000E94420791E0811190E0892F0F900F90A5
:1027E000DF91CF911F910F91FF90EF900895CF93BC
:1027F000DF931F92CDB7DEB749839E012F5F3F4F16
:1028000041E00E94BE130F90DF91CF910895DF92B7
:10281000EF92FF920F931F93CF93DF93C62F042F56
:102820007901682F86EC91E00E94C1066C2F86EC3E
:1028300091E00E94780610E0000F111FD12CCD2DE1
:10284000D0E0C017D1078CF4CC0FDD1FCE0DDF1DFB
:10285000698186EC91E00E947806688186EC91E0BF
:102860000E947806D394D394EACF86EC91E00E943C
:10287000420791E0811190E0892FDF91CF911F9164
:102880000F91FF90EF90DF900895CF93DF9300D0EA
:10289000CDB7DEB75A8349839E012F5F3F4F41E09A
:1028A0000E9407140F900F90DF91CF9108953F92EF
:1028B0004F925F926F927F928F929F92AF92BF9250
:1028C000CF92DF92EF92FF920F931F93CF93DF93FC
:1028D00000D000D000D0CDB7DEB7682E562E742EB3
:1028E0003A8329830E945A1A6B017C01312C412CB6
:1028F000872D90E09C838B834801A12CB12C371449
:10290000B0F5662D86EC91E00E94C106652D86EC3F
:1029100091E00E94780686EC91E00E944207662DC5
:1029200086EC91E00E94C1064B815C8143195109FC
:102930004132510514F040E250E0662D86EC91E002
:102940000E943F0786EC91E00E942006892B59F1F6
:102950000115110579F10E945A1A6C197D098E0929
:102960009F09681579058A059B0520F11CC0011592
:10297000110589F10E945A1A6C197D098E099F0967
:1029800020E030E0601771078207930720F1872D60
:1029900090E0242D332727FD309528173907DCF4E4
:1029A00044244A9418C0872D90E2971508F480E2D9
:1029B000380EA5CFE981FA81E40DF11D47FCFA95A7
:1029C000FE83ED8386EC91E00E942806ED81FE8176
:1029D00080834394B7CF842D26960FB6F894DEBF3C
:1029E0000FBECDBFDF91CF911F910F91FF90EF9060
:1029F000DF90CF90BF90AF909F908F907F906F901F
:102A00005F904F903F9008950F931F9389019A0113
:102A100041E00E9457141F910F910895DF92EF92A9
:102A2000FF920F931F93CF93DF931F92CDB7DEB723
:102A3000D42E79019801AE014F5F5F4F0E940415BB
:102A400061E070E001C0660FDA94EAF7998196239D
:102A5000F70190830F90DF91CF911F910F91FF901D
:102A6000EF90DF900895CF92DF92EF92FF920F9355
:102A70001F93CF93DF931F92CDB7DEB7C42ED22E14
:102A80009701AE014F5F5F4F0E9404158823F1F05C
:102A90004C2D50E04D1951094F5F5F4F61E070E0E0
:102AA00002C0660F771FDA94E2F761507109042EB5
:102AB00001C0660F0A94EAF72981262330E002C09C
:102AC000359527954A95E2F7F80120830F90DF911D
:102AD000CF911F910F91FF90EF90DF90CF900895CD
:102AE000EF92FF920F931F93CF93DF931F92CDB777
:102AF000DEB7182F062FF42EE22E2091060130911A
:102B00000701AE014F5F5F4F0E940415898121E0EC
:102B100030E00F2C01C0220F0A94EAF7EE2019F0E2
:102B2000482F422B03C0422F409548234983602FF2
:102B3000812F0E94F7130F90DF91CF911F910F917A
:102B4000FF90EF900895DF92EF92FF920F931F9303
:102B5000CF93DF931F92CDB7DEB7F82EE62ED42E9B
:102B6000122F2091060130910701AE014F5F5F4F98
:102B70000E940415882319F14D2D50E0411B510985
:102B80004F5F5F4FE1E0F0E002C0EE0FFF1F1A95CC
:102B9000E2F73197042E01C0EE0F0A94EAF701C064
:102BA000000F4A95EAF74E2F409589814823E0238C
:102BB0004E2B49836E2D8F2D0E94F71301C080E0AC
:102BC0000F90DF91CF911F910F91FF90EF90DF90C9
:102BD000089526E931E0FC01318320837383628309
:102BE0000895FC01828193810895FC01848191E024
:102BF000982794830895CF93DF93EC010E94E91501
:102C00008CE991E0998388831C82DF91CF910895AC
:102C100028E6FC0120830895462F69E1FC018081AC
:102C20000C94F7130F93062F23E045E06AE1FC01B3
:102C300080810E94A3150F9108950F93062F23E022
:102C400042E06AE1FC0180810E94A3150F91089582
:102C50000F93062F22E044E06BE1FC0180810E948B
:102C6000A3150F9108950F93062F22E044E06CE125
:102C7000FC0180810E94A3150F910895462F6FE1FA
:102C8000FC0180810C94F713462F60E2FC018081E7
:102C90000C94F713462F61E2FC0180810C94F7132A
:102CA000462F62E2FC0180810C94F713643048F4F3
:102CB000262F220F260F2B5D622FFC0180810C94A2
:102CC000F7130895462F68E3FC0180810C94F713F5
:102CD000CF93DF93EC012091060130910701AC0105
:102CE0004F5F5F4F6AE388810E9404158981DF91FD
:102CF000CF910895262F46E06AE6FC0180810C946E
:102D00007015262F45E06AE6FC0180810C94701551
:102D100021E042E06AE6FC0180810C94701521E01C
:102D200041E06AE6FC0180810C94701521E047E0E7
:102D30006BE6FC0180810C947015262F46E06BE653
:102D4000FC0180810C9470150F93062F23E042E064
:102D50006BE6FC0180810E94A3150F910895CF932B
:102D6000DF93EC0161E00E94A41660E0CE010E94B6
:102D7000281660E0CE010E94331660E0CE01DF919C
:102D8000CF910C949D160F931F93CF93DF93EC017B
:102D900000910601109107019C012F5F3F4F42E017
:102DA00062E788810E945714898190E0982F8827D4
:102DB0002A81822BDF91CF911F910F9108950F935C
:102DC0001F939B01009106011091070164E7FC012C
:102DD00080810E9457141F910F910895EF92FF92E6
:102DE0000F931F93CF93DF93EC01E0900601F090D7
:102DF00007018C010F5F1F4F26E046E065E78881E1
:102E00000E9433158981DF91CF911F910F91FF901F
:102E1000EF9008950E94EE1691E0843309F090E05F
:102E2000892F08950F931F93CF93DF93EC010091A7
:102E30000601109107019C012F5F3F4F40E060E0C9
:102E400088810E940E158981DF91CF911F910F918A
:102E50000895262F40E060E0FC0180810C947015FD
:102E6000EF92FF920F931F93CF93DF93EC01E090CB
:102E70000601F09007018C010F5F1F4F26E046E02E
:102E800060E088810E9433158981DF91CF911F9185
:102E90000F91FF90EF9008950F93062F26E046E0E4
:102EA00060E0FC0180810E94A3150F910895EF92CC
:102EB000FF920F931F93CF93DF93EC01E0900601F5
:102EC000F09007018C010F5F1F4F26E046E061E0A4
:102ED00088810E9433158981DF91CF911F910F91D5
:102EE000FF90EF9008950F93062F26E046E061E0F3
:102EF000FC0180810E94A3150F910895EF92FF922B
:102F00000F931F93CF93DF93EC01E0900601F090B5
:102F100007018C010F5F1F4F26E046E062E08881C9
:102F20000E9433158981DF91CF911F910F91FF90FE
:102F3000EF9008950F93062F26E046E062E0FC0133
:102F400080810E94A3150F910895AB016AE0FC01F6
:102F500080810C944514AB0163E1FC0180810C94E9
:102F60004514AB0165E1FC0180810C944514AB0173
:102F700067E1FC0180810C944514262F47E06AE646
:102F8000FC0180810C94701521E043E06AE6FC01AD
:102F900080810C9470156F71211160624111606421
:102FA000462F6DE6FC0180810C94F713462F6EE6E8
:102FB000FC0180810C94F713CF93DF93EC012091F7
:102FC000060130910701AC014F5F5F4F6FE68881CA
:102FD0000E9404158981DF91CF9108955F926F92CD
:102FE0007F928F929F92AF92BF92CF92DF92EF9299
:102FF000FF920F931F93CF93DF937C015B016A01D4
:10300000622E702E20E040E0662D0E94CB17602FCC
:10301000C7010E94D617C0E0D0E0812C9924939478
:10302000CC15DD05A8F5CE014096C816D90618F4D2
:103030005C2C5C1A02C0A0E15A2E252D30E0C401A0
:10304000871991098217930714F4572C5194009112
:1030500006011091070195012C0F3D1F452D6FE6CC
:10306000F70180810E945714C50DD11D750CCC1538
:10307000DD05B0F6711001C0639420E040E0662DDC
:10308000C7010E94CB17672DC7010E94D617C8CF72
:10309000DF91CF911F910F91FF90EF90DF90CF9034
:1030A000BF90AF909F908F907F906F905F900895AA
:1030B0002F923F924F925F926F927F928F929F9248
:1030C000AF92BF92CF92DF92EF92FF920F931F9336
:1030D000CF93DF9300D000D01F92CDB7DEB79D8392
:1030E0008C837B836A834A01322ED02EE98220E0D2
:1030F00040E0632D0E94CB17602F8C819D810E9440
:10310000D617E980EE2029F080E190E00E94742437
:103110005C01CC2031F080E190E00E947424582EB4
:10312000492EE12CF12CE814F90408F07AC0C7010B
:1031300040968816990618F4282C2E1802C010E123
:10314000212E222D30E080E091E08D199109821727
:10315000930714F42D2C2194EA81FB81EE0DFF1DC1
:10316000CC2059F0852DA52DB42D9A2F981B9215A2
:1031700030F494919D933196F8CF5E2E4F2E252DED
:10318000342D422D6FE6AC81BD818C910E94BE131F
:10319000622C712CB981BB2369F1A114B10451F1E6
:1031A00020E040E0632D8C819D810E94CB176D2D26
:1031B0008C819D810E94D617009106011091070114
:1031C0009501422D6FE6EC81FD8180810E945714AC
:1031D000A301B501852D942D0E946A26892B51F0FB
:1031E000C5010E940C25CC2049F1852D942D0E940B
:1031F0000C2524C0E60CF71CD20CE814F90408F0E6
:1032000092CFD11001C0339420E040E0632D8C8137
:103210009D810E94CB176D2D8C819D810E94D617B8
:1032200082CFF981FF2319F0C5010E940C25CC2023
:1032300039F0852D942D0E940C2502C080E001C03C
:1032400081E00F900F900F900F900F90DF91CF9132
:103250001F910F91FF90EF90DF90CF90BF90AF90B4
:103260009F908F907F906F905F904F903F902F90A6
:103270000895CF92EF920F93CC24C3940E945818D4
:103280000F91EF90CF9008952F923F924F925F92BF
:103290006F927F928F929F92AF92BF92CF92DF9266
:1032A000EF92FF920F931F93CF93DF9300D01F9263
:1032B000CDB7DEB74C017B836A833A01D22E22233D
:1032C00031F088E090E00E947424182FF92E212C10
:1032D000312C2614370408F051C0EA81FB81E20D3D
:1032E000F31DC10103965C01DD20C1F04491F101A1
:1032F00031968A819B81E80FF91F0491F101329682
:10330000E80FF91F5490511044C0F4E02F0E311C07
:10331000EA81FB81EA0DFB1D84910DC04081018192
:103320005280EA81FB81E80FF91F51100DC084E043
:10333000280E311C80818130D1F442E368E3F4012E
:1033400080810E94F713C5CF1E2FFF2E452C512CD4
:10335000C12CEE24E394242FA201612F7F2DC40100
:103360000E94581812012A0C3B1C8111B2CFDD209B
:1033700061F0812F9F2D0E940C2507C0DD2039F0C0
:10338000812F9F2D0E940C2502C080E024C081E087
:1033900022C0252C312CF2E0F51548F4B101812F23
:1033A0009F2D49830E949B25182FF92E4981812F3B
:1033B0009F2DA0E0B0E02A813B812A0D3B1DA21584
:1033C000B30520F6F901EA0FFB1F5491FC0151935C
:1033D000CF011196F4CF0F900F900F90DF91CF9106
:1033E0001F910F91FF90EF90DF90CF90BF90AF9023
:1033F0009F908F907F906F905F904F903F902F9015
:10340000089521E00C944419462F60E7FC01808167
:103410000C94F713462F61E7FC0180810C94F7139D
:103420001F920F920FB60F9211242F933F938F93F9
:103430009F93AF93BF938091E2029091E302A0919A
:10344000E402B091E5023091E10223E0230F2D3731
:1034500020F40196A11DB11D05C026E8230F029698
:10346000A11DB11D2093E1028093E2029093E3023B
:10347000A093E402B093E5028091E6029091E70206
:10348000A091E802B091E9020196A11DB11D8093BF
:10349000E6029093E702A093E802B093E902BF919D
:1034A000AF919F918F913F912F910F900FBE0F90F1
:1034B0001F9018952FB7F8946091E2027091E30283
:1034C0008091E4029091E5022FBF08953FB7F894F0
:1034D0008091E6029091E702A091E802B091E902A2
:1034E00026B5A89B05C02F3F19F00196A11DB11D5F
:1034F0003FBF6627782F892F9A2F620F711D811D7C
:10350000911D42E0660F771F881F991F4A95D1F7DA
:1035100008958F929F92AF92BF92CF92DF92EF92D7
:10352000FF926B017C010E94661A4B015C01C11481
:10353000D104E104F104F1F00E94FB1F0E94661A1D
:10354000681979098A099B09683E734081059105CC
:1035500070F321E0C21AD108E108F10888EE880E64
:1035600083E0981EA11CB11CC114D104E104F10434
:1035700029F7DDCFFF90EF90DF90CF90BF90AF9015
:103580009F908F900895789484B5826084BD84B5AF
:10359000816084BD85B5826085BD85B5816085BD4E
:1035A000EEE6F0E0808181608083E1E8F0E0108267
:1035B000808182608083808181608083E0E8F0E0A8
:1035C000808181608083E1EBF0E080818460808392
:1035D000E0EBF0E0808181608083EAE7F0E08081C9
:1035E0008460808380818260808380818160808329
:1035F0008081806880831092C10008951F93CF93CB
:10360000DF93182FEB0161E00E94861B209711F4D5
:1036100060E004C0CF3FD10539F461E0812FDF9134
:10362000CF911F910C94BF1BE12FF0E0EF50F64FAC
:10363000E491E330F9F048F4E130B9F0E230A1F57B
:1036400084B5806284BDC8BD34C0E730E9F0E8309D
:1036500019F1E43049F58091800080628093800008
:10366000D0938B00C0938A0024C084B5806884BD49
:10367000C7BD1FC080918000806880938000D09378
:103680008900C093880015C08091B0008068809345
:10369000B000C093B3000DC08091B00080628093F1
:1036A000B000C093B40005C0C038D1050CF0B5CF50
:1036B000AFCFDF91CF911F910895833081F028F42F
:1036C000813099F08230A1F008958730A9F08830D8
:1036D000B9F08430D1F4809180008F7D03C0809157
:1036E00080008F7780938000089584B58F7702C023
:1036F00084B58F7D84BD08958091B0008F7703C01D
:103700008091B0008F7D8093B0000895CF93DF93B8
:1037100090E0FC01EB5FF54F2491FC01E75EF54F73
:103720008491882349F190E0880F991FFC01EF5B99
:10373000F54FA591B491895C954FFC01C591D49149
:103740009FB7611108C0F8948C91209582238C93C7
:10375000888182230AC0623051F4F8948C91322F10
:10376000309583238C938881822B888304C0F894BE
:103770008C91822B8C939FBFDF91CF9108950F93F3
:103780001F93CF93DF931F92CDB7DEB7282F30E082
:10379000F901EF50F64F8491F901EB5FF54F149169
:1037A000F901E75EF54F04910023C9F0882321F069
:1037B00069830E945D1B6981E02FF0E0EE0FFF1F1F
:1037C000E95CF54FA591B4919FB7F8948C91611184
:1037D00003C01095812301C0812B8C939FBF0F9054
:1037E000DF91CF911F910F9108950E9465261F923E
:1037F0000F920FB60F9211242F938F939F93EF93F5
:10380000FF93E091FA02F091FB028081E0910003C6
:10381000F091010382FD12C09081809103038F5FBC
:103820008F7320910403821751F0E0910303F0E0BD
:10383000E651FD4F958F8093030301C08081FF9176
:10384000EF919F918F912F910F900FBE0F901F902E
:1038500018951F920F920FB60F9211242F933F933A
:103860004F935F936F937F938F939F93AF93BF9388
:10387000EF93FF938AEE92E00E943720FF91EF9141
:10388000BF91AF919F918F917F916F915F914F9178
:103890003F912F910F900FBE0F901F9018958AEEB9
:1038A00092E00E94FC1F21E0892B09F420E0822F86
:1038B00008951092ED021092EC0288EE93E0A0E0E1
:1038C000B0E08093EE029093EF02A093F002B093E9
:1038D000F10283EB91E09093EB028093EA0285EC96
:1038E00090E09093F7028093F60284EC90E090933E
:1038F000F9028093F80280EC90E09093FB028093B1
:10390000FA0281EC90E09093FD028093FC0282EC3D
:1039100090E09093FF028093FE0286EC90E09093FB
:10392000010380930003109203031092040310928A
:10393000050310920603089508950E94C31A0E9479
:103940009C1C0E945205C9E2D0E20E948A05209781
:10395000E1F30E942920F9CF0C947424CF92DF92D6
:10396000EF92FF920F931F93CF93DF937C016A0135
:10397000EB0100E010E00C151D0571F06991D70115
:10398000ED91FC910190F081E02DC7010995892B03
:1039900019F00F5F1F4FEFCFC801DF91CF911F913B
:1039A0000F91FF90EF90DF90CF9008956115710512
:1039B00081F0DB010D900020E9F7AD014150510984
:1039C000461B570BDC01ED91FC910280F381E02D49
:1039D000099480E090E00895EF92FF920F931F9377
:1039E000CF93DF938C017B01C0E0D0E0F701EC0FB7
:1039F000FD1F6491662359F0F801A081B181ED911A
:103A0000FC91C8010995892B11F02196EFCFCE01C9
:103A1000DF91CF911F910F91FF90EF9008950C943B
:103A2000D61CDC01ED91FC910190F081E02D099410
:103A30006EE971E00C94D61C0F931F93CF93DF9324
:103A4000EC010E94EC1C8C01CE010E94181D800F1D
:103A5000911FDF91CF911F910F9108950F931F93A5
:103A6000CF93DF93EC010E94D61C8C01CE010E9403
:103A7000181D800F911FDF91CF911F910F91089515
:103A80008F929F92AF92BF92DF92EF92FF920F932D
:103A90001F93CF93DF93CDB7DEB7A1970FB6F894FE
:103AA000DEBF0FBECDBF7C01F42FD52ECB0119A2F6
:103AB000223008F42AE08E010F5D1F4F822E912CD8
:103AC000A12CB12C6F2F7D2DA50194010E94FF2305
:103AD000F22FD32ECA01015011096A3014F4E0E329
:103AE00001C0E7E3E60FD801EC93232B242B252B11
:103AF00049F7B801C7010E94D61CA1960FB6F894E9
:103B0000DEBF0FBECDBFDF91CF911F910F91FF9010
:103B1000EF90DF90BF90AF909F908F900895CF92DD
:103B2000DF92EF92FF920F931F93CF93DF93EC01FD
:103B30006A017B012115310579F4E881F981019051
:103B4000F081E02D642FDF91CF911F910F91FF90B5
:103B5000EF90DF90CF9009942A303105E9F477FF98
:103B60001AC06DE20E94111D8C0144275527BA012D
:103B70004C195D096E097F092AE0CE010E94401DA3
:103B8000800F911FDF91CF911F910F91FF90EF90C8
:103B9000DF90CF9008952AE0B701A601CE01DF9112
:103BA000CF911F910F91FF90EF90DF90CF900C94E9
:103BB000401D9A01AB01662757FD6095762F0C9446
:103BC0008F1D0F931F93CF93DF93EC010E948F1DE6
:103BD0008C01CE010E94181D800F911FDF91CF91A3
:103BE0001F910F9108952115310541F4DC01ED91EC
:103BF000FC910190F081E02D642F09940C94401DFC
:103C00009A01462F50E060E070E00C94F31D0F9392
:103C10001F93CF93DF93EC019A01AB0160E070E05A
:103C20000E94F31D8C01CE010E94181D800F911F70
:103C3000DF91CF911F910F9108954F925F926F92F4
:103C40007F928F929F92AF92BF92CF92DF92EF922C
:103C5000FF920F931F93CF93DF93EC016A017B01D7
:103C6000B22E9A01AB01C701B6010E94E723882357
:103C700019F061EA71E027C026013701E89477F86E
:103C80002FEF3FEF4FE75FE7C301B2010E94E72349
:103C900081110DC02FEF3FEF4FE75FE7C301B20186
:103CA0000E94A62118161CF465EA71E00CC02FEFE3
:103CB0003FEF4FE75FE4C701B6010E947623181675
:103CC000ACF469EA71E0CE01DF91CF911F910F91C1
:103CD000FF90EF90DF90CF90BF90AF909F908F902C
:103CE0007F906F905F904F900C94D61C2FEF3FEF1A
:103CF0004FE75FECC701B6010E94A62187FDE1CF27
:103D000020E030E0A901C701B6010E94A62187FF8B
:103D10000AC06DE2CE010E94111D8C01F7FAF094E9
:103D2000F7F8F09402C000E010E0A12C60E070E031
:103D300080E09FE3AB1441F020E030E040E251E44A
:103D40000E94AA21A394F6CF9B01AC01C701B60142
:103D50000E94E0206B017C010E9417222B013C0194
:103D60000E9443229B01AC01C701B6010E94DF20E3
:103D70006B017C012AE0B301A201CE010E94401D2B
:103D8000080F191FBB2039F06DEA71E0CE010E94C7
:103D9000D61C080F191F7B2C772041F120E030E062
:103DA00040E251E4C701B6010E9481236B017C010E
:103DB0000E9412224B01AA2497FCA094BA2C2AE05C
:103DC00030E0B501A401CE010E948F1D080F191F1C
:103DD000C501B4010E9445229B01AC01C701B60197
:103DE0000E94DF206B017C017A94D6CFC801DF915D
:103DF000CF911F910F91FF90EF90DF90CF90BF90E8
:103E0000AF909F908F907F906F905F904F900895AC
:103E10000F931F93CF93DF93EC010E941D1E8C0123
:103E2000CE010E94181D800F911FDF91CF911F912D
:103E30000F9108950F931F93CF93DF93EC010E948E
:103E40005A1A688779878A879B87E881F981008475
:103E5000F185E02DCE01099597FF15C00E945A1AF1
:103E6000088519852A853B85601B710B820B930B96
:103E70000C811D812E813F81601771078207930796
:103E800020F38FEF9FEFDF91CF911F910F91089556
:103E9000FF920F931F93CF93DF93EC018B01F42ECE
:103EA000CE010E941A1F9C0197FD28C08D329105FA
:103EB00019F1C0970A9710F1FF2019F02E32310541
:103EC000F9F001301105F9F00230110569F42D30D7
:103ED000310551F034F4295031092230310520F0F8
:103EE00012C02032310579F4E881F9810680F7812A
:103EF000E02DCE010995D4CF8DE203C0C90105C0E4
:103F00008EE290E002C08FEF9FEFDF91CF911F9183
:103F10000F91FF900895CF92DF92FF920F931F931E
:103F2000CF93DF9300D000D0CDB7DEB76C01042F64
:103F300040E00E94481FFC0197FD4BC020E030E0AC
:103F4000A901F12C112707FD1095E017F107E9F001
:103F5000ED32F105C1F0CF01C0970A97B0F4AAE0A5
:103F6000B0E00E9440249B01AC01CF01AA2797FD3D
:103F7000A095BA2F280F391F4A1F5B1F2053310904
:103F80004109510902C0FF24F394D601ED91FC913F
:103F90000680F781E02DC60129833A834B835C8339
:103FA0000995C6010E941A1FFC01C09729813A8118
:103FB0004B815C810A9748F2E017F10731F2FF204C
:103FC00061F066277727CB01621B730B840B950B7F
:103FD00006C060E070E0CB0102C0CA01B9010F90D9
:103FE0000F900F900F90DF91CF911F910F91FF9045
:103FF000DF90CF9008950895FC01818D228D90E08F
:10400000805C9F4F821B91098F7399270895FC0153
:10401000918D828D981731F0828DE80FF11D858D7D
:1040200090E008958FEF9FEF0895FC01918D828DB0
:10403000981761F0828DDF01A80FB11D5D968C91FC
:10404000928D9F5F9F73928F90E008958FEF9FEF07
:1040500008958FE49CE1892B49F080E090E0892B62
:1040600029F00E944F1C81110C9400000895FC015E
:10407000848DDF01A80FB11DA35ABF4F2C91848DF1
:1040800090E001968F739927848FA689B7892C9326
:10409000A089B1898C9180648C93938D848D9813C1
:1040A00006C00288F389E02D80818F7D808308958A
:1040B000CF93DF93EC01888D8823C9F0EA89FB89CF
:1040C000808185FD05C0A889B9898C9186FD0FC0C6
:1040D0000FB607FCF5CF808185FFF2CFA889B9899B
:1040E0008C9185FFEDCFCE010E943720E7CFDF9185
:1040F000CF910895CF92DF92FF920F931F93CF93AA
:10410000DF931F92CDB7DEB76C0181E0D6015896E0
:104110008C9358975B969C915B975C968C915C977F
:10412000981307C05096ED91FC915197808185FDC1
:104130002EC0F601038D10E00F5F1F4F0F73112784
:10414000F02EF601848DF81211C00FB607FCF9CFDE
:10415000D6015096ED91FC915197808185FFF1CF6A
:10416000C60169830E9437206981EBCF838DE80FF8
:10417000F11DE35AFF4F6083D6015B960C935B976A
:104180005296ED91FC915397808180620CC0D601CC
:104190005696ED91FC91579760835096ED91FC9166
:1041A000519780818064808381E090E00F90DF915F
:1041B000CF911F910F91FF90DF90CF9008955058AD
:1041C000BB27AA270ED058C249D230F04ED220F0D9
:1041D00031F49F3F11F41EF419C20EF4E095E7FB91
:1041E00001C2E92F5AD280F3BA1762077307840716
:1041F000950718F071F49EF572C20EF4E0950B2E3F
:10420000BA2FA02D0B01B90190010C01CA01A00128
:104210001124FF27591B99F0593F50F4503E68F183
:104220001A16F040A22F232F342F4427585FF3CFC4
:10423000469537952795A795F0405395C9F77EF495
:104240001F16BA0B620B730B840BBAF09150A1F0DE
:10425000FF0FBB1F661F771F881FC2F70EC0BA0F64
:10426000621F731F841F48F4879577956795B795EC
:10427000F7959E3F08F0B3CF9395880F08F09927E4
:10428000EE0F979587950895E9D158F080E891E071
:1042900009F49EEFEAD128F040E851E059F45EEFCE
:1042A00009C0B4C11CC2E92FE078F7D168F3092E28
:1042B000052AC1F3261737074807590738F00E2E8D
:1042C00007F8E02569F0E025E0640AC0EF6307F82D
:1042D000009407FADB01B9019D01DC01CA01AD01BF
:1042E000EF9347D0C9D10AD05F91552331F02BED20
:1042F0003FE049E450FD49EC63CF0895DF93DD27AB
:10430000B92FBF7740E85FE31616170648075B072B
:1043100010F4D92FEFD19F938F937F936F9354D243
:10432000E8E6F0E076D1A8D12F913F914F915F91CF
:10433000F4D1DD2349F09058A2EA2AED3FE049ECA0
:104340005FE3D0785D274DDFDF9196C127D108F478
:1043500081E008950CD090C188D140F07FD130F039
:1043600021F45F3F19F03EC15111BAC14FC195D13F
:1043700098F39923C9F35523B1F3951B550BBB272C
:10438000AA2762177307840738F09F5F5F4F220FD9
:10439000331F441FAA1FA9F333D00E2E3AF0E0E8D2
:1043A00030D091505040E695001CCAF729D0FE2F1E
:1043B00027D0660F771F881FBB1F261737074807B0
:1043C000AB07B0E809F0BB0B802DBF01FF27935866
:1043D0005F4F2AF09E3F510568F004C181C15F3FE5
:1043E000ECF3983EDCF3869577956795B795F7954E
:1043F0009F5FC9F7880F911D9695879597F9089546
:10440000E1E0660F771F881FBB1F621773078407E1
:10441000BA0720F0621B730B840BBA0BEE1F88F7F0
:10442000E095089504D06894B1115AC108953DD122
:1044300088F09F5790F0B92F9927B751A0F0D1F08D
:10444000660F771F881F991F1AF0BA95C9F712C017
:10445000B13081F044D1B1E0089541C1672F782F88
:104460008827B85F39F0B93FCCF386957795679583
:10447000B395D9F73EF490958095709561957F4FEF
:104480008F4F9F4F0895E89409C097FB3EF4909595
:104490008095709561957F4F8F4F9F4F9923A9F01D
:1044A000F92F96E9BB279395F695879577956795AC
:1044B000B795F111F8CFFAF4BB0F11F460FF1BC0F0
:1044C0006F5F7F4F8F4F9F4F16C0882311F096E983
:1044D00011C0772321F09EE8872F762F05C0662331
:1044E00071F096E8862F70E060E02AF09A95660FEA
:1044F000771F881FDAF7880F9695879597F90895A3
:10450000ADD018F011F0B1D038F480C0E9C0E92F77
:10451000C4D0B0F35523C9F3E7FB621773078407D0
:104520009507A8F199F3E92FFF2788232AF03197FF
:10453000660F771F881FDAF7952F5527442332F02F
:1045400091505040220F331F441FD2F7BB27E91B65
:10455000F50B621B730B840BB109C1F222F4620FDD
:10456000731F841FB11D31972AF0660F771F881FB4
:10457000BB1FEFCF915050405AF041F0882332F0EA
:10458000660F771F881F91505040C1F7939530C038
:104590008695779567959F5FD9F7F8CF990F0008B3
:1045A000550FAA0BE0E8FEEF16161706E807F90705
:1045B000C0F012161306E407F50798F0621B730BA0
:1045C000840B950B39F40A2661F0232B242B252B21
:1045D00021F408950A2609F4A140A6958FEF811DC4
:1045E000811D089597F99F6780E870E060E0089565
:1045F0009F3F31F0915020F4879577956795B79557
:10460000880F911D9695879597F908959FEF80ECF7
:104610000895DF93CF931F930F93FF92EF92DF9252
:104620007B018C01689405C0DA2EEF0176D0FE0183
:10463000E894A5912591359145915591AEF3EF01FF
:10464000D0DDFE019701A801DA9479F7DF90EF90B1
:10465000FF900F911F91CF91DF91089500240A944C
:104660001616170618060906089500240A9412164D
:104670001306140605060895092E0394000C11F480
:10468000882352F0BB0F40F4BF2B11F460FF04C02D
:104690006F5F7F4F8F4F9F4F089557FD9058440F86
:1046A000551F59F05F3F71F04795880F97FB991F91
:1046B00061F09F3F79F0879508951216130614064E
:1046C000551FF2CF4695F1DF08C0161617061806DB
:1046D000991FF1CF86957105610508940895E894B6
:1046E000BB2766277727CB0197F9089557DF08F492
:1046F0008FEF08959B01AC0160E070E080E89FE3DC
:1047000029CE0BD0B9CFAADF28F0AFDF18F0952360
:1047100009F068CF7BCF1124E3CFBFDFA0F3959FD3
:10472000D1F3950F50E0551F629FF001729FBB2798
:10473000F00DB11D639FAA27F00DB11DAA1F649F44
:104740006627B00DA11D661F829F2227B00DA11DF7
:10475000621F739FB00DA11D621F839FA00D611D7D
:10476000221F749F3327A00D611D231F849F600D9E
:10477000211D822F762F6A2F11249F5750408AF0D7
:10478000E1F088234AF0EE0FFF1FBB1F661F771F63
:10479000881F91505040A9F79E3F510570F022CFDD
:1047A0009FCF5F3FECF3983EDCF386957795679556
:1047B000B795F795E7959F5FC1F7FE2B880F911D81
:1047C0009695879597F908959B01AC019ACFE6DEFF
:1047D000880B990B089597FB072E16F4009407D0C9
:1047E00077FD09D00E944B2407FC05D03EF490953C
:1047F00081959F4F0895709561957F4F0895A1E22F
:104800001A2EAA1BBB1BFD010DC0AA1FBB1FEE1F4A
:10481000FF1FA217B307E407F50720F0A21BB30B95
:10482000E40BF50B661F771F881F991F1A9469F711
:1048300060957095809590959B01AC01BD01CF016D
:104840000895052E97FB1EF400940E94382457FD0E
:1048500007D00E94FF2307FC03D04EF40C943824A9
:1048600050954095309521953F4F4F4F5F4F08959C
:1048700090958095709561957F4F8F4F9F4F0895CC
:104880000E946524A59F900DB49F900DA49F800D5C
:10489000911D11240895AA1BBB1B51E107C0AA1F3B
:1048A000BB1FA617B70710F0A61BB70B881F991FD1
:1048B0005A95A9F780959095BC01CD010895EE0F0A
:1048C000FF1F0590F491E02D0994A29FB001B39FC2
:1048D000C001A39F700D811D1124911DB29F700D09
:1048E000811D1124911D0895CF93DF93823091058E
:1048F00010F482E090E0E0918903F0918A0320E0D7
:1049000030E0A0E0B0E0309739F1408151814817A4
:104910005907B8F04817590771F4828193811097AD
:1049200029F013969C938E9312972CC090938A0330
:104930008093890327C02115310531F042175307B1
:1049400018F0A901DB0101C0EF019A01BD01DF01EF
:104950000280F381E02DD7CF21153105F9F0281B16
:10496000390B2430310580F48A819B8161157105F2
:1049700021F0FB019383828304C090938A03809388
:104980008903FE01329644C0FE01E20FF31F8193BA
:10499000919322503109398328833AC020918703AB
:1049A00030918803232B41F42091020130910301BF
:1049B00030938803209387032091000130910101F7
:1049C0002115310541F42DB73EB7409104015091B6
:1049D0000501241B350BE0918703F0918803E21752
:1049E000F307A0F42E1B3F0B2817390778F0AC0112
:1049F0004E5F5F4F2417350748F04E0F5F1F5093EF
:104A00008803409387038193919302C0E0E0F0E034
:104A1000CF01DF91CF910895CF93DF93009709F4F1
:104A200087C0FC01329713821282C0918903D09112
:104A30008A03209781F420813181280F391F8091CA
:104A40008703909188038217930779F5F093880381
:104A5000E09387036DC0DE0120E030E0AE17BF07B2
:104A600050F412964D915C9113979D01411551059B
:104A700009F1DA01F3CFB383A28340815181840F1E
:104A8000951F8A179B0771F48D919C911197840F44
:104A9000951F02969183808312968D919C91139716
:104AA000938382832115310529F4F0938A03E093DF
:104AB00089033EC0D9011396FC93EE9312974D9152
:104AC0005D91A40FB51FEA17FB0779F480819181EE
:104AD000840F951F0296D90111969C938E93828123
:104AE000938113969C938E931297E0E0F0E08A8175
:104AF0009B81009719F0FE01EC01F9CFCE010296DF
:104B000028813981820F931F209187033091880378
:104B10002817390769F4309729F410928A03109204
:104B2000890302C013821282D0938803C093870343
:104B3000DF91CF910895A0E0B0E0E1EAF5E20C94B6
:104B40008426EC01CB01209719F40E947424B8C08C
:104B5000FE01E60FF71F9E0122503109E217F3070D
:104B600008F4ACC0D9010D911C91119706171707D5
:104B7000B8F00530110508F49FC0A8014450510950
:104B80004617570708F498C002501109061B170B67
:104B9000019311936D937C93CF010E940C258CC0DF
:104BA0005B01A01AB10A4E01800E911EA0918903EB
:104BB000B0918A03612C712C60E070E0109709F4C9
:104BC00049C0A815B905C9F5ED90FC90119767018A
:104BD00042E0C40ED11CCA14DB0478F147018A18E4
:104BE0009B08640142E0C40ED11C1296BC9012973F
:104BF0001396AC91B5E0CB16D10440F0B282A383FA
:104C000091828082D9018D939C9309C00E5F1F4FC2
:104C10000E0D1F1DF90111830083EB2DFA2F611575
:104C2000710531F0DB011396FC93EE93129744C0AB
:104C3000F0938A03E09389033FC06D917C911197B3
:104C40006616770608F43B01BD0112960D90BC91E3
:104C5000A02DB4CF60918703709188036815790502
:104C6000E9F468167906D0F44091000150910101F1
:104C70004115510541F44DB75EB760910401709143
:104C80000501461B570BE417F507C0F4F0938803A2
:104C9000E0938703F901918380830EC00E947424FE
:104CA0007C01009759F0A801BE010E947726CE0131
:104CB0000E940C25C70104C0CE0102C080E090E034
:104CC000CDB7DEB7EEE00C94A02681E090E0F8943A
:104CD0000C94B726FB01DC0104C08D910190801972
:104CE00021F441505040C8F7881B990B0895FB01EF
:104CF000DC0102C001900D9241505040D8F7089558
:104D00002F923F924F925F926F927F928F929F92DB
:104D1000AF92BF92CF92DF92EF92FF920F931F93C9
:104D2000CF93DF93CDB7DEB7CA1BDB0B0FB6F8947A
:104D3000DEBF0FBECDBF09942A88398848885F84BA
:104D40006E847D848C849B84AA84B984C884DF802B
:104D5000EE80FD800C811B81AA81B981CE0FD11D0F
:104D60000FB6F894DEBF0FBECDBFED010895F894E5
:024D7000FFCF73
:104D720000008B038000E8030A67696D6D6520619E
:104D8200206465677265653A20000A09636F6D7079
:104D92006173733A20000000000078064B0620067B
:104DA20028063B064A06000000007D09AE1CE80901
:104DB2005C09D009CF097061636B65742073697AED
:104DC200653A200000000000000CC90B616E676CA0
:104DD20065446966663A2000737465704469666664
:104DE2003A20006B3A20006E3A200074696D653AF1
:104DF2002000000000007813AE1C48135413601307
:104E02006C1300000000F51B00000000F5150D0AF0
:104E1200006E616E00696E66006F7666002E00009D
:104E22000000007A20AE1CFC1F152007205820002D
:00000001FF
